{
  "contractName": "EternumCoin",
  "abi": [
    {
      "inputs": [
        {
          "internalType": "contract Oraculum",
          "name": "oraculumAddress",
          "type": "address"
        }
      ],
      "stateMutability": "nonpayable",
      "type": "constructor"
    },
    {
      "anonymous": false,
      "inputs": [
        {
          "indexed": true,
          "internalType": "address",
          "name": "owner",
          "type": "address"
        },
        {
          "indexed": true,
          "internalType": "address",
          "name": "spender",
          "type": "address"
        },
        {
          "indexed": false,
          "internalType": "uint256",
          "name": "value",
          "type": "uint256"
        }
      ],
      "name": "Approval",
      "type": "event"
    },
    {
      "anonymous": false,
      "inputs": [
        {
          "indexed": false,
          "internalType": "uint256",
          "name": "balance",
          "type": "uint256"
        }
      ],
      "name": "CheckECBalance",
      "type": "event"
    },
    {
      "anonymous": false,
      "inputs": [
        {
          "indexed": false,
          "internalType": "address",
          "name": "to",
          "type": "address"
        },
        {
          "indexed": false,
          "internalType": "uint256",
          "name": "amount",
          "type": "uint256"
        }
      ],
      "name": "GetEC",
      "type": "event"
    },
    {
      "anonymous": false,
      "inputs": [
        {
          "indexed": true,
          "internalType": "address",
          "name": "to",
          "type": "address"
        },
        {
          "indexed": false,
          "internalType": "uint256",
          "name": "amount",
          "type": "uint256"
        }
      ],
      "name": "Mint",
      "type": "event"
    },
    {
      "anonymous": false,
      "inputs": [],
      "name": "MintFinished",
      "type": "event"
    },
    {
      "anonymous": false,
      "inputs": [
        {
          "indexed": true,
          "internalType": "address",
          "name": "from",
          "type": "address"
        },
        {
          "indexed": true,
          "internalType": "address",
          "name": "to",
          "type": "address"
        },
        {
          "indexed": false,
          "internalType": "uint256",
          "name": "value",
          "type": "uint256"
        }
      ],
      "name": "Transfer",
      "type": "event"
    },
    {
      "inputs": [
        {
          "internalType": "address",
          "name": "_owner",
          "type": "address"
        },
        {
          "internalType": "address",
          "name": "_spender",
          "type": "address"
        }
      ],
      "name": "allowance",
      "outputs": [
        {
          "internalType": "uint256",
          "name": "",
          "type": "uint256"
        }
      ],
      "stateMutability": "view",
      "type": "function"
    },
    {
      "inputs": [
        {
          "internalType": "address",
          "name": "_spender",
          "type": "address"
        },
        {
          "internalType": "uint256",
          "name": "_value",
          "type": "uint256"
        }
      ],
      "name": "approve",
      "outputs": [
        {
          "internalType": "bool",
          "name": "",
          "type": "bool"
        }
      ],
      "stateMutability": "nonpayable",
      "type": "function"
    },
    {
      "inputs": [
        {
          "internalType": "address",
          "name": "_owner",
          "type": "address"
        }
      ],
      "name": "balanceOf",
      "outputs": [
        {
          "internalType": "uint256",
          "name": "",
          "type": "uint256"
        }
      ],
      "stateMutability": "view",
      "type": "function"
    },
    {
      "inputs": [],
      "name": "decimals",
      "outputs": [
        {
          "internalType": "uint8",
          "name": "",
          "type": "uint8"
        }
      ],
      "stateMutability": "view",
      "type": "function"
    },
    {
      "inputs": [],
      "name": "finishMinting",
      "outputs": [
        {
          "internalType": "bool",
          "name": "",
          "type": "bool"
        }
      ],
      "stateMutability": "nonpayable",
      "type": "function"
    },
    {
      "inputs": [],
      "name": "getOwner",
      "outputs": [
        {
          "internalType": "address",
          "name": "",
          "type": "address"
        }
      ],
      "stateMutability": "view",
      "type": "function"
    },
    {
      "inputs": [
        {
          "internalType": "address",
          "name": "_to",
          "type": "address"
        },
        {
          "internalType": "uint256",
          "name": "_amount",
          "type": "uint256"
        }
      ],
      "name": "mint",
      "outputs": [
        {
          "internalType": "bool",
          "name": "",
          "type": "bool"
        }
      ],
      "stateMutability": "nonpayable",
      "type": "function"
    },
    {
      "inputs": [],
      "name": "mintingFinished",
      "outputs": [
        {
          "internalType": "bool",
          "name": "",
          "type": "bool"
        }
      ],
      "stateMutability": "view",
      "type": "function"
    },
    {
      "inputs": [],
      "name": "name",
      "outputs": [
        {
          "internalType": "string",
          "name": "",
          "type": "string"
        }
      ],
      "stateMutability": "view",
      "type": "function"
    },
    {
      "inputs": [],
      "name": "owner",
      "outputs": [
        {
          "internalType": "address",
          "name": "",
          "type": "address"
        }
      ],
      "stateMutability": "view",
      "type": "function"
    },
    {
      "inputs": [],
      "name": "symbol",
      "outputs": [
        {
          "internalType": "string",
          "name": "",
          "type": "string"
        }
      ],
      "stateMutability": "view",
      "type": "function"
    },
    {
      "inputs": [],
      "name": "totalSupply",
      "outputs": [
        {
          "internalType": "uint256",
          "name": "",
          "type": "uint256"
        }
      ],
      "stateMutability": "view",
      "type": "function"
    },
    {
      "inputs": [
        {
          "internalType": "address",
          "name": "_to",
          "type": "address"
        },
        {
          "internalType": "uint256",
          "name": "_value",
          "type": "uint256"
        }
      ],
      "name": "transfer",
      "outputs": [
        {
          "internalType": "bool",
          "name": "",
          "type": "bool"
        }
      ],
      "stateMutability": "nonpayable",
      "type": "function"
    },
    {
      "inputs": [
        {
          "internalType": "address",
          "name": "_from",
          "type": "address"
        },
        {
          "internalType": "address",
          "name": "_to",
          "type": "address"
        },
        {
          "internalType": "uint256",
          "name": "_value",
          "type": "uint256"
        }
      ],
      "name": "transferFrom",
      "outputs": [
        {
          "internalType": "bool",
          "name": "",
          "type": "bool"
        }
      ],
      "stateMutability": "nonpayable",
      "type": "function"
    },
    {
      "inputs": [],
      "name": "getEC",
      "outputs": [],
      "stateMutability": "payable",
      "type": "function"
    },
    {
      "inputs": [
        {
          "internalType": "address",
          "name": "sender",
          "type": "address"
        }
      ],
      "name": "checkECBalance",
      "outputs": [
        {
          "internalType": "uint256",
          "name": "",
          "type": "uint256"
        }
      ],
      "stateMutability": "nonpayable",
      "type": "function"
    },
    {
      "inputs": [
        {
          "internalType": "address",
          "name": "from",
          "type": "address"
        },
        {
          "internalType": "address",
          "name": "to",
          "type": "address"
        },
        {
          "internalType": "uint256",
          "name": "amount",
          "type": "uint256"
        }
      ],
      "name": "transferEC",
      "outputs": [],
      "stateMutability": "nonpayable",
      "type": "function"
    }
  ],
  "bytecode": "0x608060405260008060006101000a81548160ff02191690831515021790555033600060016101000a81548173ffffffffffffffffffffffffffffffffffffffff021916908373ffffffffffffffffffffffffffffffffffffffff1602179055503480156200006c57600080fd5b50604051620018c2380380620018c2833981810160405281019062000092919062000199565b80600460006101000a81548173ffffffffffffffffffffffffffffffffffffffff021916908373ffffffffffffffffffffffffffffffffffffffff16021790555033600060016101000a81548173ffffffffffffffffffffffffffffffffffffffff021916908373ffffffffffffffffffffffffffffffffffffffff16021790555050620001cb565b600080fd5b600073ffffffffffffffffffffffffffffffffffffffff82169050919050565b60006200014d8262000120565b9050919050565b6000620001618262000140565b9050919050565b620001738162000154565b81146200017f57600080fd5b50565b600081519050620001938162000168565b92915050565b600060208284031215620001b257620001b16200011b565b5b6000620001c28482850162000182565b91505092915050565b6116e780620001db6000396000f3fe6080604052600436106100fe5760003560e01c806370a082311161009557806394519cb41161006457806394519cb41461034d57806395d89b411461038a578063a84e28eb146103b5578063a9059cbb146103bf578063dd62ed3e146103fc576100fe565b806370a082311461028f5780637d64bcb4146102cc578063893d20e8146102f75780638da5cb5b14610322576100fe565b806323b872dd116100d157806323b872dd146101c1578063313ce567146101fe57806340c10f19146102295780635622e6e214610266576100fe565b806305d2035b1461010357806306fdde031461012e578063095ea7b31461015957806318160ddd14610196575b600080fd5b34801561010f57600080fd5b50610118610439565b604051610125919061105d565b60405180910390f35b34801561013a57600080fd5b5061014361044a565b6040516101509190611108565b60405180910390f35b34801561016557600080fd5b50610180600480360381019061017b91906111c3565b610483565b60405161018d919061105d565b60405180910390f35b3480156101a257600080fd5b506101ab610575565b6040516101b89190611212565b60405180910390f35b3480156101cd57600080fd5b506101e860048036038101906101e3919061122d565b61057f565b6040516101f5919061105d565b60405180910390f35b34801561020a57600080fd5b506102136107d5565b604051610220919061129c565b60405180910390f35b34801561023557600080fd5b50610250600480360381019061024b91906111c3565b6107da565b60405161025d919061105d565b60405180910390f35b34801561027257600080fd5b5061028d6004803603810190610288919061122d565b61094a565b005b34801561029b57600080fd5b506102b660048036038101906102b191906112b7565b61095b565b6040516102c39190611212565b60405180910390f35b3480156102d857600080fd5b506102e16109a4565b6040516102ee919061105d565b60405180910390f35b34801561030357600080fd5b5061030c610a64565b60405161031991906112f3565b60405180910390f35b34801561032e57600080fd5b50610337610a8d565b60405161034491906112f3565b60405180910390f35b34801561035957600080fd5b50610374600480360381019061036f91906112b7565b610ab3565b6040516103819190611212565b60405180910390f35b34801561039657600080fd5b5061039f610b01565b6040516103ac9190611108565b60405180910390f35b6103bd610b3a565b005b3480156103cb57600080fd5b506103e660048036038101906103e191906111c3565b610d18565b6040516103f3919061105d565b60405180910390f35b34801561040857600080fd5b50610423600480360381019061041e919061130e565b610f6d565b6040516104309190611212565b60405180910390f35b60008054906101000a900460ff1681565b6040518060400160405280600f81526020017f4c6971756964697461734552433230000000000000000000000000000000000081525081565b600081600160003373ffffffffffffffffffffffffffffffffffffffff1673ffffffffffffffffffffffffffffffffffffffff16815260200190815260200160002060008573ffffffffffffffffffffffffffffffffffffffff1673ffffffffffffffffffffffffffffffffffffffff168152602001908152602001600020819055508273ffffffffffffffffffffffffffffffffffffffff163373ffffffffffffffffffffffffffffffffffffffff167f8c5be1e5ebec7d5bd14f71427d1e84f3dd0314c0f7b2291e5b200ac8c7c3b925846040516105639190611212565b60405180910390a36001905092915050565b6000600354905090565b60008073ffffffffffffffffffffffffffffffffffffffff168373ffffffffffffffffffffffffffffffffffffffff16036105b957600080fd5b600260008573ffffffffffffffffffffffffffffffffffffffff1673ffffffffffffffffffffffffffffffffffffffff1681526020019081526020016000205482111561063b576040517f08c379a00000000000000000000000000000000000000000000000000000000081526004016106329061139a565b60405180910390fd5b61068d82600260008773ffffffffffffffffffffffffffffffffffffffff1673ffffffffffffffffffffffffffffffffffffffff16815260200190815260200160002054610ff490919063ffffffff16565b600260008673ffffffffffffffffffffffffffffffffffffffff1673ffffffffffffffffffffffffffffffffffffffff1681526020019081526020016000208190555061072282600260008673ffffffffffffffffffffffffffffffffffffffff1673ffffffffffffffffffffffffffffffffffffffff1681526020019081526020016000205461101b90919063ffffffff16565b600260008573ffffffffffffffffffffffffffffffffffffffff1673ffffffffffffffffffffffffffffffffffffffff168152602001908152602001600020819055508273ffffffffffffffffffffffffffffffffffffffff168473ffffffffffffffffffffffffffffffffffffffff167fddf252ad1be2c89b69c2b068fc378daa952ba7f163c4a11628f55a4df523b3ef846040516107c29190611212565b60405180910390a3600190509392505050565b601281565b60006107f18260035461101b90919063ffffffff16565b60038190555061084982600260008673ffffffffffffffffffffffffffffffffffffffff1673ffffffffffffffffffffffffffffffffffffffff1681526020019081526020016000205461101b90919063ffffffff16565b600260008573ffffffffffffffffffffffffffffffffffffffff1673ffffffffffffffffffffffffffffffffffffffff168152602001908152602001600020819055508273ffffffffffffffffffffffffffffffffffffffff167f0f6798a560793a54c3bcfe86a93cde1e73087d944c0ea20544137d4121396885836040516108d29190611212565b60405180910390a28273ffffffffffffffffffffffffffffffffffffffff16600073ffffffffffffffffffffffffffffffffffffffff167fddf252ad1be2c89b69c2b068fc378daa952ba7f163c4a11628f55a4df523b3ef846040516109389190611212565b60405180910390a36001905092915050565b61095583838361057f565b50505050565b6000600260008373ffffffffffffffffffffffffffffffffffffffff1673ffffffffffffffffffffffffffffffffffffffff168152602001908152602001600020549050919050565b60008060019054906101000a900473ffffffffffffffffffffffffffffffffffffffff1673ffffffffffffffffffffffffffffffffffffffff163373ffffffffffffffffffffffffffffffffffffffff16146109ff57600080fd5b60008054906101000a900460ff1615610a1757600080fd5b60016000806101000a81548160ff0219169083151502179055507fae5184fba832cb2b1f702aca6117b8d265eaf03ad33eb133f19dde0f5920fa0860405160405180910390a16001905090565b60008060019054906101000a900473ffffffffffffffffffffffffffffffffffffffff16905090565b600060019054906101000a900473ffffffffffffffffffffffffffffffffffffffff1681565b600080610abf8361095b565b90507fadb6fac0515ca2b061b9408250c93d5acd3fb44b6d7dc3d0cdbffc2493784d5a81604051610af09190611212565b60405180910390a180915050919050565b6040518060400160405280600a81526020017f4c6971756964697461730000000000000000000000000000000000000000000081525081565b66038d7ea4c68000600460009054906101000a900473ffffffffffffffffffffffffffffffffffffffff1673ffffffffffffffffffffffffffffffffffffffff1663c41c576a6040518163ffffffff1660e01b8152600401602060405180830381865afa158015610baf573d6000803e3d6000fd5b505050506040513d601f19601f82011682018060405250810190610bd391906113cf565b610bdd919061142b565b341015610c1f576040517f08c379a0000000000000000000000000000000000000000000000000000000008152600401610c16906114df565b60405180910390fd5b600066038d7ea4c68000600460009054906101000a900473ffffffffffffffffffffffffffffffffffffffff1673ffffffffffffffffffffffffffffffffffffffff1663c41c576a6040518163ffffffff1660e01b8152600401602060405180830381865afa158015610c96573d6000803e3d6000fd5b505050506040513d601f19601f82011682018060405250810190610cba91906113cf565b610cc4919061142b565b34610ccf919061152e565b9050610cdb33826107da565b507fa5c877336f0b89155b370b354dcb51c28df80db6be731479e1b6c9c430ae245d3382604051610d0d92919061155f565b60405180910390a150565b60008073ffffffffffffffffffffffffffffffffffffffff168373ffffffffffffffffffffffffffffffffffffffff1603610d5257600080fd5b600260003273ffffffffffffffffffffffffffffffffffffffff1673ffffffffffffffffffffffffffffffffffffffff16815260200190815260200160002054821115610dd4576040517f08c379a0000000000000000000000000000000000000000000000000000000008152600401610dcb906115fa565b60405180910390fd5b610e2682600260003273ffffffffffffffffffffffffffffffffffffffff1673ffffffffffffffffffffffffffffffffffffffff16815260200190815260200160002054610ff490919063ffffffff16565b600260003273ffffffffffffffffffffffffffffffffffffffff1673ffffffffffffffffffffffffffffffffffffffff16815260200190815260200160002081905550610ebb82600260008673ffffffffffffffffffffffffffffffffffffffff1673ffffffffffffffffffffffffffffffffffffffff1681526020019081526020016000205461101b90919063ffffffff16565b600260008573ffffffffffffffffffffffffffffffffffffffff1673ffffffffffffffffffffffffffffffffffffffff168152602001908152602001600020819055508273ffffffffffffffffffffffffffffffffffffffff163273ffffffffffffffffffffffffffffffffffffffff167fddf252ad1be2c89b69c2b068fc378daa952ba7f163c4a11628f55a4df523b3ef84604051610f5b9190611212565b60405180910390a36001905092915050565b6000600160008473ffffffffffffffffffffffffffffffffffffffff1673ffffffffffffffffffffffffffffffffffffffff16815260200190815260200160002060008373ffffffffffffffffffffffffffffffffffffffff1673ffffffffffffffffffffffffffffffffffffffff16815260200190815260200160002054905092915050565b6000828211156110075761100661161a565b5b81836110139190611649565b905092915050565b60008183611029919061167d565b90508281101561103c5761103b61161a565b5b92915050565b60008115159050919050565b61105781611042565b82525050565b6000602082019050611072600083018461104e565b92915050565b600081519050919050565b600082825260208201905092915050565b60005b838110156110b2578082015181840152602081019050611097565b60008484015250505050565b6000601f19601f8301169050919050565b60006110da82611078565b6110e48185611083565b93506110f4818560208601611094565b6110fd816110be565b840191505092915050565b6000602082019050818103600083015261112281846110cf565b905092915050565b600080fd5b600073ffffffffffffffffffffffffffffffffffffffff82169050919050565b600061115a8261112f565b9050919050565b61116a8161114f565b811461117557600080fd5b50565b60008135905061118781611161565b92915050565b6000819050919050565b6111a08161118d565b81146111ab57600080fd5b50565b6000813590506111bd81611197565b92915050565b600080604083850312156111da576111d961112a565b5b60006111e885828601611178565b92505060206111f9858286016111ae565b9150509250929050565b61120c8161118d565b82525050565b60006020820190506112276000830184611203565b92915050565b6000806000606084860312156112465761124561112a565b5b600061125486828701611178565b935050602061126586828701611178565b9250506040611276868287016111ae565b9150509250925092565b600060ff82169050919050565b61129681611280565b82525050565b60006020820190506112b1600083018461128d565b92915050565b6000602082840312156112cd576112cc61112a565b5b60006112db84828501611178565b91505092915050565b6112ed8161114f565b82525050565b600060208201905061130860008301846112e4565b92915050565b600080604083850312156113255761132461112a565b5b600061133385828601611178565b925050602061134485828601611178565b9150509250929050565b7f46726f6d20646f65736e2774206861766520656e6f7567682062616c616e6365600082015250565b6000611384602083611083565b915061138f8261134e565b602082019050919050565b600060208201905081810360008301526113b381611377565b9050919050565b6000815190506113c981611197565b92915050565b6000602082840312156113e5576113e461112a565b5b60006113f3848285016113ba565b91505092915050565b7f4e487b7100000000000000000000000000000000000000000000000000000000600052601160045260246000fd5b60006114368261118d565b91506114418361118d565b925082820261144f8161118d565b91508282048414831517611466576114656113fc565b5b5092915050565b7f496e73756666696369656e7420455448206e656564656420746f20676574203160008201527f2045432100000000000000000000000000000000000000000000000000000000602082015250565b60006114c9602483611083565b91506114d48261146d565b604082019050919050565b600060208201905081810360008301526114f8816114bc565b9050919050565b7f4e487b7100000000000000000000000000000000000000000000000000000000600052601260045260246000fd5b60006115398261118d565b91506115448361118d565b925082611554576115536114ff565b5b828204905092915050565b600060408201905061157460008301856112e4565b6115816020830184611203565b9392505050565b7f6d73672e73656e64657220646f65736e2774206861766520656e6f756768206260008201527f616c616e63650000000000000000000000000000000000000000000000000000602082015250565b60006115e4602683611083565b91506115ef82611588565b604082019050919050565b60006020820190508181036000830152611613816115d7565b9050919050565b7f4e487b7100000000000000000000000000000000000000000000000000000000600052600160045260246000fd5b60006116548261118d565b915061165f8361118d565b9250828203905081811115611677576116766113fc565b5b92915050565b60006116888261118d565b91506116938361118d565b92508282019050808211156116ab576116aa6113fc565b5b9291505056fea26469706673582212202a05235a9a8b2b56296855e053595c6e99394b7952ad40f51899eaa607f5e4b764736f6c63430008110033",
  "immutableReferences": {},
  "source": "// SPDX-License-Identifier: MIT\npragma solidity ^0.8.17;\n\nimport \"./ERC20.sol\";\nimport \"./Oraculum.sol\";\n\ncontract EternumCoin is ERC20 {\n\n    Oraculum oraculumInstance;\n    // ERC20 erc20Instance;\n    // address owner;\n\n    event GetEC(address to, uint256 amount);\n    event CheckECBalance(uint256 balance);\n\n    constructor(Oraculum oraculumAddress) {\n        // erc20Instance = new ERC20();\n        oraculumInstance = oraculumAddress;\n        owner = msg.sender;\n    }\n\n    function getEC() public payable {\n        require(msg.value >= oraculumInstance.queryCurrentECValue() * 1E15, \"Insufficient ETH needed to get 1 EC!\");\n\n        uint256 amount = msg.value / (oraculumInstance.queryCurrentECValue() * 1E15);\n        mint(msg.sender, amount);\n\n        emit GetEC(msg.sender, amount);\n    }\n\n    function checkECBalance(address sender) public returns(uint256) {\n        uint256 balance = balanceOf(sender);\n\n        emit CheckECBalance(balance);\n\n        return balance;\n    }\n\n    function transferEC(address from, address to, uint256 amount) public {\n        transferFrom(from, to, amount);\n    }\n}",
  "sourcePath": "/Users/alwin/Developer/Liquiditas/contracts/EternumCoin.sol",
  "compiler": {
    "name": "solc",
    "version": "0.8.17+commit.8df45f5f.Emscripten.clang"
  },
  "schemaVersion": "3.4.11",
  "updatedAt": "2023-03-24T05:15:32.715Z",
  "devdoc": {
    "kind": "dev",
    "methods": {
      "allowance(address,address)": {
        "details": "Function to check the amount of tokens that an owner allowed to a spender.",
        "params": {
          "_owner": "address The address which owns the funds.",
          "_spender": "address The address which will spend the funds."
        },
        "returns": {
          "_0": "A uint256 specifying the amount of tokens still available for the spender."
        }
      },
      "approve(address,uint256)": {
        "details": "Approve the passed address to spend the specified amount of tokens on behalf of msg.sender. Beware that changing an allowance with this method brings the risk that someone may use both the old and the new allowance by unfortunate transaction ordering. One possible solution to mitigate this race condition is to first reduce the spender's allowance to 0 and set the desired value afterwards: https://github.com/ethereum/EIPs/issues/20#issuecomment-263524729",
        "params": {
          "_spender": "The address which will spend the funds.",
          "_value": "The amount of tokens to be spent."
        }
      },
      "balanceOf(address)": {
        "details": "Gets the balance of the specified address.",
        "params": {
          "_owner": "The address to query the the balance of."
        },
        "returns": {
          "_0": "An uint256 representing the amount owned by the passed address."
        }
      },
      "finishMinting()": {
        "details": "Function to stop minting new tokens.",
        "returns": {
          "_0": "True if the operation was successful."
        }
      },
      "mint(address,uint256)": {
        "details": "Function to mint tokens",
        "params": {
          "_amount": "The amount of tokens to mint.",
          "_to": "The address that will receive the minted tokens."
        },
        "returns": {
          "_0": "A boolean that indicates if the operation was successful."
        }
      },
      "totalSupply()": {
        "details": "total number of tokens in existence"
      },
      "transfer(address,uint256)": {
        "details": "transfer token for a specified address",
        "params": {
          "_to": "The address to transfer to.",
          "_value": "The amount to be transferred."
        }
      },
      "transferFrom(address,address,uint256)": {
        "details": "Transfer tokens from one address to another",
        "params": {
          "_from": "address The address which you want to send tokens from",
          "_to": "address The address which you want to transfer to",
          "_value": "uint256 the amount of tokens to be transferred"
        }
      }
    },
    "version": 1
  },
  "userdoc": {
    "kind": "user",
    "methods": {},
    "version": 1
  }
}