{
  "contractName": "IdentityMarket",
  "abi": [
    {
      "inputs": [
        {
          "internalType": "contract Lending",
          "name": "_lendingContract",
          "type": "address"
        },
        {
          "internalType": "contract WalletFeed",
          "name": "_walletFeed",
          "type": "address"
        }
      ],
      "stateMutability": "nonpayable",
      "type": "constructor"
    },
    {
      "inputs": [
        {
          "internalType": "bytes32",
          "name": "",
          "type": "bytes32"
        }
      ],
      "name": "applications",
      "outputs": [
        {
          "internalType": "bytes32",
          "name": "hash",
          "type": "bytes32"
        },
        {
          "internalType": "address",
          "name": "applicant",
          "type": "address"
        },
        {
          "internalType": "enum IdentityMarket.applicationStatus",
          "name": "status",
          "type": "uint8"
        }
      ],
      "stateMutability": "view",
      "type": "function"
    },
    {
      "inputs": [
        {
          "internalType": "bytes32",
          "name": "_identityHash",
          "type": "bytes32"
        }
      ],
      "name": "submitIdentity",
      "outputs": [],
      "stateMutability": "nonpayable",
      "type": "function"
    },
    {
      "inputs": [
        {
          "internalType": "bytes32",
          "name": "_identityHash",
          "type": "bytes32"
        }
      ],
      "name": "approveIdentity",
      "outputs": [],
      "stateMutability": "nonpayable",
      "type": "function"
    },
    {
      "inputs": [
        {
          "internalType": "bytes32",
          "name": "_identityHash",
          "type": "bytes32"
        }
      ],
      "name": "rejectIdentity",
      "outputs": [],
      "stateMutability": "nonpayable",
      "type": "function"
    },
    {
      "inputs": [
        {
          "internalType": "bytes32",
          "name": "_identityHash",
          "type": "bytes32"
        }
      ],
      "name": "verifyIdentity",
      "outputs": [
        {
          "internalType": "bool",
          "name": "",
          "type": "bool"
        }
      ],
      "stateMutability": "view",
      "type": "function"
    },
    {
      "inputs": [
        {
          "internalType": "bytes32",
          "name": "_identityHash",
          "type": "bytes32"
        }
      ],
      "name": "evaluateIdentity",
      "outputs": [
        {
          "internalType": "bool",
          "name": "",
          "type": "bool"
        }
      ],
      "stateMutability": "view",
      "type": "function"
    }
  ],
  "bytecode": "0x6080604052620f4240600455606460055534801561001c57600080fd5b50604051610abb380380610abb833981810160405281019061003e91906101ba565b336000806101000a81548173ffffffffffffffffffffffffffffffffffffffff021916908373ffffffffffffffffffffffffffffffffffffffff16021790555081600260006101000a81548173ffffffffffffffffffffffffffffffffffffffff021916908373ffffffffffffffffffffffffffffffffffffffff16021790555080600360006101000a81548173ffffffffffffffffffffffffffffffffffffffff021916908373ffffffffffffffffffffffffffffffffffffffff16021790555050506101fa565b600080fd5b600073ffffffffffffffffffffffffffffffffffffffff82169050919050565b60006101378261010c565b9050919050565b60006101498261012c565b9050919050565b6101598161013e565b811461016457600080fd5b50565b60008151905061017681610150565b92915050565b60006101878261012c565b9050919050565b6101978161017c565b81146101a257600080fd5b50565b6000815190506101b48161018e565b92915050565b600080604083850312156101d1576101d0610107565b5b60006101df85828601610167565b92505060206101f0858286016101a5565b9150509250929050565b6108b2806102096000396000f3fe608060405234801561001057600080fd5b50600436106100625760003560e01c80632d7031681461006757806347f410e2146100975780634cafa121146100b3578063624812d3146100e5578063cb0a2fa414610115578063d64330ff14610131575b600080fd5b610081600480360381019061007c91906105fa565b61014d565b60405161008e9190610642565b60405180910390f35b6100b160048036038101906100ac91906105fa565b6102f0565b005b6100cd60048036038101906100c891906105fa565b610384565b6040516100dc93929190610724565b60405180910390f35b6100ff60048036038101906100fa91906105fa565b6103db565b60405161010c9190610642565b60405180910390f35b61012f600480360381019061012a91906105fa565b610445565b005b61014b600480360381019061014691906105fa565b61052e565b005b6000806001600084815260200190815260200160002060010160009054906101000a900473ffffffffffffffffffffffffffffffffffffffff1690506000600260009054906101000a900473ffffffffffffffffffffffffffffffffffffffff1673ffffffffffffffffffffffffffffffffffffffff16634075af22836040518263ffffffff1660e01b81526004016101e6919061075b565b602060405180830381865afa158015610203573d6000803e3d6000fd5b505050506040513d601f19601f8201168201806040525081019061022791906107ac565b90506000600360009054906101000a900473ffffffffffffffffffffffffffffffffffffffff1673ffffffffffffffffffffffffffffffffffffffff1663b0f4d6256040518163ffffffff1660e01b8152600401602060405180830381865afa158015610298573d6000803e3d6000fd5b505050506040513d601f19601f820116820180604052508101906102bc91906107ac565b905060055482101580156102d257506004548110155b156102e357600193505050506102eb565b600093505050505b919050565b6000600160008381526020019081526020016000209050338160010160006101000a81548173ffffffffffffffffffffffffffffffffffffffff021916908373ffffffffffffffffffffffffffffffffffffffff16021790555081816000018190555060008160010160146101000a81548160ff0219169083600281111561037b5761037a6106ad565b5b02179055505050565b60016020528060005260406000206000915090508060000154908060010160009054906101000a900473ffffffffffffffffffffffffffffffffffffffff16908060010160149054906101000a900460ff16905083565b6000806001600084815260200190815260200160002060010160149054906101000a900460ff16905060016002811115610418576104176106ad565b5b81600281111561042b5761042a6106ad565b5b0361043a576001915050610440565b60009150505b919050565b60008054906101000a900473ffffffffffffffffffffffffffffffffffffffff1673ffffffffffffffffffffffffffffffffffffffff163373ffffffffffffffffffffffffffffffffffffffff161461049d57600080fd5b60006001600083815260200190815260200160002090506000801b8160000154036104fd576040517f08c379a00000000000000000000000000000000000000000000000000000000081526004016104f49061085c565b60405180910390fd5b60018160010160146101000a81548160ff02191690836002811115610525576105246106ad565b5b02179055505050565b60006001600083815260200190815260200160002090506000801b81600001540361058e576040517f08c379a00000000000000000000000000000000000000000000000000000000081526004016105859061085c565b60405180910390fd5b60028160010160146101000a81548160ff021916908360028111156105b6576105b56106ad565b5b02179055505050565b600080fd5b6000819050919050565b6105d7816105c4565b81146105e257600080fd5b50565b6000813590506105f4816105ce565b92915050565b6000602082840312156106105761060f6105bf565b5b600061061e848285016105e5565b91505092915050565b60008115159050919050565b61063c81610627565b82525050565b60006020820190506106576000830184610633565b92915050565b610666816105c4565b82525050565b600073ffffffffffffffffffffffffffffffffffffffff82169050919050565b60006106978261066c565b9050919050565b6106a78161068c565b82525050565b7f4e487b7100000000000000000000000000000000000000000000000000000000600052602160045260246000fd5b600381106106ed576106ec6106ad565b5b50565b60008190506106fe826106dc565b919050565b600061070e826106f0565b9050919050565b61071e81610703565b82525050565b6000606082019050610739600083018661065d565b610746602083018561069e565b6107536040830184610715565b949350505050565b6000602082019050610770600083018461069e565b92915050565b6000819050919050565b61078981610776565b811461079457600080fd5b50565b6000815190506107a681610780565b92915050565b6000602082840312156107c2576107c16105bf565b5b60006107d084828501610797565b91505092915050565b600082825260208201905092915050565b7f4964656e74697479204170706c69636174696f6e20646f6573206e6f7420657860008201527f6973740000000000000000000000000000000000000000000000000000000000602082015250565b60006108466023836107d9565b9150610851826107ea565b604082019050919050565b6000602082019050818103600083015261087581610839565b905091905056fea264697066735822122099344df4d74ebe336c06dea79f1134770d39b7ac9c949d1a692a5fc4a4361f9764736f6c63430008110033",
  "immutableReferences": {},
  "source": "// SPDX-License-Identifier: MIT\npragma solidity ^0.8.7;\nimport \"./Lending.sol\";\nimport \"./WalletFeed.sol\";\n\n// This contract allows the market to verify an identity is valid\n\ncontract IdentityMarket {\n    address private owner;\n    \n    enum applicationStatus { pending, active, rejected }\n\n    struct IdentityApplication{\n        bytes32 hash;\n        address applicant;\n        applicationStatus status;\n    }\n\n    mapping(bytes32 => IdentityApplication) public applications;\n\n    Lending lendingContract;\n    WalletFeed walletFeed;\n    uint256 minWalletValue = 1000000;\n    uint256 minTransactions = 100;\n\n    constructor (Lending _lendingContract, WalletFeed _walletFeed) {\n        owner = msg.sender;\n        lendingContract = _lendingContract;\n        walletFeed = _walletFeed;\n    }\n\n    modifier authorisedAccounts() {\n        require(msg.sender == owner); // TODO add more whitelisted accounts\n        _;\n    }\n\n    function submitIdentity(bytes32 _identityHash) public {\n        IdentityApplication storage application = applications[_identityHash];\n\n        application.applicant = msg.sender;\n        application.hash = _identityHash;\n        application.status = applicationStatus.pending;\n    }\n\n    function approveIdentity(bytes32 _identityHash) authorisedAccounts() public {\n        IdentityApplication storage application = applications[_identityHash];\n        require(application.hash != 0, \"Identity Application does not exist\");\n\n        application.status = applicationStatus.active;\n    }\n\n    function rejectIdentity(bytes32 _identityHash) public {\n        IdentityApplication storage application = applications[_identityHash];\n        require(application.hash != 0, \"Identity Application does not exist\");\n\n        application.status = applicationStatus.rejected;\n    }\n\n    function verifyIdentity(bytes32 _identityHash) public view returns (bool) {\n        applicationStatus _status = applications[_identityHash].status;\n\n        if (_status == applicationStatus.active) {\n            return true;\n        } else {\n            return false;\n        }\n    }\n\n    function evaluateIdentity(bytes32 _identityHash) public view returns (bool) {\n        address _applicant = applications[_identityHash].applicant;\n        uint256 applicantTotalTransactions = lendingContract.getTotalTransactionCount(_applicant); \n        uint256 applicantWalletValue = walletFeed.getWalletValue();\n\n        if (applicantTotalTransactions >= minTransactions && applicantWalletValue >= minWalletValue) {\n            return true;\n        } else {\n            return false;\n        }\n    }\n}",
  "sourcePath": "/Users/yijie/Desktop/Y2S2/IS4302/Project/IS4302_Group_6_Project/contracts/IdentityMarket.sol",
  "compiler": {
    "name": "solc",
    "version": "0.8.17+commit.8df45f5f.Emscripten.clang"
  },
  "schemaVersion": "3.4.11",
  "updatedAt": "2023-03-21T10:44:58.733Z",
  "devdoc": {
    "kind": "dev",
    "methods": {},
    "version": 1
  },
  "userdoc": {
    "kind": "user",
    "methods": {},
    "version": 1
  }
}