{
  "contractName": "IdentityMarket",
  "abi": [
    {
      "inputs": [
        {
          "internalType": "contract Lending",
          "name": "_lendingContract",
          "type": "address"
        },
        {
          "internalType": "contract WalletFeed",
          "name": "_walletFeed",
          "type": "address"
        },
        {
          "internalType": "contract IdentityToken",
          "name": "_identityToken",
          "type": "address"
        }
      ],
      "stateMutability": "nonpayable",
      "type": "constructor"
    },
    {
      "inputs": [
        {
          "internalType": "bytes32",
          "name": "",
          "type": "bytes32"
        }
      ],
      "name": "applications",
      "outputs": [
        {
          "internalType": "bytes32",
          "name": "hash",
          "type": "bytes32"
        },
        {
          "internalType": "address",
          "name": "applicant",
          "type": "address"
        },
        {
          "internalType": "enum IdentityMarket.applicationStatus",
          "name": "status",
          "type": "uint8"
        }
      ],
      "stateMutability": "view",
      "type": "function"
    },
    {
      "inputs": [
        {
          "internalType": "bytes32",
          "name": "_identityHash",
          "type": "bytes32"
        }
      ],
      "name": "submitIdentity",
      "outputs": [],
      "stateMutability": "nonpayable",
      "type": "function"
    },
    {
      "inputs": [
        {
          "internalType": "bytes32",
          "name": "_identityHash",
          "type": "bytes32"
        }
      ],
      "name": "approveIdentity",
      "outputs": [],
      "stateMutability": "nonpayable",
      "type": "function"
    },
    {
      "inputs": [
        {
          "internalType": "bytes32",
          "name": "_identityHash",
          "type": "bytes32"
        }
      ],
      "name": "rejectIdentity",
      "outputs": [],
      "stateMutability": "nonpayable",
      "type": "function"
    },
    {
      "inputs": [
        {
          "internalType": "bytes32",
          "name": "_identityHash",
          "type": "bytes32"
        }
      ],
      "name": "verifyIdentity",
      "outputs": [
        {
          "internalType": "bool",
          "name": "",
          "type": "bool"
        }
      ],
      "stateMutability": "view",
      "type": "function"
    },
    {
      "inputs": [
        {
          "internalType": "bytes32",
          "name": "_identityHash",
          "type": "bytes32"
        }
      ],
      "name": "evaluateIdentity",
      "outputs": [
        {
          "internalType": "bool",
          "name": "",
          "type": "bool"
        }
      ],
      "stateMutability": "view",
      "type": "function"
    }
  ],
  "bytecode": "0x6080604052620f424060055560646006553480156200001d57600080fd5b5060405162000d0538038062000d05833981810160405281019062000043919062000257565b336000806101000a81548173ffffffffffffffffffffffffffffffffffffffff021916908373ffffffffffffffffffffffffffffffffffffffff16021790555082600260006101000a81548173ffffffffffffffffffffffffffffffffffffffff021916908373ffffffffffffffffffffffffffffffffffffffff16021790555081600360006101000a81548173ffffffffffffffffffffffffffffffffffffffff021916908373ffffffffffffffffffffffffffffffffffffffff16021790555080600460006101000a81548173ffffffffffffffffffffffffffffffffffffffff021916908373ffffffffffffffffffffffffffffffffffffffff160217905550505050620002b3565b600080fd5b600073ffffffffffffffffffffffffffffffffffffffff82169050919050565b6000620001818262000154565b9050919050565b6000620001958262000174565b9050919050565b620001a78162000188565b8114620001b357600080fd5b50565b600081519050620001c7816200019c565b92915050565b6000620001da8262000174565b9050919050565b620001ec81620001cd565b8114620001f857600080fd5b50565b6000815190506200020c81620001e1565b92915050565b60006200021f8262000174565b9050919050565b620002318162000212565b81146200023d57600080fd5b50565b600081519050620002518162000226565b92915050565b6000806000606084860312156200027357620002726200014f565b5b60006200028386828701620001b6565b93505060206200029686828701620001fb565b9250506040620002a98682870162000240565b9150509250925092565b610a4280620002c36000396000f3fe608060405234801561001057600080fd5b50600436106100625760003560e01c80632d7031681461006757806347f410e2146100975780634cafa121146100b3578063624812d3146100e5578063cb0a2fa414610115578063d64330ff14610131575b600080fd5b610081600480360381019061007c919061070e565b61014d565b60405161008e9190610756565b60405180910390f35b6100b160048036038101906100ac919061070e565b6102f0565b005b6100cd60048036038101906100c8919061070e565b610384565b6040516100dc93929190610838565b60405180910390f35b6100ff60048036038101906100fa919061070e565b6103db565b60405161010c9190610756565b60405180910390f35b61012f600480360381019061012a919061070e565b610445565b005b61014b6004803603810190610146919061070e565b610642565b005b6000806001600084815260200190815260200160002060010160009054906101000a900473ffffffffffffffffffffffffffffffffffffffff1690506000600260009054906101000a900473ffffffffffffffffffffffffffffffffffffffff1673ffffffffffffffffffffffffffffffffffffffff16634075af22836040518263ffffffff1660e01b81526004016101e6919061086f565b602060405180830381865afa158015610203573d6000803e3d6000fd5b505050506040513d601f19601f8201168201806040525081019061022791906108c0565b90506000600360009054906101000a900473ffffffffffffffffffffffffffffffffffffffff1673ffffffffffffffffffffffffffffffffffffffff1663b0f4d6256040518163ffffffff1660e01b8152600401602060405180830381865afa158015610298573d6000803e3d6000fd5b505050506040513d601f19601f820116820180604052508101906102bc91906108c0565b905060065482101580156102d257506005548110155b156102e357600193505050506102eb565b600093505050505b919050565b6000600160008381526020019081526020016000209050338160010160006101000a81548173ffffffffffffffffffffffffffffffffffffffff021916908373ffffffffffffffffffffffffffffffffffffffff16021790555081816000018190555060008160010160146101000a81548160ff0219169083600281111561037b5761037a6107c1565b5b02179055505050565b60016020528060005260406000206000915090508060000154908060010160009054906101000a900473ffffffffffffffffffffffffffffffffffffffff16908060010160149054906101000a900460ff16905083565b6000806001600084815260200190815260200160002060010160149054906101000a900460ff16905060016002811115610418576104176107c1565b5b81600281111561042b5761042a6107c1565b5b0361043a576001915050610440565b60009150505b919050565b60008054906101000a900473ffffffffffffffffffffffffffffffffffffffff1673ffffffffffffffffffffffffffffffffffffffff163373ffffffffffffffffffffffffffffffffffffffff161461049d57600080fd5b60006001600083815260200190815260200160002090506000801b8160000154036104fd576040517f08c379a00000000000000000000000000000000000000000000000000000000081526004016104f490610970565b60405180910390fd5b60018160010160146101000a81548160ff02191690836002811115610525576105246107c1565b5b0217905550600460009054906101000a900473ffffffffffffffffffffffffffffffffffffffff1673ffffffffffffffffffffffffffffffffffffffff166336afc6fa6040518163ffffffff1660e01b8152600401600060405180830381600087803b15801561059457600080fd5b505af11580156105a8573d6000803e3d6000fd5b50505050600460009054906101000a900473ffffffffffffffffffffffffffffffffffffffff1673ffffffffffffffffffffffffffffffffffffffff166352b8bc19303360016040518463ffffffff1660e01b815260040161060c939291906109d5565b600060405180830381600087803b15801561062657600080fd5b505af115801561063a573d6000803e3d6000fd5b505050505050565b60006001600083815260200190815260200160002090506000801b8160000154036106a2576040517f08c379a000000000000000000000000000000000000000000000000000000000815260040161069990610970565b60405180910390fd5b60028160010160146101000a81548160ff021916908360028111156106ca576106c96107c1565b5b02179055505050565b600080fd5b6000819050919050565b6106eb816106d8565b81146106f657600080fd5b50565b600081359050610708816106e2565b92915050565b600060208284031215610724576107236106d3565b5b6000610732848285016106f9565b91505092915050565b60008115159050919050565b6107508161073b565b82525050565b600060208201905061076b6000830184610747565b92915050565b61077a816106d8565b82525050565b600073ffffffffffffffffffffffffffffffffffffffff82169050919050565b60006107ab82610780565b9050919050565b6107bb816107a0565b82525050565b7f4e487b7100000000000000000000000000000000000000000000000000000000600052602160045260246000fd5b60038110610801576108006107c1565b5b50565b6000819050610812826107f0565b919050565b600061082282610804565b9050919050565b61083281610817565b82525050565b600060608201905061084d6000830186610771565b61085a60208301856107b2565b6108676040830184610829565b949350505050565b600060208201905061088460008301846107b2565b92915050565b6000819050919050565b61089d8161088a565b81146108a857600080fd5b50565b6000815190506108ba81610894565b92915050565b6000602082840312156108d6576108d56106d3565b5b60006108e4848285016108ab565b91505092915050565b600082825260208201905092915050565b7f4964656e74697479204170706c69636174696f6e20646f6573206e6f7420657860008201527f6973740000000000000000000000000000000000000000000000000000000000602082015250565b600061095a6023836108ed565b9150610965826108fe565b604082019050919050565b600060208201905081810360008301526109898161094d565b9050919050565b6000819050919050565b6000819050919050565b60006109bf6109ba6109b584610990565b61099a565b61088a565b9050919050565b6109cf816109a4565b82525050565b60006060820190506109ea60008301866107b2565b6109f760208301856107b2565b610a0460408301846109c6565b94935050505056fea26469706673582212208a0cb49a2292029c20e2ab59b7ce4c17d71d30466471c234501a3279b96093fa64736f6c63430008110033",
  "immutableReferences": {},
  "source": "// SPDX-License-Identifier: MIT\npragma solidity ^0.8.7;\nimport \"./Lending.sol\";\nimport \"./WalletFeed.sol\";\nimport \"./IdentityToken.sol\";\n\n// This contract allows the market to verify an identity is valid\n\ncontract IdentityMarket {\n    address private owner;\n    \n    enum applicationStatus { pending, active, rejected }\n\n    struct IdentityApplication{\n        bytes32 hash;\n        address applicant;\n        applicationStatus status;\n    }\n\n    mapping(bytes32 => IdentityApplication) public applications;\n\n    Lending lendingContract;\n    WalletFeed walletFeed;\n    IdentityToken identityToken;\n    uint256 minWalletValue = 1000000;\n    uint256 minTransactions = 100;\n\n    constructor (Lending _lendingContract, WalletFeed _walletFeed, IdentityToken _identityToken) {\n        owner = msg.sender;\n        lendingContract = _lendingContract;\n        walletFeed = _walletFeed;\n        identityToken = _identityToken;\n    }\n\n    modifier authorisedAccounts() {\n        require(msg.sender == owner); // TODO add more whitelisted accounts\n        _;\n    }\n\n    function submitIdentity(bytes32 _identityHash) public {\n        IdentityApplication storage application = applications[_identityHash];\n\n        application.applicant = msg.sender;\n        application.hash = _identityHash;\n        application.status = applicationStatus.pending;\n    }\n\n    function approveIdentity(bytes32 _identityHash) authorisedAccounts() public {\n        IdentityApplication storage application = applications[_identityHash];\n        require(application.hash != 0, \"Identity Application does not exist\");\n\n        application.status = applicationStatus.active;\n\n       identityToken.getIdentity();\n\n       identityToken.transferIdentity(address(this), msg.sender, 1); \n    }\n\n    function rejectIdentity(bytes32 _identityHash) public {\n        IdentityApplication storage application = applications[_identityHash];\n        require(application.hash != 0, \"Identity Application does not exist\");\n\n        application.status = applicationStatus.rejected;\n    }\n\n    function verifyIdentity(bytes32 _identityHash) public view returns (bool) {\n        applicationStatus _status = applications[_identityHash].status;\n\n        if (_status == applicationStatus.active) {\n            return true;\n        } else {\n            return false;\n        }\n    }\n\n    function evaluateIdentity(bytes32 _identityHash) public view returns (bool) {\n        address _applicant = applications[_identityHash].applicant;\n        uint256 applicantTotalTransactions = lendingContract.getTotalTransactionCount(_applicant); \n        uint256 applicantWalletValue = walletFeed.getWalletValue();\n\n        if (applicantTotalTransactions >= minTransactions && applicantWalletValue >= minWalletValue) {\n            return true;\n        } else {\n            return false;\n        }\n    }\n\n}",
  "sourcePath": "/Users/alwin/Developer/Liquiditas/contracts/IdentityMarket.sol",
  "compiler": {
    "name": "solc",
    "version": "0.8.17+commit.8df45f5f.Emscripten.clang"
  },
  "schemaVersion": "3.4.11",
  "updatedAt": "2023-03-24T05:15:32.720Z",
  "devdoc": {
    "kind": "dev",
    "methods": {},
    "version": 1
  },
  "userdoc": {
    "kind": "user",
    "methods": {},
    "version": 1
  }
}