{
  "contractName": "Identity",
  "abi": [
    {
      "inputs": [],
      "stateMutability": "nonpayable",
      "type": "constructor"
    },
    {
      "anonymous": false,
      "inputs": [
        {
          "indexed": false,
          "internalType": "address",
          "name": "_owner",
          "type": "address"
        },
        {
          "indexed": false,
          "internalType": "bytes32",
          "name": "_hash",
          "type": "bytes32"
        }
      ],
      "name": "AttributeAdded",
      "type": "event"
    },
    {
      "anonymous": false,
      "inputs": [
        {
          "indexed": false,
          "internalType": "address",
          "name": "_owner",
          "type": "address"
        },
        {
          "indexed": false,
          "internalType": "bytes32",
          "name": "_hash",
          "type": "bytes32"
        }
      ],
      "name": "AttributeRemoved",
      "type": "event"
    },
    {
      "anonymous": false,
      "inputs": [
        {
          "indexed": false,
          "internalType": "address",
          "name": "_owner",
          "type": "address"
        },
        {
          "indexed": false,
          "internalType": "bytes32",
          "name": "_oldHash",
          "type": "bytes32"
        },
        {
          "indexed": false,
          "internalType": "bytes32",
          "name": "_newHash",
          "type": "bytes32"
        }
      ],
      "name": "AttributeUpdated",
      "type": "event"
    },
    {
      "anonymous": false,
      "inputs": [
        {
          "indexed": false,
          "internalType": "address",
          "name": "_from",
          "type": "address"
        }
      ],
      "name": "IdentityIssued",
      "type": "event"
    },
    {
      "anonymous": false,
      "inputs": [
        {
          "indexed": false,
          "internalType": "string",
          "name": "_publicKey",
          "type": "string"
        }
      ],
      "name": "PublicKeySet",
      "type": "event"
    },
    {
      "anonymous": false,
      "inputs": [
        {
          "indexed": false,
          "internalType": "address",
          "name": "_owner",
          "type": "address"
        },
        {
          "indexed": false,
          "internalType": "bytes32",
          "name": "attributeHash",
          "type": "bytes32"
        },
        {
          "indexed": false,
          "internalType": "bytes32",
          "name": "validationHash",
          "type": "bytes32"
        }
      ],
      "name": "ValidationAccepted",
      "type": "event"
    },
    {
      "anonymous": false,
      "inputs": [
        {
          "indexed": false,
          "internalType": "address",
          "name": "_owner",
          "type": "address"
        },
        {
          "indexed": false,
          "internalType": "address",
          "name": "validator",
          "type": "address"
        },
        {
          "indexed": false,
          "internalType": "bytes32",
          "name": "attributeHash",
          "type": "bytes32"
        }
      ],
      "name": "ValidationAdded",
      "type": "event"
    },
    {
      "anonymous": false,
      "inputs": [
        {
          "indexed": false,
          "internalType": "address",
          "name": "_owner",
          "type": "address"
        },
        {
          "indexed": false,
          "internalType": "bytes32",
          "name": "attributeHash",
          "type": "bytes32"
        }
      ],
      "name": "ValidationRemoved",
      "type": "event"
    },
    {
      "inputs": [
        {
          "internalType": "bytes32",
          "name": "",
          "type": "bytes32"
        }
      ],
      "name": "attributes",
      "outputs": [
        {
          "internalType": "bytes32",
          "name": "hash",
          "type": "bytes32"
        }
      ],
      "stateMutability": "view",
      "type": "function",
      "constant": true
    },
    {
      "inputs": [],
      "name": "owner",
      "outputs": [
        {
          "internalType": "address",
          "name": "",
          "type": "address"
        }
      ],
      "stateMutability": "view",
      "type": "function",
      "constant": true
    },
    {
      "inputs": [],
      "name": "publicKey",
      "outputs": [
        {
          "internalType": "string",
          "name": "",
          "type": "string"
        }
      ],
      "stateMutability": "view",
      "type": "function",
      "constant": true
    },
    {
      "inputs": [
        {
          "internalType": "bytes32",
          "name": "_hash",
          "type": "bytes32"
        }
      ],
      "name": "addAttribute",
      "outputs": [],
      "stateMutability": "nonpayable",
      "type": "function"
    },
    {
      "inputs": [
        {
          "internalType": "bytes32",
          "name": "_hash",
          "type": "bytes32"
        }
      ],
      "name": "removeAttribute",
      "outputs": [],
      "stateMutability": "nonpayable",
      "type": "function"
    },
    {
      "inputs": [
        {
          "internalType": "bytes32",
          "name": "_oldHash",
          "type": "bytes32"
        },
        {
          "internalType": "bytes32",
          "name": "_newHash",
          "type": "bytes32"
        }
      ],
      "name": "updateAttribute",
      "outputs": [
        {
          "internalType": "bool",
          "name": "",
          "type": "bool"
        }
      ],
      "stateMutability": "nonpayable",
      "type": "function"
    },
    {
      "inputs": [
        {
          "internalType": "bytes32",
          "name": "attributeHash",
          "type": "bytes32"
        },
        {
          "internalType": "bytes32",
          "name": "validationHash",
          "type": "bytes32"
        }
      ],
      "name": "addValidation",
      "outputs": [],
      "stateMutability": "nonpayable",
      "type": "function"
    },
    {
      "inputs": [
        {
          "internalType": "bytes32",
          "name": "attributeHash",
          "type": "bytes32"
        },
        {
          "internalType": "bytes32",
          "name": "validationHash",
          "type": "bytes32"
        }
      ],
      "name": "removeValidation",
      "outputs": [],
      "stateMutability": "nonpayable",
      "type": "function"
    },
    {
      "inputs": [
        {
          "internalType": "bytes32",
          "name": "attributeHash",
          "type": "bytes32"
        },
        {
          "internalType": "bytes32",
          "name": "validationHash",
          "type": "bytes32"
        }
      ],
      "name": "acceptValidation",
      "outputs": [],
      "stateMutability": "nonpayable",
      "type": "function"
    },
    {
      "inputs": [
        {
          "internalType": "string",
          "name": "_publicKey",
          "type": "string"
        }
      ],
      "name": "setPublicKey",
      "outputs": [],
      "stateMutability": "nonpayable",
      "type": "function"
    }
  ],
  "bytecode": "0x608060405234801561001057600080fd5b50336000806101000a81548173ffffffffffffffffffffffffffffffffffffffff021916908373ffffffffffffffffffffffffffffffffffffffff160217905550611632806100606000396000f3fe608060405234801561001057600080fd5b506004361061009e5760003560e01c80638a0a04c2116100665780638a0a04c2146101315780638da5cb5b1461014d578063b115ce0d1461016b578063e7996f071461019b578063f9c5e0aa146101b75761009e565b80633fa5b401146100a357806363ffab31146100bf5780636f6fc077146100dd57806387e5ceff146100f957806389f0151c14610115575b600080fd5b6100bd60048036038101906100b89190610c70565b6101e7565b005b6100c761030f565b6040516100d49190610d40565b60405180910390f35b6100f760048036038101906100f29190610e97565b61039d565b005b610113600480360381019061010e9190610c70565b61043f565b005b61012f600480360381019061012a9190610ee0565b610667565b005b61014b60048036038101906101469190610c70565b610797565b005b610155610990565b6040516101629190610f4e565b60405180910390f35b61018560048036038101906101809190610ee0565b6109b4565b6040516101929190610f78565b60405180910390f35b6101b560048036038101906101b09190610ee0565b6109d2565b005b6101d160048036038101906101cc9190610c70565b610afc565b6040516101de9190610fae565b60405180910390f35b600060026000848152602001908152602001600020905060008160010160008481526020019081526020016000206040518060600160405290816000820160009054906101000a900473ffffffffffffffffffffffffffffffffffffffff1673ffffffffffffffffffffffffffffffffffffffff1673ffffffffffffffffffffffffffffffffffffffff168152602001600182015481526020016002820160009054906101000a900460ff161515151581525050905060018160400190151590811515815250507f5cc4b4b89df1c395b95a9b1b01141ea3f21c96170634b484c50871715839705a60008054906101000a900473ffffffffffffffffffffffffffffffffffffffff16858560405161030193929190610fc9565b60405180910390a150505050565b6001805461031c9061102f565b80601f01602080910402602001604051908101604052809291908181526020018280546103489061102f565b80156103955780601f1061036a57610100808354040283529160200191610395565b820191906000526020600020905b81548152906001019060200180831161037857829003601f168201915b505050505081565b60008054906101000a900473ffffffffffffffffffffffffffffffffffffffff1673ffffffffffffffffffffffffffffffffffffffff163373ffffffffffffffffffffffffffffffffffffffff16146103f557600080fd5b80600190816104049190611216565b507f8c50cc17569d2a45589fa16a7468dc7e584da2c895bec087b86bdeb2c6987d5a816040516104349190610d40565b60405180910390a150565b600060026000848152602001908152602001600020905060008160010160008481526020019081526020016000206040518060600160405290816000820160009054906101000a900473ffffffffffffffffffffffffffffffffffffffff1673ffffffffffffffffffffffffffffffffffffffff1673ffffffffffffffffffffffffffffffffffffffff168152602001600182015481526020016002820160009054906101000a900460ff16151515158152505090508281602001511461053b576040517f08c379a000000000000000000000000000000000000000000000000000000000815260040161053290611334565b60405180910390fd5b806000015173ffffffffffffffffffffffffffffffffffffffff163373ffffffffffffffffffffffffffffffffffffffff16146105ad576040517f08c379a00000000000000000000000000000000000000000000000000000000081526004016105a4906113ec565b60405180910390fd5b816001016000848152602001908152602001600020600080820160006101000a81549073ffffffffffffffffffffffffffffffffffffffff021916905560018201600090556002820160006101000a81549060ff021916905550507f3cb8bb5f5a296f0afd8a23655aecafdba248f098c379d8cb0af9753bdd54283160008054906101000a900473ffffffffffffffffffffffffffffffffffffffff168560405161065992919061140c565b60405180910390a150505050565b60008054906101000a900473ffffffffffffffffffffffffffffffffffffffff1673ffffffffffffffffffffffffffffffffffffffff163373ffffffffffffffffffffffffffffffffffffffff16146106bf57600080fd5b6000801b60026000838152602001908152602001600020600001541461071a576040517f08c379a0000000000000000000000000000000000000000000000000000000008152600401610711906114a7565b60405180910390fd5b60006002600083815260200190815260200160002090508181600001819055507f85999810a7fc7058a2d7134e4a93507f2e9194862b05e4d3f096a8e01ef1037a60008054906101000a900473ffffffffffffffffffffffffffffffffffffffff168360405161078b92919061140c565b60405180910390a15050565b6000600260008481526020019081526020016000209050828160000154146107f4576040517f08c379a00000000000000000000000000000000000000000000000000000000081526004016107eb90611539565b60405180910390fd5b60008160010160008481526020019081526020016000206040518060600160405290816000820160009054906101000a900473ffffffffffffffffffffffffffffffffffffffff1673ffffffffffffffffffffffffffffffffffffffff1673ffffffffffffffffffffffffffffffffffffffff168152602001600182015481526020016002820160009054906101000a900460ff16151515158152505090506000801b8160200151146108dc576040517f08c379a00000000000000000000000000000000000000000000000000000000081526004016108d3906115a5565b60405180910390fd5b82816020018181525050600081604001901515908115158152505033816000019073ffffffffffffffffffffffffffffffffffffffff16908173ffffffffffffffffffffffffffffffffffffffff16815250507fbc45812d5dcfbe3cbabb6963782c4578e199932a8394352623994e97f4ca0aba60008054906101000a900473ffffffffffffffffffffffffffffffffffffffff163386604051610982939291906115c5565b60405180910390a150505050565b60008054906101000a900473ffffffffffffffffffffffffffffffffffffffff1681565b60026020528060005260406000206000915090508060000154905081565b60008054906101000a900473ffffffffffffffffffffffffffffffffffffffff1673ffffffffffffffffffffffffffffffffffffffff163373ffffffffffffffffffffffffffffffffffffffff1614610a2a57600080fd5b80600260008381526020019081526020016000206000015414610a82576040517f08c379a0000000000000000000000000000000000000000000000000000000008152600401610a7990611539565b60405180910390fd5b6002600082815260200190815260200160002060008082016000905550507f2702bc9f5343b3dd3b4756012a4dfdcefd327a0cc6054b4f58fc95379291ab0d60008054906101000a900473ffffffffffffffffffffffffffffffffffffffff1682604051610af192919061140c565b60405180910390a150565b60008060009054906101000a900473ffffffffffffffffffffffffffffffffffffffff1673ffffffffffffffffffffffffffffffffffffffff163373ffffffffffffffffffffffffffffffffffffffff1614610b5757600080fd5b82600260008581526020019081526020016000206000015414610baf576040517f08c379a0000000000000000000000000000000000000000000000000000000008152600401610ba690611539565b60405180910390fd5b610bb8836109d2565b610bc182610667565b7f5ca8c765e30a063ae5aee101b5a033d6f470c2dece16cde72c33a9bef557aca160008054906101000a900473ffffffffffffffffffffffffffffffffffffffff168484604051610c1493929190610fc9565b60405180910390a16001905092915050565b6000604051905090565b600080fd5b600080fd5b6000819050919050565b610c4d81610c3a565b8114610c5857600080fd5b50565b600081359050610c6a81610c44565b92915050565b60008060408385031215610c8757610c86610c30565b5b6000610c9585828601610c5b565b9250506020610ca685828601610c5b565b9150509250929050565b600081519050919050565b600082825260208201905092915050565b60005b83811015610cea578082015181840152602081019050610ccf565b60008484015250505050565b6000601f19601f8301169050919050565b6000610d1282610cb0565b610d1c8185610cbb565b9350610d2c818560208601610ccc565b610d3581610cf6565b840191505092915050565b60006020820190508181036000830152610d5a8184610d07565b905092915050565b600080fd5b600080fd5b7f4e487b7100000000000000000000000000000000000000000000000000000000600052604160045260246000fd5b610da482610cf6565b810181811067ffffffffffffffff82111715610dc357610dc2610d6c565b5b80604052505050565b6000610dd6610c26565b9050610de28282610d9b565b919050565b600067ffffffffffffffff821115610e0257610e01610d6c565b5b610e0b82610cf6565b9050602081019050919050565b82818337600083830152505050565b6000610e3a610e3584610de7565b610dcc565b905082815260208101848484011115610e5657610e55610d67565b5b610e61848285610e18565b509392505050565b600082601f830112610e7e57610e7d610d62565b5b8135610e8e848260208601610e27565b91505092915050565b600060208284031215610ead57610eac610c30565b5b600082013567ffffffffffffffff811115610ecb57610eca610c35565b5b610ed784828501610e69565b91505092915050565b600060208284031215610ef657610ef5610c30565b5b6000610f0484828501610c5b565b91505092915050565b600073ffffffffffffffffffffffffffffffffffffffff82169050919050565b6000610f3882610f0d565b9050919050565b610f4881610f2d565b82525050565b6000602082019050610f636000830184610f3f565b92915050565b610f7281610c3a565b82525050565b6000602082019050610f8d6000830184610f69565b92915050565b60008115159050919050565b610fa881610f93565b82525050565b6000602082019050610fc36000830184610f9f565b92915050565b6000606082019050610fde6000830186610f3f565b610feb6020830185610f69565b610ff86040830184610f69565b949350505050565b7f4e487b7100000000000000000000000000000000000000000000000000000000600052602260045260246000fd5b6000600282049050600182168061104757607f821691505b60208210810361105a57611059611000565b5b50919050565b60008190508160005260206000209050919050565b60006020601f8301049050919050565b600082821b905092915050565b6000600883026110c27fffffffffffffffffffffffffffffffffffffffffffffffffffffffffffffffff82611085565b6110cc8683611085565b95508019841693508086168417925050509392505050565b6000819050919050565b6000819050919050565b600061111361110e611109846110e4565b6110ee565b6110e4565b9050919050565b6000819050919050565b61112d836110f8565b6111416111398261111a565b848454611092565b825550505050565b600090565b611156611149565b611161818484611124565b505050565b5b818110156111855761117a60008261114e565b600181019050611167565b5050565b601f8211156111ca5761119b81611060565b6111a484611075565b810160208510156111b3578190505b6111c76111bf85611075565b830182611166565b50505b505050565b600082821c905092915050565b60006111ed600019846008026111cf565b1980831691505092915050565b600061120683836111dc565b9150826002028217905092915050565b61121f82610cb0565b67ffffffffffffffff81111561123857611237610d6c565b5b611242825461102f565b61124d828285611189565b600060209050601f831160018114611280576000841561126e578287015190505b61127885826111fa565b8655506112e0565b601f19841661128e86611060565b60005b828110156112b657848901518255600182019150602085019450602081019050611291565b868310156112d357848901516112cf601f8916826111dc565b8355505b6001600288020188555050505b505050505050565b7f56616c69646174696f6e2068617368206973206e6f742070726573656e740000600082015250565b600061131e601e83610cbb565b9150611329826112e8565b602082019050919050565b6000602082019050818103600083015261134d81611311565b9050919050565b7f596f7520617265206e6f7420617574686f726973656420746f2072656d6f766560008201527f2076616c69646174696f6e20617320796f7520617265206e6f7420746865207660208201527f616c696461746f72000000000000000000000000000000000000000000000000604082015250565b60006113d6604883610cbb565b91506113e182611354565b606082019050919050565b60006020820190508181036000830152611405816113c9565b9050919050565b60006040820190506114216000830185610f3f565b61142e6020830184610f69565b9392505050565b7f417474726962757465206861736820616c72656164792070726573656e74206960008201527f6e206d617070696e670000000000000000000000000000000000000000000000602082015250565b6000611491602983610cbb565b915061149c82611435565b604082019050919050565b600060208201905081810360008301526114c081611484565b9050919050565b7f4174747269627574652068617368206e6f742070726573656e7420696e206d6160008201527f7070696e67000000000000000000000000000000000000000000000000000000602082015250565b6000611523602583610cbb565b915061152e826114c7565b604082019050919050565b6000602082019050818103600083015261155281611516565b9050919050565b7f56616c69646174696f6e206861736820616c72656164792070726573656e7400600082015250565b600061158f601f83610cbb565b915061159a82611559565b602082019050919050565b600060208201905081810360008301526115be81611582565b9050919050565b60006060820190506115da6000830186610f3f565b6115e76020830185610f3f565b6115f46040830184610f69565b94935050505056fea264697066735822122091e12399f4750aedb3cda026b1f527afbcb4330bf79c7936af00d0b6db5b8e2f64736f6c63430008110033",
  "immutableReferences": {},
  "source": "// SPDX-License-Identifier: MIT\npragma solidity ^0.8.7;\n\ncontract Identity {\n    address public owner;\n    string public publicKey;\n    mapping(bytes32 => Attribute) public attributes;\n\n    /**\n    * Attributes are items that strengthen validity of identity e.g. driver's licence\n    */\n    struct Attribute {\n        bytes32 hash; // hash of document\n        mapping(bytes32 => Validation) validations;\n    }\n\n    /**\n    * Validations validate the attributes of identity, further strengthening validity\n    * of identity\n    */\n    struct Validation {\n        address validator; // entity validating endorsement\n        bytes32 hash;\n        bool accepted; // true if user accepts the validation\n    }\n\n    event IdentityIssued(address _from);\n    event AttributeAdded(address _owner, bytes32 _hash);\n    event AttributeRemoved(address _owner, bytes32 _hash);\n    event AttributeUpdated(address _owner, bytes32 _oldHash, bytes32 _newHash);\n    event ValidationAdded(address _owner, address validator, bytes32 attributeHash);\n    event ValidationRemoved(address _owner, bytes32 attributeHash);\n    event ValidationAccepted(address _owner, bytes32 attributeHash, bytes32 validationHash);\n\n    event PublicKeySet(string _publicKey);\n\n    constructor () {\n        owner = msg.sender;\n    }\n\n    modifier ownerOnly() {\n        require(msg.sender == owner); \n        _;\n    }\n\n    function addAttribute(bytes32 _hash) public ownerOnly() {\n        require(attributes[_hash].hash == 0, \"Attribute hash already present in mapping\");\n\n        Attribute storage newAttribute = attributes[_hash];\n        newAttribute.hash = _hash;\n        \n        emit AttributeAdded(owner, _hash);\n    }\n\n    function removeAttribute(bytes32 _hash) public ownerOnly() {\n        require(attributes[_hash].hash == _hash, \"Attribute hash not present in mapping\");\n\n        delete(attributes[_hash]);\n\n        emit AttributeRemoved(owner, _hash);\n    }\n\n    function updateAttribute(bytes32 _oldHash, bytes32 _newHash) public ownerOnly() returns(bool) {\n        require(attributes[_oldHash].hash == _oldHash, \"Attribute hash not present in mapping\");\n\n        removeAttribute(_oldHash);\n        addAttribute(_newHash);\n\n        emit AttributeUpdated(owner, _oldHash, _newHash); \n        return true;\n    }\n\n    function addValidation(bytes32 attributeHash, bytes32 validationHash) public {\n        Attribute storage attribute = attributes[attributeHash];\n        require(attribute.hash == attributeHash, \"Attribute hash not present in mapping\");\n        Validation memory validation = attribute.validations[validationHash];\n        require(validation.hash == 0, \"Validation hash already present\"); \n\n        validation.hash = validationHash;\n        validation.accepted = false;\n        validation.validator = msg.sender;\n\n        emit ValidationAdded(owner, msg.sender, attributeHash);\n    }\n\n    function removeValidation(bytes32 attributeHash, bytes32 validationHash) public {\n        Attribute storage attribute = attributes[attributeHash]; \n        Validation memory validation = attribute.validations[validationHash];\n        require(validation.hash == validationHash, \"Validation hash is not present\");  \n        require(msg.sender == validation.validator, \"You are not authorised to remove validation as you are not the validator\");\n\n        delete attribute.validations[validationHash];\n\n        emit ValidationRemoved(owner, attributeHash);\n    }\n\n    function acceptValidation(bytes32 attributeHash, bytes32 validationHash) public {\n        Attribute storage attribute = attributes[attributeHash];\n        Validation memory validation = attribute.validations[validationHash];\n\n        validation.accepted = true;\n\n        emit ValidationAccepted(owner, attributeHash, validationHash);\n    }\n\n    function setPublicKey(string memory _publicKey) public ownerOnly() {\n        publicKey = _publicKey;\n\n        emit PublicKeySet(_publicKey);\n    }\n\n}",
  "sourcePath": "/Users/alwin/Developer/Liquiditas/contracts/Identity.sol",
  "compiler": {
    "name": "solc",
    "version": "0.8.17+commit.8df45f5f.Emscripten.clang"
  },
  "schemaVersion": "3.4.11",
  "updatedAt": "2023-03-22T04:44:05.408Z",
  "networkType": "ethereum",
  "devdoc": {
    "kind": "dev",
    "methods": {},
    "version": 1
  },
  "userdoc": {
    "kind": "user",
    "methods": {},
    "version": 1
  }
}