{
  "contractName": "Lending",
  "abi": [
    {
      "inputs": [
        {
          "internalType": "contract Avax",
          "name": "avaxTokenAddress",
          "type": "address"
        },
        {
          "internalType": "contract LiquidityPool",
          "name": "lp",
          "type": "address"
        },
        {
          "internalType": "contract Reserves",
          "name": "reservesAddress",
          "type": "address"
        },
        {
          "internalType": "contract PriceFeed",
          "name": "pf",
          "type": "address"
        }
      ],
      "stateMutability": "nonpayable",
      "type": "constructor"
    },
    {
      "inputs": [
        {
          "internalType": "uint256",
          "name": "depositCollateral",
          "type": "uint256"
        }
      ],
      "name": "borrowAVAX",
      "outputs": [],
      "stateMutability": "nonpayable",
      "type": "function"
    },
    {
      "inputs": [],
      "name": "repayAVAXDebt",
      "outputs": [],
      "stateMutability": "nonpayable",
      "type": "function"
    },
    {
      "inputs": [
        {
          "internalType": "uint256",
          "name": "topUpCollateral",
          "type": "uint256"
        }
      ],
      "name": "topUpAVAXCollateral",
      "outputs": [],
      "stateMutability": "nonpayable",
      "type": "function"
    },
    {
      "inputs": [],
      "name": "liquidateAVAX",
      "outputs": [],
      "stateMutability": "nonpayable",
      "type": "function"
    },
    {
      "inputs": [],
      "name": "borrowEth",
      "outputs": [
        {
          "internalType": "uint256",
          "name": "",
          "type": "uint256"
        }
      ],
      "stateMutability": "payable",
      "type": "function",
      "payable": true
    },
    {
      "inputs": [],
      "name": "topUpETHCollateral",
      "outputs": [],
      "stateMutability": "payable",
      "type": "function",
      "payable": true
    },
    {
      "inputs": [],
      "name": "repayEth",
      "outputs": [],
      "stateMutability": "payable",
      "type": "function",
      "payable": true
    },
    {
      "inputs": [],
      "name": "liquidateETH",
      "outputs": [],
      "stateMutability": "payable",
      "type": "function",
      "payable": true
    },
    {
      "inputs": [],
      "name": "getUserTotaETHRepaymentAmount",
      "outputs": [
        {
          "internalType": "uint256",
          "name": "",
          "type": "uint256"
        }
      ],
      "stateMutability": "view",
      "type": "function",
      "constant": true
    },
    {
      "inputs": [],
      "name": "getUserTotaAVAXRepaymentAmount",
      "outputs": [
        {
          "internalType": "uint256",
          "name": "",
          "type": "uint256"
        }
      ],
      "stateMutability": "view",
      "type": "function",
      "constant": true
    },
    {
      "inputs": [],
      "name": "initUserTotalEthRepaymentAmount",
      "outputs": [
        {
          "internalType": "uint256",
          "name": "",
          "type": "uint256"
        }
      ],
      "stateMutability": "nonpayable",
      "type": "function"
    },
    {
      "inputs": [],
      "name": "initUserTotalAVAXRepaymentAmount",
      "outputs": [
        {
          "internalType": "uint256",
          "name": "",
          "type": "uint256"
        }
      ],
      "stateMutability": "nonpayable",
      "type": "function"
    },
    {
      "inputs": [
        {
          "internalType": "uint256",
          "name": "collateralAmount",
          "type": "uint256"
        },
        {
          "internalType": "uint256",
          "name": "percentage",
          "type": "uint256"
        }
      ],
      "name": "calculatePercentage",
      "outputs": [
        {
          "internalType": "uint256",
          "name": "",
          "type": "uint256"
        }
      ],
      "stateMutability": "pure",
      "type": "function",
      "constant": true
    },
    {
      "inputs": [],
      "name": "getHoldingAVAXCollateral",
      "outputs": [
        {
          "internalType": "uint256",
          "name": "",
          "type": "uint256"
        }
      ],
      "stateMutability": "view",
      "type": "function",
      "constant": true
    },
    {
      "inputs": [],
      "name": "getHoldingEthCollateral",
      "outputs": [
        {
          "internalType": "uint256",
          "name": "",
          "type": "uint256"
        }
      ],
      "stateMutability": "view",
      "type": "function",
      "constant": true
    },
    {
      "inputs": [],
      "name": "getAVAXDebt",
      "outputs": [
        {
          "internalType": "uint256",
          "name": "",
          "type": "uint256"
        }
      ],
      "stateMutability": "view",
      "type": "function",
      "constant": true
    },
    {
      "inputs": [],
      "name": "getAddress",
      "outputs": [
        {
          "internalType": "address",
          "name": "",
          "type": "address"
        }
      ],
      "stateMutability": "view",
      "type": "function",
      "constant": true
    },
    {
      "inputs": [
        {
          "internalType": "address",
          "name": "user",
          "type": "address"
        }
      ],
      "name": "getTotalTransactionCount",
      "outputs": [
        {
          "internalType": "uint256",
          "name": "",
          "type": "uint256"
        }
      ],
      "stateMutability": "view",
      "type": "function",
      "constant": true
    }
  ],
  "bytecode": "0x60806040526121346004556101f460055533600660006101000a81548173ffffffffffffffffffffffffffffffffffffffff021916908373ffffffffffffffffffffffffffffffffffffffff1602179055503480156200005e57600080fd5b5060405162003851380380620038518339818101604052810190620000849190620002f2565b836000806101000a81548173ffffffffffffffffffffffffffffffffffffffff021916908373ffffffffffffffffffffffffffffffffffffffff16021790555082600160006101000a81548173ffffffffffffffffffffffffffffffffffffffff021916908373ffffffffffffffffffffffffffffffffffffffff16021790555081600260006101000a81548173ffffffffffffffffffffffffffffffffffffffff021916908373ffffffffffffffffffffffffffffffffffffffff16021790555080600360006101000a81548173ffffffffffffffffffffffffffffffffffffffff021916908373ffffffffffffffffffffffffffffffffffffffff1602179055505050505062000364565b600080fd5b600073ffffffffffffffffffffffffffffffffffffffff82169050919050565b6000620001c38262000196565b9050919050565b6000620001d782620001b6565b9050919050565b620001e981620001ca565b8114620001f557600080fd5b50565b6000815190506200020981620001de565b92915050565b60006200021c8262000196565b9050919050565b600062000230826200020f565b9050919050565b620002428162000223565b81146200024e57600080fd5b50565b600081519050620002628162000237565b92915050565b600062000275826200020f565b9050919050565b620002878162000268565b81146200029357600080fd5b50565b600081519050620002a7816200027c565b92915050565b6000620002ba82620001b6565b9050919050565b620002cc81620002ad565b8114620002d857600080fd5b50565b600081519050620002ec81620002c1565b92915050565b600080600080608085870312156200030f576200030e62000191565b5b60006200031f87828801620001f8565b9450506020620003328782880162000251565b9350506040620003458782880162000296565b92505060606200035887828801620002db565b91505092959194509250565b6134dd80620003746000396000f3fe6080604052600436106101095760003560e01c80636862f58911610095578063b731bc6d11610064578063b731bc6d146102db578063b968c93014610306578063db8bf7e61461032f578063dcbbdbb814610346578063fcd6e1911461037157610109565b80636862f589146102525780636e67fcdd1461027d578063734997e5146102a8578063b60d2617146102b257610109565b80634075af22116100dc5780634075af22146101ab57806342b9309a146101e85780634a282670146101ff5780634b84a647146102095780634fed05181461023457610109565b80632133e3b91461010e57806323ded52a1461014b5780632b0fa3991461017657806338cc483114610180575b600080fd5b34801561011a57600080fd5b5061013560048036038101906101309190612ca1565b61039c565b6040516101429190612cf0565b60405180910390f35b34801561015757600080fd5b506101606103bf565b60405161016d9190612cf0565b60405180910390f35b61017e610487565b005b34801561018c57600080fd5b506101956106ba565b6040516101a29190612d4c565b60405180910390f35b3480156101b757600080fd5b506101d260048036038101906101cd9190612d93565b6106c2565b6040516101df9190612cf0565b60405180910390f35b3480156101f457600080fd5b506101fd610755565b005b610207610ea2565b005b34801561021557600080fd5b5061021e611450565b60405161022b9190612cf0565b60405180910390f35b61023c6114f2565b6040516102499190612cf0565b60405180910390f35b34801561025e57600080fd5b50610267611840565b6040516102749190612cf0565b60405180910390f35b34801561028957600080fd5b50610292611887565b60405161029f9190612cf0565b60405180910390f35b6102b06118ce565b005b3480156102be57600080fd5b506102d960048036038101906102d49190612dc0565b611dce565b005b3480156102e757600080fd5b506102f06120bf565b6040516102fd9190612cf0565b60405180910390f35b34801561031257600080fd5b5061032d60048036038101906103289190612dc0565b61211b565b005b34801561033b57600080fd5b506103446126bb565b005b34801561035257600080fd5b5061035b612c02565b6040516103689190612cf0565b60405180910390f35b34801561037d57600080fd5b50610386612c5e565b6040516103939190612cf0565b60405180910390f35b600061271082846103ad9190612e1c565b6103b79190612e8d565b905092915050565b600080600860003373ffffffffffffffffffffffffffffffffffffffff1673ffffffffffffffffffffffffffffffffffffffff1681526020019081526020016000205411610442576040517f08c379a000000000000000000000000000000000000000000000000000000000815260040161043990612f41565b60405180910390fd5b600860003373ffffffffffffffffffffffffffffffffffffffff1673ffffffffffffffffffffffffffffffffffffffff16815260200190815260200160002054905090565b6000600c60003373ffffffffffffffffffffffffffffffffffffffff1673ffffffffffffffffffffffffffffffffffffffff1681526020019081526020016000205411610509576040517f08c379a000000000000000000000000000000000000000000000000000000000815260040161050090612fad565b60405180910390fd5b600034905060008103610551576040517f08c379a000000000000000000000000000000000000000000000000000000000815260040161054890613019565b60405180910390fd5b6000670de0b6b3a7640000826105679190612e8d565b90506000600360009054906101000a900473ffffffffffffffffffffffffffffffffffffffff1673ffffffffffffffffffffffffffffffffffffffff166307a1cf9e6040518163ffffffff1660e01b8152600401602060405180830381865afa1580156105d8573d6000803e3d6000fd5b505050506040513d601f19601f820116820180604052508101906105fc919061304e565b826106079190612e1c565b905082600b60003373ffffffffffffffffffffffffffffffffffffffff1673ffffffffffffffffffffffffffffffffffffffff1681526020019081526020016000206000828254610658919061307b565b9250508190555080600d60003373ffffffffffffffffffffffffffffffffffffffff1673ffffffffffffffffffffffffffffffffffffffff16815260200190815260200160002060008282546106ae919061307b565b92505081905550505050565b600030905090565b6000600e60008373ffffffffffffffffffffffffffffffffffffffff1673ffffffffffffffffffffffffffffffffffffffff16815260200190815260200160002054600a60008473ffffffffffffffffffffffffffffffffffffffff1673ffffffffffffffffffffffffffffffffffffffff1681526020019081526020016000205461074e919061307b565b9050919050565b6000600860003373ffffffffffffffffffffffffffffffffffffffff1673ffffffffffffffffffffffffffffffffffffffff16815260200190815260200160002054116107d7576040517f08c379a00000000000000000000000000000000000000000000000000000000081526004016107ce90612f41565b60405180910390fd5b60008060009054906101000a900473ffffffffffffffffffffffffffffffffffffffff1673ffffffffffffffffffffffffffffffffffffffff166370a08231336040518263ffffffff1660e01b81526004016108339190612d4c565b602060405180830381865afa158015610850573d6000803e3d6000fd5b505050506040513d601f19601f82011682018060405250810190610874919061304e565b116108b4576040517f08c379a00000000000000000000000000000000000000000000000000000000081526004016108ab90613121565b60405180910390fd5b6000600860003373ffffffffffffffffffffffffffffffffffffffff1673ffffffffffffffffffffffffffffffffffffffff1681526020019081526020016000205490508060008054906101000a900473ffffffffffffffffffffffffffffffffffffffff1673ffffffffffffffffffffffffffffffffffffffff166370a08231336040518263ffffffff1660e01b81526004016109529190612d4c565b602060405180830381865afa15801561096f573d6000803e3d6000fd5b505050506040513d601f19601f82011682018060405250810190610993919061304e565b10156109d4576040517f08c379a00000000000000000000000000000000000000000000000000000000081526004016109cb906131b3565b60405180910390fd5b6000600760003373ffffffffffffffffffffffffffffffffffffffff1673ffffffffffffffffffffffffffffffffffffffff16815260200190815260200160002054905060008054906101000a900473ffffffffffffffffffffffffffffffffffffffff1673ffffffffffffffffffffffffffffffffffffffff166323b872dd3330856040518463ffffffff1660e01b8152600401610a75939291906131d3565b6020604051808303816000875af1158015610a94573d6000803e3d6000fd5b505050506040513d601f19601f82011682018060405250810190610ab89190613242565b506000610ac78260055461039c565b905060008054906101000a900473ffffffffffffffffffffffffffffffffffffffff1673ffffffffffffffffffffffffffffffffffffffff166323b872dd30338486610b13919061326f565b6040518463ffffffff1660e01b8152600401610b31939291906131d3565b6020604051808303816000875af1158015610b50573d6000803e3d6000fd5b505050506040513d601f19601f82011682018060405250810190610b749190613242565b5060008054906101000a900473ffffffffffffffffffffffffffffffffffffffff1673ffffffffffffffffffffffffffffffffffffffff166323b872dd30600260009054906101000a900473ffffffffffffffffffffffffffffffffffffffff1673ffffffffffffffffffffffffffffffffffffffff16632ad415bd6040518163ffffffff1660e01b8152600401602060405180830381865afa158015610c1f573d6000803e3d6000fd5b505050506040513d601f19601f82011682018060405250810190610c4391906132b8565b846040518463ffffffff1660e01b8152600401610c62939291906131d3565b6020604051808303816000875af1158015610c81573d6000803e3d6000fd5b505050506040513d601f19601f82011682018060405250810190610ca59190613242565b50600760003373ffffffffffffffffffffffffffffffffffffffff1673ffffffffffffffffffffffffffffffffffffffff16815260200190815260200160002060009055600860003373ffffffffffffffffffffffffffffffffffffffff1673ffffffffffffffffffffffffffffffffffffffff16815260200190815260200160002060009055600960003373ffffffffffffffffffffffffffffffffffffffff1673ffffffffffffffffffffffffffffffffffffffff168152602001908152602001600020600090556001600a60003373ffffffffffffffffffffffffffffffffffffffff1673ffffffffffffffffffffffffffffffffffffffff1681526020019081526020016000206000828254610dbf919061307b565b9250508190555060005b601080549050811015610e9c573373ffffffffffffffffffffffffffffffffffffffff1660108281548110610e0157610e006132e5565b5b9060005260206000200160009054906101000a900473ffffffffffffffffffffffffffffffffffffffff1673ffffffffffffffffffffffffffffffffffffffff1603610e895760108181548110610e5b57610e5a6132e5565b5b9060005260206000200160006101000a81549073ffffffffffffffffffffffffffffffffffffffff02191690555b8080610e9490613314565b915050610dc9565b50505050565b6000600c60003373ffffffffffffffffffffffffffffffffffffffff1673ffffffffffffffffffffffffffffffffffffffff1681526020019081526020016000205411610f24576040517f08c379a0000000000000000000000000000000000000000000000000000000008152600401610f1b90612fad565b60405180910390fd5b6000600c60003373ffffffffffffffffffffffffffffffffffffffff1673ffffffffffffffffffffffffffffffffffffffff16815260200190815260200160002054905080341015610fab576040517f08c379a0000000000000000000000000000000000000000000000000000000008152600401610fa2906133a8565b60405180910390fd5b6000600b60003373ffffffffffffffffffffffffffffffffffffffff1673ffffffffffffffffffffffffffffffffffffffff1681526020019081526020016000205490506000610ffd8260055461039c565b905060003390508073ffffffffffffffffffffffffffffffffffffffff166108fc838561102a919061326f565b9081150290604051600060405180830381858888f19350505050158015611055573d6000803e3d6000fd5b5083471015611099576040517f08c379a000000000000000000000000000000000000000000000000000000000815260040161109090613414565b60405180910390fd5b6000600160009054906101000a900473ffffffffffffffffffffffffffffffffffffffff1673ffffffffffffffffffffffffffffffffffffffff1663996e96f06040518163ffffffff1660e01b8152600401602060405180830381865afa158015611108573d6000803e3d6000fd5b505050506040513d601f19601f8201168201806040525081019061112c91906132b8565b90508073ffffffffffffffffffffffffffffffffffffffff166108fc869081150290604051600060405180830381858888f19350505050158015611174573d6000803e3d6000fd5b506000600260009054906101000a900473ffffffffffffffffffffffffffffffffffffffff1673ffffffffffffffffffffffffffffffffffffffff16632ad415bd6040518163ffffffff1660e01b8152600401602060405180830381865afa1580156111e4573d6000803e3d6000fd5b505050506040513d601f19601f8201168201806040525081019061120891906132b8565b90508073ffffffffffffffffffffffffffffffffffffffff166108fc859081150290604051600060405180830381858888f19350505050158015611250573d6000803e3d6000fd5b50600b60003373ffffffffffffffffffffffffffffffffffffffff1673ffffffffffffffffffffffffffffffffffffffff16815260200190815260200160002060009055600c60003373ffffffffffffffffffffffffffffffffffffffff1673ffffffffffffffffffffffffffffffffffffffff16815260200190815260200160002060009055600d60003373ffffffffffffffffffffffffffffffffffffffff1673ffffffffffffffffffffffffffffffffffffffff168152602001908152602001600020600090556001600e60003373ffffffffffffffffffffffffffffffffffffffff1673ffffffffffffffffffffffffffffffffffffffff168152602001908152602001600020600082825461136a919061307b565b9250508190555060005b600f80549050811015611447573373ffffffffffffffffffffffffffffffffffffffff16600f82815481106113ac576113ab6132e5565b5b9060005260206000200160009054906101000a900473ffffffffffffffffffffffffffffffffffffffff1673ffffffffffffffffffffffffffffffffffffffff160361143457600f8181548110611406576114056132e5565b5b9060005260206000200160006101000a81549073ffffffffffffffffffffffffffffffffffffffff02191690555b808061143f90613314565b915050611374565b50505050505050565b60008060009054906101000a900473ffffffffffffffffffffffffffffffffffffffff1673ffffffffffffffffffffffffffffffffffffffff166370a08231306040518263ffffffff1660e01b81526004016114ac9190612d4c565b602060405180830381865afa1580156114c9573d6000803e3d6000fd5b505050506040513d601f19601f820116820180604052508101906114ed919061304e565b905090565b6000803490506000810361153b576040517f08c379a000000000000000000000000000000000000000000000000000000000815260040161153290613019565b60405180910390fd5b6000670de0b6b3a7640000826115519190612e8d565b90506000600f339080600181540180825580915050600190039060005260206000200160009091909190916101000a81548173ffffffffffffffffffffffffffffffffffffffff021916908373ffffffffffffffffffffffffffffffffffffffff160217905550600360009054906101000a900473ffffffffffffffffffffffffffffffffffffffff1673ffffffffffffffffffffffffffffffffffffffff166307a1cf9e6040518163ffffffff1660e01b8152600401602060405180830381865afa158015611625573d6000803e3d6000fd5b505050506040513d601f19601f82011682018060405250810190611649919061304e565b826116549190612e1c565b905060006116648460045461039c565b905083600b60003373ffffffffffffffffffffffffffffffffffffffff1673ffffffffffffffffffffffffffffffffffffffff16815260200190815260200160002060008282546116b5919061307b565b9250508190555080600c60003373ffffffffffffffffffffffffffffffffffffffff1673ffffffffffffffffffffffffffffffffffffffff168152602001908152602001600020600082825461170b919061307b565b9250508190555081600d60003373ffffffffffffffffffffffffffffffffffffffff1673ffffffffffffffffffffffffffffffffffffffff1681526020019081526020016000206000828254611761919061307b565b92505081905550600160009054906101000a900473ffffffffffffffffffffffffffffffffffffffff1673ffffffffffffffffffffffffffffffffffffffff166394a54a1282336040518363ffffffff1660e01b81526004016117c5929190613455565b600060405180830381600087803b1580156117df57600080fd5b505af11580156117f3573d6000803e3d6000fd5b50505050600d60003373ffffffffffffffffffffffffffffffffffffffff1673ffffffffffffffffffffffffffffffffffffffff1681526020019081526020016000205494505050505090565b6000600e60003373ffffffffffffffffffffffffffffffffffffffff1673ffffffffffffffffffffffffffffffffffffffff16815260200190815260200160002054905090565b6000600a60003373ffffffffffffffffffffffffffffffffffffffff1673ffffffffffffffffffffffffffffffffffffffff16815260200190815260200160002054905090565b6000600360009054906101000a900473ffffffffffffffffffffffffffffffffffffffff1673ffffffffffffffffffffffffffffffffffffffff166319d747236040518163ffffffff1660e01b8152600401602060405180830381865afa15801561193d573d6000803e3d6000fd5b505050506040513d601f19601f82011682018060405250810190611961919061304e565b905060005b600f80549050811015611dca576000670de0b6b3a7640000600b6000600f8581548110611996576119956132e5565b5b9060005260206000200160009054906101000a900473ffffffffffffffffffffffffffffffffffffffff1673ffffffffffffffffffffffffffffffffffffffff1673ffffffffffffffffffffffffffffffffffffffff16815260200190815260200160002054611a069190612e8d565b83611a119190612e1c565b9050600d6000600f8481548110611a2b57611a2a6132e5565b5b9060005260206000200160009054906101000a900473ffffffffffffffffffffffffffffffffffffffff1673ffffffffffffffffffffffffffffffffffffffff1673ffffffffffffffffffffffffffffffffffffffff168152602001908152602001600020548111611db6576000600160009054906101000a900473ffffffffffffffffffffffffffffffffffffffff1673ffffffffffffffffffffffffffffffffffffffff1663996e96f06040518163ffffffff1660e01b8152600401602060405180830381865afa158015611b06573d6000803e3d6000fd5b505050506040513d601f19601f82011682018060405250810190611b2a91906132b8565b90508073ffffffffffffffffffffffffffffffffffffffff166108fc600b6000600f8781548110611b5e57611b5d6132e5565b5b9060005260206000200160009054906101000a900473ffffffffffffffffffffffffffffffffffffffff1673ffffffffffffffffffffffffffffffffffffffff1673ffffffffffffffffffffffffffffffffffffffff168152602001908152602001600020549081150290604051600060405180830381858888f19350505050158015611bef573d6000803e3d6000fd5b50600b6000600f8581548110611c0857611c076132e5565b5b9060005260206000200160009054906101000a900473ffffffffffffffffffffffffffffffffffffffff1673ffffffffffffffffffffffffffffffffffffffff1673ffffffffffffffffffffffffffffffffffffffff16815260200190815260200160002060009055600c6000600f8581548110611c8957611c886132e5565b5b9060005260206000200160009054906101000a900473ffffffffffffffffffffffffffffffffffffffff1673ffffffffffffffffffffffffffffffffffffffff1673ffffffffffffffffffffffffffffffffffffffff16815260200190815260200160002060009055600d6000600f8581548110611d0a57611d096132e5565b5b9060005260206000200160009054906101000a900473ffffffffffffffffffffffffffffffffffffffff1673ffffffffffffffffffffffffffffffffffffffff1673ffffffffffffffffffffffffffffffffffffffff16815260200190815260200160002060009055600f8381548110611d8757611d866132e5565b5b9060005260206000200160006101000a81549073ffffffffffffffffffffffffffffffffffffffff0219169055505b508080611dc290613314565b915050611966565b5050565b6000600860003373ffffffffffffffffffffffffffffffffffffffff1673ffffffffffffffffffffffffffffffffffffffff1681526020019081526020016000205411611e50576040517f08c379a0000000000000000000000000000000000000000000000000000000008152600401611e4790612f41565b60405180910390fd5b60008103611e93576040517f08c379a0000000000000000000000000000000000000000000000000000000008152600401611e8a90613019565b60405180910390fd5b8060008054906101000a900473ffffffffffffffffffffffffffffffffffffffff1673ffffffffffffffffffffffffffffffffffffffff166370a08231336040518263ffffffff1660e01b8152600401611eed9190612d4c565b602060405180830381865afa158015611f0a573d6000803e3d6000fd5b505050506040513d601f19601f82011682018060405250810190611f2e919061304e565b1015611f6f576040517f08c379a0000000000000000000000000000000000000000000000000000000008152600401611f66906131b3565b60405180910390fd5b6000600360009054906101000a900473ffffffffffffffffffffffffffffffffffffffff1673ffffffffffffffffffffffffffffffffffffffff1663946e34726040518163ffffffff1660e01b8152600401602060405180830381865afa158015611fde573d6000803e3d6000fd5b505050506040513d601f19601f82011682018060405250810190612002919061304e565b8261200d9190612e1c565b905081600760003373ffffffffffffffffffffffffffffffffffffffff1673ffffffffffffffffffffffffffffffffffffffff168152602001908152602001600020600082825461205e919061307b565b9250508190555080600960003373ffffffffffffffffffffffffffffffffffffffff1673ffffffffffffffffffffffffffffffffffffffff16815260200190815260200160002060008282546120b4919061307b565b925050819055505050565b60006064600e60003373ffffffffffffffffffffffffffffffffffffffff1673ffffffffffffffffffffffffffffffffffffffff1681526020019081526020016000206000828254612111919061307b565b9250508190555090565b6000810361215e576040517f08c379a000000000000000000000000000000000000000000000000000000000815260040161215590613019565b60405180910390fd5b8060008054906101000a900473ffffffffffffffffffffffffffffffffffffffff1673ffffffffffffffffffffffffffffffffffffffff166370a08231336040518263ffffffff1660e01b81526004016121b89190612d4c565b602060405180830381865afa1580156121d5573d6000803e3d6000fd5b505050506040513d601f19601f820116820180604052508101906121f9919061304e565b101561223a576040517f08c379a0000000000000000000000000000000000000000000000000000000008152600401612231906131b3565b60405180910390fd5b6010339080600181540180825580915050600190039060005260206000200160009091909190916101000a81548173ffffffffffffffffffffffffffffffffffffffff021916908373ffffffffffffffffffffffffffffffffffffffff16021790555060006122ab8260045461039c565b905081600760003373ffffffffffffffffffffffffffffffffffffffff1673ffffffffffffffffffffffffffffffffffffffff16815260200190815260200160002060008282546122fc919061307b565b9250508190555080600860003373ffffffffffffffffffffffffffffffffffffffff1673ffffffffffffffffffffffffffffffffffffffff1681526020019081526020016000206000828254612352919061307b565b925050819055506000600360009054906101000a900473ffffffffffffffffffffffffffffffffffffffff1673ffffffffffffffffffffffffffffffffffffffff1663946e34726040518163ffffffff1660e01b8152600401602060405180830381865afa1580156123c8573d6000803e3d6000fd5b505050506040513d601f19601f820116820180604052508101906123ec919061304e565b836123f79190612e1c565b905080600960003373ffffffffffffffffffffffffffffffffffffffff1673ffffffffffffffffffffffffffffffffffffffff1681526020019081526020016000206000828254612448919061307b565b925050819055506000600160009054906101000a900473ffffffffffffffffffffffffffffffffffffffff1673ffffffffffffffffffffffffffffffffffffffff1663996e96f06040518163ffffffff1660e01b8152600401602060405180830381865afa1580156124be573d6000803e3d6000fd5b505050506040513d601f19601f820116820180604052508101906124e291906132b8565b905060008054906101000a900473ffffffffffffffffffffffffffffffffffffffff1673ffffffffffffffffffffffffffffffffffffffff166323b872dd3330876040518463ffffffff1660e01b8152600401612541939291906131d3565b6020604051808303816000875af1158015612560573d6000803e3d6000fd5b505050506040513d601f19601f820116820180604052508101906125849190613242565b50600160009054906101000a900473ffffffffffffffffffffffffffffffffffffffff1673ffffffffffffffffffffffffffffffffffffffff1663598c5b4284306040518363ffffffff1660e01b81526004016125e292919061347e565b600060405180830381600087803b1580156125fc57600080fd5b505af1158015612610573d6000803e3d6000fd5b5050505060008054906101000a900473ffffffffffffffffffffffffffffffffffffffff1673ffffffffffffffffffffffffffffffffffffffff166323b872dd3033866040518463ffffffff1660e01b8152600401612671939291906131d3565b6020604051808303816000875af1158015612690573d6000803e3d6000fd5b505050506040513d601f19601f820116820180604052508101906126b49190613242565b5050505050565b6000600360009054906101000a900473ffffffffffffffffffffffffffffffffffffffff1673ffffffffffffffffffffffffffffffffffffffff1663ffa8ce506040518163ffffffff1660e01b8152600401602060405180830381865afa15801561272a573d6000803e3d6000fd5b505050506040513d601f19601f8201168201806040525081019061274e919061304e565b905060005b601080549050811015612bfe576000600760006010848154811061277a576127796132e5565b5b9060005260206000200160009054906101000a900473ffffffffffffffffffffffffffffffffffffffff1673ffffffffffffffffffffffffffffffffffffffff1673ffffffffffffffffffffffffffffffffffffffff16815260200190815260200160002054836127eb9190612e1c565b90506009600060108481548110612805576128046132e5565b5b9060005260206000200160009054906101000a900473ffffffffffffffffffffffffffffffffffffffff1673ffffffffffffffffffffffffffffffffffffffff1673ffffffffffffffffffffffffffffffffffffffff168152602001908152602001600020548111612bea57600060108381548110612887576128866132e5565b5b9060005260206000200160009054906101000a900473ffffffffffffffffffffffffffffffffffffffff16905060008054906101000a900473ffffffffffffffffffffffffffffffffffffffff1673ffffffffffffffffffffffffffffffffffffffff166323b872dd30600160009054906101000a900473ffffffffffffffffffffffffffffffffffffffff1673ffffffffffffffffffffffffffffffffffffffff1663996e96f06040518163ffffffff1660e01b8152600401602060405180830381865afa15801561295e573d6000803e3d6000fd5b505050506040513d601f19601f8201168201806040525081019061298291906132b8565b600760008673ffffffffffffffffffffffffffffffffffffffff1673ffffffffffffffffffffffffffffffffffffffff168152602001908152602001600020546040518463ffffffff1660e01b81526004016129e0939291906131d3565b6020604051808303816000875af11580156129ff573d6000803e3d6000fd5b505050506040513d601f19601f82011682018060405250810190612a239190613242565b506007600060108581548110612a3c57612a3b6132e5565b5b9060005260206000200160009054906101000a900473ffffffffffffffffffffffffffffffffffffffff1673ffffffffffffffffffffffffffffffffffffffff1673ffffffffffffffffffffffffffffffffffffffff168152602001908152602001600020600090556008600060108581548110612abd57612abc6132e5565b5b9060005260206000200160009054906101000a900473ffffffffffffffffffffffffffffffffffffffff1673ffffffffffffffffffffffffffffffffffffffff1673ffffffffffffffffffffffffffffffffffffffff168152602001908152602001600020600090556009600060108581548110612b3e57612b3d6132e5565b5b9060005260206000200160009054906101000a900473ffffffffffffffffffffffffffffffffffffffff1673ffffffffffffffffffffffffffffffffffffffff1673ffffffffffffffffffffffffffffffffffffffff1681526020019081526020016000206000905560108381548110612bbb57612bba6132e5565b5b9060005260206000200160006101000a81549073ffffffffffffffffffffffffffffffffffffffff0219169055505b508080612bf690613314565b915050612753565b5050565b60006064600a60003373ffffffffffffffffffffffffffffffffffffffff1673ffffffffffffffffffffffffffffffffffffffff1681526020019081526020016000206000828254612c54919061307b565b9250508190555090565b600047905090565b600080fd5b6000819050919050565b612c7e81612c6b565b8114612c8957600080fd5b50565b600081359050612c9b81612c75565b92915050565b60008060408385031215612cb857612cb7612c66565b5b6000612cc685828601612c8c565b9250506020612cd785828601612c8c565b9150509250929050565b612cea81612c6b565b82525050565b6000602082019050612d056000830184612ce1565b92915050565b600073ffffffffffffffffffffffffffffffffffffffff82169050919050565b6000612d3682612d0b565b9050919050565b612d4681612d2b565b82525050565b6000602082019050612d616000830184612d3d565b92915050565b612d7081612d2b565b8114612d7b57600080fd5b50565b600081359050612d8d81612d67565b92915050565b600060208284031215612da957612da8612c66565b5b6000612db784828501612d7e565b91505092915050565b600060208284031215612dd657612dd5612c66565b5b6000612de484828501612c8c565b91505092915050565b7f4e487b7100000000000000000000000000000000000000000000000000000000600052601160045260246000fd5b6000612e2782612c6b565b9150612e3283612c6b565b9250828202612e4081612c6b565b91508282048414831517612e5757612e56612ded565b5b5092915050565b7f4e487b7100000000000000000000000000000000000000000000000000000000600052601260045260246000fd5b6000612e9882612c6b565b9150612ea383612c6b565b925082612eb357612eb2612e5e565b5b828204905092915050565b600082825260208201905092915050565b7f596f7520646f206e6f74206861766520616e79206f75747374616e64696e672060008201527f6465627400000000000000000000000000000000000000000000000000000000602082015250565b6000612f2b602483612ebe565b9150612f3682612ecf565b604082019050919050565b60006020820190508181036000830152612f5a81612f1e565b9050919050565b7f596f7520646f206e6f742068617665206f75747374616e64696e672064656274600082015250565b6000612f97602083612ebe565b9150612fa282612f61565b602082019050919050565b60006020820190508181036000830152612fc681612f8a565b9050919050565b7f506c6561736520707574206d6f726520636f6c6c61746572616c000000000000600082015250565b6000613003601a83612ebe565b915061300e82612fcd565b602082019050919050565b6000602082019050818103600083015261303281612ff6565b9050919050565b60008151905061304881612c75565b92915050565b60006020828403121561306457613063612c66565b5b600061307284828501613039565b91505092915050565b600061308682612c6b565b915061309183612c6b565b92508282019050808211156130a9576130a8612ded565b5b92915050565b7f596f7520646f206e6f74206861766520656e6f756768205553444320746f207260008201527f6570617920746869732064656274000000000000000000000000000000000000602082015250565b600061310b602e83612ebe565b9150613116826130af565b604082019050919050565b6000602082019050818103600083015261313a816130fe565b9050919050565b7f596f7520646f206e6f74206861766520656e6f756768204156415820746f6b6560008201527f6e21000000000000000000000000000000000000000000000000000000000000602082015250565b600061319d602283612ebe565b91506131a882613141565b604082019050919050565b600060208201905081810360008301526131cc81613190565b9050919050565b60006060820190506131e86000830186612d3d565b6131f56020830185612d3d565b6132026040830184612ce1565b949350505050565b60008115159050919050565b61321f8161320a565b811461322a57600080fd5b50565b60008151905061323c81613216565b92915050565b60006020828403121561325857613257612c66565b5b60006132668482850161322d565b91505092915050565b600061327a82612c6b565b915061328583612c6b565b925082820390508181111561329d5761329c612ded565b5b92915050565b6000815190506132b281612d67565b92915050565b6000602082840312156132ce576132cd612c66565b5b60006132dc848285016132a3565b91505092915050565b7f4e487b7100000000000000000000000000000000000000000000000000000000600052603260045260246000fd5b600061331f82612c6b565b91507fffffffffffffffffffffffffffffffffffffffffffffffffffffffffffffffff820361335157613350612ded565b5b600182019050919050565b7f56616c756520696e736572746564206973206e6f7420656e6f75676800000000600082015250565b6000613392601c83612ebe565b915061339d8261335c565b602082019050919050565b600060208201905081810360008301526133c181613385565b9050919050565b7f4552524f52000000000000000000000000000000000000000000000000000000600082015250565b60006133fe600583612ebe565b9150613409826133c8565b602082019050919050565b6000602082019050818103600083015261342d816133f1565b9050919050565b600061343f82612d0b565b9050919050565b61344f81613434565b82525050565b600060408201905061346a6000830185612ce1565b6134776020830184613446565b9392505050565b60006040820190506134936000830185612ce1565b6134a06020830184612d3d565b939250505056fea2646970667358221220c871583caa4d0514f98ff38ba8b1d908c4eb0b7ed418fa5de6b5cbcb92dfa5e464736f6c63430008110033",
  "immutableReferences": {},
  "source": "// SPDX-License-Identifier: MIT\npragma solidity ^0.8.7;\nimport \"./LiquidityPool.sol\";\nimport \"./ERC20.sol\";\nimport \"./Reserves.sol\";\nimport \"./PriceFeed.sol\";\nimport \"./Avax.sol\";\n\ncontract Lending {\n    Avax avaxToken;\n    LiquidityPool liquidityPool;\n    Reserves reserves;\n    PriceFeed priceFeed;\n    uint256 _maximumLendingPercentage = 8500; //85% of collateral\n    uint256 _lendingFee = 500; //5% of total collateral\n    address _debtOwner = msg.sender;\n\n    mapping(address => uint256) AVAXCollateralLedger;\n    mapping(address => uint256) AVAXLoanLedger;\n    mapping(address => uint256) AVAXCollateralValueLedgerinUSD;\n    mapping(address => uint256) AVAXCUserTotalReturnTransactions;\n\n    mapping(address => uint256) ETHCollateralLedger;\n    mapping(address => uint256) ETHLoanLedger;\n    mapping(address => uint256) ETHCollateralValueLedgerinUSD;\n    mapping(address => uint256) ETHUserTotalReturnTransactions;\n\n    address[] ETHDebtors; // keep track who is still has outstanding loans\n    address[] AVAXDebtors; // keep track who is still has outstanding loans\n    \n     constructor(Avax avaxTokenAddress, LiquidityPool lp, Reserves reservesAddress,  PriceFeed pf) {\n        avaxToken = avaxTokenAddress;\n        liquidityPool = lp;\n        reserves = reservesAddress;\n        priceFeed = pf;\n    }\n\n    //Take collateral and give 85% \n    function borrowAVAX(uint256 depositCollateral) public {\n        require(depositCollateral != 0, \"Please put more collateral\");\n        require (avaxToken.balanceOf(msg.sender) >= depositCollateral, \"You do not have enough AVAX token!\");\n        AVAXDebtors.push(msg.sender);\n        uint256 _loanAmount = calculatePercentage(depositCollateral, _maximumLendingPercentage); //85% of collateral\n\n        AVAXCollateralLedger[msg.sender] += depositCollateral;\n        AVAXLoanLedger[msg.sender] += _loanAmount;\n\n        uint256 depositCollateralInUSD = depositCollateral * priceFeed.getAvaxPriceFirst(); //in USD\n        AVAXCollateralValueLedgerinUSD[msg.sender] += depositCollateralInUSD;\n\n        address liqudityPoolAddress = liquidityPool.getLPAddress();\n        avaxToken.transferFrom(msg.sender, address(this), depositCollateral); //Transfer borrower collateral to this contract\n        liquidityPool.sendAvaxToLendingContract(_loanAmount, address(this)); // Transfer AVAX from LP to this contract\n        avaxToken.transferFrom(address(this), msg.sender, _loanAmount); //Take assets from Liquidity Pool and send to borrower\n    }\n\n    function repayAVAXDebt() public onlyAVAXDebtHolder enoughAVAXInWallet {\n        //require only the person who loan it can pay back\n        uint256 amountToReturn = AVAXLoanLedger[msg.sender]; //Get amount to return from AvaxLoanLedger\n        require (avaxToken.balanceOf(msg.sender) >= amountToReturn, \"You do not have enough AVAX token!\");\n\n        uint256 collateralAmount = AVAXCollateralLedger[msg.sender]; //Get the collteral that is held by the Smart contract\n        avaxToken.transferFrom(msg.sender, address(this), amountToReturn); //Transfer USDC to pay back from wallet to this smart contract\n        uint256 lendingFeeToDeduct = calculatePercentage(collateralAmount, _lendingFee); //Calculate the avax taken as comission 5%\n        avaxToken.transferFrom(address(this), msg.sender, (collateralAmount - lendingFeeToDeduct)); //Transfer only 95% back\n        avaxToken.transferFrom(address(this), reserves.getReservesAddress(), lendingFeeToDeduct); //Transfer 5% to the reserves\n        \n        delete AVAXCollateralLedger[msg.sender]; //Reset the ledger as the loan has been paid\n        delete AVAXLoanLedger[msg.sender]; //Reset the ledger as the loan has been paid\n        delete AVAXCollateralValueLedgerinUSD[msg.sender];\n        AVAXCUserTotalReturnTransactions[msg.sender] += 1;\n\n        for (uint256 i = 0; i < AVAXDebtors.length; i++) {\n            if (AVAXDebtors[i] == msg.sender) {\n                delete AVAXDebtors[i];\n            }\n        }\n    }\n\n    function topUpAVAXCollateral(uint256 topUpCollateral) public onlyAVAXDebtHolder {\n        \n        require(topUpCollateral != 0, \"Please put more collateral\");\n        require (avaxToken.balanceOf(msg.sender) >= topUpCollateral, \"You do not have enough AVAX token!\");\n        uint256 topUpCollateralInUSD; \n        topUpCollateralInUSD = topUpCollateral * priceFeed.getAvaxPriceFirst(); //in USD\n\n        AVAXCollateralLedger[msg.sender] += topUpCollateral;\n        AVAXCollateralValueLedgerinUSD[msg.sender] += topUpCollateralInUSD;\n    }\n\n     function liquidateAVAX() public {\n        uint256 currentPriceOfAVAX = priceFeed.getAvaxPriceToLiquidate();\n        for (uint i = 0; i < AVAXDebtors.length; i++) {\n            uint256 newCollateralPrice = (currentPriceOfAVAX * (AVAXCollateralLedger[AVAXDebtors[i]]));\n            if (newCollateralPrice <= AVAXCollateralValueLedgerinUSD[AVAXDebtors[i]]) {\n                //liquidate by sending collateral to the pool\n                 //addressToSend.transfer(ETHCollateralLedger[ETHDebtors[i]]);\n                 address accountAddress = AVAXDebtors[i];\n                 avaxToken.transferFrom(address(this), liquidityPool.getLPAddress(), AVAXCollateralLedger[accountAddress]);\n                 delete AVAXCollateralLedger[AVAXDebtors[i]]; //Reset the ledger as the loan has been Liquidated\n                 delete AVAXLoanLedger[AVAXDebtors[i]]; //Reset the ledger as the loan has been Liquidated\n                 delete AVAXCollateralValueLedgerinUSD[AVAXDebtors[i]];\n                 delete AVAXDebtors[i];\n            }\n        }\n    }\n\n     //Take collateral and give 85% \n    function borrowEth() public payable returns (uint256) {\n        uint256 depositCollateral = msg.value;\n        require(depositCollateral != 0, \"Please put more collateral\");\n        uint256 depositCollateralInEth = depositCollateral / 1000000000000000000;\n        uint256 depositCollateralInUSD; \n        ETHDebtors.push(msg.sender);\n        depositCollateralInUSD = depositCollateralInEth * priceFeed.getEthPriceFirst(); //in USD\n\n        uint256 _loanAmount = calculatePercentage(depositCollateral, _maximumLendingPercentage); //85% of collateral\n        ETHCollateralLedger[msg.sender] += depositCollateral;\n        ETHLoanLedger[msg.sender] += _loanAmount;\n        ETHCollateralValueLedgerinUSD[msg.sender] += depositCollateralInUSD;\n        \n        liquidityPool.sendEthToLender(_loanAmount, payable(msg.sender));\n        return ETHCollateralValueLedgerinUSD[msg.sender];\n    }\n\n    function topUpETHCollateral() public payable onlyEthDebtHolder {\n        uint256 topUpCollateral = msg.value;\n        require(topUpCollateral != 0, \"Please put more collateral\");\n        uint256 topUpCollateralInEth = topUpCollateral / 1000000000000000000;\n        uint256 topUpCollateralInUSD; \n        topUpCollateralInUSD = topUpCollateralInEth * priceFeed.getEthPriceFirst(); //in USD\n\n        ETHCollateralLedger[msg.sender] += topUpCollateral;\n        ETHCollateralValueLedgerinUSD[msg.sender] += topUpCollateralInUSD;\n    }\n\n   \n\n    function repayEth() public payable onlyEthDebtHolder {\n        //require only the person who loan it can pay back\n     \n        uint256 amountToReturn = ETHLoanLedger[msg.sender]; //Get amount to return from USDCLoanLedger\n        require (msg.value >= amountToReturn, \"Value inserted is not enough\");\n        uint256 collateralAmount = ETHCollateralLedger[msg.sender]; //Get the collteral that is held by the Smart contract\n       \n        uint256 lendingFeeToDeduct = calculatePercentage(collateralAmount, _lendingFee); //Calculate the avax taken as comission 5%\n        address payable addressToSend = payable (msg.sender);\n        addressToSend.transfer(collateralAmount - lendingFeeToDeduct); //Transfer Collateral - lending fee From This contract back to msg.sender\n        //Send back to LP\n        require (address(this).balance >= amountToReturn, \"ERROR\");\n        address payable lpAddress = payable (liquidityPool.getLPAddress());\n        lpAddress.transfer(amountToReturn);\n\n        //Send comissionFee to reserves\n        address payable reservesAddress = payable(reserves.getReservesAddress());\n        reservesAddress.transfer(lendingFeeToDeduct);\n\n        delete ETHCollateralLedger[msg.sender]; //Reset the ledger as the loan has been paid\n        delete ETHLoanLedger[msg.sender]; //Reset the ledger as the loan has been paid\n        delete ETHCollateralValueLedgerinUSD[msg.sender];\n        ETHUserTotalReturnTransactions[msg.sender] += 1;\n        \n        for (uint256 i = 0; i < ETHDebtors.length; i++) {\n            if (ETHDebtors[i] == msg.sender) {\n                delete ETHDebtors[i];\n            }\n        }\n    }\n           \n    function liquidateETH() public payable {\n        uint256 currentPriceOfEth = priceFeed.getEthPriceToLiquidate();\n        for (uint i = 0; i < ETHDebtors.length; i++) {\n            uint256 newCollateralPrice = (currentPriceOfEth * (ETHCollateralLedger[ETHDebtors[i]] / 1000000000000000000));\n            if (newCollateralPrice <= ETHCollateralValueLedgerinUSD[ETHDebtors[i]]) {\n                //liquidate by sending collateral to the pool\n                address payable addressToSend = payable (liquidityPool.getLPAddress());\n                addressToSend.transfer(ETHCollateralLedger[ETHDebtors[i]]);\n                 delete ETHCollateralLedger[ETHDebtors[i]]; //Reset the ledger as the loan has been Liquidated\n                 delete ETHLoanLedger[ETHDebtors[i]]; //Reset the ledger as the loan has been Liquidated\n                 delete ETHCollateralValueLedgerinUSD[ETHDebtors[i]];\n                 delete ETHDebtors[i];\n            }\n        }\n    }\n\n    function getUserTotaETHRepaymentAmount() public view returns (uint256) {\n        return ETHUserTotalReturnTransactions[msg.sender];\n    }\n\n    function getUserTotaAVAXRepaymentAmount() public view returns (uint256) {\n        return AVAXCUserTotalReturnTransactions[msg.sender];\n    }\n\n    //For testing purposes\n    function initUserTotalEthRepaymentAmount() public returns (uint256) {\n       ETHUserTotalReturnTransactions[msg.sender] += 100;\n    }\n\n    function initUserTotalAVAXRepaymentAmount() public returns (uint256) {\n       AVAXCUserTotalReturnTransactions[msg.sender] += 100;\n    }\n\n    //This function calculates Percentages\n    //Used to calculate the amount of Loan that can be given and platform lendingFees\n    //e.g \n    //Assume collateral = 100, desired percentage = 85%\n    //function returns 85\n\n    function calculatePercentage(uint256 collateralAmount, uint256 percentage) public pure returns (uint256) {\n        return (collateralAmount * percentage) / 10_000;\n    }\n\n    function getHoldingAVAXCollateral() public view returns (uint256) {\n        return avaxToken.balanceOf(address(this));\n    }\n\n    function getHoldingEthCollateral() public view returns (uint256) {\n        return address(this).balance;\n    }\n\n    //Functions to return the amount of Debt the msg.sender has in USDC\n    function getAVAXDebt() public view onlyAVAXDebtHolder returns (uint256) {\n        return (AVAXLoanLedger[msg.sender]);\n    }\n\n    function getAddress() public view returns (address) {\n        return address(this);\n    }\n\n    //Function to return transaction count\n    function getTotalTransactionCount(address user) public view returns (uint256) {\n        return AVAXCUserTotalReturnTransactions[user] + ETHUserTotalReturnTransactions[user];\n    }\n\n    modifier onlyAVAXDebtHolder() {\n        require(AVAXLoanLedger[msg.sender] > 0, \"You do not have any outstanding debt\");\n        _;\n    }\n\n    modifier onlyEthDebtHolder() {\n        require(ETHLoanLedger[msg.sender] > 0, \"You do not have outstanding debt\");\n        _;\n    }\n    \n     modifier enoughAVAXInWallet() {\n        require(avaxToken.balanceOf(msg.sender) > 0, \"You do not have enough USDC to repay this debt\");\n        _;\n    }\n}",
  "sourcePath": "/Users/yijie/Desktop/Y2S2/IS4302/Project/IS4302_Group_6_Project/contracts/Lending.sol",
  "compiler": {
    "name": "solc",
    "version": "0.8.17+commit.8df45f5f.Emscripten.clang"
  },
  "schemaVersion": "3.4.11",
  "updatedAt": "2023-03-21T10:45:09.866Z",
  "networkType": "ethereum",
  "devdoc": {
    "kind": "dev",
    "methods": {},
    "version": 1
  },
  "userdoc": {
    "kind": "user",
    "methods": {},
    "version": 1
  }
}