{
  "contractName": "Lending",
  "abi": [
    {
      "inputs": [
        {
          "internalType": "contract USDC",
          "name": "usdcTokenAddress",
          "type": "address"
        }
      ],
      "stateMutability": "nonpayable",
      "type": "constructor"
    },
    {
      "inputs": [
        {
          "internalType": "uint256",
          "name": "depositCollateral",
          "type": "uint256"
        }
      ],
      "name": "borrow",
      "outputs": [],
      "stateMutability": "nonpayable",
      "type": "function"
    },
    {
      "inputs": [],
      "name": "repay",
      "outputs": [],
      "stateMutability": "nonpayable",
      "type": "function"
    },
    {
      "inputs": [
        {
          "internalType": "uint256",
          "name": "collateralAmount",
          "type": "uint256"
        },
        {
          "internalType": "uint256",
          "name": "percentage",
          "type": "uint256"
        }
      ],
      "name": "calculatePercentage",
      "outputs": [
        {
          "internalType": "uint256",
          "name": "",
          "type": "uint256"
        }
      ],
      "stateMutability": "pure",
      "type": "function"
    },
    {
      "inputs": [],
      "name": "getHoldingCollateral",
      "outputs": [
        {
          "internalType": "uint256",
          "name": "",
          "type": "uint256"
        }
      ],
      "stateMutability": "view",
      "type": "function"
    },
    {
      "inputs": [],
      "name": "getLoanAmount",
      "outputs": [
        {
          "internalType": "uint256",
          "name": "",
          "type": "uint256"
        }
      ],
      "stateMutability": "view",
      "type": "function"
    }
  ],
  "bytecode": "0x60806040526121346002556101f46003556000600455600060055533600660006101000a81548173ffffffffffffffffffffffffffffffffffffffff021916908373ffffffffffffffffffffffffffffffffffffffff16021790555034801561006757600080fd5b50604051610ba3380380610ba383398181016040528101906100899190610144565b806000806101000a81548173ffffffffffffffffffffffffffffffffffffffff021916908373ffffffffffffffffffffffffffffffffffffffff16021790555050610171565b600080fd5b600073ffffffffffffffffffffffffffffffffffffffff82169050919050565b60006100ff826100d4565b9050919050565b6000610111826100f4565b9050919050565b61012181610106565b811461012c57600080fd5b50565b60008151905061013e81610118565b92915050565b60006020828403121561015a576101596100cf565b5b60006101688482850161012f565b91505092915050565b610a23806101806000396000f3fe608060405234801561001057600080fd5b50600436106100575760003560e01c80632133e3b91461005c578063402d88831461008c578063a923f37514610096578063c5ebeaec146100b4578063f4b01b18146100d0575b600080fd5b61007660048036038101906100719190610632565b6100ee565b6040516100839190610681565b60405180910390f35b610094610111565b005b61009e610307565b6040516100ab9190610681565b60405180910390f35b6100ce60048036038101906100c9919061069c565b610311565b005b6100d86105ed565b6040516100e59190610681565b60405180910390f35b600061271082846100ff91906106f8565b6101099190610769565b905092915050565b600660009054906101000a900473ffffffffffffffffffffffffffffffffffffffff1673ffffffffffffffffffffffffffffffffffffffff163373ffffffffffffffffffffffffffffffffffffffff16146101a1576040517f08c379a0000000000000000000000000000000000000000000000000000000008152600401610198906107f7565b60405180910390fd5b60008054906101000a900473ffffffffffffffffffffffffffffffffffffffff1673ffffffffffffffffffffffffffffffffffffffff166323b872dd33306004546040518463ffffffff1660e01b815260040161020093929190610858565b6020604051808303816000875af115801561021f573d6000803e3d6000fd5b505050506040513d601f19601f8201168201806040525081019061024391906108c7565b5060006102546004546003546100ee565b905060008054906101000a900473ffffffffffffffffffffffffffffffffffffffff1673ffffffffffffffffffffffffffffffffffffffff166323b872dd3033846004546102a291906108f4565b6040518463ffffffff1660e01b81526004016102c093929190610858565b6020604051808303816000875af11580156102df573d6000803e3d6000fd5b505050506040513d601f19601f8201168201806040525081019061030391906108c7565b5050565b6000600454905090565b60008103610354576040517f08c379a000000000000000000000000000000000000000000000000000000000815260040161034b90610974565b60405180910390fd5b806004819055506000600160009054906101000a900473ffffffffffffffffffffffffffffffffffffffff1673ffffffffffffffffffffffffffffffffffffffff166338cc48316040518163ffffffff1660e01b8152600401602060405180830381865afa1580156103ca573d6000803e3d6000fd5b505050506040513d601f19601f820116820180604052508101906103ee91906109c0565b905060008054906101000a900473ffffffffffffffffffffffffffffffffffffffff1673ffffffffffffffffffffffffffffffffffffffff166323b872dd3330856040518463ffffffff1660e01b815260040161044d93929190610858565b6020604051808303816000875af115801561046c573d6000803e3d6000fd5b505050506040513d601f19601f8201168201806040525081019061049091906108c7565b5061049d826002546100ee565b60058190555060008054906101000a900473ffffffffffffffffffffffffffffffffffffffff1673ffffffffffffffffffffffffffffffffffffffff166323b872dd82306005546040518463ffffffff1660e01b815260040161050293929190610858565b6020604051808303816000875af1158015610521573d6000803e3d6000fd5b505050506040513d601f19601f8201168201806040525081019061054591906108c7565b5060008054906101000a900473ffffffffffffffffffffffffffffffffffffffff1673ffffffffffffffffffffffffffffffffffffffff166323b872dd30336005546040518463ffffffff1660e01b81526004016105a593929190610858565b6020604051808303816000875af11580156105c4573d6000803e3d6000fd5b505050506040513d601f19601f820116820180604052508101906105e891906108c7565b505050565b6000600554905090565b600080fd5b6000819050919050565b61060f816105fc565b811461061a57600080fd5b50565b60008135905061062c81610606565b92915050565b60008060408385031215610649576106486105f7565b5b60006106578582860161061d565b92505060206106688582860161061d565b9150509250929050565b61067b816105fc565b82525050565b60006020820190506106966000830184610672565b92915050565b6000602082840312156106b2576106b16105f7565b5b60006106c08482850161061d565b91505092915050565b7f4e487b7100000000000000000000000000000000000000000000000000000000600052601160045260246000fd5b6000610703826105fc565b915061070e836105fc565b925082820261071c816105fc565b91508282048414831517610733576107326106c9565b5b5092915050565b7f4e487b7100000000000000000000000000000000000000000000000000000000600052601260045260246000fd5b6000610774826105fc565b915061077f836105fc565b92508261078f5761078e61073a565b5b828204905092915050565b600082825260208201905092915050565b7f596f7520646f6e2774206f776e20746869732064656274210000000000000000600082015250565b60006107e160188361079a565b91506107ec826107ab565b602082019050919050565b60006020820190508181036000830152610810816107d4565b9050919050565b600073ffffffffffffffffffffffffffffffffffffffff82169050919050565b600061084282610817565b9050919050565b61085281610837565b82525050565b600060608201905061086d6000830186610849565b61087a6020830185610849565b6108876040830184610672565b949350505050565b60008115159050919050565b6108a48161088f565b81146108af57600080fd5b50565b6000815190506108c18161089b565b92915050565b6000602082840312156108dd576108dc6105f7565b5b60006108eb848285016108b2565b91505092915050565b60006108ff826105fc565b915061090a836105fc565b9250828203905081811115610922576109216106c9565b5b92915050565b7f506c6561736520707574206d6f726520636f6c6c61746572616c000000000000600082015250565b600061095e601a8361079a565b915061096982610928565b602082019050919050565b6000602082019050818103600083015261098d81610951565b9050919050565b61099d81610837565b81146109a857600080fd5b50565b6000815190506109ba81610994565b92915050565b6000602082840312156109d6576109d56105f7565b5b60006109e4848285016109ab565b9150509291505056fea2646970667358221220a1c08d17332bb08462ad2901fd197111f93e996ff8e17a7108f7f66e2a0e0ee164736f6c63430008110033",
  "immutableReferences": {},
  "source": "// SPDX-License-Identifier: MIT\npragma solidity ^0.8.7;\nimport \"./USDC.sol\";\nimport \"./LiquidityPool.sol\";\n\ncontract Lending {\n    USDC usdcTokenContract;\n    LiquidityPool liquidtyPool;\n    uint256 _maximumLendingPercentage = 8500; //85% of collateral\n    uint256 _lendingFee = 500; //5% of total collateral\n    uint256 _holdingCollateral = 0; \n    uint256 _loanAmount = 0;\n    address _debtOwner = msg.sender;\n\n    //Map addresss to collateral?\n    mapping(uint256 => uint256) transaction;\n\n     constructor(USDC usdcTokenAddress) {\n        usdcTokenContract = usdcTokenAddress;\n    }\n\n    //Take collateral and give 85% \n    function borrow(uint256 depositCollateral) public {\n        require(depositCollateral != 0, \"Please put more collateral\");\n        _holdingCollateral = depositCollateral;\n        //address walletBorrowing = msg.sender;\n        address liqudityPool = liquidtyPool.getAddress();\n        usdcTokenContract.transferFrom(msg.sender, address(this), depositCollateral); //Transfer borrower collateral to this contract\n        //_loanAmount = (depositCollateral * _maximumLendingPercentage) / 10_000; //85% of collateral\n        _loanAmount = calculatePercentage(depositCollateral, _maximumLendingPercentage); //85% of collateral\n        usdcTokenContract.transferFrom(liqudityPool, address(this), _loanAmount); //Take assets from Liquidity Pool\n        usdcTokenContract.transferFrom(address(this), msg.sender, _loanAmount);\n    }\n\n    function repay() public {\n        //require only the person who loan it can pay back\n        require(msg.sender == _debtOwner , \"You don't own this debt!\");\n        usdcTokenContract.transferFrom(msg.sender, address(this), _holdingCollateral); \n        //uint256 lendingFeeToDeduct = (_holdingCollateral * lendingFee) / 10_000;\n        uint256 lendingFeeToDeduct = calculatePercentage(_holdingCollateral, _lendingFee);\n        usdcTokenContract.transferFrom(address(this), msg.sender, (_holdingCollateral - lendingFeeToDeduct)); \n    }\n\n    //This function calculates Percentages\n    //Used to calculate the amount of Loan that can be given and platform lendingFees\n    //e.g \n    //Assume collateral = 100, desired percentage = 85%\n    //function returns 85\n\n    function calculatePercentage(uint256 collateralAmount, uint256 percentage) public pure returns (uint256) {\n        return (collateralAmount * percentage) / 10_000;\n    }\n\n    function getHoldingCollateral() public view returns (uint256) {\n        return _holdingCollateral;\n    }\n\n    function getLoanAmount() public view returns (uint256) {\n        return _loanAmount;\n    }\n\n    //write withdraw function\n    //figure out who owns the contract and how to send tokens back\n\n\n\n\n    \n}\n",
  "sourcePath": "/Users/alwin/Developer/Liquiditas/contracts/Lending.sol",
  "compiler": {
    "name": "solc",
    "version": "0.8.17+commit.8df45f5f.Emscripten.clang"
  },
  "schemaVersion": "3.4.11",
  "updatedAt": "2023-02-22T08:35:04.637Z",
  "devdoc": {
    "kind": "dev",
    "methods": {},
    "version": 1
  },
  "userdoc": {
    "kind": "user",
    "methods": {},
    "version": 1
  }
}