{
  "contractName": "Lending",
  "abi": [
    {
      "inputs": [
        {
          "internalType": "contract Avax",
          "name": "avaxTokenAddress",
          "type": "address"
        },
        {
          "internalType": "contract LiquidityPool",
          "name": "lp",
          "type": "address"
        },
        {
          "internalType": "contract Reserves",
          "name": "reservesAddress",
          "type": "address"
        },
        {
          "internalType": "contract PriceFeed",
          "name": "pf",
          "type": "address"
        },
        {
          "internalType": "contract IdentityToken",
          "name": "identityTokenAddress",
          "type": "address"
        }
      ],
      "stateMutability": "nonpayable",
      "type": "constructor"
    },
    {
      "inputs": [
        {
          "internalType": "uint256",
          "name": "depositCollateral",
          "type": "uint256"
        }
      ],
      "name": "borrowAVAX",
      "outputs": [],
      "stateMutability": "nonpayable",
      "type": "function"
    },
    {
      "inputs": [],
      "name": "repayAVAXDebt",
      "outputs": [],
      "stateMutability": "nonpayable",
      "type": "function"
    },
    {
      "inputs": [
        {
          "internalType": "uint256",
          "name": "topUpCollateral",
          "type": "uint256"
        }
      ],
      "name": "topUpAVAXCollateral",
      "outputs": [],
      "stateMutability": "nonpayable",
      "type": "function"
    },
    {
      "inputs": [],
      "name": "liquidateAVAX",
      "outputs": [],
      "stateMutability": "nonpayable",
      "type": "function"
    },
    {
      "inputs": [],
      "name": "borrowEth",
      "outputs": [
        {
          "internalType": "uint256",
          "name": "",
          "type": "uint256"
        }
      ],
      "stateMutability": "payable",
      "type": "function",
      "payable": true
    },
    {
      "inputs": [],
      "name": "topUpETHCollateral",
      "outputs": [],
      "stateMutability": "payable",
      "type": "function",
      "payable": true
    },
    {
      "inputs": [],
      "name": "repayEth",
      "outputs": [],
      "stateMutability": "payable",
      "type": "function",
      "payable": true
    },
    {
      "inputs": [],
      "name": "liquidateETH",
      "outputs": [],
      "stateMutability": "payable",
      "type": "function",
      "payable": true
    },
    {
      "inputs": [],
      "name": "getUserTotaETHRepaymentAmount",
      "outputs": [
        {
          "internalType": "uint256",
          "name": "",
          "type": "uint256"
        }
      ],
      "stateMutability": "view",
      "type": "function",
      "constant": true
    },
    {
      "inputs": [],
      "name": "getUserTotaAVAXRepaymentAmount",
      "outputs": [
        {
          "internalType": "uint256",
          "name": "",
          "type": "uint256"
        }
      ],
      "stateMutability": "view",
      "type": "function",
      "constant": true
    },
    {
      "inputs": [],
      "name": "initUserTotalEthRepaymentAmount",
      "outputs": [
        {
          "internalType": "uint256",
          "name": "",
          "type": "uint256"
        }
      ],
      "stateMutability": "nonpayable",
      "type": "function"
    },
    {
      "inputs": [],
      "name": "initUserTotalAVAXRepaymentAmount",
      "outputs": [
        {
          "internalType": "uint256",
          "name": "",
          "type": "uint256"
        }
      ],
      "stateMutability": "nonpayable",
      "type": "function"
    },
    {
      "inputs": [
        {
          "internalType": "uint256",
          "name": "collateralAmount",
          "type": "uint256"
        },
        {
          "internalType": "uint256",
          "name": "percentage",
          "type": "uint256"
        }
      ],
      "name": "calculatePercentage",
      "outputs": [
        {
          "internalType": "uint256",
          "name": "",
          "type": "uint256"
        }
      ],
      "stateMutability": "pure",
      "type": "function",
      "constant": true
    },
    {
      "inputs": [],
      "name": "getHoldingAVAXCollateral",
      "outputs": [
        {
          "internalType": "uint256",
          "name": "",
          "type": "uint256"
        }
      ],
      "stateMutability": "view",
      "type": "function",
      "constant": true
    },
    {
      "inputs": [],
      "name": "getHoldingEthCollateral",
      "outputs": [
        {
          "internalType": "uint256",
          "name": "",
          "type": "uint256"
        }
      ],
      "stateMutability": "view",
      "type": "function",
      "constant": true
    },
    {
      "inputs": [],
      "name": "getAVAXDebt",
      "outputs": [
        {
          "internalType": "uint256",
          "name": "",
          "type": "uint256"
        }
      ],
      "stateMutability": "view",
      "type": "function",
      "constant": true
    },
    {
      "inputs": [],
      "name": "getAddress",
      "outputs": [
        {
          "internalType": "address",
          "name": "",
          "type": "address"
        }
      ],
      "stateMutability": "view",
      "type": "function",
      "constant": true
    },
    {
      "inputs": [
        {
          "internalType": "address",
          "name": "user",
          "type": "address"
        }
      ],
      "name": "getTotalTransactionCount",
      "outputs": [
        {
          "internalType": "uint256",
          "name": "",
          "type": "uint256"
        }
      ],
      "stateMutability": "view",
      "type": "function",
      "constant": true
    }
  ],
  "bytecode": "0x60806040526121346005556101f460065533600760006101000a81548173ffffffffffffffffffffffffffffffffffffffff021916908373ffffffffffffffffffffffffffffffffffffffff1602179055503480156200005e57600080fd5b506040516200384738038062003847833981810160405281019062000084919062000379565b846000806101000a81548173ffffffffffffffffffffffffffffffffffffffff021916908373ffffffffffffffffffffffffffffffffffffffff16021790555083600160006101000a81548173ffffffffffffffffffffffffffffffffffffffff021916908373ffffffffffffffffffffffffffffffffffffffff16021790555082600260006101000a81548173ffffffffffffffffffffffffffffffffffffffff021916908373ffffffffffffffffffffffffffffffffffffffff16021790555081600360006101000a81548173ffffffffffffffffffffffffffffffffffffffff021916908373ffffffffffffffffffffffffffffffffffffffff16021790555080600460006101000a81548173ffffffffffffffffffffffffffffffffffffffff021916908373ffffffffffffffffffffffffffffffffffffffff160217905550505050505062000401565b600080fd5b600073ffffffffffffffffffffffffffffffffffffffff82169050919050565b60006200020582620001d8565b9050919050565b60006200021982620001f8565b9050919050565b6200022b816200020c565b81146200023757600080fd5b50565b6000815190506200024b8162000220565b92915050565b60006200025e82620001d8565b9050919050565b6000620002728262000251565b9050919050565b620002848162000265565b81146200029057600080fd5b50565b600081519050620002a48162000279565b92915050565b6000620002b78262000251565b9050919050565b620002c981620002aa565b8114620002d557600080fd5b50565b600081519050620002e981620002be565b92915050565b6000620002fc82620001f8565b9050919050565b6200030e81620002ef565b81146200031a57600080fd5b50565b6000815190506200032e8162000303565b92915050565b60006200034182620001f8565b9050919050565b620003538162000334565b81146200035f57600080fd5b50565b600081519050620003738162000348565b92915050565b600080600080600060a08688031215620003985762000397620001d3565b5b6000620003a8888289016200023a565b9550506020620003bb8882890162000293565b9450506040620003ce88828901620002d8565b9350506060620003e1888289016200031d565b9250506080620003f48882890162000362565b9150509295509295909350565b61343680620004116000396000f3fe6080604052600436106101095760003560e01c80636862f58911610095578063b731bc6d11610064578063b731bc6d146102db578063b968c93014610306578063db8bf7e61461032f578063dcbbdbb814610346578063fcd6e1911461037157610109565b80636862f589146102525780636e67fcdd1461027d578063734997e5146102a8578063b60d2617146102b257610109565b80634075af22116100dc5780634075af22146101ab57806342b9309a146101e85780634a282670146101ff5780634b84a647146102095780634fed05181461023457610109565b80632133e3b91461010e57806323ded52a1461014b5780632b0fa3991461017657806338cc483114610180575b600080fd5b34801561011a57600080fd5b5061013560048036038101906101309190612c8c565b61039c565b6040516101429190612cdb565b60405180910390f35b34801561015757600080fd5b506101606103bf565b60405161016d9190612cdb565b60405180910390f35b61017e610487565b005b34801561018c57600080fd5b506101956106ba565b6040516101a29190612d37565b60405180910390f35b3480156101b757600080fd5b506101d260048036038101906101cd9190612d7e565b6106c2565b6040516101df9190612cdb565b60405180910390f35b3480156101f457600080fd5b506101fd610755565b005b610207610dc5565b005b34801561021557600080fd5b5061021e611373565b60405161022b9190612cdb565b60405180910390f35b61023c611415565b6040516102499190612cdb565b60405180910390f35b34801561025e57600080fd5b50610267611763565b6040516102749190612cdb565b60405180910390f35b34801561028957600080fd5b506102926117aa565b60405161029f9190612cdb565b60405180910390f35b6102b06117f1565b005b3480156102be57600080fd5b506102d960048036038101906102d49190612dab565b611cf1565b005b3480156102e757600080fd5b506102f0612083565b6040516102fd9190612cdb565b60405180910390f35b34801561031257600080fd5b5061032d60048036038101906103289190612dab565b6120df565b005b34801561033b57600080fd5b506103446126a6565b005b34801561035257600080fd5b5061035b612bed565b6040516103689190612cdb565b60405180910390f35b34801561037d57600080fd5b50610386612c49565b6040516103939190612cdb565b60405180910390f35b600061271082846103ad9190612e07565b6103b79190612e78565b905092915050565b600080600960003373ffffffffffffffffffffffffffffffffffffffff1673ffffffffffffffffffffffffffffffffffffffff1681526020019081526020016000205411610442576040517f08c379a000000000000000000000000000000000000000000000000000000000815260040161043990612f2c565b60405180910390fd5b600960003373ffffffffffffffffffffffffffffffffffffffff1673ffffffffffffffffffffffffffffffffffffffff16815260200190815260200160002054905090565b6000600d60003373ffffffffffffffffffffffffffffffffffffffff1673ffffffffffffffffffffffffffffffffffffffff1681526020019081526020016000205411610509576040517f08c379a000000000000000000000000000000000000000000000000000000000815260040161050090612f98565b60405180910390fd5b600034905060008103610551576040517f08c379a000000000000000000000000000000000000000000000000000000000815260040161054890613004565b60405180910390fd5b6000670de0b6b3a7640000826105679190612e78565b90506000600360009054906101000a900473ffffffffffffffffffffffffffffffffffffffff1673ffffffffffffffffffffffffffffffffffffffff166307a1cf9e6040518163ffffffff1660e01b8152600401602060405180830381865afa1580156105d8573d6000803e3d6000fd5b505050506040513d601f19601f820116820180604052508101906105fc9190613039565b826106079190612e07565b905082600c60003373ffffffffffffffffffffffffffffffffffffffff1673ffffffffffffffffffffffffffffffffffffffff16815260200190815260200160002060008282546106589190613066565b9250508190555080600e60003373ffffffffffffffffffffffffffffffffffffffff1673ffffffffffffffffffffffffffffffffffffffff16815260200190815260200160002060008282546106ae9190613066565b92505081905550505050565b600030905090565b6000600f60008373ffffffffffffffffffffffffffffffffffffffff1673ffffffffffffffffffffffffffffffffffffffff16815260200190815260200160002054600b60008473ffffffffffffffffffffffffffffffffffffffff1673ffffffffffffffffffffffffffffffffffffffff1681526020019081526020016000205461074e9190613066565b9050919050565b6000600960003373ffffffffffffffffffffffffffffffffffffffff1673ffffffffffffffffffffffffffffffffffffffff16815260200190815260200160002054116107d7576040517f08c379a00000000000000000000000000000000000000000000000000000000081526004016107ce90612f2c565b60405180910390fd5b6000600960003373ffffffffffffffffffffffffffffffffffffffff1673ffffffffffffffffffffffffffffffffffffffff1681526020019081526020016000205490508060008054906101000a900473ffffffffffffffffffffffffffffffffffffffff1673ffffffffffffffffffffffffffffffffffffffff166370a08231336040518263ffffffff1660e01b81526004016108759190612d37565b602060405180830381865afa158015610892573d6000803e3d6000fd5b505050506040513d601f19601f820116820180604052508101906108b69190613039565b10156108f7576040517f08c379a00000000000000000000000000000000000000000000000000000000081526004016108ee9061310c565b60405180910390fd5b6000600860003373ffffffffffffffffffffffffffffffffffffffff1673ffffffffffffffffffffffffffffffffffffffff16815260200190815260200160002054905060008054906101000a900473ffffffffffffffffffffffffffffffffffffffff1673ffffffffffffffffffffffffffffffffffffffff166323b872dd3330856040518463ffffffff1660e01b81526004016109989392919061312c565b6020604051808303816000875af11580156109b7573d6000803e3d6000fd5b505050506040513d601f19601f820116820180604052508101906109db919061319b565b5060006109ea8260065461039c565b905060008054906101000a900473ffffffffffffffffffffffffffffffffffffffff1673ffffffffffffffffffffffffffffffffffffffff166323b872dd30338486610a3691906131c8565b6040518463ffffffff1660e01b8152600401610a549392919061312c565b6020604051808303816000875af1158015610a73573d6000803e3d6000fd5b505050506040513d601f19601f82011682018060405250810190610a97919061319b565b5060008054906101000a900473ffffffffffffffffffffffffffffffffffffffff1673ffffffffffffffffffffffffffffffffffffffff166323b872dd30600260009054906101000a900473ffffffffffffffffffffffffffffffffffffffff1673ffffffffffffffffffffffffffffffffffffffff16632ad415bd6040518163ffffffff1660e01b8152600401602060405180830381865afa158015610b42573d6000803e3d6000fd5b505050506040513d601f19601f82011682018060405250810190610b669190613211565b846040518463ffffffff1660e01b8152600401610b859392919061312c565b6020604051808303816000875af1158015610ba4573d6000803e3d6000fd5b505050506040513d601f19601f82011682018060405250810190610bc8919061319b565b50600860003373ffffffffffffffffffffffffffffffffffffffff1673ffffffffffffffffffffffffffffffffffffffff16815260200190815260200160002060009055600960003373ffffffffffffffffffffffffffffffffffffffff1673ffffffffffffffffffffffffffffffffffffffff16815260200190815260200160002060009055600a60003373ffffffffffffffffffffffffffffffffffffffff1673ffffffffffffffffffffffffffffffffffffffff168152602001908152602001600020600090556001600b60003373ffffffffffffffffffffffffffffffffffffffff1673ffffffffffffffffffffffffffffffffffffffff1681526020019081526020016000206000828254610ce29190613066565b9250508190555060005b601180549050811015610dbf573373ffffffffffffffffffffffffffffffffffffffff1660118281548110610d2457610d2361323e565b5b9060005260206000200160009054906101000a900473ffffffffffffffffffffffffffffffffffffffff1673ffffffffffffffffffffffffffffffffffffffff1603610dac5760118181548110610d7e57610d7d61323e565b5b9060005260206000200160006101000a81549073ffffffffffffffffffffffffffffffffffffffff02191690555b8080610db79061326d565b915050610cec565b50505050565b6000600d60003373ffffffffffffffffffffffffffffffffffffffff1673ffffffffffffffffffffffffffffffffffffffff1681526020019081526020016000205411610e47576040517f08c379a0000000000000000000000000000000000000000000000000000000008152600401610e3e90612f98565b60405180910390fd5b6000600d60003373ffffffffffffffffffffffffffffffffffffffff1673ffffffffffffffffffffffffffffffffffffffff16815260200190815260200160002054905080341015610ece576040517f08c379a0000000000000000000000000000000000000000000000000000000008152600401610ec590613301565b60405180910390fd5b6000600c60003373ffffffffffffffffffffffffffffffffffffffff1673ffffffffffffffffffffffffffffffffffffffff1681526020019081526020016000205490506000610f208260065461039c565b905060003390508073ffffffffffffffffffffffffffffffffffffffff166108fc8385610f4d91906131c8565b9081150290604051600060405180830381858888f19350505050158015610f78573d6000803e3d6000fd5b5083471015610fbc576040517f08c379a0000000000000000000000000000000000000000000000000000000008152600401610fb39061336d565b60405180910390fd5b6000600160009054906101000a900473ffffffffffffffffffffffffffffffffffffffff1673ffffffffffffffffffffffffffffffffffffffff1663996e96f06040518163ffffffff1660e01b8152600401602060405180830381865afa15801561102b573d6000803e3d6000fd5b505050506040513d601f19601f8201168201806040525081019061104f9190613211565b90508073ffffffffffffffffffffffffffffffffffffffff166108fc869081150290604051600060405180830381858888f19350505050158015611097573d6000803e3d6000fd5b506000600260009054906101000a900473ffffffffffffffffffffffffffffffffffffffff1673ffffffffffffffffffffffffffffffffffffffff16632ad415bd6040518163ffffffff1660e01b8152600401602060405180830381865afa158015611107573d6000803e3d6000fd5b505050506040513d601f19601f8201168201806040525081019061112b9190613211565b90508073ffffffffffffffffffffffffffffffffffffffff166108fc859081150290604051600060405180830381858888f19350505050158015611173573d6000803e3d6000fd5b50600c60003373ffffffffffffffffffffffffffffffffffffffff1673ffffffffffffffffffffffffffffffffffffffff16815260200190815260200160002060009055600d60003373ffffffffffffffffffffffffffffffffffffffff1673ffffffffffffffffffffffffffffffffffffffff16815260200190815260200160002060009055600e60003373ffffffffffffffffffffffffffffffffffffffff1673ffffffffffffffffffffffffffffffffffffffff168152602001908152602001600020600090556001600f60003373ffffffffffffffffffffffffffffffffffffffff1673ffffffffffffffffffffffffffffffffffffffff168152602001908152602001600020600082825461128d9190613066565b9250508190555060005b60108054905081101561136a573373ffffffffffffffffffffffffffffffffffffffff16601082815481106112cf576112ce61323e565b5b9060005260206000200160009054906101000a900473ffffffffffffffffffffffffffffffffffffffff1673ffffffffffffffffffffffffffffffffffffffff160361135757601081815481106113295761132861323e565b5b9060005260206000200160006101000a81549073ffffffffffffffffffffffffffffffffffffffff02191690555b80806113629061326d565b915050611297565b50505050505050565b60008060009054906101000a900473ffffffffffffffffffffffffffffffffffffffff1673ffffffffffffffffffffffffffffffffffffffff166370a08231306040518263ffffffff1660e01b81526004016113cf9190612d37565b602060405180830381865afa1580156113ec573d6000803e3d6000fd5b505050506040513d601f19601f820116820180604052508101906114109190613039565b905090565b6000803490506000810361145e576040517f08c379a000000000000000000000000000000000000000000000000000000000815260040161145590613004565b60405180910390fd5b6000670de0b6b3a7640000826114749190612e78565b905060006010339080600181540180825580915050600190039060005260206000200160009091909190916101000a81548173ffffffffffffffffffffffffffffffffffffffff021916908373ffffffffffffffffffffffffffffffffffffffff160217905550600360009054906101000a900473ffffffffffffffffffffffffffffffffffffffff1673ffffffffffffffffffffffffffffffffffffffff166307a1cf9e6040518163ffffffff1660e01b8152600401602060405180830381865afa158015611548573d6000803e3d6000fd5b505050506040513d601f19601f8201168201806040525081019061156c9190613039565b826115779190612e07565b905060006115878460055461039c565b905083600c60003373ffffffffffffffffffffffffffffffffffffffff1673ffffffffffffffffffffffffffffffffffffffff16815260200190815260200160002060008282546115d89190613066565b9250508190555080600d60003373ffffffffffffffffffffffffffffffffffffffff1673ffffffffffffffffffffffffffffffffffffffff168152602001908152602001600020600082825461162e9190613066565b9250508190555081600e60003373ffffffffffffffffffffffffffffffffffffffff1673ffffffffffffffffffffffffffffffffffffffff16815260200190815260200160002060008282546116849190613066565b92505081905550600160009054906101000a900473ffffffffffffffffffffffffffffffffffffffff1673ffffffffffffffffffffffffffffffffffffffff166394a54a1282336040518363ffffffff1660e01b81526004016116e89291906133ae565b600060405180830381600087803b15801561170257600080fd5b505af1158015611716573d6000803e3d6000fd5b50505050600e60003373ffffffffffffffffffffffffffffffffffffffff1673ffffffffffffffffffffffffffffffffffffffff1681526020019081526020016000205494505050505090565b6000600f60003373ffffffffffffffffffffffffffffffffffffffff1673ffffffffffffffffffffffffffffffffffffffff16815260200190815260200160002054905090565b6000600b60003373ffffffffffffffffffffffffffffffffffffffff1673ffffffffffffffffffffffffffffffffffffffff16815260200190815260200160002054905090565b6000600360009054906101000a900473ffffffffffffffffffffffffffffffffffffffff1673ffffffffffffffffffffffffffffffffffffffff166319d747236040518163ffffffff1660e01b8152600401602060405180830381865afa158015611860573d6000803e3d6000fd5b505050506040513d601f19601f820116820180604052508101906118849190613039565b905060005b601080549050811015611ced576000670de0b6b3a7640000600c6000601085815481106118b9576118b861323e565b5b9060005260206000200160009054906101000a900473ffffffffffffffffffffffffffffffffffffffff1673ffffffffffffffffffffffffffffffffffffffff1673ffffffffffffffffffffffffffffffffffffffff168152602001908152602001600020546119299190612e78565b836119349190612e07565b9050600e60006010848154811061194e5761194d61323e565b5b9060005260206000200160009054906101000a900473ffffffffffffffffffffffffffffffffffffffff1673ffffffffffffffffffffffffffffffffffffffff1673ffffffffffffffffffffffffffffffffffffffff168152602001908152602001600020548111611cd9576000600160009054906101000a900473ffffffffffffffffffffffffffffffffffffffff1673ffffffffffffffffffffffffffffffffffffffff1663996e96f06040518163ffffffff1660e01b8152600401602060405180830381865afa158015611a29573d6000803e3d6000fd5b505050506040513d601f19601f82011682018060405250810190611a4d9190613211565b90508073ffffffffffffffffffffffffffffffffffffffff166108fc600c600060108781548110611a8157611a8061323e565b5b9060005260206000200160009054906101000a900473ffffffffffffffffffffffffffffffffffffffff1673ffffffffffffffffffffffffffffffffffffffff1673ffffffffffffffffffffffffffffffffffffffff168152602001908152602001600020549081150290604051600060405180830381858888f19350505050158015611b12573d6000803e3d6000fd5b50600c600060108581548110611b2b57611b2a61323e565b5b9060005260206000200160009054906101000a900473ffffffffffffffffffffffffffffffffffffffff1673ffffffffffffffffffffffffffffffffffffffff1673ffffffffffffffffffffffffffffffffffffffff16815260200190815260200160002060009055600d600060108581548110611bac57611bab61323e565b5b9060005260206000200160009054906101000a900473ffffffffffffffffffffffffffffffffffffffff1673ffffffffffffffffffffffffffffffffffffffff1673ffffffffffffffffffffffffffffffffffffffff16815260200190815260200160002060009055600e600060108581548110611c2d57611c2c61323e565b5b9060005260206000200160009054906101000a900473ffffffffffffffffffffffffffffffffffffffff1673ffffffffffffffffffffffffffffffffffffffff1673ffffffffffffffffffffffffffffffffffffffff1681526020019081526020016000206000905560108381548110611caa57611ca961323e565b5b9060005260206000200160006101000a81549073ffffffffffffffffffffffffffffffffffffffff0219169055505b508080611ce59061326d565b915050611889565b5050565b6000600960003373ffffffffffffffffffffffffffffffffffffffff1673ffffffffffffffffffffffffffffffffffffffff1681526020019081526020016000205411611d73576040517f08c379a0000000000000000000000000000000000000000000000000000000008152600401611d6a90612f2c565b60405180910390fd5b60008103611db6576040517f08c379a0000000000000000000000000000000000000000000000000000000008152600401611dad90613004565b60405180910390fd5b8060008054906101000a900473ffffffffffffffffffffffffffffffffffffffff1673ffffffffffffffffffffffffffffffffffffffff166370a08231336040518263ffffffff1660e01b8152600401611e109190612d37565b602060405180830381865afa158015611e2d573d6000803e3d6000fd5b505050506040513d601f19601f82011682018060405250810190611e519190613039565b1015611e92576040517f08c379a0000000000000000000000000000000000000000000000000000000008152600401611e899061310c565b60405180910390fd5b6000600360009054906101000a900473ffffffffffffffffffffffffffffffffffffffff1673ffffffffffffffffffffffffffffffffffffffff1663946e34726040518163ffffffff1660e01b8152600401602060405180830381865afa158015611f01573d6000803e3d6000fd5b505050506040513d601f19601f82011682018060405250810190611f259190613039565b82611f309190612e07565b905060008054906101000a900473ffffffffffffffffffffffffffffffffffffffff1673ffffffffffffffffffffffffffffffffffffffff166323b872dd3330856040518463ffffffff1660e01b8152600401611f8f9392919061312c565b6020604051808303816000875af1158015611fae573d6000803e3d6000fd5b505050506040513d601f19601f82011682018060405250810190611fd2919061319b565b5081600860003373ffffffffffffffffffffffffffffffffffffffff1673ffffffffffffffffffffffffffffffffffffffff16815260200190815260200160002060008282546120229190613066565b9250508190555080600a60003373ffffffffffffffffffffffffffffffffffffffff1673ffffffffffffffffffffffffffffffffffffffff16815260200190815260200160002060008282546120789190613066565b925050819055505050565b60006064600f60003373ffffffffffffffffffffffffffffffffffffffff1673ffffffffffffffffffffffffffffffffffffffff16815260200190815260200160002060008282546120d59190613066565b9250508190555090565b60008103612122576040517f08c379a000000000000000000000000000000000000000000000000000000000815260040161211990613004565b60405180910390fd5b8060008054906101000a900473ffffffffffffffffffffffffffffffffffffffff1673ffffffffffffffffffffffffffffffffffffffff166370a08231336040518263ffffffff1660e01b815260040161217c9190612d37565b602060405180830381865afa158015612199573d6000803e3d6000fd5b505050506040513d601f19601f820116820180604052508101906121bd9190613039565b10156121fe576040517f08c379a00000000000000000000000000000000000000000000000000000000081526004016121f59061310c565b60405180910390fd5b6011339080600181540180825580915050600190039060005260206000200160009091909190916101000a81548173ffffffffffffffffffffffffffffffffffffffff021916908373ffffffffffffffffffffffffffffffffffffffff16021790555060006001600460009054906101000a900473ffffffffffffffffffffffffffffffffffffffff1673ffffffffffffffffffffffffffffffffffffffff166370a08231336040518263ffffffff1660e01b81526004016122c09190612d37565b602060405180830381865afa1580156122dd573d6000803e3d6000fd5b505050506040513d601f19601f820116820180604052508101906123019190613039565b1061231f5760006123289050612317838261039c565b91505061232e565b61232b8260055461039c565b90505b81600860003373ffffffffffffffffffffffffffffffffffffffff1673ffffffffffffffffffffffffffffffffffffffff168152602001908152602001600020600082825461237d9190613066565b9250508190555080600960003373ffffffffffffffffffffffffffffffffffffffff1673ffffffffffffffffffffffffffffffffffffffff16815260200190815260200160002060008282546123d39190613066565b925050819055506000600360009054906101000a900473ffffffffffffffffffffffffffffffffffffffff1673ffffffffffffffffffffffffffffffffffffffff1663946e34726040518163ffffffff1660e01b8152600401602060405180830381865afa158015612449573d6000803e3d6000fd5b505050506040513d601f19601f8201168201806040525081019061246d9190613039565b836124789190612e07565b905080600a60003373ffffffffffffffffffffffffffffffffffffffff1673ffffffffffffffffffffffffffffffffffffffff16815260200190815260200160002060008282546124c99190613066565b9250508190555060008054906101000a900473ffffffffffffffffffffffffffffffffffffffff1673ffffffffffffffffffffffffffffffffffffffff166323b872dd3330866040518463ffffffff1660e01b815260040161252d9392919061312c565b6020604051808303816000875af115801561254c573d6000803e3d6000fd5b505050506040513d601f19601f82011682018060405250810190612570919061319b565b50600160009054906101000a900473ffffffffffffffffffffffffffffffffffffffff1673ffffffffffffffffffffffffffffffffffffffff1663598c5b4283306040518363ffffffff1660e01b81526004016125ce9291906133d7565b600060405180830381600087803b1580156125e857600080fd5b505af11580156125fc573d6000803e3d6000fd5b5050505060008054906101000a900473ffffffffffffffffffffffffffffffffffffffff1673ffffffffffffffffffffffffffffffffffffffff166323b872dd3033856040518463ffffffff1660e01b815260040161265d9392919061312c565b6020604051808303816000875af115801561267c573d6000803e3d6000fd5b505050506040513d601f19601f820116820180604052508101906126a0919061319b565b50505050565b6000600360009054906101000a900473ffffffffffffffffffffffffffffffffffffffff1673ffffffffffffffffffffffffffffffffffffffff1663ffa8ce506040518163ffffffff1660e01b8152600401602060405180830381865afa158015612715573d6000803e3d6000fd5b505050506040513d601f19601f820116820180604052508101906127399190613039565b905060005b601180549050811015612be957600060086000601184815481106127655761276461323e565b5b9060005260206000200160009054906101000a900473ffffffffffffffffffffffffffffffffffffffff1673ffffffffffffffffffffffffffffffffffffffff1673ffffffffffffffffffffffffffffffffffffffff16815260200190815260200160002054836127d69190612e07565b9050600a6000601184815481106127f0576127ef61323e565b5b9060005260206000200160009054906101000a900473ffffffffffffffffffffffffffffffffffffffff1673ffffffffffffffffffffffffffffffffffffffff1673ffffffffffffffffffffffffffffffffffffffff168152602001908152602001600020548111612bd5576000601183815481106128725761287161323e565b5b9060005260206000200160009054906101000a900473ffffffffffffffffffffffffffffffffffffffff16905060008054906101000a900473ffffffffffffffffffffffffffffffffffffffff1673ffffffffffffffffffffffffffffffffffffffff166323b872dd30600160009054906101000a900473ffffffffffffffffffffffffffffffffffffffff1673ffffffffffffffffffffffffffffffffffffffff1663996e96f06040518163ffffffff1660e01b8152600401602060405180830381865afa158015612949573d6000803e3d6000fd5b505050506040513d601f19601f8201168201806040525081019061296d9190613211565b600860008673ffffffffffffffffffffffffffffffffffffffff1673ffffffffffffffffffffffffffffffffffffffff168152602001908152602001600020546040518463ffffffff1660e01b81526004016129cb9392919061312c565b6020604051808303816000875af11580156129ea573d6000803e3d6000fd5b505050506040513d601f19601f82011682018060405250810190612a0e919061319b565b506008600060118581548110612a2757612a2661323e565b5b9060005260206000200160009054906101000a900473ffffffffffffffffffffffffffffffffffffffff1673ffffffffffffffffffffffffffffffffffffffff1673ffffffffffffffffffffffffffffffffffffffff168152602001908152602001600020600090556009600060118581548110612aa857612aa761323e565b5b9060005260206000200160009054906101000a900473ffffffffffffffffffffffffffffffffffffffff1673ffffffffffffffffffffffffffffffffffffffff1673ffffffffffffffffffffffffffffffffffffffff16815260200190815260200160002060009055600a600060118581548110612b2957612b2861323e565b5b9060005260206000200160009054906101000a900473ffffffffffffffffffffffffffffffffffffffff1673ffffffffffffffffffffffffffffffffffffffff1673ffffffffffffffffffffffffffffffffffffffff1681526020019081526020016000206000905560118381548110612ba657612ba561323e565b5b9060005260206000200160006101000a81549073ffffffffffffffffffffffffffffffffffffffff0219169055505b508080612be19061326d565b91505061273e565b5050565b60006064600b60003373ffffffffffffffffffffffffffffffffffffffff1673ffffffffffffffffffffffffffffffffffffffff1681526020019081526020016000206000828254612c3f9190613066565b9250508190555090565b600047905090565b600080fd5b6000819050919050565b612c6981612c56565b8114612c7457600080fd5b50565b600081359050612c8681612c60565b92915050565b60008060408385031215612ca357612ca2612c51565b5b6000612cb185828601612c77565b9250506020612cc285828601612c77565b9150509250929050565b612cd581612c56565b82525050565b6000602082019050612cf06000830184612ccc565b92915050565b600073ffffffffffffffffffffffffffffffffffffffff82169050919050565b6000612d2182612cf6565b9050919050565b612d3181612d16565b82525050565b6000602082019050612d4c6000830184612d28565b92915050565b612d5b81612d16565b8114612d6657600080fd5b50565b600081359050612d7881612d52565b92915050565b600060208284031215612d9457612d93612c51565b5b6000612da284828501612d69565b91505092915050565b600060208284031215612dc157612dc0612c51565b5b6000612dcf84828501612c77565b91505092915050565b7f4e487b7100000000000000000000000000000000000000000000000000000000600052601160045260246000fd5b6000612e1282612c56565b9150612e1d83612c56565b9250828202612e2b81612c56565b91508282048414831517612e4257612e41612dd8565b5b5092915050565b7f4e487b7100000000000000000000000000000000000000000000000000000000600052601260045260246000fd5b6000612e8382612c56565b9150612e8e83612c56565b925082612e9e57612e9d612e49565b5b828204905092915050565b600082825260208201905092915050565b7f596f7520646f206e6f74206861766520616e79206f75747374616e64696e672060008201527f6465627400000000000000000000000000000000000000000000000000000000602082015250565b6000612f16602483612ea9565b9150612f2182612eba565b604082019050919050565b60006020820190508181036000830152612f4581612f09565b9050919050565b7f596f7520646f206e6f742068617665206f75747374616e64696e672064656274600082015250565b6000612f82602083612ea9565b9150612f8d82612f4c565b602082019050919050565b60006020820190508181036000830152612fb181612f75565b9050919050565b7f506c6561736520707574206d6f726520636f6c6c61746572616c000000000000600082015250565b6000612fee601a83612ea9565b9150612ff982612fb8565b602082019050919050565b6000602082019050818103600083015261301d81612fe1565b9050919050565b60008151905061303381612c60565b92915050565b60006020828403121561304f5761304e612c51565b5b600061305d84828501613024565b91505092915050565b600061307182612c56565b915061307c83612c56565b925082820190508082111561309457613093612dd8565b5b92915050565b7f596f7520646f206e6f74206861766520656e6f756768204156415820746f6b6560008201527f6e21000000000000000000000000000000000000000000000000000000000000602082015250565b60006130f6602283612ea9565b91506131018261309a565b604082019050919050565b60006020820190508181036000830152613125816130e9565b9050919050565b60006060820190506131416000830186612d28565b61314e6020830185612d28565b61315b6040830184612ccc565b949350505050565b60008115159050919050565b61317881613163565b811461318357600080fd5b50565b6000815190506131958161316f565b92915050565b6000602082840312156131b1576131b0612c51565b5b60006131bf84828501613186565b91505092915050565b60006131d382612c56565b91506131de83612c56565b92508282039050818111156131f6576131f5612dd8565b5b92915050565b60008151905061320b81612d52565b92915050565b60006020828403121561322757613226612c51565b5b6000613235848285016131fc565b91505092915050565b7f4e487b7100000000000000000000000000000000000000000000000000000000600052603260045260246000fd5b600061327882612c56565b91507fffffffffffffffffffffffffffffffffffffffffffffffffffffffffffffffff82036132aa576132a9612dd8565b5b600182019050919050565b7f56616c756520696e736572746564206973206e6f7420656e6f75676800000000600082015250565b60006132eb601c83612ea9565b91506132f6826132b5565b602082019050919050565b6000602082019050818103600083015261331a816132de565b9050919050565b7f4552524f52000000000000000000000000000000000000000000000000000000600082015250565b6000613357600583612ea9565b915061336282613321565b602082019050919050565b600060208201905081810360008301526133868161334a565b9050919050565b600061339882612cf6565b9050919050565b6133a88161338d565b82525050565b60006040820190506133c36000830185612ccc565b6133d0602083018461339f565b9392505050565b60006040820190506133ec6000830185612ccc565b6133f96020830184612d28565b939250505056fea264697066735822122093517483eb95251a308b9f666fdbd51b180ba511c38cfccea5f3037243e2a7f764736f6c63430008110033",
  "immutableReferences": {},
  "source": "// SPDX-License-Identifier: MIT\npragma solidity ^0.8.7;\nimport \"./LiquidityPool.sol\";\nimport \"./ERC20.sol\";\nimport \"./Reserves.sol\";\nimport \"./PriceFeed.sol\";\nimport \"./Avax.sol\";\nimport \"./IdentityToken.sol\";\n\ncontract Lending {\n    Avax avaxToken;\n    LiquidityPool liquidityPool;\n    Reserves reserves;\n    PriceFeed priceFeed;\n    IdentityToken identityToken;\n    uint256 _maximumLendingPercentage = 8500; //85% of collateral\n    uint256 _lendingFee = 500; //5% of total collateral\n    address _debtOwner = msg.sender;\n\n    mapping(address => uint256) AVAXCollateralLedger;\n    mapping(address => uint256) AVAXLoanLedger;\n    mapping(address => uint256) AVAXCollateralValueLedgerinUSD;\n    mapping(address => uint256) AVAXCUserTotalReturnTransactions;\n\n    mapping(address => uint256) ETHCollateralLedger;\n    mapping(address => uint256) ETHLoanLedger;\n    mapping(address => uint256) ETHCollateralValueLedgerinUSD;\n    mapping(address => uint256) ETHUserTotalReturnTransactions;\n\n    address[] ETHDebtors; // keep track who is still has outstanding loans\n    address[] AVAXDebtors; // keep track who is still has outstanding loans\n    \n     constructor(Avax avaxTokenAddress, LiquidityPool lp, Reserves reservesAddress, PriceFeed pf, IdentityToken identityTokenAddress) {\n        avaxToken = avaxTokenAddress;\n        liquidityPool = lp;\n        reserves = reservesAddress;\n        priceFeed = pf;\n        identityToken = identityTokenAddress;\n    }\n\n    //Take collateral and give 85% \n    function borrowAVAX(uint256 depositCollateral) public {\n        require(depositCollateral != 0, \"Please put more collateral\");\n        require (avaxToken.balanceOf(msg.sender) >= depositCollateral, \"You do not have enough AVAX token!\");\n        AVAXDebtors.push(msg.sender);\n        uint256 _loanAmount = 0; // set to 0 intially\n\n        if (identityToken.balanceOf(msg.sender) >= 1) {\n            uint256 verifiedRate = 9000; // 90% collateral needed\n            _loanAmount = calculatePercentage(depositCollateral, verifiedRate); //90% of collateral\n        } else {\n            _loanAmount = calculatePercentage(depositCollateral, _maximumLendingPercentage); //85% of collateral\n        }\n        //require(depositCollateral != 0, \"Please put more collateral\");\n        //require (avaxToken.balanceOf(msg.sender) >= depositCollateral, \"You do not have enough AVAX token!\");\n        //AVAXDebtors.push(msg.sender);\n        //uint256 _loanAmount = calculatePercentage(depositCollateral, _maximumLendingPercentage); //85% of collateral\n\n        AVAXCollateralLedger[msg.sender] += depositCollateral;\n        AVAXLoanLedger[msg.sender] += _loanAmount;\n\n        uint256 depositCollateralInUSD = depositCollateral * priceFeed.getAvaxPriceFirst(); //in USD\n        AVAXCollateralValueLedgerinUSD[msg.sender] += depositCollateralInUSD;\n\n        //address liqudityPoolAddress = liquidityPool.getLPAddress();\n        avaxToken.transferFrom(msg.sender, address(this), depositCollateral); //Transfer borrower collateral to this contract\n        liquidityPool.sendAvaxToLendingContract(_loanAmount, address(this)); // Transfer AVAX from LP to this contract\n        avaxToken.transferFrom(address(this), msg.sender, _loanAmount); //Take assets from Liquidity Pool and send to borrower\n    }\n\n    function repayAVAXDebt() public onlyAVAXDebtHolder {\n        //require only the person who loan it can pay back\n        uint256 amountToReturn = AVAXLoanLedger[msg.sender]; //Get amount to return from AvaxLoanLedger\n        require (avaxToken.balanceOf(msg.sender) >= amountToReturn, \"You do not have enough AVAX token!\");\n\n        uint256 collateralAmount = AVAXCollateralLedger[msg.sender]; //Get the collteral that is held by the Smart contract\n        avaxToken.transferFrom(msg.sender, address(this), amountToReturn); //Transfer USDC to pay back from wallet to this smart contract\n        uint256 lendingFeeToDeduct = calculatePercentage(collateralAmount, _lendingFee); //Calculate the avax taken as comission 5%\n        avaxToken.transferFrom(address(this), msg.sender, (collateralAmount - lendingFeeToDeduct)); //Transfer only 95% back\n        avaxToken.transferFrom(address(this), reserves.getReservesAddress(), lendingFeeToDeduct); //Transfer 5% to the reserves\n        \n        delete AVAXCollateralLedger[msg.sender]; //Reset the ledger as the loan has been paid\n        delete AVAXLoanLedger[msg.sender]; //Reset the ledger as the loan has been paid\n        delete AVAXCollateralValueLedgerinUSD[msg.sender];\n        AVAXCUserTotalReturnTransactions[msg.sender] += 1;\n\n        for (uint256 i = 0; i < AVAXDebtors.length; i++) {\n            if (AVAXDebtors[i] == msg.sender) {\n                delete AVAXDebtors[i];\n            }\n        }\n    }\n\n    function topUpAVAXCollateral(uint256 topUpCollateral) public onlyAVAXDebtHolder {\n        \n        require(topUpCollateral != 0, \"Please put more collateral\");\n        require (avaxToken.balanceOf(msg.sender) >= topUpCollateral, \"You do not have enough AVAX token!\");\n        uint256 topUpCollateralInUSD; \n        topUpCollateralInUSD = topUpCollateral * priceFeed.getAvaxPriceFirst(); //in USD\n        avaxToken.transferFrom(msg.sender, address(this), topUpCollateral);\n\n        AVAXCollateralLedger[msg.sender] += topUpCollateral;\n        AVAXCollateralValueLedgerinUSD[msg.sender] += topUpCollateralInUSD;\n    }\n\n     function liquidateAVAX() public {\n        uint256 currentPriceOfAVAX = priceFeed.getAvaxPriceToLiquidate();\n        for (uint i = 0; i < AVAXDebtors.length; i++) {\n            uint256 newCollateralPrice = (currentPriceOfAVAX * (AVAXCollateralLedger[AVAXDebtors[i]]));\n            if (newCollateralPrice <= AVAXCollateralValueLedgerinUSD[AVAXDebtors[i]]) {\n                //liquidate by sending collateral to the pool\n                 //addressToSend.transfer(ETHCollateralLedger[ETHDebtors[i]]);\n                 address accountAddress = AVAXDebtors[i];\n                 avaxToken.transferFrom(address(this), liquidityPool.getLPAddress(), AVAXCollateralLedger[accountAddress]);\n                 delete AVAXCollateralLedger[AVAXDebtors[i]]; //Reset the ledger as the loan has been Liquidated\n                 delete AVAXLoanLedger[AVAXDebtors[i]]; //Reset the ledger as the loan has been Liquidated\n                 delete AVAXCollateralValueLedgerinUSD[AVAXDebtors[i]];\n                 delete AVAXDebtors[i];\n            }\n        }\n    }\n\n     //Take collateral and give 85% \n    function borrowEth() public payable returns (uint256) {\n        uint256 depositCollateral = msg.value;\n        require(depositCollateral != 0, \"Please put more collateral\");\n        uint256 depositCollateralInEth = depositCollateral / 1000000000000000000;\n        uint256 depositCollateralInUSD; \n        ETHDebtors.push(msg.sender);\n        depositCollateralInUSD = depositCollateralInEth * priceFeed.getEthPriceFirst(); //in USD\n\n        uint256 _loanAmount = calculatePercentage(depositCollateral, _maximumLendingPercentage); //85% of collateral\n        ETHCollateralLedger[msg.sender] += depositCollateral;\n        ETHLoanLedger[msg.sender] += _loanAmount;\n        ETHCollateralValueLedgerinUSD[msg.sender] += depositCollateralInUSD;\n        \n        liquidityPool.sendEthToLender(_loanAmount, payable(msg.sender));\n        return ETHCollateralValueLedgerinUSD[msg.sender];\n    }\n\n    function topUpETHCollateral() public payable onlyEthDebtHolder {\n        uint256 topUpCollateral = msg.value;\n        require(topUpCollateral != 0, \"Please put more collateral\");\n        uint256 topUpCollateralInEth = topUpCollateral / 1000000000000000000;\n        uint256 topUpCollateralInUSD; \n        topUpCollateralInUSD = topUpCollateralInEth * priceFeed.getEthPriceFirst(); //in USD\n\n        ETHCollateralLedger[msg.sender] += topUpCollateral;\n        ETHCollateralValueLedgerinUSD[msg.sender] += topUpCollateralInUSD;\n    }\n\n   \n\n    function repayEth() public payable onlyEthDebtHolder {\n        //require only the person who loan it can pay back\n     \n        uint256 amountToReturn = ETHLoanLedger[msg.sender]; //Get amount to return from USDCLoanLedger\n        require (msg.value >= amountToReturn, \"Value inserted is not enough\");\n        uint256 collateralAmount = ETHCollateralLedger[msg.sender]; //Get the collteral that is held by the Smart contract\n       \n        uint256 lendingFeeToDeduct = calculatePercentage(collateralAmount, _lendingFee); //Calculate the avax taken as comission 5%\n        address payable addressToSend = payable (msg.sender);\n        addressToSend.transfer(collateralAmount - lendingFeeToDeduct); //Transfer Collateral - lending fee From This contract back to msg.sender\n        //Send back to LP\n        require (address(this).balance >= amountToReturn, \"ERROR\");\n        address payable lpAddress = payable (liquidityPool.getLPAddress());\n        lpAddress.transfer(amountToReturn);\n\n        //Send comissionFee to reserves\n        address payable reservesAddress = payable(reserves.getReservesAddress());\n        reservesAddress.transfer(lendingFeeToDeduct);\n\n        delete ETHCollateralLedger[msg.sender]; //Reset the ledger as the loan has been paid\n        delete ETHLoanLedger[msg.sender]; //Reset the ledger as the loan has been paid\n        delete ETHCollateralValueLedgerinUSD[msg.sender];\n        ETHUserTotalReturnTransactions[msg.sender] += 1;\n        \n        for (uint256 i = 0; i < ETHDebtors.length; i++) {\n            if (ETHDebtors[i] == msg.sender) {\n                delete ETHDebtors[i];\n            }\n        }\n    }\n           \n    function liquidateETH() public payable {\n        uint256 currentPriceOfEth = priceFeed.getEthPriceToLiquidate();\n        for (uint i = 0; i < ETHDebtors.length; i++) {\n            uint256 newCollateralPrice = (currentPriceOfEth * (ETHCollateralLedger[ETHDebtors[i]] / 1000000000000000000));\n            if (newCollateralPrice <= ETHCollateralValueLedgerinUSD[ETHDebtors[i]]) {\n                //liquidate by sending collateral to the pool\n                address payable addressToSend = payable (liquidityPool.getLPAddress());\n                addressToSend.transfer(ETHCollateralLedger[ETHDebtors[i]]);\n                 delete ETHCollateralLedger[ETHDebtors[i]]; //Reset the ledger as the loan has been Liquidated\n                 delete ETHLoanLedger[ETHDebtors[i]]; //Reset the ledger as the loan has been Liquidated\n                 delete ETHCollateralValueLedgerinUSD[ETHDebtors[i]];\n                 delete ETHDebtors[i];\n            }\n        }\n    }\n\n    function getUserTotaETHRepaymentAmount() public view returns (uint256) {\n        return ETHUserTotalReturnTransactions[msg.sender];\n    }\n\n    function getUserTotaAVAXRepaymentAmount() public view returns (uint256) {\n        return AVAXCUserTotalReturnTransactions[msg.sender];\n    }\n\n    //For testing purposes\n    function initUserTotalEthRepaymentAmount() public returns (uint256) {\n       ETHUserTotalReturnTransactions[msg.sender] += 100;\n    }\n\n    function initUserTotalAVAXRepaymentAmount() public returns (uint256) {\n       AVAXCUserTotalReturnTransactions[msg.sender] += 100;\n    }\n\n    //This function calculates Percentages\n    //Used to calculate the amount of Loan that can be given and platform lendingFees\n    //e.g \n    //Assume collateral = 100, desired percentage = 85%\n    //function returns 85\n\n    function calculatePercentage(uint256 collateralAmount, uint256 percentage) public pure returns (uint256) {\n        return (collateralAmount * percentage) / 10_000;\n    }\n\n    function getHoldingAVAXCollateral() public view returns (uint256) {\n        return avaxToken.balanceOf(address(this));\n    }\n\n    function getHoldingEthCollateral() public view returns (uint256) {\n        return address(this).balance;\n    }\n\n    //Functions to return the amount of Debt the msg.sender has in USDC\n    function getAVAXDebt() public view onlyAVAXDebtHolder returns (uint256) {\n        return (AVAXLoanLedger[msg.sender]);\n    }\n\n    function getAddress() public view returns (address) {\n        return address(this);\n    }\n\n    //Function to return transaction count\n    function getTotalTransactionCount(address user) public view returns (uint256) {\n        return AVAXCUserTotalReturnTransactions[user] + ETHUserTotalReturnTransactions[user];\n    }\n\n    modifier onlyAVAXDebtHolder() {\n        require(AVAXLoanLedger[msg.sender] > 0, \"You do not have any outstanding debt\");\n        _;\n    }\n\n    modifier onlyEthDebtHolder() {\n        require(ETHLoanLedger[msg.sender] > 0, \"You do not have outstanding debt\");\n        _;\n    }\n    \n     /*\n     modifier enoughAVAXInWallet() {\n        require(avaxToken.balanceOf(msg.sender) > 0, \"You do not have enough USDC to repay this debt\");\n        _;\n    }\n    */\n}",
  "sourcePath": "/Users/alwin/Developer/Liquiditas/contracts/Lending.sol",
  "compiler": {
    "name": "solc",
    "version": "0.8.17+commit.8df45f5f.Emscripten.clang"
  },
  "schemaVersion": "3.4.11",
  "updatedAt": "2023-03-22T04:44:05.302Z",
  "networkType": "ethereum",
  "devdoc": {
    "kind": "dev",
    "methods": {},
    "version": 1
  },
  "userdoc": {
    "kind": "user",
    "methods": {},
    "version": 1
  }
}