{
  "contractName": "Lending",
  "abi": [
    {
      "inputs": [
        {
          "internalType": "contract Avax",
          "name": "avaxTokenAddress",
          "type": "address"
        },
        {
          "internalType": "contract LiquidityPool",
          "name": "lp",
          "type": "address"
        },
        {
          "internalType": "contract Reserves",
          "name": "reservesAddress",
          "type": "address"
        },
        {
          "internalType": "contract PriceFeed",
          "name": "pf",
          "type": "address"
        }
      ],
      "stateMutability": "nonpayable",
      "type": "constructor"
    },
    {
      "inputs": [
        {
          "internalType": "uint256",
          "name": "depositCollateral",
          "type": "uint256"
        }
      ],
      "name": "borrowAVAX",
      "outputs": [],
      "stateMutability": "nonpayable",
      "type": "function"
    },
    {
      "inputs": [],
      "name": "repayAVAXDebt",
      "outputs": [],
      "stateMutability": "nonpayable",
      "type": "function"
    },
    {
      "inputs": [
        {
          "internalType": "uint256",
          "name": "topUpCollateral",
          "type": "uint256"
        }
      ],
      "name": "topUpAVAXCollateral",
      "outputs": [],
      "stateMutability": "nonpayable",
      "type": "function"
    },
    {
      "inputs": [],
      "name": "liquidateAVAX",
      "outputs": [],
      "stateMutability": "nonpayable",
      "type": "function"
    },
    {
      "inputs": [],
      "name": "borrowEth",
      "outputs": [
        {
          "internalType": "uint256",
          "name": "",
          "type": "uint256"
        }
      ],
      "stateMutability": "payable",
      "type": "function"
    },
    {
      "inputs": [],
      "name": "topUpETHCollateral",
      "outputs": [],
      "stateMutability": "payable",
      "type": "function"
    },
    {
      "inputs": [],
      "name": "repayEth",
      "outputs": [],
      "stateMutability": "payable",
      "type": "function"
    },
    {
      "inputs": [],
      "name": "liquidateETH",
      "outputs": [],
      "stateMutability": "payable",
      "type": "function"
    },
    {
      "inputs": [],
      "name": "getUserTotaETHRepaymentAmount",
      "outputs": [
        {
          "internalType": "uint256",
          "name": "",
          "type": "uint256"
        }
      ],
      "stateMutability": "view",
      "type": "function"
    },
    {
      "inputs": [],
      "name": "getUserTotaAVAXRepaymentAmount",
      "outputs": [
        {
          "internalType": "uint256",
          "name": "",
          "type": "uint256"
        }
      ],
      "stateMutability": "view",
      "type": "function"
    },
    {
      "inputs": [],
      "name": "initUserTotalEthRepaymentAmount",
      "outputs": [
        {
          "internalType": "uint256",
          "name": "",
          "type": "uint256"
        }
      ],
      "stateMutability": "nonpayable",
      "type": "function"
    },
    {
      "inputs": [],
      "name": "initUserTotalAVAXRepaymentAmount",
      "outputs": [
        {
          "internalType": "uint256",
          "name": "",
          "type": "uint256"
        }
      ],
      "stateMutability": "nonpayable",
      "type": "function"
    },
    {
      "inputs": [
        {
          "internalType": "uint256",
          "name": "collateralAmount",
          "type": "uint256"
        },
        {
          "internalType": "uint256",
          "name": "percentage",
          "type": "uint256"
        }
      ],
      "name": "calculatePercentage",
      "outputs": [
        {
          "internalType": "uint256",
          "name": "",
          "type": "uint256"
        }
      ],
      "stateMutability": "pure",
      "type": "function"
    },
    {
      "inputs": [],
      "name": "getHoldingAVAXCollateral",
      "outputs": [
        {
          "internalType": "uint256",
          "name": "",
          "type": "uint256"
        }
      ],
      "stateMutability": "view",
      "type": "function"
    },
    {
      "inputs": [],
      "name": "getHoldingEthCollateral",
      "outputs": [
        {
          "internalType": "uint256",
          "name": "",
          "type": "uint256"
        }
      ],
      "stateMutability": "view",
      "type": "function"
    },
    {
      "inputs": [],
      "name": "getAVAXDebt",
      "outputs": [
        {
          "internalType": "uint256",
          "name": "",
          "type": "uint256"
        }
      ],
      "stateMutability": "view",
      "type": "function"
    },
    {
      "inputs": [],
      "name": "getAddress",
      "outputs": [
        {
          "internalType": "address",
          "name": "",
          "type": "address"
        }
      ],
      "stateMutability": "view",
      "type": "function"
    }
  ],
  "bytecode": "0x60806040526121346004556101f460055533600660006101000a81548173ffffffffffffffffffffffffffffffffffffffff021916908373ffffffffffffffffffffffffffffffffffffffff1602179055503480156200005e57600080fd5b506040516200362d3803806200362d8339818101604052810190620000849190620002f2565b836000806101000a81548173ffffffffffffffffffffffffffffffffffffffff021916908373ffffffffffffffffffffffffffffffffffffffff16021790555082600160006101000a81548173ffffffffffffffffffffffffffffffffffffffff021916908373ffffffffffffffffffffffffffffffffffffffff16021790555081600260006101000a81548173ffffffffffffffffffffffffffffffffffffffff021916908373ffffffffffffffffffffffffffffffffffffffff16021790555080600360006101000a81548173ffffffffffffffffffffffffffffffffffffffff021916908373ffffffffffffffffffffffffffffffffffffffff1602179055505050505062000364565b600080fd5b600073ffffffffffffffffffffffffffffffffffffffff82169050919050565b6000620001c38262000196565b9050919050565b6000620001d782620001b6565b9050919050565b620001e981620001ca565b8114620001f557600080fd5b50565b6000815190506200020981620001de565b92915050565b60006200021c8262000196565b9050919050565b600062000230826200020f565b9050919050565b620002428162000223565b81146200024e57600080fd5b50565b600081519050620002628162000237565b92915050565b600062000275826200020f565b9050919050565b620002878162000268565b81146200029357600080fd5b50565b600081519050620002a7816200027c565b92915050565b6000620002ba82620001b6565b9050919050565b620002cc81620002ad565b8114620002d857600080fd5b50565b600081519050620002ec81620002c1565b92915050565b600080600080608085870312156200030f576200030e62000191565b5b60006200031f87828801620001f8565b9450506020620003328782880162000251565b9350506040620003458782880162000296565b92505060606200035887828801620002db565b91505092959194509250565b6132b980620003746000396000f3fe6080604052600436106100fe5760003560e01c80636862f58911610095578063b731bc6d11610064578063b731bc6d14610293578063b968c930146102be578063db8bf7e6146102e7578063dcbbdbb8146102fe578063fcd6e19114610329576100fe565b80636862f5891461020a5780636e67fcdd14610235578063734997e514610260578063b60d26171461026a576100fe565b806342b9309a116100d157806342b9309a146101a05780634a282670146101b75780634b84a647146101c15780634fed0518146101ec576100fe565b80632133e3b91461010357806323ded52a146101405780632b0fa3991461016b57806338cc483114610175575b600080fd5b34801561010f57600080fd5b5061012a60048036038101906101259190612abf565b610354565b6040516101379190612b0e565b60405180910390f35b34801561014c57600080fd5b50610155610377565b6040516101629190612b0e565b60405180910390f35b61017361043f565b005b34801561018157600080fd5b5061018a610672565b6040516101979190612b6a565b60405180910390f35b3480156101ac57600080fd5b506101b561067a565b005b6101bf610dc7565b005b3480156101cd57600080fd5b506101d6611375565b6040516101e39190612b0e565b60405180910390f35b6101f4611417565b6040516102019190612b0e565b60405180910390f35b34801561021657600080fd5b5061021f61172f565b60405161022c9190612b0e565b60405180910390f35b34801561024157600080fd5b5061024a611776565b6040516102579190612b0e565b60405180910390f35b6102686117bd565b005b34801561027657600080fd5b50610291600480360381019061028c9190612b85565b611cbd565b005b34801561029f57600080fd5b506102a8611fae565b6040516102b59190612b0e565b60405180910390f35b3480156102ca57600080fd5b506102e560048036038101906102e09190612b85565b61200a565b005b3480156102f357600080fd5b506102fc6124d9565b005b34801561030a57600080fd5b50610313612a20565b6040516103209190612b0e565b60405180910390f35b34801561033557600080fd5b5061033e612a7c565b60405161034b9190612b0e565b60405180910390f35b600061271082846103659190612be1565b61036f9190612c52565b905092915050565b600080600860003373ffffffffffffffffffffffffffffffffffffffff1673ffffffffffffffffffffffffffffffffffffffff16815260200190815260200160002054116103fa576040517f08c379a00000000000000000000000000000000000000000000000000000000081526004016103f190612d06565b60405180910390fd5b600860003373ffffffffffffffffffffffffffffffffffffffff1673ffffffffffffffffffffffffffffffffffffffff16815260200190815260200160002054905090565b6000600c60003373ffffffffffffffffffffffffffffffffffffffff1673ffffffffffffffffffffffffffffffffffffffff16815260200190815260200160002054116104c1576040517f08c379a00000000000000000000000000000000000000000000000000000000081526004016104b890612d72565b60405180910390fd5b600034905060008103610509576040517f08c379a000000000000000000000000000000000000000000000000000000000815260040161050090612dde565b60405180910390fd5b6000670de0b6b3a76400008261051f9190612c52565b90506000600360009054906101000a900473ffffffffffffffffffffffffffffffffffffffff1673ffffffffffffffffffffffffffffffffffffffff166307a1cf9e6040518163ffffffff1660e01b8152600401602060405180830381865afa158015610590573d6000803e3d6000fd5b505050506040513d601f19601f820116820180604052508101906105b49190612e13565b826105bf9190612be1565b905082600b60003373ffffffffffffffffffffffffffffffffffffffff1673ffffffffffffffffffffffffffffffffffffffff16815260200190815260200160002060008282546106109190612e40565b9250508190555080600d60003373ffffffffffffffffffffffffffffffffffffffff1673ffffffffffffffffffffffffffffffffffffffff16815260200190815260200160002060008282546106669190612e40565b92505081905550505050565b600030905090565b6000600860003373ffffffffffffffffffffffffffffffffffffffff1673ffffffffffffffffffffffffffffffffffffffff16815260200190815260200160002054116106fc576040517f08c379a00000000000000000000000000000000000000000000000000000000081526004016106f390612d06565b60405180910390fd5b60008060009054906101000a900473ffffffffffffffffffffffffffffffffffffffff1673ffffffffffffffffffffffffffffffffffffffff166370a08231336040518263ffffffff1660e01b81526004016107589190612b6a565b602060405180830381865afa158015610775573d6000803e3d6000fd5b505050506040513d601f19601f820116820180604052508101906107999190612e13565b116107d9576040517f08c379a00000000000000000000000000000000000000000000000000000000081526004016107d090612ee6565b60405180910390fd5b6000600860003373ffffffffffffffffffffffffffffffffffffffff1673ffffffffffffffffffffffffffffffffffffffff1681526020019081526020016000205490508060008054906101000a900473ffffffffffffffffffffffffffffffffffffffff1673ffffffffffffffffffffffffffffffffffffffff166370a08231336040518263ffffffff1660e01b81526004016108779190612b6a565b602060405180830381865afa158015610894573d6000803e3d6000fd5b505050506040513d601f19601f820116820180604052508101906108b89190612e13565b10156108f9576040517f08c379a00000000000000000000000000000000000000000000000000000000081526004016108f090612f78565b60405180910390fd5b6000600760003373ffffffffffffffffffffffffffffffffffffffff1673ffffffffffffffffffffffffffffffffffffffff16815260200190815260200160002054905060008054906101000a900473ffffffffffffffffffffffffffffffffffffffff1673ffffffffffffffffffffffffffffffffffffffff166323b872dd3330856040518463ffffffff1660e01b815260040161099a93929190612f98565b6020604051808303816000875af11580156109b9573d6000803e3d6000fd5b505050506040513d601f19601f820116820180604052508101906109dd9190613007565b5060006109ec82600554610354565b905060008054906101000a900473ffffffffffffffffffffffffffffffffffffffff1673ffffffffffffffffffffffffffffffffffffffff166323b872dd30338486610a389190613034565b6040518463ffffffff1660e01b8152600401610a5693929190612f98565b6020604051808303816000875af1158015610a75573d6000803e3d6000fd5b505050506040513d601f19601f82011682018060405250810190610a999190613007565b5060008054906101000a900473ffffffffffffffffffffffffffffffffffffffff1673ffffffffffffffffffffffffffffffffffffffff166323b872dd30600260009054906101000a900473ffffffffffffffffffffffffffffffffffffffff1673ffffffffffffffffffffffffffffffffffffffff16632ad415bd6040518163ffffffff1660e01b8152600401602060405180830381865afa158015610b44573d6000803e3d6000fd5b505050506040513d601f19601f82011682018060405250810190610b689190613094565b846040518463ffffffff1660e01b8152600401610b8793929190612f98565b6020604051808303816000875af1158015610ba6573d6000803e3d6000fd5b505050506040513d601f19601f82011682018060405250810190610bca9190613007565b50600760003373ffffffffffffffffffffffffffffffffffffffff1673ffffffffffffffffffffffffffffffffffffffff16815260200190815260200160002060009055600860003373ffffffffffffffffffffffffffffffffffffffff1673ffffffffffffffffffffffffffffffffffffffff16815260200190815260200160002060009055600960003373ffffffffffffffffffffffffffffffffffffffff1673ffffffffffffffffffffffffffffffffffffffff168152602001908152602001600020600090556001600a60003373ffffffffffffffffffffffffffffffffffffffff1673ffffffffffffffffffffffffffffffffffffffff1681526020019081526020016000206000828254610ce49190612e40565b9250508190555060005b601080549050811015610dc1573373ffffffffffffffffffffffffffffffffffffffff1660108281548110610d2657610d256130c1565b5b9060005260206000200160009054906101000a900473ffffffffffffffffffffffffffffffffffffffff1673ffffffffffffffffffffffffffffffffffffffff1603610dae5760108181548110610d8057610d7f6130c1565b5b9060005260206000200160006101000a81549073ffffffffffffffffffffffffffffffffffffffff02191690555b8080610db9906130f0565b915050610cee565b50505050565b6000600c60003373ffffffffffffffffffffffffffffffffffffffff1673ffffffffffffffffffffffffffffffffffffffff1681526020019081526020016000205411610e49576040517f08c379a0000000000000000000000000000000000000000000000000000000008152600401610e4090612d72565b60405180910390fd5b6000600c60003373ffffffffffffffffffffffffffffffffffffffff1673ffffffffffffffffffffffffffffffffffffffff16815260200190815260200160002054905080341015610ed0576040517f08c379a0000000000000000000000000000000000000000000000000000000008152600401610ec790613184565b60405180910390fd5b6000600b60003373ffffffffffffffffffffffffffffffffffffffff1673ffffffffffffffffffffffffffffffffffffffff1681526020019081526020016000205490506000610f2282600554610354565b905060003390508073ffffffffffffffffffffffffffffffffffffffff166108fc8385610f4f9190613034565b9081150290604051600060405180830381858888f19350505050158015610f7a573d6000803e3d6000fd5b5083471015610fbe576040517f08c379a0000000000000000000000000000000000000000000000000000000008152600401610fb5906131f0565b60405180910390fd5b6000600160009054906101000a900473ffffffffffffffffffffffffffffffffffffffff1673ffffffffffffffffffffffffffffffffffffffff1663996e96f06040518163ffffffff1660e01b8152600401602060405180830381865afa15801561102d573d6000803e3d6000fd5b505050506040513d601f19601f820116820180604052508101906110519190613094565b90508073ffffffffffffffffffffffffffffffffffffffff166108fc869081150290604051600060405180830381858888f19350505050158015611099573d6000803e3d6000fd5b506000600260009054906101000a900473ffffffffffffffffffffffffffffffffffffffff1673ffffffffffffffffffffffffffffffffffffffff16632ad415bd6040518163ffffffff1660e01b8152600401602060405180830381865afa158015611109573d6000803e3d6000fd5b505050506040513d601f19601f8201168201806040525081019061112d9190613094565b90508073ffffffffffffffffffffffffffffffffffffffff166108fc859081150290604051600060405180830381858888f19350505050158015611175573d6000803e3d6000fd5b50600b60003373ffffffffffffffffffffffffffffffffffffffff1673ffffffffffffffffffffffffffffffffffffffff16815260200190815260200160002060009055600c60003373ffffffffffffffffffffffffffffffffffffffff1673ffffffffffffffffffffffffffffffffffffffff16815260200190815260200160002060009055600d60003373ffffffffffffffffffffffffffffffffffffffff1673ffffffffffffffffffffffffffffffffffffffff168152602001908152602001600020600090556001600e60003373ffffffffffffffffffffffffffffffffffffffff1673ffffffffffffffffffffffffffffffffffffffff168152602001908152602001600020600082825461128f9190612e40565b9250508190555060005b600f8054905081101561136c573373ffffffffffffffffffffffffffffffffffffffff16600f82815481106112d1576112d06130c1565b5b9060005260206000200160009054906101000a900473ffffffffffffffffffffffffffffffffffffffff1673ffffffffffffffffffffffffffffffffffffffff160361135957600f818154811061132b5761132a6130c1565b5b9060005260206000200160006101000a81549073ffffffffffffffffffffffffffffffffffffffff02191690555b8080611364906130f0565b915050611299565b50505050505050565b60008060009054906101000a900473ffffffffffffffffffffffffffffffffffffffff1673ffffffffffffffffffffffffffffffffffffffff166370a08231306040518263ffffffff1660e01b81526004016113d19190612b6a565b602060405180830381865afa1580156113ee573d6000803e3d6000fd5b505050506040513d601f19601f820116820180604052508101906114129190612e13565b905090565b60008034905060008103611460576040517f08c379a000000000000000000000000000000000000000000000000000000000815260040161145790612dde565b60405180910390fd5b6000670de0b6b3a7640000826114769190612c52565b90506000600f339080600181540180825580915050600190039060005260206000200160009091909190916101000a81548173ffffffffffffffffffffffffffffffffffffffff021916908373ffffffffffffffffffffffffffffffffffffffff160217905550600360009054906101000a900473ffffffffffffffffffffffffffffffffffffffff1673ffffffffffffffffffffffffffffffffffffffff166307a1cf9e6040518163ffffffff1660e01b8152600401602060405180830381865afa15801561154a573d6000803e3d6000fd5b505050506040513d601f19601f8201168201806040525081019061156e9190612e13565b826115799190612be1565b9050600061158984600454610354565b905083600b60003373ffffffffffffffffffffffffffffffffffffffff1673ffffffffffffffffffffffffffffffffffffffff1681526020019081526020016000208190555080600c60003373ffffffffffffffffffffffffffffffffffffffff1673ffffffffffffffffffffffffffffffffffffffff1681526020019081526020016000208190555081600d60003373ffffffffffffffffffffffffffffffffffffffff1673ffffffffffffffffffffffffffffffffffffffff16815260200190815260200160002081905550600160009054906101000a900473ffffffffffffffffffffffffffffffffffffffff1673ffffffffffffffffffffffffffffffffffffffff166394a54a1282336040518363ffffffff1660e01b81526004016116b4929190613231565b600060405180830381600087803b1580156116ce57600080fd5b505af11580156116e2573d6000803e3d6000fd5b50505050600d60003373ffffffffffffffffffffffffffffffffffffffff1673ffffffffffffffffffffffffffffffffffffffff1681526020019081526020016000205494505050505090565b6000600e60003373ffffffffffffffffffffffffffffffffffffffff1673ffffffffffffffffffffffffffffffffffffffff16815260200190815260200160002054905090565b6000600a60003373ffffffffffffffffffffffffffffffffffffffff1673ffffffffffffffffffffffffffffffffffffffff16815260200190815260200160002054905090565b6000600360009054906101000a900473ffffffffffffffffffffffffffffffffffffffff1673ffffffffffffffffffffffffffffffffffffffff166319d747236040518163ffffffff1660e01b8152600401602060405180830381865afa15801561182c573d6000803e3d6000fd5b505050506040513d601f19601f820116820180604052508101906118509190612e13565b905060005b600f80549050811015611cb9576000670de0b6b3a7640000600b6000600f8581548110611885576118846130c1565b5b9060005260206000200160009054906101000a900473ffffffffffffffffffffffffffffffffffffffff1673ffffffffffffffffffffffffffffffffffffffff1673ffffffffffffffffffffffffffffffffffffffff168152602001908152602001600020546118f59190612c52565b836119009190612be1565b9050600d6000600f848154811061191a576119196130c1565b5b9060005260206000200160009054906101000a900473ffffffffffffffffffffffffffffffffffffffff1673ffffffffffffffffffffffffffffffffffffffff1673ffffffffffffffffffffffffffffffffffffffff168152602001908152602001600020548111611ca5576000600160009054906101000a900473ffffffffffffffffffffffffffffffffffffffff1673ffffffffffffffffffffffffffffffffffffffff1663996e96f06040518163ffffffff1660e01b8152600401602060405180830381865afa1580156119f5573d6000803e3d6000fd5b505050506040513d601f19601f82011682018060405250810190611a199190613094565b90508073ffffffffffffffffffffffffffffffffffffffff166108fc600b6000600f8781548110611a4d57611a4c6130c1565b5b9060005260206000200160009054906101000a900473ffffffffffffffffffffffffffffffffffffffff1673ffffffffffffffffffffffffffffffffffffffff1673ffffffffffffffffffffffffffffffffffffffff168152602001908152602001600020549081150290604051600060405180830381858888f19350505050158015611ade573d6000803e3d6000fd5b50600b6000600f8581548110611af757611af66130c1565b5b9060005260206000200160009054906101000a900473ffffffffffffffffffffffffffffffffffffffff1673ffffffffffffffffffffffffffffffffffffffff1673ffffffffffffffffffffffffffffffffffffffff16815260200190815260200160002060009055600c6000600f8581548110611b7857611b776130c1565b5b9060005260206000200160009054906101000a900473ffffffffffffffffffffffffffffffffffffffff1673ffffffffffffffffffffffffffffffffffffffff1673ffffffffffffffffffffffffffffffffffffffff16815260200190815260200160002060009055600d6000600f8581548110611bf957611bf86130c1565b5b9060005260206000200160009054906101000a900473ffffffffffffffffffffffffffffffffffffffff1673ffffffffffffffffffffffffffffffffffffffff1673ffffffffffffffffffffffffffffffffffffffff16815260200190815260200160002060009055600f8381548110611c7657611c756130c1565b5b9060005260206000200160006101000a81549073ffffffffffffffffffffffffffffffffffffffff0219169055505b508080611cb1906130f0565b915050611855565b5050565b6000600860003373ffffffffffffffffffffffffffffffffffffffff1673ffffffffffffffffffffffffffffffffffffffff1681526020019081526020016000205411611d3f576040517f08c379a0000000000000000000000000000000000000000000000000000000008152600401611d3690612d06565b60405180910390fd5b60008103611d82576040517f08c379a0000000000000000000000000000000000000000000000000000000008152600401611d7990612dde565b60405180910390fd5b8060008054906101000a900473ffffffffffffffffffffffffffffffffffffffff1673ffffffffffffffffffffffffffffffffffffffff166370a08231336040518263ffffffff1660e01b8152600401611ddc9190612b6a565b602060405180830381865afa158015611df9573d6000803e3d6000fd5b505050506040513d601f19601f82011682018060405250810190611e1d9190612e13565b1015611e5e576040517f08c379a0000000000000000000000000000000000000000000000000000000008152600401611e5590612f78565b60405180910390fd5b6000600360009054906101000a900473ffffffffffffffffffffffffffffffffffffffff1673ffffffffffffffffffffffffffffffffffffffff1663946e34726040518163ffffffff1660e01b8152600401602060405180830381865afa158015611ecd573d6000803e3d6000fd5b505050506040513d601f19601f82011682018060405250810190611ef19190612e13565b82611efc9190612be1565b905081600760003373ffffffffffffffffffffffffffffffffffffffff1673ffffffffffffffffffffffffffffffffffffffff1681526020019081526020016000206000828254611f4d9190612e40565b9250508190555080600960003373ffffffffffffffffffffffffffffffffffffffff1673ffffffffffffffffffffffffffffffffffffffff1681526020019081526020016000206000828254611fa39190612e40565b925050819055505050565b60006064600e60003373ffffffffffffffffffffffffffffffffffffffff1673ffffffffffffffffffffffffffffffffffffffff16815260200190815260200160002060008282546120009190612e40565b9250508190555090565b6000810361204d576040517f08c379a000000000000000000000000000000000000000000000000000000000815260040161204490612dde565b60405180910390fd5b8060008054906101000a900473ffffffffffffffffffffffffffffffffffffffff1673ffffffffffffffffffffffffffffffffffffffff166370a08231336040518263ffffffff1660e01b81526004016120a79190612b6a565b602060405180830381865afa1580156120c4573d6000803e3d6000fd5b505050506040513d601f19601f820116820180604052508101906120e89190612e13565b1015612129576040517f08c379a000000000000000000000000000000000000000000000000000000000815260040161212090612f78565b60405180910390fd5b6010339080600181540180825580915050600190039060005260206000200160009091909190916101000a81548173ffffffffffffffffffffffffffffffffffffffff021916908373ffffffffffffffffffffffffffffffffffffffff160217905550600061219a82600454610354565b905081600760003373ffffffffffffffffffffffffffffffffffffffff1673ffffffffffffffffffffffffffffffffffffffff1681526020019081526020016000208190555080600860003373ffffffffffffffffffffffffffffffffffffffff1673ffffffffffffffffffffffffffffffffffffffff16815260200190815260200160002081905550600082905080600960003373ffffffffffffffffffffffffffffffffffffffff1673ffffffffffffffffffffffffffffffffffffffff168152602001908152602001600020819055506000600160009054906101000a900473ffffffffffffffffffffffffffffffffffffffff1673ffffffffffffffffffffffffffffffffffffffff1663996e96f06040518163ffffffff1660e01b8152600401602060405180830381865afa1580156122dc573d6000803e3d6000fd5b505050506040513d601f19601f820116820180604052508101906123009190613094565b905060008054906101000a900473ffffffffffffffffffffffffffffffffffffffff1673ffffffffffffffffffffffffffffffffffffffff166323b872dd3330876040518463ffffffff1660e01b815260040161235f93929190612f98565b6020604051808303816000875af115801561237e573d6000803e3d6000fd5b505050506040513d601f19601f820116820180604052508101906123a29190613007565b50600160009054906101000a900473ffffffffffffffffffffffffffffffffffffffff1673ffffffffffffffffffffffffffffffffffffffff1663598c5b4284306040518363ffffffff1660e01b815260040161240092919061325a565b600060405180830381600087803b15801561241a57600080fd5b505af115801561242e573d6000803e3d6000fd5b5050505060008054906101000a900473ffffffffffffffffffffffffffffffffffffffff1673ffffffffffffffffffffffffffffffffffffffff166323b872dd3033866040518463ffffffff1660e01b815260040161248f93929190612f98565b6020604051808303816000875af11580156124ae573d6000803e3d6000fd5b505050506040513d601f19601f820116820180604052508101906124d29190613007565b5050505050565b6000600360009054906101000a900473ffffffffffffffffffffffffffffffffffffffff1673ffffffffffffffffffffffffffffffffffffffff1663ffa8ce506040518163ffffffff1660e01b8152600401602060405180830381865afa158015612548573d6000803e3d6000fd5b505050506040513d601f19601f8201168201806040525081019061256c9190612e13565b905060005b601080549050811015612a1c5760006007600060108481548110612598576125976130c1565b5b9060005260206000200160009054906101000a900473ffffffffffffffffffffffffffffffffffffffff1673ffffffffffffffffffffffffffffffffffffffff1673ffffffffffffffffffffffffffffffffffffffff16815260200190815260200160002054836126099190612be1565b90506009600060108481548110612623576126226130c1565b5b9060005260206000200160009054906101000a900473ffffffffffffffffffffffffffffffffffffffff1673ffffffffffffffffffffffffffffffffffffffff1673ffffffffffffffffffffffffffffffffffffffff168152602001908152602001600020548111612a08576000601083815481106126a5576126a46130c1565b5b9060005260206000200160009054906101000a900473ffffffffffffffffffffffffffffffffffffffff16905060008054906101000a900473ffffffffffffffffffffffffffffffffffffffff1673ffffffffffffffffffffffffffffffffffffffff166323b872dd30600160009054906101000a900473ffffffffffffffffffffffffffffffffffffffff1673ffffffffffffffffffffffffffffffffffffffff1663996e96f06040518163ffffffff1660e01b8152600401602060405180830381865afa15801561277c573d6000803e3d6000fd5b505050506040513d601f19601f820116820180604052508101906127a09190613094565b600760008673ffffffffffffffffffffffffffffffffffffffff1673ffffffffffffffffffffffffffffffffffffffff168152602001908152602001600020546040518463ffffffff1660e01b81526004016127fe93929190612f98565b6020604051808303816000875af115801561281d573d6000803e3d6000fd5b505050506040513d601f19601f820116820180604052508101906128419190613007565b50600760006010858154811061285a576128596130c1565b5b9060005260206000200160009054906101000a900473ffffffffffffffffffffffffffffffffffffffff1673ffffffffffffffffffffffffffffffffffffffff1673ffffffffffffffffffffffffffffffffffffffff1681526020019081526020016000206000905560086000601085815481106128db576128da6130c1565b5b9060005260206000200160009054906101000a900473ffffffffffffffffffffffffffffffffffffffff1673ffffffffffffffffffffffffffffffffffffffff1673ffffffffffffffffffffffffffffffffffffffff16815260200190815260200160002060009055600960006010858154811061295c5761295b6130c1565b5b9060005260206000200160009054906101000a900473ffffffffffffffffffffffffffffffffffffffff1673ffffffffffffffffffffffffffffffffffffffff1673ffffffffffffffffffffffffffffffffffffffff16815260200190815260200160002060009055601083815481106129d9576129d86130c1565b5b9060005260206000200160006101000a81549073ffffffffffffffffffffffffffffffffffffffff0219169055505b508080612a14906130f0565b915050612571565b5050565b60006064600a60003373ffffffffffffffffffffffffffffffffffffffff1673ffffffffffffffffffffffffffffffffffffffff1681526020019081526020016000206000828254612a729190612e40565b9250508190555090565b600047905090565b600080fd5b6000819050919050565b612a9c81612a89565b8114612aa757600080fd5b50565b600081359050612ab981612a93565b92915050565b60008060408385031215612ad657612ad5612a84565b5b6000612ae485828601612aaa565b9250506020612af585828601612aaa565b9150509250929050565b612b0881612a89565b82525050565b6000602082019050612b236000830184612aff565b92915050565b600073ffffffffffffffffffffffffffffffffffffffff82169050919050565b6000612b5482612b29565b9050919050565b612b6481612b49565b82525050565b6000602082019050612b7f6000830184612b5b565b92915050565b600060208284031215612b9b57612b9a612a84565b5b6000612ba984828501612aaa565b91505092915050565b7f4e487b7100000000000000000000000000000000000000000000000000000000600052601160045260246000fd5b6000612bec82612a89565b9150612bf783612a89565b9250828202612c0581612a89565b91508282048414831517612c1c57612c1b612bb2565b5b5092915050565b7f4e487b7100000000000000000000000000000000000000000000000000000000600052601260045260246000fd5b6000612c5d82612a89565b9150612c6883612a89565b925082612c7857612c77612c23565b5b828204905092915050565b600082825260208201905092915050565b7f596f7520646f206e6f74206861766520616e79206f75747374616e64696e672060008201527f6465627400000000000000000000000000000000000000000000000000000000602082015250565b6000612cf0602483612c83565b9150612cfb82612c94565b604082019050919050565b60006020820190508181036000830152612d1f81612ce3565b9050919050565b7f596f7520646f206e6f742068617665206f75747374616e64696e672064656274600082015250565b6000612d5c602083612c83565b9150612d6782612d26565b602082019050919050565b60006020820190508181036000830152612d8b81612d4f565b9050919050565b7f506c6561736520707574206d6f726520636f6c6c61746572616c000000000000600082015250565b6000612dc8601a83612c83565b9150612dd382612d92565b602082019050919050565b60006020820190508181036000830152612df781612dbb565b9050919050565b600081519050612e0d81612a93565b92915050565b600060208284031215612e2957612e28612a84565b5b6000612e3784828501612dfe565b91505092915050565b6000612e4b82612a89565b9150612e5683612a89565b9250828201905080821115612e6e57612e6d612bb2565b5b92915050565b7f596f7520646f206e6f74206861766520656e6f756768205553444320746f207260008201527f6570617920746869732064656274000000000000000000000000000000000000602082015250565b6000612ed0602e83612c83565b9150612edb82612e74565b604082019050919050565b60006020820190508181036000830152612eff81612ec3565b9050919050565b7f596f7520646f206e6f74206861766520656e6f756768204156415820746f6b6560008201527f6e21000000000000000000000000000000000000000000000000000000000000602082015250565b6000612f62602283612c83565b9150612f6d82612f06565b604082019050919050565b60006020820190508181036000830152612f9181612f55565b9050919050565b6000606082019050612fad6000830186612b5b565b612fba6020830185612b5b565b612fc76040830184612aff565b949350505050565b60008115159050919050565b612fe481612fcf565b8114612fef57600080fd5b50565b60008151905061300181612fdb565b92915050565b60006020828403121561301d5761301c612a84565b5b600061302b84828501612ff2565b91505092915050565b600061303f82612a89565b915061304a83612a89565b925082820390508181111561306257613061612bb2565b5b92915050565b61307181612b49565b811461307c57600080fd5b50565b60008151905061308e81613068565b92915050565b6000602082840312156130aa576130a9612a84565b5b60006130b88482850161307f565b91505092915050565b7f4e487b7100000000000000000000000000000000000000000000000000000000600052603260045260246000fd5b60006130fb82612a89565b91507fffffffffffffffffffffffffffffffffffffffffffffffffffffffffffffffff820361312d5761312c612bb2565b5b600182019050919050565b7f56616c756520696e736572746564206973206e6f7420656e6f75676800000000600082015250565b600061316e601c83612c83565b915061317982613138565b602082019050919050565b6000602082019050818103600083015261319d81613161565b9050919050565b7f4552524f52000000000000000000000000000000000000000000000000000000600082015250565b60006131da600583612c83565b91506131e5826131a4565b602082019050919050565b60006020820190508181036000830152613209816131cd565b9050919050565b600061321b82612b29565b9050919050565b61322b81613210565b82525050565b60006040820190506132466000830185612aff565b6132536020830184613222565b9392505050565b600060408201905061326f6000830185612aff565b61327c6020830184612b5b565b939250505056fea2646970667358221220371b836509973c80badb1379118a58d5a11ad28a73db39720cc9a4b96bb213e864736f6c63430008110033",
  "immutableReferences": {},
  "source": "// SPDX-License-Identifier: MIT\npragma solidity ^0.8.7;\nimport \"./LiquidityPool.sol\";\nimport \"./ERC20.sol\";\nimport \"./Reserves.sol\";\nimport \"./PriceFeed.sol\";\nimport \"./Avax.sol\";\n\ncontract Lending {\n    Avax avaxToken;\n    LiquidityPool liquidityPool;\n    Reserves reserves;\n    PriceFeed priceFeed;\n    uint256 _maximumLendingPercentage = 8500; //85% of collateral\n    uint256 _lendingFee = 500; //5% of total collateral\n    address _debtOwner = msg.sender;\n\n    mapping(address => uint256) AVAXCollateralLedger;\n    mapping(address => uint256) AVAXLoanLedger;\n    mapping(address => uint256) AVAXCollateralValueLedgerinUSD;\n    mapping(address => uint256) AVAXCUserTotalReturnTransactions;\n\n    mapping(address => uint256) ETHCollateralLedger;\n    mapping(address => uint256) ETHLoanLedger;\n    mapping(address => uint256) ETHCollateralValueLedgerinUSD;\n    mapping(address => uint256) ETHUserTotalReturnTransactions;\n\n    address[] ETHDebtors; // keep track who is still has outstanding loans\n    address[] AVAXDebtors; // keep track who is still has outstanding loans\n    \n     constructor(Avax avaxTokenAddress, LiquidityPool lp, Reserves reservesAddress,  PriceFeed pf) {\n        avaxToken = avaxTokenAddress;\n        liquidityPool = lp;\n        reserves = reservesAddress;\n        priceFeed = pf;\n    }\n\n    //Take collateral and give 85% \n    function borrowAVAX(uint256 depositCollateral) public {\n        require(depositCollateral != 0, \"Please put more collateral\");\n        require (avaxToken.balanceOf(msg.sender) >= depositCollateral, \"You do not have enough AVAX token!\");\n        AVAXDebtors.push(msg.sender);\n        uint256 _loanAmount = calculatePercentage(depositCollateral, _maximumLendingPercentage); //85% of collateral\n\n        AVAXCollateralLedger[msg.sender] = depositCollateral;\n        AVAXLoanLedger[msg.sender] = _loanAmount;\n\n        uint256 depositCollateralInUSD = depositCollateral; //in USD\n        AVAXCollateralValueLedgerinUSD[msg.sender] = depositCollateralInUSD;\n\n        address liqudityPoolAddress = liquidityPool.getLPAddress();\n        avaxToken.transferFrom(msg.sender, address(this), depositCollateral); //Transfer borrower collateral to this contract\n        liquidityPool.sendAvaxToLendingContract(_loanAmount, address(this)); // Transfer AVAX from LP to this contract\n        avaxToken.transferFrom(address(this), msg.sender, _loanAmount); //Take assets from Liquidity Pool and send to borrower\n    }\n\n    function repayAVAXDebt() public onlyAVAXDebtHolder enoughAVAXInWallet {\n        //require only the person who loan it can pay back\n        uint256 amountToReturn = AVAXLoanLedger[msg.sender]; //Get amount to return from USDCLoanLedger\n        require (avaxToken.balanceOf(msg.sender) >= amountToReturn, \"You do not have enough AVAX token!\");\n\n        uint256 collateralAmount = AVAXCollateralLedger[msg.sender]; //Get the collteral that is held by the Smart contract\n        avaxToken.transferFrom(msg.sender, address(this), amountToReturn); //Transfer USDC to pay back from wallet to this smart contract\n        uint256 lendingFeeToDeduct = calculatePercentage(collateralAmount, _lendingFee); //Calculate the USDC taken as comission 5%\n        avaxToken.transferFrom(address(this), msg.sender, (collateralAmount - lendingFeeToDeduct)); //Transfer only 95% back\n        avaxToken.transferFrom(address(this), reserves.getReservesAddress(), lendingFeeToDeduct); //Transfer 5% to the reserves\n        \n        delete AVAXCollateralLedger[msg.sender]; //Reset the ledger as the loan has been paid\n        delete AVAXLoanLedger[msg.sender]; //Reset the ledger as the loan has been paid\n        delete AVAXCollateralValueLedgerinUSD[msg.sender];\n        AVAXCUserTotalReturnTransactions[msg.sender] += 1;\n\n        for (uint256 i = 0; i < AVAXDebtors.length; i++) {\n            if (AVAXDebtors[i] == msg.sender) {\n                delete AVAXDebtors[i];\n            }\n        }\n    }\n\n    function topUpAVAXCollateral(uint256 topUpCollateral) public onlyAVAXDebtHolder {\n        \n        require(topUpCollateral != 0, \"Please put more collateral\");\n        require (avaxToken.balanceOf(msg.sender) >= topUpCollateral, \"You do not have enough AVAX token!\");\n        uint256 topUpCollateralInUSD; \n        topUpCollateralInUSD = topUpCollateral * priceFeed.getAvaxPriceFirst(); //in USD\n\n        AVAXCollateralLedger[msg.sender] += topUpCollateral;\n        AVAXCollateralValueLedgerinUSD[msg.sender] += topUpCollateralInUSD;\n    }\n\n     function liquidateAVAX() public {\n        uint256 currentPriceOfAVAX = priceFeed.getAvaxPriceToLiquidate();\n        for (uint i = 0; i < AVAXDebtors.length; i++) {\n            uint256 newCollateralPrice = (currentPriceOfAVAX * (AVAXCollateralLedger[AVAXDebtors[i]]));\n            if (newCollateralPrice <= AVAXCollateralValueLedgerinUSD[AVAXDebtors[i]]) {\n                //liquidate by sending collateral to the pool\n                 //addressToSend.transfer(ETHCollateralLedger[ETHDebtors[i]]);\n                 address accountAddress = AVAXDebtors[i];\n                 avaxToken.transferFrom(address(this), liquidityPool.getLPAddress(), AVAXCollateralLedger[accountAddress]);\n                 delete AVAXCollateralLedger[AVAXDebtors[i]]; //Reset the ledger as the loan has been Liquidated\n                 delete AVAXLoanLedger[AVAXDebtors[i]]; //Reset the ledger as the loan has been Liquidated\n                 delete AVAXCollateralValueLedgerinUSD[AVAXDebtors[i]];\n                 delete AVAXDebtors[i];\n            }\n        }\n    }\n\n     //Take collateral and give 85% \n    function borrowEth() public payable returns (uint256) {\n        uint256 depositCollateral = msg.value;\n        require(depositCollateral != 0, \"Please put more collateral\");\n        uint256 depositCollateralInEth = depositCollateral / 1000000000000000000;\n        uint256 depositCollateralInUSD; \n        ETHDebtors.push(msg.sender);\n        depositCollateralInUSD = depositCollateralInEth * priceFeed.getEthPriceFirst(); //in USD\n\n        uint256 _loanAmount = calculatePercentage(depositCollateral, _maximumLendingPercentage); //85% of collateral\n        ETHCollateralLedger[msg.sender] = depositCollateral;\n        ETHLoanLedger[msg.sender] = _loanAmount;\n        ETHCollateralValueLedgerinUSD[msg.sender] = depositCollateralInUSD;\n        \n        liquidityPool.sendEthToLender(_loanAmount, payable(msg.sender));\n        return ETHCollateralValueLedgerinUSD[msg.sender];\n    }\n\n    function topUpETHCollateral() public payable onlyEthDebtHolder {\n        uint256 topUpCollateral = msg.value;\n        require(topUpCollateral != 0, \"Please put more collateral\");\n        uint256 topUpCollateralInEth = topUpCollateral / 1000000000000000000;\n        uint256 topUpCollateralInUSD; \n        topUpCollateralInUSD = topUpCollateralInEth * priceFeed.getEthPriceFirst(); //in USD\n\n        ETHCollateralLedger[msg.sender] += topUpCollateral;\n        ETHCollateralValueLedgerinUSD[msg.sender] += topUpCollateralInUSD;\n    }\n\n   \n\n    function repayEth() public payable onlyEthDebtHolder {\n        //require only the person who loan it can pay back\n     \n        uint256 amountToReturn = ETHLoanLedger[msg.sender]; //Get amount to return from USDCLoanLedger\n        require (msg.value >= amountToReturn, \"Value inserted is not enough\");\n        uint256 collateralAmount = ETHCollateralLedger[msg.sender]; //Get the collteral that is held by the Smart contract\n       \n        uint256 lendingFeeToDeduct = calculatePercentage(collateralAmount, _lendingFee); //Calculate the USDC taken as comission 5%\n        address payable addressToSend = payable (msg.sender);\n        addressToSend.transfer(collateralAmount - lendingFeeToDeduct);\n        //Send back to LP\n        require (address(this).balance >= amountToReturn, \"ERROR\");\n        address payable lpAddress = payable (liquidityPool.getLPAddress());\n        lpAddress.transfer(amountToReturn);\n\n        //Send comissionFee to reserves\n        address payable reservesAddress = payable(reserves.getReservesAddress());\n        reservesAddress.transfer(lendingFeeToDeduct);\n\n        delete ETHCollateralLedger[msg.sender]; //Reset the ledger as the loan has been paid\n        delete ETHLoanLedger[msg.sender]; //Reset the ledger as the loan has been paid\n        delete ETHCollateralValueLedgerinUSD[msg.sender];\n        ETHUserTotalReturnTransactions[msg.sender] += 1;\n        \n        for (uint256 i = 0; i < ETHDebtors.length; i++) {\n            if (ETHDebtors[i] == msg.sender) {\n                delete ETHDebtors[i];\n            }\n        }\n    }\n           \n    function liquidateETH() public payable {\n        uint256 currentPriceOfEth = priceFeed.getEthPriceToLiquidate();\n        for (uint i = 0; i < ETHDebtors.length; i++) {\n            uint256 newCollateralPrice = (currentPriceOfEth * (ETHCollateralLedger[ETHDebtors[i]] / 1000000000000000000));\n            if (newCollateralPrice <= ETHCollateralValueLedgerinUSD[ETHDebtors[i]]) {\n                //liquidate by sending collateral to the pool\n                address payable addressToSend = payable (liquidityPool.getLPAddress());\n                addressToSend.transfer(ETHCollateralLedger[ETHDebtors[i]]);\n                 delete ETHCollateralLedger[ETHDebtors[i]]; //Reset the ledger as the loan has been Liquidated\n                 delete ETHLoanLedger[ETHDebtors[i]]; //Reset the ledger as the loan has been Liquidated\n                 delete ETHCollateralValueLedgerinUSD[ETHDebtors[i]];\n                 delete ETHDebtors[i];\n            }\n        }\n    }\n\n    function getUserTotaETHRepaymentAmount() public view returns (uint256) {\n        return ETHUserTotalReturnTransactions[msg.sender];\n    }\n\n    function getUserTotaAVAXRepaymentAmount() public view returns (uint256) {\n        return AVAXCUserTotalReturnTransactions[msg.sender];\n    }\n\n    //For testing purposes\n    function initUserTotalEthRepaymentAmount() public returns (uint256) {\n       ETHUserTotalReturnTransactions[msg.sender] += 100;\n    }\n\n    function initUserTotalAVAXRepaymentAmount() public returns (uint256) {\n       AVAXCUserTotalReturnTransactions[msg.sender] += 100;\n    }\n\n    //This function calculates Percentages\n    //Used to calculate the amount of Loan that can be given and platform lendingFees\n    //e.g \n    //Assume collateral = 100, desired percentage = 85%\n    //function returns 85\n\n    function calculatePercentage(uint256 collateralAmount, uint256 percentage) public pure returns (uint256) {\n        return (collateralAmount * percentage) / 10_000;\n    }\n\n    function getHoldingAVAXCollateral() public view returns (uint256) {\n        return avaxToken.balanceOf(address(this));\n    }\n\n    function getHoldingEthCollateral() public view returns (uint256) {\n        return address(this).balance;\n    }\n\n    //Functions to return the amount of Debt the msg.sender has in USDC\n    function getAVAXDebt() public view onlyAVAXDebtHolder returns (uint256) {\n        return (AVAXLoanLedger[msg.sender]);\n    }\n\n    function getAddress() public view returns (address) {\n        return address(this);\n    }\n\n    modifier onlyAVAXDebtHolder() {\n        require(AVAXLoanLedger[msg.sender] > 0, \"You do not have any outstanding debt\");\n        _;\n    }\n\n    modifier onlyEthDebtHolder() {\n        require(ETHLoanLedger[msg.sender] > 0, \"You do not have outstanding debt\");\n        _;\n    }\n    \n     modifier enoughAVAXInWallet() {\n        require(avaxToken.balanceOf(msg.sender) > 0, \"You do not have enough USDC to repay this debt\");\n        _;\n    }\n}",
  "sourcePath": "/Users/alwin/Developer/Liquiditas/contracts/Lending.sol",
  "compiler": {
    "name": "solc",
    "version": "0.8.17+commit.8df45f5f.Emscripten.clang"
  },
  "schemaVersion": "3.4.11",
  "updatedAt": "2023-03-16T09:07:29.644Z",
  "devdoc": {
    "kind": "dev",
    "methods": {},
    "version": 1
  },
  "userdoc": {
    "kind": "user",
    "methods": {},
    "version": 1
  }
}