{
  "contractName": "Lending",
  "abi": [
    {
      "inputs": [
        {
          "internalType": "contract Avax",
          "name": "avaxTokenAddress",
          "type": "address"
        },
        {
          "internalType": "contract LiquidityPool",
          "name": "lp",
          "type": "address"
        },
        {
          "internalType": "contract Reserves",
          "name": "reservesAddress",
          "type": "address"
        },
        {
          "internalType": "contract PriceFeed",
          "name": "pf",
          "type": "address"
        }
      ],
      "stateMutability": "nonpayable",
      "type": "constructor"
    },
    {
      "inputs": [
        {
          "internalType": "uint256",
          "name": "depositCollateral",
          "type": "uint256"
        }
      ],
      "name": "borrowAVAX",
      "outputs": [],
      "stateMutability": "nonpayable",
      "type": "function"
    },
    {
      "inputs": [],
      "name": "repayAVAXDebt",
      "outputs": [],
      "stateMutability": "nonpayable",
      "type": "function"
    },
    {
      "inputs": [
        {
          "internalType": "uint256",
          "name": "topUpCollateral",
          "type": "uint256"
        }
      ],
      "name": "topUpAVAXCollateral",
      "outputs": [],
      "stateMutability": "nonpayable",
      "type": "function"
    },
    {
      "inputs": [],
      "name": "liquidateAVAX",
      "outputs": [],
      "stateMutability": "nonpayable",
      "type": "function"
    },
    {
      "inputs": [],
      "name": "borrowEth",
      "outputs": [
        {
          "internalType": "uint256",
          "name": "",
          "type": "uint256"
        }
      ],
      "stateMutability": "payable",
      "type": "function"
    },
    {
      "inputs": [],
      "name": "topUpETHCollateral",
      "outputs": [],
      "stateMutability": "payable",
      "type": "function"
    },
    {
      "inputs": [],
      "name": "repayEth",
      "outputs": [],
      "stateMutability": "payable",
      "type": "function"
    },
    {
      "inputs": [],
      "name": "liquidateETH",
      "outputs": [],
      "stateMutability": "payable",
      "type": "function"
    },
    {
      "inputs": [
        {
          "internalType": "uint256",
          "name": "collateralAmount",
          "type": "uint256"
        },
        {
          "internalType": "uint256",
          "name": "percentage",
          "type": "uint256"
        }
      ],
      "name": "calculatePercentage",
      "outputs": [
        {
          "internalType": "uint256",
          "name": "",
          "type": "uint256"
        }
      ],
      "stateMutability": "pure",
      "type": "function"
    },
    {
      "inputs": [],
      "name": "getHoldingAVAXCollateral",
      "outputs": [
        {
          "internalType": "uint256",
          "name": "",
          "type": "uint256"
        }
      ],
      "stateMutability": "view",
      "type": "function"
    },
    {
      "inputs": [],
      "name": "getHoldingEthCollateral",
      "outputs": [
        {
          "internalType": "uint256",
          "name": "",
          "type": "uint256"
        }
      ],
      "stateMutability": "view",
      "type": "function"
    },
    {
      "inputs": [],
      "name": "getAVAXDebt",
      "outputs": [
        {
          "internalType": "uint256",
          "name": "",
          "type": "uint256"
        }
      ],
      "stateMutability": "view",
      "type": "function"
    }
  ],
  "bytecode": "0x60806040526121346004556101f460055533600660006101000a81548173ffffffffffffffffffffffffffffffffffffffff021916908373ffffffffffffffffffffffffffffffffffffffff1602179055503480156200005e57600080fd5b5060405162003303380380620033038339818101604052810190620000849190620002f2565b836000806101000a81548173ffffffffffffffffffffffffffffffffffffffff021916908373ffffffffffffffffffffffffffffffffffffffff16021790555082600160006101000a81548173ffffffffffffffffffffffffffffffffffffffff021916908373ffffffffffffffffffffffffffffffffffffffff16021790555081600260006101000a81548173ffffffffffffffffffffffffffffffffffffffff021916908373ffffffffffffffffffffffffffffffffffffffff16021790555080600360006101000a81548173ffffffffffffffffffffffffffffffffffffffff021916908373ffffffffffffffffffffffffffffffffffffffff1602179055505050505062000364565b600080fd5b600073ffffffffffffffffffffffffffffffffffffffff82169050919050565b6000620001c38262000196565b9050919050565b6000620001d782620001b6565b9050919050565b620001e981620001ca565b8114620001f557600080fd5b50565b6000815190506200020981620001de565b92915050565b60006200021c8262000196565b9050919050565b600062000230826200020f565b9050919050565b620002428162000223565b81146200024e57600080fd5b50565b600081519050620002628162000237565b92915050565b600062000275826200020f565b9050919050565b620002878162000268565b81146200029357600080fd5b50565b600081519050620002a7816200027c565b92915050565b6000620002ba82620001b6565b9050919050565b620002cc81620002ad565b8114620002d857600080fd5b50565b600081519050620002ec81620002c1565b92915050565b600080600080608085870312156200030f576200030e62000191565b5b60006200031f87828801620001f8565b9450506020620003328782880162000251565b9350506040620003458782880162000296565b92505060606200035887828801620002db565b91505092959194509250565b612f8f80620003746000396000f3fe6080604052600436106100a75760003560e01c80634fed0518116100645780634fed05181461016a578063734997e514610188578063b60d261714610192578063b968c930146101bb578063db8bf7e6146101e4578063fcd6e191146101fb576100a7565b80632133e3b9146100ac57806323ded52a146100e95780632b0fa3991461011457806342b9309a1461011e5780634a282670146101355780634b84a6471461013f575b600080fd5b3480156100b857600080fd5b506100d360048036038101906100ce9190612795565b610226565b6040516100e091906127e4565b60405180910390f35b3480156100f557600080fd5b506100fe610249565b60405161010b91906127e4565b60405180910390f35b61011c610311565b005b34801561012a57600080fd5b50610133610544565b005b61013d610c3a565b005b34801561014b57600080fd5b50610154611191565b60405161016191906127e4565b60405180910390f35b610172611233565b60405161017f91906127e4565b60405180910390f35b61019061154b565b005b34801561019e57600080fd5b506101b960048036038101906101b491906127ff565b611a4b565b005b3480156101c757600080fd5b506101e260048036038101906101dd91906127ff565b611d3c565b005b3480156101f057600080fd5b506101f961220b565b005b34801561020757600080fd5b50610210612752565b60405161021d91906127e4565b60405180910390f35b60006127108284610237919061285b565b61024191906128cc565b905092915050565b600080600860003373ffffffffffffffffffffffffffffffffffffffff1673ffffffffffffffffffffffffffffffffffffffff16815260200190815260200160002054116102cc576040517f08c379a00000000000000000000000000000000000000000000000000000000081526004016102c390612980565b60405180910390fd5b600860003373ffffffffffffffffffffffffffffffffffffffff1673ffffffffffffffffffffffffffffffffffffffff16815260200190815260200160002054905090565b6000600b60003373ffffffffffffffffffffffffffffffffffffffff1673ffffffffffffffffffffffffffffffffffffffff1681526020019081526020016000205411610393576040517f08c379a000000000000000000000000000000000000000000000000000000000815260040161038a906129ec565b60405180910390fd5b6000349050600081036103db576040517f08c379a00000000000000000000000000000000000000000000000000000000081526004016103d290612a58565b60405180910390fd5b6000670de0b6b3a7640000826103f191906128cc565b90506000600360009054906101000a900473ffffffffffffffffffffffffffffffffffffffff1673ffffffffffffffffffffffffffffffffffffffff166307a1cf9e6040518163ffffffff1660e01b8152600401602060405180830381865afa158015610462573d6000803e3d6000fd5b505050506040513d601f19601f820116820180604052508101906104869190612a8d565b82610491919061285b565b905082600a60003373ffffffffffffffffffffffffffffffffffffffff1673ffffffffffffffffffffffffffffffffffffffff16815260200190815260200160002060008282546104e29190612aba565b9250508190555080600c60003373ffffffffffffffffffffffffffffffffffffffff1673ffffffffffffffffffffffffffffffffffffffff16815260200190815260200160002060008282546105389190612aba565b92505081905550505050565b6000600860003373ffffffffffffffffffffffffffffffffffffffff1673ffffffffffffffffffffffffffffffffffffffff16815260200190815260200160002054116105c6576040517f08c379a00000000000000000000000000000000000000000000000000000000081526004016105bd90612980565b60405180910390fd5b60008060009054906101000a900473ffffffffffffffffffffffffffffffffffffffff1673ffffffffffffffffffffffffffffffffffffffff166370a08231336040518263ffffffff1660e01b81526004016106229190612b2f565b602060405180830381865afa15801561063f573d6000803e3d6000fd5b505050506040513d601f19601f820116820180604052508101906106639190612a8d565b116106a3576040517f08c379a000000000000000000000000000000000000000000000000000000000815260040161069a90612bbc565b60405180910390fd5b6000600860003373ffffffffffffffffffffffffffffffffffffffff1673ffffffffffffffffffffffffffffffffffffffff1681526020019081526020016000205490508060008054906101000a900473ffffffffffffffffffffffffffffffffffffffff1673ffffffffffffffffffffffffffffffffffffffff166370a08231336040518263ffffffff1660e01b81526004016107419190612b2f565b602060405180830381865afa15801561075e573d6000803e3d6000fd5b505050506040513d601f19601f820116820180604052508101906107829190612a8d565b10156107c3576040517f08c379a00000000000000000000000000000000000000000000000000000000081526004016107ba90612c4e565b60405180910390fd5b6000600760003373ffffffffffffffffffffffffffffffffffffffff1673ffffffffffffffffffffffffffffffffffffffff16815260200190815260200160002054905060008054906101000a900473ffffffffffffffffffffffffffffffffffffffff1673ffffffffffffffffffffffffffffffffffffffff166323b872dd3330856040518463ffffffff1660e01b815260040161086493929190612c6e565b6020604051808303816000875af1158015610883573d6000803e3d6000fd5b505050506040513d601f19601f820116820180604052508101906108a79190612cdd565b5060006108b682600554610226565b905060008054906101000a900473ffffffffffffffffffffffffffffffffffffffff1673ffffffffffffffffffffffffffffffffffffffff166323b872dd303384866109029190612d0a565b6040518463ffffffff1660e01b815260040161092093929190612c6e565b6020604051808303816000875af115801561093f573d6000803e3d6000fd5b505050506040513d601f19601f820116820180604052508101906109639190612cdd565b5060008054906101000a900473ffffffffffffffffffffffffffffffffffffffff1673ffffffffffffffffffffffffffffffffffffffff166323b872dd30600260009054906101000a900473ffffffffffffffffffffffffffffffffffffffff1673ffffffffffffffffffffffffffffffffffffffff16632ad415bd6040518163ffffffff1660e01b8152600401602060405180830381865afa158015610a0e573d6000803e3d6000fd5b505050506040513d601f19601f82011682018060405250810190610a329190612d6a565b846040518463ffffffff1660e01b8152600401610a5193929190612c6e565b6020604051808303816000875af1158015610a70573d6000803e3d6000fd5b505050506040513d601f19601f82011682018060405250810190610a949190612cdd565b50600760003373ffffffffffffffffffffffffffffffffffffffff1673ffffffffffffffffffffffffffffffffffffffff16815260200190815260200160002060009055600860003373ffffffffffffffffffffffffffffffffffffffff1673ffffffffffffffffffffffffffffffffffffffff16815260200190815260200160002060009055600960003373ffffffffffffffffffffffffffffffffffffffff1673ffffffffffffffffffffffffffffffffffffffff1681526020019081526020016000206000905560005b600e80549050811015610c34573373ffffffffffffffffffffffffffffffffffffffff16600e8281548110610b9957610b98612d97565b5b9060005260206000200160009054906101000a900473ffffffffffffffffffffffffffffffffffffffff1673ffffffffffffffffffffffffffffffffffffffff1603610c2157600e8181548110610bf357610bf2612d97565b5b9060005260206000200160006101000a81549073ffffffffffffffffffffffffffffffffffffffff02191690555b8080610c2c90612dc6565b915050610b61565b50505050565b6000600b60003373ffffffffffffffffffffffffffffffffffffffff1673ffffffffffffffffffffffffffffffffffffffff1681526020019081526020016000205411610cbc576040517f08c379a0000000000000000000000000000000000000000000000000000000008152600401610cb3906129ec565b60405180910390fd5b6000600b60003373ffffffffffffffffffffffffffffffffffffffff1673ffffffffffffffffffffffffffffffffffffffff16815260200190815260200160002054905080341015610d43576040517f08c379a0000000000000000000000000000000000000000000000000000000008152600401610d3a90612e5a565b60405180910390fd5b6000600a60003373ffffffffffffffffffffffffffffffffffffffff1673ffffffffffffffffffffffffffffffffffffffff1681526020019081526020016000205490506000610d9582600554610226565b905060003390508073ffffffffffffffffffffffffffffffffffffffff166108fc8385610dc29190612d0a565b9081150290604051600060405180830381858888f19350505050158015610ded573d6000803e3d6000fd5b5083471015610e31576040517f08c379a0000000000000000000000000000000000000000000000000000000008152600401610e2890612ec6565b60405180910390fd5b6000600160009054906101000a900473ffffffffffffffffffffffffffffffffffffffff1673ffffffffffffffffffffffffffffffffffffffff1663996e96f06040518163ffffffff1660e01b8152600401602060405180830381865afa158015610ea0573d6000803e3d6000fd5b505050506040513d601f19601f82011682018060405250810190610ec49190612d6a565b90508073ffffffffffffffffffffffffffffffffffffffff166108fc869081150290604051600060405180830381858888f19350505050158015610f0c573d6000803e3d6000fd5b506000600260009054906101000a900473ffffffffffffffffffffffffffffffffffffffff1673ffffffffffffffffffffffffffffffffffffffff16632ad415bd6040518163ffffffff1660e01b8152600401602060405180830381865afa158015610f7c573d6000803e3d6000fd5b505050506040513d601f19601f82011682018060405250810190610fa09190612d6a565b90508073ffffffffffffffffffffffffffffffffffffffff166108fc859081150290604051600060405180830381858888f19350505050158015610fe8573d6000803e3d6000fd5b50600a60003373ffffffffffffffffffffffffffffffffffffffff1673ffffffffffffffffffffffffffffffffffffffff16815260200190815260200160002060009055600b60003373ffffffffffffffffffffffffffffffffffffffff1673ffffffffffffffffffffffffffffffffffffffff16815260200190815260200160002060009055600c60003373ffffffffffffffffffffffffffffffffffffffff1673ffffffffffffffffffffffffffffffffffffffff1681526020019081526020016000206000905560005b600d80549050811015611188573373ffffffffffffffffffffffffffffffffffffffff16600d82815481106110ed576110ec612d97565b5b9060005260206000200160009054906101000a900473ffffffffffffffffffffffffffffffffffffffff1673ffffffffffffffffffffffffffffffffffffffff160361117557600d818154811061114757611146612d97565b5b9060005260206000200160006101000a81549073ffffffffffffffffffffffffffffffffffffffff02191690555b808061118090612dc6565b9150506110b5565b50505050505050565b60008060009054906101000a900473ffffffffffffffffffffffffffffffffffffffff1673ffffffffffffffffffffffffffffffffffffffff166370a08231306040518263ffffffff1660e01b81526004016111ed9190612b2f565b602060405180830381865afa15801561120a573d6000803e3d6000fd5b505050506040513d601f19601f8201168201806040525081019061122e9190612a8d565b905090565b6000803490506000810361127c576040517f08c379a000000000000000000000000000000000000000000000000000000000815260040161127390612a58565b60405180910390fd5b6000670de0b6b3a76400008261129291906128cc565b90506000600d339080600181540180825580915050600190039060005260206000200160009091909190916101000a81548173ffffffffffffffffffffffffffffffffffffffff021916908373ffffffffffffffffffffffffffffffffffffffff160217905550600360009054906101000a900473ffffffffffffffffffffffffffffffffffffffff1673ffffffffffffffffffffffffffffffffffffffff166307a1cf9e6040518163ffffffff1660e01b8152600401602060405180830381865afa158015611366573d6000803e3d6000fd5b505050506040513d601f19601f8201168201806040525081019061138a9190612a8d565b82611395919061285b565b905060006113a584600454610226565b905083600a60003373ffffffffffffffffffffffffffffffffffffffff1673ffffffffffffffffffffffffffffffffffffffff1681526020019081526020016000208190555080600b60003373ffffffffffffffffffffffffffffffffffffffff1673ffffffffffffffffffffffffffffffffffffffff1681526020019081526020016000208190555081600c60003373ffffffffffffffffffffffffffffffffffffffff1673ffffffffffffffffffffffffffffffffffffffff16815260200190815260200160002081905550600160009054906101000a900473ffffffffffffffffffffffffffffffffffffffff1673ffffffffffffffffffffffffffffffffffffffff166394a54a1282336040518363ffffffff1660e01b81526004016114d0929190612f07565b600060405180830381600087803b1580156114ea57600080fd5b505af11580156114fe573d6000803e3d6000fd5b50505050600c60003373ffffffffffffffffffffffffffffffffffffffff1673ffffffffffffffffffffffffffffffffffffffff1681526020019081526020016000205494505050505090565b6000600360009054906101000a900473ffffffffffffffffffffffffffffffffffffffff1673ffffffffffffffffffffffffffffffffffffffff166319d747236040518163ffffffff1660e01b8152600401602060405180830381865afa1580156115ba573d6000803e3d6000fd5b505050506040513d601f19601f820116820180604052508101906115de9190612a8d565b905060005b600d80549050811015611a47576000670de0b6b3a7640000600a6000600d858154811061161357611612612d97565b5b9060005260206000200160009054906101000a900473ffffffffffffffffffffffffffffffffffffffff1673ffffffffffffffffffffffffffffffffffffffff1673ffffffffffffffffffffffffffffffffffffffff1681526020019081526020016000205461168391906128cc565b8361168e919061285b565b9050600c6000600d84815481106116a8576116a7612d97565b5b9060005260206000200160009054906101000a900473ffffffffffffffffffffffffffffffffffffffff1673ffffffffffffffffffffffffffffffffffffffff1673ffffffffffffffffffffffffffffffffffffffff168152602001908152602001600020548111611a33576000600160009054906101000a900473ffffffffffffffffffffffffffffffffffffffff1673ffffffffffffffffffffffffffffffffffffffff1663996e96f06040518163ffffffff1660e01b8152600401602060405180830381865afa158015611783573d6000803e3d6000fd5b505050506040513d601f19601f820116820180604052508101906117a79190612d6a565b90508073ffffffffffffffffffffffffffffffffffffffff166108fc600a6000600d87815481106117db576117da612d97565b5b9060005260206000200160009054906101000a900473ffffffffffffffffffffffffffffffffffffffff1673ffffffffffffffffffffffffffffffffffffffff1673ffffffffffffffffffffffffffffffffffffffff168152602001908152602001600020549081150290604051600060405180830381858888f1935050505015801561186c573d6000803e3d6000fd5b50600a6000600d858154811061188557611884612d97565b5b9060005260206000200160009054906101000a900473ffffffffffffffffffffffffffffffffffffffff1673ffffffffffffffffffffffffffffffffffffffff1673ffffffffffffffffffffffffffffffffffffffff16815260200190815260200160002060009055600b6000600d858154811061190657611905612d97565b5b9060005260206000200160009054906101000a900473ffffffffffffffffffffffffffffffffffffffff1673ffffffffffffffffffffffffffffffffffffffff1673ffffffffffffffffffffffffffffffffffffffff16815260200190815260200160002060009055600c6000600d858154811061198757611986612d97565b5b9060005260206000200160009054906101000a900473ffffffffffffffffffffffffffffffffffffffff1673ffffffffffffffffffffffffffffffffffffffff1673ffffffffffffffffffffffffffffffffffffffff16815260200190815260200160002060009055600d8381548110611a0457611a03612d97565b5b9060005260206000200160006101000a81549073ffffffffffffffffffffffffffffffffffffffff0219169055505b508080611a3f90612dc6565b9150506115e3565b5050565b6000600860003373ffffffffffffffffffffffffffffffffffffffff1673ffffffffffffffffffffffffffffffffffffffff1681526020019081526020016000205411611acd576040517f08c379a0000000000000000000000000000000000000000000000000000000008152600401611ac490612980565b60405180910390fd5b60008103611b10576040517f08c379a0000000000000000000000000000000000000000000000000000000008152600401611b0790612a58565b60405180910390fd5b8060008054906101000a900473ffffffffffffffffffffffffffffffffffffffff1673ffffffffffffffffffffffffffffffffffffffff166370a08231336040518263ffffffff1660e01b8152600401611b6a9190612b2f565b602060405180830381865afa158015611b87573d6000803e3d6000fd5b505050506040513d601f19601f82011682018060405250810190611bab9190612a8d565b1015611bec576040517f08c379a0000000000000000000000000000000000000000000000000000000008152600401611be390612c4e565b60405180910390fd5b6000600360009054906101000a900473ffffffffffffffffffffffffffffffffffffffff1673ffffffffffffffffffffffffffffffffffffffff1663946e34726040518163ffffffff1660e01b8152600401602060405180830381865afa158015611c5b573d6000803e3d6000fd5b505050506040513d601f19601f82011682018060405250810190611c7f9190612a8d565b82611c8a919061285b565b905081600760003373ffffffffffffffffffffffffffffffffffffffff1673ffffffffffffffffffffffffffffffffffffffff1681526020019081526020016000206000828254611cdb9190612aba565b9250508190555080600960003373ffffffffffffffffffffffffffffffffffffffff1673ffffffffffffffffffffffffffffffffffffffff1681526020019081526020016000206000828254611d319190612aba565b925050819055505050565b60008103611d7f576040517f08c379a0000000000000000000000000000000000000000000000000000000008152600401611d7690612a58565b60405180910390fd5b8060008054906101000a900473ffffffffffffffffffffffffffffffffffffffff1673ffffffffffffffffffffffffffffffffffffffff166370a08231336040518263ffffffff1660e01b8152600401611dd99190612b2f565b602060405180830381865afa158015611df6573d6000803e3d6000fd5b505050506040513d601f19601f82011682018060405250810190611e1a9190612a8d565b1015611e5b576040517f08c379a0000000000000000000000000000000000000000000000000000000008152600401611e5290612c4e565b60405180910390fd5b600e339080600181540180825580915050600190039060005260206000200160009091909190916101000a81548173ffffffffffffffffffffffffffffffffffffffff021916908373ffffffffffffffffffffffffffffffffffffffff1602179055506000611ecc82600454610226565b905081600760003373ffffffffffffffffffffffffffffffffffffffff1673ffffffffffffffffffffffffffffffffffffffff1681526020019081526020016000208190555080600860003373ffffffffffffffffffffffffffffffffffffffff1673ffffffffffffffffffffffffffffffffffffffff16815260200190815260200160002081905550600082905080600960003373ffffffffffffffffffffffffffffffffffffffff1673ffffffffffffffffffffffffffffffffffffffff168152602001908152602001600020819055506000600160009054906101000a900473ffffffffffffffffffffffffffffffffffffffff1673ffffffffffffffffffffffffffffffffffffffff1663996e96f06040518163ffffffff1660e01b8152600401602060405180830381865afa15801561200e573d6000803e3d6000fd5b505050506040513d601f19601f820116820180604052508101906120329190612d6a565b905060008054906101000a900473ffffffffffffffffffffffffffffffffffffffff1673ffffffffffffffffffffffffffffffffffffffff166323b872dd3330876040518463ffffffff1660e01b815260040161209193929190612c6e565b6020604051808303816000875af11580156120b0573d6000803e3d6000fd5b505050506040513d601f19601f820116820180604052508101906120d49190612cdd565b50600160009054906101000a900473ffffffffffffffffffffffffffffffffffffffff1673ffffffffffffffffffffffffffffffffffffffff1663598c5b4284306040518363ffffffff1660e01b8152600401612132929190612f30565b600060405180830381600087803b15801561214c57600080fd5b505af1158015612160573d6000803e3d6000fd5b5050505060008054906101000a900473ffffffffffffffffffffffffffffffffffffffff1673ffffffffffffffffffffffffffffffffffffffff166323b872dd3033866040518463ffffffff1660e01b81526004016121c193929190612c6e565b6020604051808303816000875af11580156121e0573d6000803e3d6000fd5b505050506040513d601f19601f820116820180604052508101906122049190612cdd565b5050505050565b6000600360009054906101000a900473ffffffffffffffffffffffffffffffffffffffff1673ffffffffffffffffffffffffffffffffffffffff1663ffa8ce506040518163ffffffff1660e01b8152600401602060405180830381865afa15801561227a573d6000803e3d6000fd5b505050506040513d601f19601f8201168201806040525081019061229e9190612a8d565b905060005b600e8054905081101561274e57600060076000600e84815481106122ca576122c9612d97565b5b9060005260206000200160009054906101000a900473ffffffffffffffffffffffffffffffffffffffff1673ffffffffffffffffffffffffffffffffffffffff1673ffffffffffffffffffffffffffffffffffffffff168152602001908152602001600020548361233b919061285b565b905060096000600e848154811061235557612354612d97565b5b9060005260206000200160009054906101000a900473ffffffffffffffffffffffffffffffffffffffff1673ffffffffffffffffffffffffffffffffffffffff1673ffffffffffffffffffffffffffffffffffffffff16815260200190815260200160002054811161273a576000600e83815481106123d7576123d6612d97565b5b9060005260206000200160009054906101000a900473ffffffffffffffffffffffffffffffffffffffff16905060008054906101000a900473ffffffffffffffffffffffffffffffffffffffff1673ffffffffffffffffffffffffffffffffffffffff166323b872dd30600160009054906101000a900473ffffffffffffffffffffffffffffffffffffffff1673ffffffffffffffffffffffffffffffffffffffff1663996e96f06040518163ffffffff1660e01b8152600401602060405180830381865afa1580156124ae573d6000803e3d6000fd5b505050506040513d601f19601f820116820180604052508101906124d29190612d6a565b600760008673ffffffffffffffffffffffffffffffffffffffff1673ffffffffffffffffffffffffffffffffffffffff168152602001908152602001600020546040518463ffffffff1660e01b815260040161253093929190612c6e565b6020604051808303816000875af115801561254f573d6000803e3d6000fd5b505050506040513d601f19601f820116820180604052508101906125739190612cdd565b5060076000600e858154811061258c5761258b612d97565b5b9060005260206000200160009054906101000a900473ffffffffffffffffffffffffffffffffffffffff1673ffffffffffffffffffffffffffffffffffffffff1673ffffffffffffffffffffffffffffffffffffffff1681526020019081526020016000206000905560086000600e858154811061260d5761260c612d97565b5b9060005260206000200160009054906101000a900473ffffffffffffffffffffffffffffffffffffffff1673ffffffffffffffffffffffffffffffffffffffff1673ffffffffffffffffffffffffffffffffffffffff1681526020019081526020016000206000905560096000600e858154811061268e5761268d612d97565b5b9060005260206000200160009054906101000a900473ffffffffffffffffffffffffffffffffffffffff1673ffffffffffffffffffffffffffffffffffffffff1673ffffffffffffffffffffffffffffffffffffffff16815260200190815260200160002060009055600e838154811061270b5761270a612d97565b5b9060005260206000200160006101000a81549073ffffffffffffffffffffffffffffffffffffffff0219169055505b50808061274690612dc6565b9150506122a3565b5050565b600047905090565b600080fd5b6000819050919050565b6127728161275f565b811461277d57600080fd5b50565b60008135905061278f81612769565b92915050565b600080604083850312156127ac576127ab61275a565b5b60006127ba85828601612780565b92505060206127cb85828601612780565b9150509250929050565b6127de8161275f565b82525050565b60006020820190506127f960008301846127d5565b92915050565b6000602082840312156128155761281461275a565b5b600061282384828501612780565b91505092915050565b7f4e487b7100000000000000000000000000000000000000000000000000000000600052601160045260246000fd5b60006128668261275f565b91506128718361275f565b925082820261287f8161275f565b915082820484148315176128965761289561282c565b5b5092915050565b7f4e487b7100000000000000000000000000000000000000000000000000000000600052601260045260246000fd5b60006128d78261275f565b91506128e28361275f565b9250826128f2576128f161289d565b5b828204905092915050565b600082825260208201905092915050565b7f596f7520646f206e6f74206861766520616e79206f75747374616e64696e672060008201527f6465627400000000000000000000000000000000000000000000000000000000602082015250565b600061296a6024836128fd565b91506129758261290e565b604082019050919050565b600060208201905081810360008301526129998161295d565b9050919050565b7f596f7520646f206e6f742068617665206f75747374616e64696e672064656274600082015250565b60006129d66020836128fd565b91506129e1826129a0565b602082019050919050565b60006020820190508181036000830152612a05816129c9565b9050919050565b7f506c6561736520707574206d6f726520636f6c6c61746572616c000000000000600082015250565b6000612a42601a836128fd565b9150612a4d82612a0c565b602082019050919050565b60006020820190508181036000830152612a7181612a35565b9050919050565b600081519050612a8781612769565b92915050565b600060208284031215612aa357612aa261275a565b5b6000612ab184828501612a78565b91505092915050565b6000612ac58261275f565b9150612ad08361275f565b9250828201905080821115612ae857612ae761282c565b5b92915050565b600073ffffffffffffffffffffffffffffffffffffffff82169050919050565b6000612b1982612aee565b9050919050565b612b2981612b0e565b82525050565b6000602082019050612b446000830184612b20565b92915050565b7f596f7520646f206e6f74206861766520656e6f756768205553444320746f207260008201527f6570617920746869732064656274000000000000000000000000000000000000602082015250565b6000612ba6602e836128fd565b9150612bb182612b4a565b604082019050919050565b60006020820190508181036000830152612bd581612b99565b9050919050565b7f596f7520646f206e6f74206861766520656e6f756768204156415820746f6b6560008201527f6e21000000000000000000000000000000000000000000000000000000000000602082015250565b6000612c386022836128fd565b9150612c4382612bdc565b604082019050919050565b60006020820190508181036000830152612c6781612c2b565b9050919050565b6000606082019050612c836000830186612b20565b612c906020830185612b20565b612c9d60408301846127d5565b949350505050565b60008115159050919050565b612cba81612ca5565b8114612cc557600080fd5b50565b600081519050612cd781612cb1565b92915050565b600060208284031215612cf357612cf261275a565b5b6000612d0184828501612cc8565b91505092915050565b6000612d158261275f565b9150612d208361275f565b9250828203905081811115612d3857612d3761282c565b5b92915050565b612d4781612b0e565b8114612d5257600080fd5b50565b600081519050612d6481612d3e565b92915050565b600060208284031215612d8057612d7f61275a565b5b6000612d8e84828501612d55565b91505092915050565b7f4e487b7100000000000000000000000000000000000000000000000000000000600052603260045260246000fd5b6000612dd18261275f565b91507fffffffffffffffffffffffffffffffffffffffffffffffffffffffffffffffff8203612e0357612e0261282c565b5b600182019050919050565b7f56616c756520696e736572746564206973206e6f7420656e6f75676800000000600082015250565b6000612e44601c836128fd565b9150612e4f82612e0e565b602082019050919050565b60006020820190508181036000830152612e7381612e37565b9050919050565b7f4552524f52000000000000000000000000000000000000000000000000000000600082015250565b6000612eb06005836128fd565b9150612ebb82612e7a565b602082019050919050565b60006020820190508181036000830152612edf81612ea3565b9050919050565b6000612ef182612aee565b9050919050565b612f0181612ee6565b82525050565b6000604082019050612f1c60008301856127d5565b612f296020830184612ef8565b9392505050565b6000604082019050612f4560008301856127d5565b612f526020830184612b20565b939250505056fea2646970667358221220fc7733fec3f5cf8e2a00f463374b4c867324d1ca04ec93e9a04f7cbf922fe46a64736f6c63430008110033",
  "immutableReferences": {},
  "source": "// SPDX-License-Identifier: MIT\npragma solidity ^0.8.7;\nimport \"./LiquidityPool.sol\";\nimport \"./ERC20.sol\";\nimport \"./Reserves.sol\";\nimport \"./PriceFeed.sol\";\nimport \"./Avax.sol\";\n\ncontract Lending {\n    Avax avaxToken;\n    LiquidityPool liquidityPool;\n    Reserves reserves;\n    PriceFeed priceFeed;\n    uint256 _maximumLendingPercentage = 8500; //85% of collateral\n    uint256 _lendingFee = 500; //5% of total collateral\n    address _debtOwner = msg.sender;\n\n    mapping(address => uint256) AVAXCollateralLedger;\n    mapping(address => uint256) AVAXLoanLedger;\n    mapping(address => uint256) AVAXCollateralValueLedgerinUSD;\n\n    mapping(address => uint256) ETHCollateralLedger;\n    mapping(address => uint256) ETHLoanLedger;\n    mapping(address => uint256) ETHCollateralValueLedgerinUSD;\n\n    address[] ETHDebtors; // keep track who is still has outstanding loans\n    address[] AVAXDebtors; // keep track who is still has outstanding loans\n    \n     constructor(Avax avaxTokenAddress, LiquidityPool lp, Reserves reservesAddress,  PriceFeed pf) {\n        avaxToken = avaxTokenAddress;\n        liquidityPool = lp;\n        reserves = reservesAddress;\n        priceFeed = pf;\n    }\n\n    //Take collateral and give 85% \n    function borrowAVAX(uint256 depositCollateral) public {\n        require(depositCollateral != 0, \"Please put more collateral\");\n        require (avaxToken.balanceOf(msg.sender) >= depositCollateral, \"You do not have enough AVAX token!\");\n        AVAXDebtors.push(msg.sender);\n        uint256 _loanAmount = calculatePercentage(depositCollateral, _maximumLendingPercentage); //85% of collateral\n\n        AVAXCollateralLedger[msg.sender] = depositCollateral;\n        AVAXLoanLedger[msg.sender] = _loanAmount;\n\n        uint256 depositCollateralInUSD = depositCollateral; //in USD\n        AVAXCollateralValueLedgerinUSD[msg.sender] = depositCollateralInUSD;\n\n        address liqudityPoolAddress = liquidityPool.getLPAddress();\n        avaxToken.transferFrom(msg.sender, address(this), depositCollateral); //Transfer borrower collateral to this contract\n        liquidityPool.sendAvaxToLendingContract(_loanAmount, address(this)); // Transfer AVAX from LP to this contract\n        avaxToken.transferFrom(address(this), msg.sender, _loanAmount); //Take assets from Liquidity Pool and send to borrower\n    }\n\n    function repayAVAXDebt() public onlyAVAXDebtHolder enoughAVAXInWallet {\n        //require only the person who loan it can pay back\n        uint256 amountToReturn = AVAXLoanLedger[msg.sender]; //Get amount to return from USDCLoanLedger\n        require (avaxToken.balanceOf(msg.sender) >= amountToReturn, \"You do not have enough AVAX token!\");\n\n        uint256 collateralAmount = AVAXCollateralLedger[msg.sender]; //Get the collteral that is held by the Smart contract\n        avaxToken.transferFrom(msg.sender, address(this), amountToReturn); //Transfer USDC to pay back from wallet to this smart contract\n        uint256 lendingFeeToDeduct = calculatePercentage(collateralAmount, _lendingFee); //Calculate the USDC taken as comission 5%\n        avaxToken.transferFrom(address(this), msg.sender, (collateralAmount - lendingFeeToDeduct)); //Transfer only 95% back\n        avaxToken.transferFrom(address(this), reserves.getReservesAddress(), lendingFeeToDeduct); //Transfer 5% to the reserves\n        \n        delete AVAXCollateralLedger[msg.sender]; //Reset the ledger as the loan has been paid\n        delete AVAXLoanLedger[msg.sender]; //Reset the ledger as the loan has been paid\n        delete AVAXCollateralValueLedgerinUSD[msg.sender];\n        for (uint256 i = 0; i < AVAXDebtors.length; i++) {\n            if (AVAXDebtors[i] == msg.sender) {\n                delete AVAXDebtors[i];\n            }\n        }\n    }\n\n    function topUpAVAXCollateral(uint256 topUpCollateral) public onlyAVAXDebtHolder {\n        \n        require(topUpCollateral != 0, \"Please put more collateral\");\n        require (avaxToken.balanceOf(msg.sender) >= topUpCollateral, \"You do not have enough AVAX token!\");\n        uint256 topUpCollateralInUSD; \n        topUpCollateralInUSD = topUpCollateral * priceFeed.getAvaxPriceFirst(); //in USD\n\n        AVAXCollateralLedger[msg.sender] += topUpCollateral;\n        AVAXCollateralValueLedgerinUSD[msg.sender] += topUpCollateralInUSD;\n    }\n\n     function liquidateAVAX() public {\n        uint256 currentPriceOfAVAX = priceFeed.getAvaxPriceToLiquidate();\n        for (uint i = 0; i < AVAXDebtors.length; i++) {\n            uint256 newCollateralPrice = (currentPriceOfAVAX * (AVAXCollateralLedger[AVAXDebtors[i]]));\n            if (newCollateralPrice <= AVAXCollateralValueLedgerinUSD[AVAXDebtors[i]]) {\n                //liquidate by sending collateral to the pool\n                 //addressToSend.transfer(ETHCollateralLedger[ETHDebtors[i]]);\n                 address accountAddress = AVAXDebtors[i];\n                 avaxToken.transferFrom(address(this), liquidityPool.getLPAddress(), AVAXCollateralLedger[accountAddress]);\n                 delete AVAXCollateralLedger[AVAXDebtors[i]]; //Reset the ledger as the loan has been Liquidated\n                 delete AVAXLoanLedger[AVAXDebtors[i]]; //Reset the ledger as the loan has been Liquidated\n                 delete AVAXCollateralValueLedgerinUSD[AVAXDebtors[i]];\n                 delete AVAXDebtors[i];\n            }\n        }\n    }\n\n     //Take collateral and give 85% \n    function borrowEth() public payable returns (uint256) {\n        uint256 depositCollateral = msg.value;\n        require(depositCollateral != 0, \"Please put more collateral\");\n        uint256 depositCollateralInEth = depositCollateral / 1000000000000000000;\n        uint256 depositCollateralInUSD; \n        ETHDebtors.push(msg.sender);\n        depositCollateralInUSD = depositCollateralInEth * priceFeed.getEthPriceFirst(); //in USD\n\n        uint256 _loanAmount = calculatePercentage(depositCollateral, _maximumLendingPercentage); //85% of collateral\n        ETHCollateralLedger[msg.sender] = depositCollateral;\n        ETHLoanLedger[msg.sender] = _loanAmount;\n        ETHCollateralValueLedgerinUSD[msg.sender] = depositCollateralInUSD;\n        \n        liquidityPool.sendEthToLender(_loanAmount, payable(msg.sender));\n        return ETHCollateralValueLedgerinUSD[msg.sender];\n    }\n\n    function topUpETHCollateral() public payable onlyEthDebtHolder {\n        uint256 topUpCollateral = msg.value;\n        require(topUpCollateral != 0, \"Please put more collateral\");\n        uint256 topUpCollateralInEth = topUpCollateral / 1000000000000000000;\n        uint256 topUpCollateralInUSD; \n        topUpCollateralInUSD = topUpCollateralInEth * priceFeed.getEthPriceFirst(); //in USD\n\n        ETHCollateralLedger[msg.sender] += topUpCollateral;\n        ETHCollateralValueLedgerinUSD[msg.sender] += topUpCollateralInUSD;\n    }\n\n   \n\n    function repayEth() public payable onlyEthDebtHolder {\n        //require only the person who loan it can pay back\n     \n        uint256 amountToReturn = ETHLoanLedger[msg.sender]; //Get amount to return from USDCLoanLedger\n        require (msg.value >= amountToReturn, \"Value inserted is not enough\");\n        uint256 collateralAmount = ETHCollateralLedger[msg.sender]; //Get the collteral that is held by the Smart contract\n       \n        uint256 lendingFeeToDeduct = calculatePercentage(collateralAmount, _lendingFee); //Calculate the USDC taken as comission 5%\n        address payable addressToSend = payable (msg.sender);\n        addressToSend.transfer(collateralAmount - lendingFeeToDeduct);\n        //Send back to LP\n        require (address(this).balance >= amountToReturn, \"ERROR\");\n        address payable lpAddress = payable (liquidityPool.getLPAddress());\n        lpAddress.transfer(amountToReturn);\n\n        //Send comissionFee to reserves\n        address payable reservesAddress = payable(reserves.getReservesAddress());\n        reservesAddress.transfer(lendingFeeToDeduct);\n\n        delete ETHCollateralLedger[msg.sender]; //Reset the ledger as the loan has been paid\n        delete ETHLoanLedger[msg.sender]; //Reset the ledger as the loan has been paid\n        delete ETHCollateralValueLedgerinUSD[msg.sender];\n        \n        for (uint256 i = 0; i < ETHDebtors.length; i++) {\n            if (ETHDebtors[i] == msg.sender) {\n                delete ETHDebtors[i];\n            }\n        }\n    }\n           \n    function liquidateETH() public payable {\n        uint256 currentPriceOfEth = priceFeed.getEthPriceToLiquidate();\n        for (uint i = 0; i < ETHDebtors.length; i++) {\n            uint256 newCollateralPrice = (currentPriceOfEth * (ETHCollateralLedger[ETHDebtors[i]] / 1000000000000000000));\n            if (newCollateralPrice <= ETHCollateralValueLedgerinUSD[ETHDebtors[i]]) {\n                //liquidate by sending collateral to the pool\n                address payable addressToSend = payable (liquidityPool.getLPAddress());\n                addressToSend.transfer(ETHCollateralLedger[ETHDebtors[i]]);\n                 delete ETHCollateralLedger[ETHDebtors[i]]; //Reset the ledger as the loan has been Liquidated\n                 delete ETHLoanLedger[ETHDebtors[i]]; //Reset the ledger as the loan has been Liquidated\n                 delete ETHCollateralValueLedgerinUSD[ETHDebtors[i]];\n                 delete ETHDebtors[i];\n            }\n        }\n    }\n\n    //This function calculates Percentages\n    //Used to calculate the amount of Loan that can be given and platform lendingFees\n    //e.g \n    //Assume collateral = 100, desired percentage = 85%\n    //function returns 85\n\n    function calculatePercentage(uint256 collateralAmount, uint256 percentage) public pure returns (uint256) {\n        return (collateralAmount * percentage) / 10_000;\n    }\n\n    function getHoldingAVAXCollateral() public view returns (uint256) {\n        return avaxToken.balanceOf(address(this));\n    }\n\n    function getHoldingEthCollateral() public view returns (uint256) {\n        return address(this).balance;\n    }\n\n    //Functions to return the amount of Debt the msg.sender has in USDC\n    function getAVAXDebt() public view onlyAVAXDebtHolder returns (uint256) {\n        return (AVAXLoanLedger[msg.sender]);\n    }\n\n    modifier onlyAVAXDebtHolder() {\n        require(AVAXLoanLedger[msg.sender] > 0, \"You do not have any outstanding debt\");\n        _;\n    }\n\n    modifier onlyEthDebtHolder() {\n        require(ETHLoanLedger[msg.sender] > 0, \"You do not have outstanding debt\");\n        _;\n    }\n    \n     modifier enoughAVAXInWallet() {\n        require(avaxToken.balanceOf(msg.sender) > 0, \"You do not have enough USDC to repay this debt\");\n        _;\n    }\n}",
  "sourcePath": "/Users/yijie/Desktop/Y2S2/IS4302/Project/IS4302_Group_6_Project/contracts/Lending.sol",
  "compiler": {
    "name": "solc",
    "version": "0.8.17+commit.8df45f5f.Emscripten.clang"
  },
  "schemaVersion": "3.4.11",
  "updatedAt": "2023-03-09T10:36:28.857Z",
  "devdoc": {
    "kind": "dev",
    "methods": {},
    "version": 1
  },
  "userdoc": {
    "kind": "user",
    "methods": {},
    "version": 1
  }
}