{
  "contractName": "Lending",
  "abi": [
    {
      "inputs": [
        {
          "internalType": "contract Avax",
          "name": "avaxTokenAddress",
          "type": "address"
        },
        {
          "internalType": "contract LiquidityPool",
          "name": "lp",
          "type": "address"
        },
        {
          "internalType": "contract Reserves",
          "name": "reservesAddress",
          "type": "address"
        },
        {
          "internalType": "contract PriceFeed",
          "name": "pf",
          "type": "address"
        },
        {
          "internalType": "contract IdentityToken",
          "name": "identityTokenAddress",
          "type": "address"
        }
      ],
      "stateMutability": "nonpayable",
      "type": "constructor"
    },
    {
      "inputs": [
        {
          "internalType": "uint256",
          "name": "depositCollateral",
          "type": "uint256"
        }
      ],
      "name": "borrowAVAX",
      "outputs": [],
      "stateMutability": "nonpayable",
      "type": "function"
    },
    {
      "inputs": [],
      "name": "repayAVAXDebt",
      "outputs": [],
      "stateMutability": "nonpayable",
      "type": "function"
    },
    {
      "inputs": [
        {
          "internalType": "uint256",
          "name": "topUpCollateral",
          "type": "uint256"
        }
      ],
      "name": "topUpAVAXCollateral",
      "outputs": [],
      "stateMutability": "nonpayable",
      "type": "function"
    },
    {
      "inputs": [],
      "name": "liquidateAVAX",
      "outputs": [],
      "stateMutability": "nonpayable",
      "type": "function"
    },
    {
      "inputs": [],
      "name": "borrowEth",
      "outputs": [
        {
          "internalType": "uint256",
          "name": "",
          "type": "uint256"
        }
      ],
      "stateMutability": "payable",
      "type": "function"
    },
    {
      "inputs": [],
      "name": "topUpETHCollateral",
      "outputs": [],
      "stateMutability": "payable",
      "type": "function"
    },
    {
      "inputs": [],
      "name": "repayEth",
      "outputs": [],
      "stateMutability": "payable",
      "type": "function"
    },
    {
      "inputs": [],
      "name": "liquidateETH",
      "outputs": [],
      "stateMutability": "payable",
      "type": "function"
    },
    {
      "inputs": [],
      "name": "getUserAVAXCollateralAmountInUSD",
      "outputs": [
        {
          "internalType": "uint256",
          "name": "",
          "type": "uint256"
        }
      ],
      "stateMutability": "view",
      "type": "function"
    },
    {
      "inputs": [],
      "name": "getUserTotaETHRepaymentAmount",
      "outputs": [
        {
          "internalType": "uint256",
          "name": "",
          "type": "uint256"
        }
      ],
      "stateMutability": "view",
      "type": "function"
    },
    {
      "inputs": [],
      "name": "getUserTotaAVAXRepaymentAmount",
      "outputs": [
        {
          "internalType": "uint256",
          "name": "",
          "type": "uint256"
        }
      ],
      "stateMutability": "view",
      "type": "function"
    },
    {
      "inputs": [],
      "name": "initUserTotalEthRepaymentAmount",
      "outputs": [
        {
          "internalType": "uint256",
          "name": "",
          "type": "uint256"
        }
      ],
      "stateMutability": "nonpayable",
      "type": "function"
    },
    {
      "inputs": [],
      "name": "initUserTotalAVAXRepaymentAmount",
      "outputs": [
        {
          "internalType": "uint256",
          "name": "",
          "type": "uint256"
        }
      ],
      "stateMutability": "nonpayable",
      "type": "function"
    },
    {
      "inputs": [
        {
          "internalType": "uint256",
          "name": "collateralAmount",
          "type": "uint256"
        },
        {
          "internalType": "uint256",
          "name": "percentage",
          "type": "uint256"
        }
      ],
      "name": "calculatePercentage",
      "outputs": [
        {
          "internalType": "uint256",
          "name": "",
          "type": "uint256"
        }
      ],
      "stateMutability": "pure",
      "type": "function"
    },
    {
      "inputs": [],
      "name": "getHoldingAVAXCollateral",
      "outputs": [
        {
          "internalType": "uint256",
          "name": "",
          "type": "uint256"
        }
      ],
      "stateMutability": "view",
      "type": "function"
    },
    {
      "inputs": [],
      "name": "getHoldingEthCollateral",
      "outputs": [
        {
          "internalType": "uint256",
          "name": "",
          "type": "uint256"
        }
      ],
      "stateMutability": "view",
      "type": "function"
    },
    {
      "inputs": [],
      "name": "getAVAXDebt",
      "outputs": [
        {
          "internalType": "uint256",
          "name": "",
          "type": "uint256"
        }
      ],
      "stateMutability": "view",
      "type": "function"
    },
    {
      "inputs": [],
      "name": "getAddress",
      "outputs": [
        {
          "internalType": "address",
          "name": "",
          "type": "address"
        }
      ],
      "stateMutability": "view",
      "type": "function"
    },
    {
      "inputs": [
        {
          "internalType": "address",
          "name": "user",
          "type": "address"
        }
      ],
      "name": "getTotalTransactionCount",
      "outputs": [
        {
          "internalType": "uint256",
          "name": "",
          "type": "uint256"
        }
      ],
      "stateMutability": "view",
      "type": "function"
    }
  ],
  "bytecode": "0x6080604052611f406005556123286006556101f460075561012c60085533600960006101000a81548173ffffffffffffffffffffffffffffffffffffffff021916908373ffffffffffffffffffffffffffffffffffffffff1602179055503480156200006a57600080fd5b5060405162003c0638038062003c06833981810160405281019062000090919062000385565b846000806101000a81548173ffffffffffffffffffffffffffffffffffffffff021916908373ffffffffffffffffffffffffffffffffffffffff16021790555083600160006101000a81548173ffffffffffffffffffffffffffffffffffffffff021916908373ffffffffffffffffffffffffffffffffffffffff16021790555082600260006101000a81548173ffffffffffffffffffffffffffffffffffffffff021916908373ffffffffffffffffffffffffffffffffffffffff16021790555081600360006101000a81548173ffffffffffffffffffffffffffffffffffffffff021916908373ffffffffffffffffffffffffffffffffffffffff16021790555080600460006101000a81548173ffffffffffffffffffffffffffffffffffffffff021916908373ffffffffffffffffffffffffffffffffffffffff16021790555050505050506200040d565b600080fd5b600073ffffffffffffffffffffffffffffffffffffffff82169050919050565b60006200021182620001e4565b9050919050565b6000620002258262000204565b9050919050565b620002378162000218565b81146200024357600080fd5b50565b60008151905062000257816200022c565b92915050565b60006200026a82620001e4565b9050919050565b60006200027e826200025d565b9050919050565b620002908162000271565b81146200029c57600080fd5b50565b600081519050620002b08162000285565b92915050565b6000620002c3826200025d565b9050919050565b620002d581620002b6565b8114620002e157600080fd5b50565b600081519050620002f581620002ca565b92915050565b6000620003088262000204565b9050919050565b6200031a81620002fb565b81146200032657600080fd5b50565b6000815190506200033a816200030f565b92915050565b60006200034d8262000204565b9050919050565b6200035f8162000340565b81146200036b57600080fd5b50565b6000815190506200037f8162000354565b92915050565b600080600080600060a08688031215620003a457620003a3620001df565b5b6000620003b48882890162000246565b9550506020620003c7888289016200029f565b9450506040620003da88828901620002e4565b9350506060620003ed8882890162000329565b925050608062000400888289016200036e565b9150509295509295909350565b6137e9806200041d6000396000f3fe6080604052600436106101145760003560e01c80636862f589116100a0578063b731bc6d11610064578063b731bc6d14610311578063b968c9301461033c578063db8bf7e614610365578063dcbbdbb81461037c578063fcd6e191146103a757610114565b80636862f5891461025d5780636e67fcdd14610288578063734997e5146102b3578063757c3cbd146102bd578063b60d2617146102e857610114565b80634075af22116100e75780634075af22146101b657806342b9309a146101f35780634a2826701461020a5780634b84a647146102145780634fed05181461023f57610114565b80632133e3b91461011957806323ded52a146101565780632b0fa3991461018157806338cc48311461018b575b600080fd5b34801561012557600080fd5b50610140600480360381019061013b919061303f565b6103d2565b60405161014d919061308e565b60405180910390f35b34801561016257600080fd5b5061016b6103f5565b604051610178919061308e565b60405180910390f35b6101896104bd565b005b34801561019757600080fd5b506101a06106f0565b6040516101ad91906130ea565b60405180910390f35b3480156101c257600080fd5b506101dd60048036038101906101d89190613131565b6106f8565b6040516101ea919061308e565b60405180910390f35b3480156101ff57600080fd5b5061020861078b565b005b610212610de5565b005b34801561022057600080fd5b5061022961129a565b604051610236919061308e565b60405180910390f35b61024761133c565b604051610254919061308e565b60405180910390f35b34801561026957600080fd5b506102726118cc565b60405161027f919061308e565b60405180910390f35b34801561029457600080fd5b5061029d611913565b6040516102aa919061308e565b60405180910390f35b6102bb61195a565b005b3480156102c957600080fd5b506102d2611e5a565b6040516102df919061308e565b60405180910390f35b3480156102f457600080fd5b5061030f600480360381019061030a919061315e565b611ea1565b005b34801561031d57600080fd5b50610326612233565b604051610333919061308e565b60405180910390f35b34801561034857600080fd5b50610363600480360381019061035e919061315e565b61228f565b005b34801561037157600080fd5b5061037a612a59565b005b34801561038857600080fd5b50610391612fa0565b60405161039e919061308e565b60405180910390f35b3480156103b357600080fd5b506103bc612ffc565b6040516103c9919061308e565b60405180910390f35b600061271082846103e391906131ba565b6103ed919061322b565b905092915050565b600080600b60003373ffffffffffffffffffffffffffffffffffffffff1673ffffffffffffffffffffffffffffffffffffffff1681526020019081526020016000205411610478576040517f08c379a000000000000000000000000000000000000000000000000000000000815260040161046f906132df565b60405180910390fd5b600b60003373ffffffffffffffffffffffffffffffffffffffff1673ffffffffffffffffffffffffffffffffffffffff16815260200190815260200160002054905090565b6000600f60003373ffffffffffffffffffffffffffffffffffffffff1673ffffffffffffffffffffffffffffffffffffffff168152602001908152602001600020541161053f576040517f08c379a00000000000000000000000000000000000000000000000000000000081526004016105369061334b565b60405180910390fd5b600034905060008103610587576040517f08c379a000000000000000000000000000000000000000000000000000000000815260040161057e906133b7565b60405180910390fd5b6000670de0b6b3a76400008261059d919061322b565b90506000600360009054906101000a900473ffffffffffffffffffffffffffffffffffffffff1673ffffffffffffffffffffffffffffffffffffffff166307a1cf9e6040518163ffffffff1660e01b8152600401602060405180830381865afa15801561060e573d6000803e3d6000fd5b505050506040513d601f19601f8201168201806040525081019061063291906133ec565b8261063d91906131ba565b905082600e60003373ffffffffffffffffffffffffffffffffffffffff1673ffffffffffffffffffffffffffffffffffffffff168152602001908152602001600020600082825461068e9190613419565b9250508190555080601060003373ffffffffffffffffffffffffffffffffffffffff1673ffffffffffffffffffffffffffffffffffffffff16815260200190815260200160002060008282546106e49190613419565b92505081905550505050565b600030905090565b6000601160008373ffffffffffffffffffffffffffffffffffffffff1673ffffffffffffffffffffffffffffffffffffffff16815260200190815260200160002054600d60008473ffffffffffffffffffffffffffffffffffffffff1673ffffffffffffffffffffffffffffffffffffffff168152602001908152602001600020546107849190613419565b9050919050565b6000600b60003373ffffffffffffffffffffffffffffffffffffffff1673ffffffffffffffffffffffffffffffffffffffff168152602001908152602001600020541161080d576040517f08c379a0000000000000000000000000000000000000000000000000000000008152600401610804906132df565b60405180910390fd5b6000600b60003373ffffffffffffffffffffffffffffffffffffffff1673ffffffffffffffffffffffffffffffffffffffff1681526020019081526020016000205490508060008054906101000a900473ffffffffffffffffffffffffffffffffffffffff1673ffffffffffffffffffffffffffffffffffffffff166370a08231336040518263ffffffff1660e01b81526004016108ab91906130ea565b602060405180830381865afa1580156108c8573d6000803e3d6000fd5b505050506040513d601f19601f820116820180604052508101906108ec91906133ec565b101561092d576040517f08c379a0000000000000000000000000000000000000000000000000000000008152600401610924906134bf565b60405180910390fd5b6000600a60003373ffffffffffffffffffffffffffffffffffffffff1673ffffffffffffffffffffffffffffffffffffffff16815260200190815260200160002054905060008054906101000a900473ffffffffffffffffffffffffffffffffffffffff1673ffffffffffffffffffffffffffffffffffffffff166323b872dd3330856040518463ffffffff1660e01b81526004016109ce939291906134df565b6020604051808303816000875af11580156109ed573d6000803e3d6000fd5b505050506040513d601f19601f82011682018060405250810190610a11919061354e565b5060008054906101000a900473ffffffffffffffffffffffffffffffffffffffff1673ffffffffffffffffffffffffffffffffffffffff166323b872dd3033846040518463ffffffff1660e01b8152600401610a6f939291906134df565b6020604051808303816000875af1158015610a8e573d6000803e3d6000fd5b505050506040513d601f19601f82011682018060405250810190610ab2919061354e565b506000600160009054906101000a900473ffffffffffffffffffffffffffffffffffffffff1673ffffffffffffffffffffffffffffffffffffffff1663996e96f06040518163ffffffff1660e01b8152600401602060405180830381865afa158015610b22573d6000803e3d6000fd5b505050506040513d601f19601f82011682018060405250810190610b469190613590565b905060008054906101000a900473ffffffffffffffffffffffffffffffffffffffff1673ffffffffffffffffffffffffffffffffffffffff166323b872dd3083866040518463ffffffff1660e01b8152600401610ba5939291906134df565b6020604051808303816000875af1158015610bc4573d6000803e3d6000fd5b505050506040513d601f19601f82011682018060405250810190610be8919061354e565b50600a60003373ffffffffffffffffffffffffffffffffffffffff1673ffffffffffffffffffffffffffffffffffffffff16815260200190815260200160002060009055600b60003373ffffffffffffffffffffffffffffffffffffffff1673ffffffffffffffffffffffffffffffffffffffff16815260200190815260200160002060009055600c60003373ffffffffffffffffffffffffffffffffffffffff1673ffffffffffffffffffffffffffffffffffffffff168152602001908152602001600020600090556001600d60003373ffffffffffffffffffffffffffffffffffffffff1673ffffffffffffffffffffffffffffffffffffffff1681526020019081526020016000206000828254610d029190613419565b9250508190555060005b601380549050811015610ddf573373ffffffffffffffffffffffffffffffffffffffff1660138281548110610d4457610d436135bd565b5b9060005260206000200160009054906101000a900473ffffffffffffffffffffffffffffffffffffffff1673ffffffffffffffffffffffffffffffffffffffff1603610dcc5760138181548110610d9e57610d9d6135bd565b5b9060005260206000200160006101000a81549073ffffffffffffffffffffffffffffffffffffffff02191690555b8080610dd7906135ec565b915050610d0c565b50505050565b6000600f60003373ffffffffffffffffffffffffffffffffffffffff1673ffffffffffffffffffffffffffffffffffffffff1681526020019081526020016000205411610e67576040517f08c379a0000000000000000000000000000000000000000000000000000000008152600401610e5e9061334b565b60405180910390fd5b60003390506000600f60003373ffffffffffffffffffffffffffffffffffffffff1673ffffffffffffffffffffffffffffffffffffffff16815260200190815260200160002054905080341015610ef3576040517f08c379a0000000000000000000000000000000000000000000000000000000008152600401610eea90613680565b60405180910390fd5b6000600e60003373ffffffffffffffffffffffffffffffffffffffff1673ffffffffffffffffffffffffffffffffffffffff16815260200190815260200160002054905081471015610f7a576040517f08c379a0000000000000000000000000000000000000000000000000000000008152600401610f71906136ec565b60405180910390fd5b6000600160009054906101000a900473ffffffffffffffffffffffffffffffffffffffff1673ffffffffffffffffffffffffffffffffffffffff1663996e96f06040518163ffffffff1660e01b8152600401602060405180830381865afa158015610fe9573d6000803e3d6000fd5b505050506040513d601f19601f8201168201806040525081019061100d9190613590565b90508373ffffffffffffffffffffffffffffffffffffffff166108fc839081150290604051600060405180830381858888f19350505050158015611055573d6000803e3d6000fd5b508073ffffffffffffffffffffffffffffffffffffffff166108fc849081150290604051600060405180830381858888f1935050505015801561109c573d6000803e3d6000fd5b50600e60003373ffffffffffffffffffffffffffffffffffffffff1673ffffffffffffffffffffffffffffffffffffffff16815260200190815260200160002060009055600f60003373ffffffffffffffffffffffffffffffffffffffff1673ffffffffffffffffffffffffffffffffffffffff16815260200190815260200160002060009055601060003373ffffffffffffffffffffffffffffffffffffffff1673ffffffffffffffffffffffffffffffffffffffff168152602001908152602001600020600090556001601160003373ffffffffffffffffffffffffffffffffffffffff1673ffffffffffffffffffffffffffffffffffffffff16815260200190815260200160002060008282546111b69190613419565b9250508190555060005b601280549050811015611293573373ffffffffffffffffffffffffffffffffffffffff16601282815481106111f8576111f76135bd565b5b9060005260206000200160009054906101000a900473ffffffffffffffffffffffffffffffffffffffff1673ffffffffffffffffffffffffffffffffffffffff16036112805760128181548110611252576112516135bd565b5b9060005260206000200160006101000a81549073ffffffffffffffffffffffffffffffffffffffff02191690555b808061128b906135ec565b9150506111c0565b5050505050565b60008060009054906101000a900473ffffffffffffffffffffffffffffffffffffffff1673ffffffffffffffffffffffffffffffffffffffff166370a08231306040518263ffffffff1660e01b81526004016112f691906130ea565b602060405180830381865afa158015611313573d6000803e3d6000fd5b505050506040513d601f19601f8201168201806040525081019061133791906133ec565b905090565b60008034905060008103611385576040517f08c379a000000000000000000000000000000000000000000000000000000000815260040161137c906133b7565b60405180910390fd5b6000670de0b6b3a76400008261139b919061322b565b90506012339080600181540180825580915050600190039060005260206000200160009091909190916101000a81548173ffffffffffffffffffffffffffffffffffffffff021916908373ffffffffffffffffffffffffffffffffffffffff16021790555060006001600460009054906101000a900473ffffffffffffffffffffffffffffffffffffffff1673ffffffffffffffffffffffffffffffffffffffff166370a08231336040518263ffffffff1660e01b815260040161145f91906130ea565b602060405180830381865afa15801561147c573d6000803e3d6000fd5b505050506040513d601f19601f820116820180604052508101906114a091906133ec565b106114b8576114b1836008546103d2565b90506114c7565b6114c4836007546103d2565b90505b6000600260009054906101000a900473ffffffffffffffffffffffffffffffffffffffff1673ffffffffffffffffffffffffffffffffffffffff16632ad415bd6040518163ffffffff1660e01b8152600401602060405180830381865afa158015611536573d6000803e3d6000fd5b505050506040513d601f19601f8201168201806040525081019061155a9190613590565b90508073ffffffffffffffffffffffffffffffffffffffff166108fc839081150290604051600060405180830381858888f193505050501580156115a2573d6000803e3d6000fd5b50600082856115b1919061370c565b94506001600460009054906101000a900473ffffffffffffffffffffffffffffffffffffffff1673ffffffffffffffffffffffffffffffffffffffff166370a08231336040518263ffffffff1660e01b815260040161161091906130ea565b602060405180830381865afa15801561162d573d6000803e3d6000fd5b505050506040513d601f19601f8201168201806040525081019061165191906133ec565b1061166957611662856006546103d2565b9050611678565b611675856005546103d2565b90505b6000600360009054906101000a900473ffffffffffffffffffffffffffffffffffffffff1673ffffffffffffffffffffffffffffffffffffffff166307a1cf9e6040518163ffffffff1660e01b8152600401602060405180830381865afa1580156116e7573d6000803e3d6000fd5b505050506040513d601f19601f8201168201806040525081019061170b91906133ec565b8561171691906131ba565b905085600e60003373ffffffffffffffffffffffffffffffffffffffff1673ffffffffffffffffffffffffffffffffffffffff16815260200190815260200160002060008282546117679190613419565b9250508190555081600f60003373ffffffffffffffffffffffffffffffffffffffff1673ffffffffffffffffffffffffffffffffffffffff16815260200190815260200160002060008282546117bd9190613419565b9250508190555080601060003373ffffffffffffffffffffffffffffffffffffffff1673ffffffffffffffffffffffffffffffffffffffff16815260200190815260200160002060008282546118139190613419565b92505081905550600160009054906101000a900473ffffffffffffffffffffffffffffffffffffffff1673ffffffffffffffffffffffffffffffffffffffff166394a54a1283336040518363ffffffff1660e01b8152600401611877929190613761565b600060405180830381600087803b15801561189157600080fd5b505af11580156118a5573d6000803e3d6000fd5b505050503373ffffffffffffffffffffffffffffffffffffffff1631965050505050505090565b6000601160003373ffffffffffffffffffffffffffffffffffffffff1673ffffffffffffffffffffffffffffffffffffffff16815260200190815260200160002054905090565b6000600d60003373ffffffffffffffffffffffffffffffffffffffff1673ffffffffffffffffffffffffffffffffffffffff16815260200190815260200160002054905090565b6000600360009054906101000a900473ffffffffffffffffffffffffffffffffffffffff1673ffffffffffffffffffffffffffffffffffffffff166319d747236040518163ffffffff1660e01b8152600401602060405180830381865afa1580156119c9573d6000803e3d6000fd5b505050506040513d601f19601f820116820180604052508101906119ed91906133ec565b905060005b601280549050811015611e56576000670de0b6b3a7640000600e600060128581548110611a2257611a216135bd565b5b9060005260206000200160009054906101000a900473ffffffffffffffffffffffffffffffffffffffff1673ffffffffffffffffffffffffffffffffffffffff1673ffffffffffffffffffffffffffffffffffffffff16815260200190815260200160002054611a92919061322b565b83611a9d91906131ba565b90506010600060128481548110611ab757611ab66135bd565b5b9060005260206000200160009054906101000a900473ffffffffffffffffffffffffffffffffffffffff1673ffffffffffffffffffffffffffffffffffffffff1673ffffffffffffffffffffffffffffffffffffffff168152602001908152602001600020548111611e42576000600160009054906101000a900473ffffffffffffffffffffffffffffffffffffffff1673ffffffffffffffffffffffffffffffffffffffff1663996e96f06040518163ffffffff1660e01b8152600401602060405180830381865afa158015611b92573d6000803e3d6000fd5b505050506040513d601f19601f82011682018060405250810190611bb69190613590565b90508073ffffffffffffffffffffffffffffffffffffffff166108fc600e600060128781548110611bea57611be96135bd565b5b9060005260206000200160009054906101000a900473ffffffffffffffffffffffffffffffffffffffff1673ffffffffffffffffffffffffffffffffffffffff1673ffffffffffffffffffffffffffffffffffffffff168152602001908152602001600020549081150290604051600060405180830381858888f19350505050158015611c7b573d6000803e3d6000fd5b50600e600060128581548110611c9457611c936135bd565b5b9060005260206000200160009054906101000a900473ffffffffffffffffffffffffffffffffffffffff1673ffffffffffffffffffffffffffffffffffffffff1673ffffffffffffffffffffffffffffffffffffffff16815260200190815260200160002060009055600f600060128581548110611d1557611d146135bd565b5b9060005260206000200160009054906101000a900473ffffffffffffffffffffffffffffffffffffffff1673ffffffffffffffffffffffffffffffffffffffff1673ffffffffffffffffffffffffffffffffffffffff168152602001908152602001600020600090556010600060128581548110611d9657611d956135bd565b5b9060005260206000200160009054906101000a900473ffffffffffffffffffffffffffffffffffffffff1673ffffffffffffffffffffffffffffffffffffffff1673ffffffffffffffffffffffffffffffffffffffff1681526020019081526020016000206000905560128381548110611e1357611e126135bd565b5b9060005260206000200160006101000a81549073ffffffffffffffffffffffffffffffffffffffff0219169055505b508080611e4e906135ec565b9150506119f2565b5050565b6000600c60003373ffffffffffffffffffffffffffffffffffffffff1673ffffffffffffffffffffffffffffffffffffffff16815260200190815260200160002054905090565b6000600b60003373ffffffffffffffffffffffffffffffffffffffff1673ffffffffffffffffffffffffffffffffffffffff1681526020019081526020016000205411611f23576040517f08c379a0000000000000000000000000000000000000000000000000000000008152600401611f1a906132df565b60405180910390fd5b60008103611f66576040517f08c379a0000000000000000000000000000000000000000000000000000000008152600401611f5d906133b7565b60405180910390fd5b8060008054906101000a900473ffffffffffffffffffffffffffffffffffffffff1673ffffffffffffffffffffffffffffffffffffffff166370a08231336040518263ffffffff1660e01b8152600401611fc091906130ea565b602060405180830381865afa158015611fdd573d6000803e3d6000fd5b505050506040513d601f19601f8201168201806040525081019061200191906133ec565b1015612042576040517f08c379a0000000000000000000000000000000000000000000000000000000008152600401612039906134bf565b60405180910390fd5b6000600360009054906101000a900473ffffffffffffffffffffffffffffffffffffffff1673ffffffffffffffffffffffffffffffffffffffff1663946e34726040518163ffffffff1660e01b8152600401602060405180830381865afa1580156120b1573d6000803e3d6000fd5b505050506040513d601f19601f820116820180604052508101906120d591906133ec565b826120e091906131ba565b905060008054906101000a900473ffffffffffffffffffffffffffffffffffffffff1673ffffffffffffffffffffffffffffffffffffffff166323b872dd3330856040518463ffffffff1660e01b815260040161213f939291906134df565b6020604051808303816000875af115801561215e573d6000803e3d6000fd5b505050506040513d601f19601f82011682018060405250810190612182919061354e565b5081600a60003373ffffffffffffffffffffffffffffffffffffffff1673ffffffffffffffffffffffffffffffffffffffff16815260200190815260200160002060008282546121d29190613419565b9250508190555080600c60003373ffffffffffffffffffffffffffffffffffffffff1673ffffffffffffffffffffffffffffffffffffffff16815260200190815260200160002060008282546122289190613419565b925050819055505050565b60006064601160003373ffffffffffffffffffffffffffffffffffffffff1673ffffffffffffffffffffffffffffffffffffffff16815260200190815260200160002060008282546122859190613419565b9250508190555090565b600081036122d2576040517f08c379a00000000000000000000000000000000000000000000000000000000081526004016122c9906133b7565b60405180910390fd5b8060008054906101000a900473ffffffffffffffffffffffffffffffffffffffff1673ffffffffffffffffffffffffffffffffffffffff166370a08231336040518263ffffffff1660e01b815260040161232c91906130ea565b602060405180830381865afa158015612349573d6000803e3d6000fd5b505050506040513d601f19601f8201168201806040525081019061236d91906133ec565b10156123ae576040517f08c379a00000000000000000000000000000000000000000000000000000000081526004016123a5906134bf565b60405180910390fd5b6013339080600181540180825580915050600190039060005260206000200160009091909190916101000a81548173ffffffffffffffffffffffffffffffffffffffff021916908373ffffffffffffffffffffffffffffffffffffffff1602179055506000806001600460009054906101000a900473ffffffffffffffffffffffffffffffffffffffff1673ffffffffffffffffffffffffffffffffffffffff166370a08231336040518263ffffffff1660e01b815260040161247191906130ea565b602060405180830381865afa15801561248e573d6000803e3d6000fd5b505050506040513d601f19601f820116820180604052508101906124b291906133ec565b106124ca576124c3836008546103d2565b90506124d9565b6124d6836007546103d2565b90505b60008054906101000a900473ffffffffffffffffffffffffffffffffffffffff1673ffffffffffffffffffffffffffffffffffffffff166323b872dd3330866040518463ffffffff1660e01b8152600401612536939291906134df565b6020604051808303816000875af1158015612555573d6000803e3d6000fd5b505050506040513d601f19601f82011682018060405250810190612579919061354e565b5060008054906101000a900473ffffffffffffffffffffffffffffffffffffffff1673ffffffffffffffffffffffffffffffffffffffff166323b872dd30600260009054906101000a900473ffffffffffffffffffffffffffffffffffffffff1673ffffffffffffffffffffffffffffffffffffffff16632ad415bd6040518163ffffffff1660e01b8152600401602060405180830381865afa158015612624573d6000803e3d6000fd5b505050506040513d601f19601f820116820180604052508101906126489190613590565b846040518463ffffffff1660e01b8152600401612667939291906134df565b6020604051808303816000875af1158015612686573d6000803e3d6000fd5b505050506040513d601f19601f820116820180604052508101906126aa919061354e565b50600081846126b9919061370c565b90506001600460009054906101000a900473ffffffffffffffffffffffffffffffffffffffff1673ffffffffffffffffffffffffffffffffffffffff166370a08231336040518263ffffffff1660e01b815260040161271891906130ea565b602060405180830381865afa158015612735573d6000803e3d6000fd5b505050506040513d601f19601f8201168201806040525081019061275991906133ec565b106127715761276a816006546103d2565b9250612780565b61277d816005546103d2565b92505b80600a60003373ffffffffffffffffffffffffffffffffffffffff1673ffffffffffffffffffffffffffffffffffffffff16815260200190815260200160002060008282546127cf9190613419565b9250508190555082600b60003373ffffffffffffffffffffffffffffffffffffffff1673ffffffffffffffffffffffffffffffffffffffff16815260200190815260200160002060008282546128259190613419565b925050819055506000600360009054906101000a900473ffffffffffffffffffffffffffffffffffffffff1673ffffffffffffffffffffffffffffffffffffffff1663946e34726040518163ffffffff1660e01b8152600401602060405180830381865afa15801561289b573d6000803e3d6000fd5b505050506040513d601f19601f820116820180604052508101906128bf91906133ec565b826128ca91906131ba565b905080600c60003373ffffffffffffffffffffffffffffffffffffffff1673ffffffffffffffffffffffffffffffffffffffff168152602001908152602001600020600082825461291b9190613419565b92505081905550600160009054906101000a900473ffffffffffffffffffffffffffffffffffffffff1673ffffffffffffffffffffffffffffffffffffffff1663598c5b4285306040518363ffffffff1660e01b815260040161297f92919061378a565b600060405180830381600087803b15801561299957600080fd5b505af11580156129ad573d6000803e3d6000fd5b5050505060008054906101000a900473ffffffffffffffffffffffffffffffffffffffff1673ffffffffffffffffffffffffffffffffffffffff166323b872dd3033876040518463ffffffff1660e01b8152600401612a0e939291906134df565b6020604051808303816000875af1158015612a2d573d6000803e3d6000fd5b505050506040513d601f19601f82011682018060405250810190612a51919061354e565b505050505050565b6000600360009054906101000a900473ffffffffffffffffffffffffffffffffffffffff1673ffffffffffffffffffffffffffffffffffffffff1663ffa8ce506040518163ffffffff1660e01b8152600401602060405180830381865afa158015612ac8573d6000803e3d6000fd5b505050506040513d601f19601f82011682018060405250810190612aec91906133ec565b905060005b601380549050811015612f9c576000600a600060138481548110612b1857612b176135bd565b5b9060005260206000200160009054906101000a900473ffffffffffffffffffffffffffffffffffffffff1673ffffffffffffffffffffffffffffffffffffffff1673ffffffffffffffffffffffffffffffffffffffff1681526020019081526020016000205483612b8991906131ba565b9050600c600060138481548110612ba357612ba26135bd565b5b9060005260206000200160009054906101000a900473ffffffffffffffffffffffffffffffffffffffff1673ffffffffffffffffffffffffffffffffffffffff1673ffffffffffffffffffffffffffffffffffffffff168152602001908152602001600020548111612f8857600060138381548110612c2557612c246135bd565b5b9060005260206000200160009054906101000a900473ffffffffffffffffffffffffffffffffffffffff16905060008054906101000a900473ffffffffffffffffffffffffffffffffffffffff1673ffffffffffffffffffffffffffffffffffffffff166323b872dd30600160009054906101000a900473ffffffffffffffffffffffffffffffffffffffff1673ffffffffffffffffffffffffffffffffffffffff1663996e96f06040518163ffffffff1660e01b8152600401602060405180830381865afa158015612cfc573d6000803e3d6000fd5b505050506040513d601f19601f82011682018060405250810190612d209190613590565b600a60008673ffffffffffffffffffffffffffffffffffffffff1673ffffffffffffffffffffffffffffffffffffffff168152602001908152602001600020546040518463ffffffff1660e01b8152600401612d7e939291906134df565b6020604051808303816000875af1158015612d9d573d6000803e3d6000fd5b505050506040513d601f19601f82011682018060405250810190612dc1919061354e565b50600a600060138581548110612dda57612dd96135bd565b5b9060005260206000200160009054906101000a900473ffffffffffffffffffffffffffffffffffffffff1673ffffffffffffffffffffffffffffffffffffffff1673ffffffffffffffffffffffffffffffffffffffff16815260200190815260200160002060009055600b600060138581548110612e5b57612e5a6135bd565b5b9060005260206000200160009054906101000a900473ffffffffffffffffffffffffffffffffffffffff1673ffffffffffffffffffffffffffffffffffffffff1673ffffffffffffffffffffffffffffffffffffffff16815260200190815260200160002060009055600c600060138581548110612edc57612edb6135bd565b5b9060005260206000200160009054906101000a900473ffffffffffffffffffffffffffffffffffffffff1673ffffffffffffffffffffffffffffffffffffffff1673ffffffffffffffffffffffffffffffffffffffff1681526020019081526020016000206000905560138381548110612f5957612f586135bd565b5b9060005260206000200160006101000a81549073ffffffffffffffffffffffffffffffffffffffff0219169055505b508080612f94906135ec565b915050612af1565b5050565b60006064600d60003373ffffffffffffffffffffffffffffffffffffffff1673ffffffffffffffffffffffffffffffffffffffff1681526020019081526020016000206000828254612ff29190613419565b9250508190555090565b600047905090565b600080fd5b6000819050919050565b61301c81613009565b811461302757600080fd5b50565b60008135905061303981613013565b92915050565b6000806040838503121561305657613055613004565b5b60006130648582860161302a565b92505060206130758582860161302a565b9150509250929050565b61308881613009565b82525050565b60006020820190506130a3600083018461307f565b92915050565b600073ffffffffffffffffffffffffffffffffffffffff82169050919050565b60006130d4826130a9565b9050919050565b6130e4816130c9565b82525050565b60006020820190506130ff60008301846130db565b92915050565b61310e816130c9565b811461311957600080fd5b50565b60008135905061312b81613105565b92915050565b60006020828403121561314757613146613004565b5b60006131558482850161311c565b91505092915050565b60006020828403121561317457613173613004565b5b60006131828482850161302a565b91505092915050565b7f4e487b7100000000000000000000000000000000000000000000000000000000600052601160045260246000fd5b60006131c582613009565b91506131d083613009565b92508282026131de81613009565b915082820484148315176131f5576131f461318b565b5b5092915050565b7f4e487b7100000000000000000000000000000000000000000000000000000000600052601260045260246000fd5b600061323682613009565b915061324183613009565b925082613251576132506131fc565b5b828204905092915050565b600082825260208201905092915050565b7f596f7520646f206e6f74206861766520616e79206f75747374616e64696e672060008201527f6465627400000000000000000000000000000000000000000000000000000000602082015250565b60006132c960248361325c565b91506132d48261326d565b604082019050919050565b600060208201905081810360008301526132f8816132bc565b9050919050565b7f596f7520646f206e6f742068617665206f75747374616e64696e672064656274600082015250565b600061333560208361325c565b9150613340826132ff565b602082019050919050565b6000602082019050818103600083015261336481613328565b9050919050565b7f506c6561736520707574206d6f726520636f6c6c61746572616c000000000000600082015250565b60006133a1601a8361325c565b91506133ac8261336b565b602082019050919050565b600060208201905081810360008301526133d081613394565b9050919050565b6000815190506133e681613013565b92915050565b60006020828403121561340257613401613004565b5b6000613410848285016133d7565b91505092915050565b600061342482613009565b915061342f83613009565b92508282019050808211156134475761344661318b565b5b92915050565b7f596f7520646f206e6f74206861766520656e6f756768204156415820746f6b6560008201527f6e21000000000000000000000000000000000000000000000000000000000000602082015250565b60006134a960228361325c565b91506134b48261344d565b604082019050919050565b600060208201905081810360008301526134d88161349c565b9050919050565b60006060820190506134f460008301866130db565b61350160208301856130db565b61350e604083018461307f565b949350505050565b60008115159050919050565b61352b81613516565b811461353657600080fd5b50565b60008151905061354881613522565b92915050565b60006020828403121561356457613563613004565b5b600061357284828501613539565b91505092915050565b60008151905061358a81613105565b92915050565b6000602082840312156135a6576135a5613004565b5b60006135b48482850161357b565b91505092915050565b7f4e487b7100000000000000000000000000000000000000000000000000000000600052603260045260246000fd5b60006135f782613009565b91507fffffffffffffffffffffffffffffffffffffffffffffffffffffffffffffffff82036136295761362861318b565b5b600182019050919050565b7f56616c756520696e736572746564206973206e6f7420656e6f75676800000000600082015250565b600061366a601c8361325c565b915061367582613634565b602082019050919050565b600060208201905081810360008301526136998161365d565b9050919050565b7f4552524f52000000000000000000000000000000000000000000000000000000600082015250565b60006136d660058361325c565b91506136e1826136a0565b602082019050919050565b60006020820190508181036000830152613705816136c9565b9050919050565b600061371782613009565b915061372283613009565b925082820390508181111561373a5761373961318b565b5b92915050565b600061374b826130a9565b9050919050565b61375b81613740565b82525050565b6000604082019050613776600083018561307f565b6137836020830184613752565b9392505050565b600060408201905061379f600083018561307f565b6137ac60208301846130db565b939250505056fea2646970667358221220ab9f792de6d8c901e6c85ea08a45925c7513658de05d6a8d7a8549936d0b438164736f6c63430008110033",
  "immutableReferences": {},
  "source": "// SPDX-License-Identifier: MIT\npragma solidity ^0.8.7;\nimport \"./LiquidityPool.sol\";\nimport \"./ERC20.sol\";\nimport \"./Reserves.sol\";\nimport \"./PriceFeed.sol\";\nimport \"./Avax.sol\";\nimport \"./IdentityToken.sol\";\n\ncontract Lending {\n    Avax avaxToken;\n    LiquidityPool liquidityPool;\n    Reserves reserves;\n    PriceFeed priceFeed;\n    IdentityToken identityToken;\n    uint256 _maximumLendingPercentage = 8000; //80% of collateral\n    uint256 verifiedLendingPercentage = 9000; //90% of collateral\n    uint256 _lendingFee = 500; //5% of total collateral\n    uint256 verifiedCommisionFee = 300; //verified users get 3% fee instead of 5\n    address _debtOwner = msg.sender;\n\n    mapping(address => uint256) AVAXCollateralLedger;\n    mapping(address => uint256) AVAXLoanLedger;\n    mapping(address => uint256) AVAXCollateralValueLedgerinUSD;\n    mapping(address => uint256) AVAXCUserTotalReturnTransactions;\n\n    mapping(address => uint256) ETHCollateralLedger;\n    mapping(address => uint256) ETHLoanLedger;\n    mapping(address => uint256) ETHCollateralValueLedgerinUSD;\n    mapping(address => uint256) ETHUserTotalReturnTransactions;\n\n    address[] ETHDebtors; // keep track who is still has outstanding loans\n    address[] AVAXDebtors; // keep track who is still has outstanding loans\n    \n     constructor(Avax avaxTokenAddress, LiquidityPool lp, Reserves reservesAddress, PriceFeed pf, IdentityToken identityTokenAddress) {\n        avaxToken = avaxTokenAddress;\n        liquidityPool = lp;\n        reserves = reservesAddress;\n        priceFeed = pf;\n        identityToken = identityTokenAddress;\n    }\n\n    function borrowAVAX(uint256 depositCollateral) public {\n        require(depositCollateral != 0, \"Please put more collateral\");\n        require (avaxToken.balanceOf(msg.sender) >= depositCollateral, \"You do not have enough AVAX token!\");\n        AVAXDebtors.push(msg.sender);\n        uint256 _loanAmount = 0; // set to 0 intially\n        uint256 lendingFeeToDeduct = 0; //set to 0 intially\n\n        //Directly deduct the 5% commission first and loan out the rest\n        //User collateral will then be 95% of what is deposited\n        if (identityToken.balanceOf(msg.sender) >= 1) {\n            lendingFeeToDeduct = calculatePercentage(depositCollateral, verifiedCommisionFee); //3% of collateral\n        } else {\n            lendingFeeToDeduct = calculatePercentage(depositCollateral, _lendingFee); //5% of collateral\n        }\n\n        avaxToken.transferFrom(msg.sender, address(this), depositCollateral); //Take user collateral first\n        avaxToken.transferFrom(address(this), reserves.getReservesAddress(), lendingFeeToDeduct); //Transfer 5% to the reserves first\n        uint256 depositCollateralAfterComissionFee = depositCollateral - lendingFeeToDeduct;\n       \n        //Calculate the Loan amount\n        //Give the user a better rate of only needing 90% collateral if he has a token, else give the usual 85% needed\n        if (identityToken.balanceOf(msg.sender) >= 1) {\n            //uint256 verifiedRate = 9000; // 90% collateral needed\n            _loanAmount = calculatePercentage(depositCollateralAfterComissionFee, verifiedLendingPercentage); //90% of collateral\n        } else {\n            _loanAmount = calculatePercentage(depositCollateralAfterComissionFee, _maximumLendingPercentage); //80% of new collateral\n        }\n\n        AVAXCollateralLedger[msg.sender] += depositCollateralAfterComissionFee;\n        AVAXLoanLedger[msg.sender] += _loanAmount;\n\n        uint256 depositCollateralInUSD = depositCollateralAfterComissionFee * priceFeed.getAvaxPriceFirst(); //in USD\n        AVAXCollateralValueLedgerinUSD[msg.sender] += depositCollateralInUSD;\n\n        liquidityPool.sendAvaxToLendingContract(_loanAmount, address(this)); // Transfer AVAX from LP to this contract\n        avaxToken.transferFrom(address(this), msg.sender, _loanAmount); //Take assets from Liquidity Pool and send to borrower\n    }\n\n    function repayAVAXDebt() public onlyAVAXDebtHolder {\n        //require only the person who loan it can pay back\n        uint256 amountToReturn = AVAXLoanLedger[msg.sender]; //Get amount to return from AvaxLoanLedger\n        require (avaxToken.balanceOf(msg.sender) >= amountToReturn, \"You do not have enough AVAX token!\");\n\n        uint256 collateralAmount = AVAXCollateralLedger[msg.sender]; //Get the collteral that is held by the Smart contract\n        avaxToken.transferFrom(msg.sender, address(this), amountToReturn); //Transfer Avax to pay back from wallet to this smart contract\n        avaxToken.transferFrom(address(this), msg.sender, collateralAmount); //Transfer only 95% back\n        address lpAddress = liquidityPool.getLPAddress();\n        avaxToken.transferFrom(address(this), lpAddress, amountToReturn); //Transfer only 95% back\n        \n        delete AVAXCollateralLedger[msg.sender]; //Reset the ledger as the loan has been paid\n        delete AVAXLoanLedger[msg.sender]; //Reset the ledger as the loan has been paid\n        delete AVAXCollateralValueLedgerinUSD[msg.sender];\n        AVAXCUserTotalReturnTransactions[msg.sender] += 1;\n\n        for (uint256 i = 0; i < AVAXDebtors.length; i++) {\n            if (AVAXDebtors[i] == msg.sender) {\n                delete AVAXDebtors[i];\n            }\n        }\n    }\n\n    function topUpAVAXCollateral(uint256 topUpCollateral) public onlyAVAXDebtHolder {\n        \n        require(topUpCollateral != 0, \"Please put more collateral\");\n        require (avaxToken.balanceOf(msg.sender) >= topUpCollateral, \"You do not have enough AVAX token!\");\n        uint256 topUpCollateralInUSD; \n        topUpCollateralInUSD = topUpCollateral * priceFeed.getAvaxPriceFirst(); //in USD\n        avaxToken.transferFrom(msg.sender, address(this), topUpCollateral);\n\n        AVAXCollateralLedger[msg.sender] += topUpCollateral;\n        AVAXCollateralValueLedgerinUSD[msg.sender] += topUpCollateralInUSD;\n    }\n\n     function liquidateAVAX() public {\n        uint256 currentPriceOfAVAX = priceFeed.getAvaxPriceToLiquidate();\n        for (uint i = 0; i < AVAXDebtors.length; i++) {\n            uint256 newCollateralPrice = (currentPriceOfAVAX * (AVAXCollateralLedger[AVAXDebtors[i]]));\n            if (newCollateralPrice <= AVAXCollateralValueLedgerinUSD[AVAXDebtors[i]]) {\n                //liquidate by sending collateral to the pool\n                 //addressToSend.transfer(ETHCollateralLedger[ETHDebtors[i]]);\n                 address accountAddress = AVAXDebtors[i];\n                 avaxToken.transferFrom(address(this), liquidityPool.getLPAddress(), AVAXCollateralLedger[accountAddress]);\n                 delete AVAXCollateralLedger[AVAXDebtors[i]]; //Reset the ledger as the loan has been Liquidated\n                 delete AVAXLoanLedger[AVAXDebtors[i]]; //Reset the ledger as the loan has been Liquidated\n                 delete AVAXCollateralValueLedgerinUSD[AVAXDebtors[i]];\n                 delete AVAXDebtors[i];\n            }\n        }\n    }\n\n     //Take collateral and give 85% \n    function borrowEth() public payable returns (uint256) {\n        uint256 depositCollateral = msg.value;\n        require(depositCollateral != 0, \"Please put more collateral\");\n\n        uint256 depositCollateralInEth = depositCollateral / 1000000000000000000;\n\n        ETHDebtors.push(msg.sender);\n        uint256 lendingFeeToDeduct = 0;\n\n        if (identityToken.balanceOf(msg.sender) >= 1) {\n            lendingFeeToDeduct = calculatePercentage(depositCollateral, verifiedCommisionFee); //3% of collateral\n        } else {\n            lendingFeeToDeduct = calculatePercentage(depositCollateral, _lendingFee); //5% of collateral\n        }\n        //Transfer commission fee to the reserves\n        address payable reservesAddress = payable(reserves.getReservesAddress()); \n        reservesAddress.transfer(lendingFeeToDeduct);\n\n        uint256 _loanAmount = 0;\n        depositCollateral = depositCollateral - lendingFeeToDeduct;\n\n        if (identityToken.balanceOf(msg.sender) >= 1) {\n            _loanAmount = calculatePercentage(depositCollateral, verifiedLendingPercentage); //90% of collateral\n        } else {\n            _loanAmount = calculatePercentage(depositCollateral, _maximumLendingPercentage); //85% of collateral\n        }\n\n        uint256 depositCollateralInUSD; \n        depositCollateralInUSD = depositCollateralInEth * priceFeed.getEthPriceFirst(); //in USD\n\n        ETHCollateralLedger[msg.sender] += depositCollateral;\n        ETHLoanLedger[msg.sender] += _loanAmount;\n        ETHCollateralValueLedgerinUSD[msg.sender] += depositCollateralInUSD;\n        \n        liquidityPool.sendEthToLender(_loanAmount, payable(msg.sender));\n        return msg.sender.balance;\n    }\n\n    function topUpETHCollateral() public payable onlyEthDebtHolder {\n        uint256 topUpCollateral = msg.value;\n        require(topUpCollateral != 0, \"Please put more collateral\");\n        uint256 topUpCollateralInEth = topUpCollateral / 1000000000000000000;\n        uint256 topUpCollateralInUSD; \n        topUpCollateralInUSD = topUpCollateralInEth * priceFeed.getEthPriceFirst(); //in USD\n\n        ETHCollateralLedger[msg.sender] += topUpCollateral;\n        ETHCollateralValueLedgerinUSD[msg.sender] += topUpCollateralInUSD;\n    }\n\n    function repayEth() public payable onlyEthDebtHolder {\n        address payable msgSenderAddress = payable (msg.sender);\n        uint256 amountToReturn = ETHLoanLedger[msg.sender]; //Get amount to return from USDCLoanLedger\n        require (msg.value >= amountToReturn, \"Value inserted is not enough\");\n        \n        uint256 collateralAmount = ETHCollateralLedger[msg.sender]; //Get the collteral that is held by the Smart contract\n       \n        require (address(this).balance >= amountToReturn, \"ERROR\");\n        address payable lpAddress = payable (liquidityPool.getLPAddress());\n        msgSenderAddress.transfer(collateralAmount);\n        lpAddress.transfer(amountToReturn);\n\n        delete ETHCollateralLedger[msg.sender]; //Reset the ledger as the loan has been paid\n        delete ETHLoanLedger[msg.sender]; //Reset the ledger as the loan has been paid\n        delete ETHCollateralValueLedgerinUSD[msg.sender];\n        ETHUserTotalReturnTransactions[msg.sender] += 1;\n        \n        for (uint256 i = 0; i < ETHDebtors.length; i++) {\n            if (ETHDebtors[i] == msg.sender) {\n                delete ETHDebtors[i];\n            }\n        }\n    }\n           \n    function liquidateETH() public payable {\n        uint256 currentPriceOfEth = priceFeed.getEthPriceToLiquidate();\n        for (uint i = 0; i < ETHDebtors.length; i++) {\n            uint256 newCollateralPrice = (currentPriceOfEth * (ETHCollateralLedger[ETHDebtors[i]] / 1000000000000000000));\n            if (newCollateralPrice <= ETHCollateralValueLedgerinUSD[ETHDebtors[i]]) {\n                //liquidate by sending collateral to the pool\n                address payable addressToSend = payable (liquidityPool.getLPAddress());\n                addressToSend.transfer(ETHCollateralLedger[ETHDebtors[i]]);\n                 delete ETHCollateralLedger[ETHDebtors[i]]; //Reset the ledger as the loan has been Liquidated\n                 delete ETHLoanLedger[ETHDebtors[i]]; //Reset the ledger as the loan has been Liquidated\n                 delete ETHCollateralValueLedgerinUSD[ETHDebtors[i]];\n                 delete ETHDebtors[i];\n            }\n        }\n    }\n\n    function getUserAVAXCollateralAmountInUSD() public view returns (uint256) {\n       return AVAXCollateralValueLedgerinUSD[msg.sender];\n    }\n\n    function getUserTotaETHRepaymentAmount() public view returns (uint256) {\n        return ETHUserTotalReturnTransactions[msg.sender];\n    }\n\n    function getUserTotaAVAXRepaymentAmount() public view returns (uint256) {\n        return AVAXCUserTotalReturnTransactions[msg.sender];\n    }\n\n    //For testing purposes\n    function initUserTotalEthRepaymentAmount() public returns (uint256) {\n       ETHUserTotalReturnTransactions[msg.sender] += 100;\n    }\n\n    function initUserTotalAVAXRepaymentAmount() public returns (uint256) {\n       AVAXCUserTotalReturnTransactions[msg.sender] += 100;\n    }\n\n    //This function calculates Percentages\n    //Used to calculate the amount of Loan that can be given and platform lendingFees\n    //e.g \n    //Assume collateral = 100, desired percentage = 85%\n    //function returns 85\n\n    function calculatePercentage(uint256 collateralAmount, uint256 percentage) public pure returns (uint256) {\n        return (collateralAmount * percentage) / 10_000;\n    }\n\n\n    function getHoldingAVAXCollateral() public view returns (uint256) {\n        return avaxToken.balanceOf(address(this));\n    }\n\n    function getHoldingEthCollateral() public view returns (uint256) {\n        return address(this).balance;\n    }\n\n    //Functions to return the amount of Debt the msg.sender has in USDC\n    function getAVAXDebt() public view onlyAVAXDebtHolder returns (uint256) {\n        return (AVAXLoanLedger[msg.sender]);\n    }\n\n    function getAddress() public view returns (address) {\n        return address(this);\n    }\n\n    //Function to return transaction count\n    function getTotalTransactionCount(address user) public view returns (uint256) {\n        return AVAXCUserTotalReturnTransactions[user] + ETHUserTotalReturnTransactions[user];\n    }\n\n    modifier onlyAVAXDebtHolder() {\n        require(AVAXLoanLedger[msg.sender] > 0, \"You do not have any outstanding debt\");\n        _;\n    }\n\n    modifier onlyEthDebtHolder() {\n        require(ETHLoanLedger[msg.sender] > 0, \"You do not have outstanding debt\");\n        _;\n    }\n}",
  "sourcePath": "/Users/alwin/Developer/Liquiditas/contracts/Lending.sol",
  "compiler": {
    "name": "solc",
    "version": "0.8.17+commit.8df45f5f.Emscripten.clang"
  },
  "schemaVersion": "3.4.11",
  "updatedAt": "2023-03-24T05:15:32.728Z",
  "devdoc": {
    "kind": "dev",
    "methods": {},
    "version": 1
  },
  "userdoc": {
    "kind": "user",
    "methods": {},
    "version": 1
  }
}