{
  "contractName": "Lending",
  "abi": [
    {
      "inputs": [
        {
          "internalType": "contract Avax",
          "name": "avaxTokenAddress",
          "type": "address"
        },
        {
          "internalType": "contract LiquidityPool",
          "name": "lp",
          "type": "address"
        },
        {
          "internalType": "contract Reserves",
          "name": "reservesAddress",
          "type": "address"
        },
        {
          "internalType": "contract PriceFeed",
          "name": "pf",
          "type": "address"
        },
        {
          "internalType": "contract IdentityToken",
          "name": "identityTokenAddress",
          "type": "address"
        }
      ],
      "stateMutability": "nonpayable",
      "type": "constructor"
    },
    {
      "inputs": [
        {
          "internalType": "uint256",
          "name": "depositCollateral",
          "type": "uint256"
        }
      ],
      "name": "borrowAVAX",
      "outputs": [],
      "stateMutability": "nonpayable",
      "type": "function"
    },
    {
      "inputs": [],
      "name": "repayAVAXDebt",
      "outputs": [],
      "stateMutability": "nonpayable",
      "type": "function"
    },
    {
      "inputs": [
        {
          "internalType": "uint256",
          "name": "topUpCollateral",
          "type": "uint256"
        }
      ],
      "name": "topUpAVAXCollateral",
      "outputs": [],
      "stateMutability": "nonpayable",
      "type": "function"
    },
    {
      "inputs": [],
      "name": "liquidateAVAX",
      "outputs": [],
      "stateMutability": "nonpayable",
      "type": "function"
    },
    {
      "inputs": [],
      "name": "borrowEth",
      "outputs": [
        {
          "internalType": "uint256",
          "name": "",
          "type": "uint256"
        }
      ],
      "stateMutability": "payable",
      "type": "function"
    },
    {
      "inputs": [],
      "name": "topUpETHCollateral",
      "outputs": [],
      "stateMutability": "payable",
      "type": "function"
    },
    {
      "inputs": [],
      "name": "repayEth",
      "outputs": [],
      "stateMutability": "payable",
      "type": "function"
    },
    {
      "inputs": [],
      "name": "liquidateETH",
      "outputs": [],
      "stateMutability": "payable",
      "type": "function"
    },
    {
      "inputs": [],
      "name": "getUserAVAXCollateralAmountInUSD",
      "outputs": [
        {
          "internalType": "uint256",
          "name": "",
          "type": "uint256"
        }
      ],
      "stateMutability": "view",
      "type": "function"
    },
    {
      "inputs": [],
      "name": "getUserAvaxLiquidationPrice",
      "outputs": [
        {
          "internalType": "uint256",
          "name": "",
          "type": "uint256"
        }
      ],
      "stateMutability": "view",
      "type": "function"
    },
    {
      "inputs": [],
      "name": "getUserTotaETHRepaymentAmount",
      "outputs": [
        {
          "internalType": "uint256",
          "name": "",
          "type": "uint256"
        }
      ],
      "stateMutability": "view",
      "type": "function"
    },
    {
      "inputs": [],
      "name": "getUserTotaAVAXRepaymentAmount",
      "outputs": [
        {
          "internalType": "uint256",
          "name": "",
          "type": "uint256"
        }
      ],
      "stateMutability": "view",
      "type": "function"
    },
    {
      "inputs": [],
      "name": "initUserTotalEthRepaymentAmount",
      "outputs": [
        {
          "internalType": "uint256",
          "name": "",
          "type": "uint256"
        }
      ],
      "stateMutability": "nonpayable",
      "type": "function"
    },
    {
      "inputs": [],
      "name": "initUserTotalAVAXRepaymentAmount",
      "outputs": [
        {
          "internalType": "uint256",
          "name": "",
          "type": "uint256"
        }
      ],
      "stateMutability": "nonpayable",
      "type": "function"
    },
    {
      "inputs": [
        {
          "internalType": "uint256",
          "name": "collateralAmount",
          "type": "uint256"
        },
        {
          "internalType": "uint256",
          "name": "percentage",
          "type": "uint256"
        }
      ],
      "name": "calculatePercentage",
      "outputs": [
        {
          "internalType": "uint256",
          "name": "",
          "type": "uint256"
        }
      ],
      "stateMutability": "pure",
      "type": "function"
    },
    {
      "inputs": [],
      "name": "getHoldingAVAXCollateral",
      "outputs": [
        {
          "internalType": "uint256",
          "name": "",
          "type": "uint256"
        }
      ],
      "stateMutability": "view",
      "type": "function"
    },
    {
      "inputs": [],
      "name": "getHoldingEthCollateral",
      "outputs": [
        {
          "internalType": "uint256",
          "name": "",
          "type": "uint256"
        }
      ],
      "stateMutability": "view",
      "type": "function"
    },
    {
      "inputs": [],
      "name": "getAVAXDebt",
      "outputs": [
        {
          "internalType": "uint256",
          "name": "",
          "type": "uint256"
        }
      ],
      "stateMutability": "view",
      "type": "function"
    },
    {
      "inputs": [],
      "name": "getAddress",
      "outputs": [
        {
          "internalType": "address",
          "name": "",
          "type": "address"
        }
      ],
      "stateMutability": "view",
      "type": "function"
    },
    {
      "inputs": [
        {
          "internalType": "address",
          "name": "user",
          "type": "address"
        }
      ],
      "name": "getTotalTransactionCount",
      "outputs": [
        {
          "internalType": "uint256",
          "name": "",
          "type": "uint256"
        }
      ],
      "stateMutability": "view",
      "type": "function"
    },
    {
      "inputs": [],
      "name": "hello",
      "outputs": [
        {
          "internalType": "uint256",
          "name": "",
          "type": "uint256"
        }
      ],
      "stateMutability": "view",
      "type": "function"
    }
  ],
  "bytecode": "0x60806040526121346005556101f460065533600760006101000a81548173ffffffffffffffffffffffffffffffffffffffff021916908373ffffffffffffffffffffffffffffffffffffffff1602179055503480156200005e57600080fd5b5060405162003bbe38038062003bbe833981810160405281019062000084919062000379565b846000806101000a81548173ffffffffffffffffffffffffffffffffffffffff021916908373ffffffffffffffffffffffffffffffffffffffff16021790555083600160006101000a81548173ffffffffffffffffffffffffffffffffffffffff021916908373ffffffffffffffffffffffffffffffffffffffff16021790555082600260006101000a81548173ffffffffffffffffffffffffffffffffffffffff021916908373ffffffffffffffffffffffffffffffffffffffff16021790555081600360006101000a81548173ffffffffffffffffffffffffffffffffffffffff021916908373ffffffffffffffffffffffffffffffffffffffff16021790555080600460006101000a81548173ffffffffffffffffffffffffffffffffffffffff021916908373ffffffffffffffffffffffffffffffffffffffff160217905550505050505062000401565b600080fd5b600073ffffffffffffffffffffffffffffffffffffffff82169050919050565b60006200020582620001d8565b9050919050565b60006200021982620001f8565b9050919050565b6200022b816200020c565b81146200023757600080fd5b50565b6000815190506200024b8162000220565b92915050565b60006200025e82620001d8565b9050919050565b6000620002728262000251565b9050919050565b620002848162000265565b81146200029057600080fd5b50565b600081519050620002a48162000279565b92915050565b6000620002b78262000251565b9050919050565b620002c981620002aa565b8114620002d557600080fd5b50565b600081519050620002e981620002be565b92915050565b6000620002fc82620001f8565b9050919050565b6200030e81620002ef565b81146200031a57600080fd5b50565b6000815190506200032e8162000303565b92915050565b60006200034182620001f8565b9050919050565b620003538162000334565b81146200035f57600080fd5b50565b600081519050620003738162000348565b92915050565b600080600080600060a08688031215620003985762000397620001d3565b5b6000620003a8888289016200023a565b9550506020620003bb8882890162000293565b9450506040620003ce88828901620002d8565b9350506060620003e1888289016200031d565b9250506080620003f48882890162000362565b9150509295509295909350565b6137ad80620004116000396000f3fe60806040526004361061012a5760003560e01c80634fed0518116100ab578063b60d26171161006f578063b60d261714610354578063b731bc6d1461037d578063b968c930146103a8578063db8bf7e6146103d1578063dcbbdbb8146103e8578063fcd6e191146104135761012a565b80634fed0518146102ab5780636862f589146102c95780636e67fcdd146102f4578063734997e51461031f578063757c3cbd146103295761012a565b806338cc4831116100f257806338cc4831146101f75780634075af221461022257806342b9309a1461025f5780634a282670146102765780634b84a647146102805761012a565b80630b8e4ad41461012f57806319ff1d211461015a5780632133e3b91461018557806323ded52a146101c25780632b0fa399146101ed575b600080fd5b34801561013b57600080fd5b5061014461043e565b6040516101519190612fe1565b60405180910390f35b34801561016657600080fd5b5061016f61049f565b60405161017c9190612fe1565b60405180910390f35b34801561019157600080fd5b506101ac60048036038101906101a7919061302d565b6104ae565b6040516101b99190612fe1565b60405180910390f35b3480156101ce57600080fd5b506101d76104d1565b6040516101e49190612fe1565b60405180910390f35b6101f5610599565b005b34801561020357600080fd5b5061020c6107cc565b60405161021991906130ae565b60405180910390f35b34801561022e57600080fd5b50610249600480360381019061024491906130f5565b6107d4565b6040516102569190612fe1565b60405180910390f35b34801561026b57600080fd5b50610274610867565b005b61027e610ed7565b005b34801561028c57600080fd5b50610295611485565b6040516102a29190612fe1565b60405180910390f35b6102b3611527565b6040516102c09190612fe1565b60405180910390f35b3480156102d557600080fd5b506102de611875565b6040516102eb9190612fe1565b60405180910390f35b34801561030057600080fd5b506103096118bc565b6040516103169190612fe1565b60405180910390f35b610327611903565b005b34801561033557600080fd5b5061033e611e03565b60405161034b9190612fe1565b60405180910390f35b34801561036057600080fd5b5061037b60048036038101906103769190613122565b611e4a565b005b34801561038957600080fd5b506103926121dc565b60405161039f9190612fe1565b60405180910390f35b3480156103b457600080fd5b506103cf60048036038101906103ca9190613122565b612238565b005b3480156103dd57600080fd5b506103e6612a1d565b005b3480156103f457600080fd5b506103fd612f64565b60405161040a9190612fe1565b60405180910390f35b34801561041f57600080fd5b50610428612fc0565b6040516104359190612fe1565b60405180910390f35b6000612710612328600860003373ffffffffffffffffffffffffffffffffffffffff1673ffffffffffffffffffffffffffffffffffffffff16815260200190815260200160002054610490919061317e565b61049a91906131ef565b905090565b60008060019050606491505090565b600061271082846104bf919061317e565b6104c991906131ef565b905092915050565b600080600960003373ffffffffffffffffffffffffffffffffffffffff1673ffffffffffffffffffffffffffffffffffffffff1681526020019081526020016000205411610554576040517f08c379a000000000000000000000000000000000000000000000000000000000815260040161054b906132a3565b60405180910390fd5b600960003373ffffffffffffffffffffffffffffffffffffffff1673ffffffffffffffffffffffffffffffffffffffff16815260200190815260200160002054905090565b6000600d60003373ffffffffffffffffffffffffffffffffffffffff1673ffffffffffffffffffffffffffffffffffffffff168152602001908152602001600020541161061b576040517f08c379a00000000000000000000000000000000000000000000000000000000081526004016106129061330f565b60405180910390fd5b600034905060008103610663576040517f08c379a000000000000000000000000000000000000000000000000000000000815260040161065a9061337b565b60405180910390fd5b6000670de0b6b3a76400008261067991906131ef565b90506000600360009054906101000a900473ffffffffffffffffffffffffffffffffffffffff1673ffffffffffffffffffffffffffffffffffffffff166307a1cf9e6040518163ffffffff1660e01b8152600401602060405180830381865afa1580156106ea573d6000803e3d6000fd5b505050506040513d601f19601f8201168201806040525081019061070e91906133b0565b82610719919061317e565b905082600c60003373ffffffffffffffffffffffffffffffffffffffff1673ffffffffffffffffffffffffffffffffffffffff168152602001908152602001600020600082825461076a91906133dd565b9250508190555080600e60003373ffffffffffffffffffffffffffffffffffffffff1673ffffffffffffffffffffffffffffffffffffffff16815260200190815260200160002060008282546107c091906133dd565b92505081905550505050565b600030905090565b6000600f60008373ffffffffffffffffffffffffffffffffffffffff1673ffffffffffffffffffffffffffffffffffffffff16815260200190815260200160002054600b60008473ffffffffffffffffffffffffffffffffffffffff1673ffffffffffffffffffffffffffffffffffffffff1681526020019081526020016000205461086091906133dd565b9050919050565b6000600960003373ffffffffffffffffffffffffffffffffffffffff1673ffffffffffffffffffffffffffffffffffffffff16815260200190815260200160002054116108e9576040517f08c379a00000000000000000000000000000000000000000000000000000000081526004016108e0906132a3565b60405180910390fd5b6000600960003373ffffffffffffffffffffffffffffffffffffffff1673ffffffffffffffffffffffffffffffffffffffff1681526020019081526020016000205490508060008054906101000a900473ffffffffffffffffffffffffffffffffffffffff1673ffffffffffffffffffffffffffffffffffffffff166370a08231336040518263ffffffff1660e01b815260040161098791906130ae565b602060405180830381865afa1580156109a4573d6000803e3d6000fd5b505050506040513d601f19601f820116820180604052508101906109c891906133b0565b1015610a09576040517f08c379a0000000000000000000000000000000000000000000000000000000008152600401610a0090613483565b60405180910390fd5b6000600860003373ffffffffffffffffffffffffffffffffffffffff1673ffffffffffffffffffffffffffffffffffffffff16815260200190815260200160002054905060008054906101000a900473ffffffffffffffffffffffffffffffffffffffff1673ffffffffffffffffffffffffffffffffffffffff166323b872dd3330856040518463ffffffff1660e01b8152600401610aaa939291906134a3565b6020604051808303816000875af1158015610ac9573d6000803e3d6000fd5b505050506040513d601f19601f82011682018060405250810190610aed9190613512565b506000610afc826006546104ae565b905060008054906101000a900473ffffffffffffffffffffffffffffffffffffffff1673ffffffffffffffffffffffffffffffffffffffff166323b872dd30338486610b48919061353f565b6040518463ffffffff1660e01b8152600401610b66939291906134a3565b6020604051808303816000875af1158015610b85573d6000803e3d6000fd5b505050506040513d601f19601f82011682018060405250810190610ba99190613512565b5060008054906101000a900473ffffffffffffffffffffffffffffffffffffffff1673ffffffffffffffffffffffffffffffffffffffff166323b872dd30600260009054906101000a900473ffffffffffffffffffffffffffffffffffffffff1673ffffffffffffffffffffffffffffffffffffffff16632ad415bd6040518163ffffffff1660e01b8152600401602060405180830381865afa158015610c54573d6000803e3d6000fd5b505050506040513d601f19601f82011682018060405250810190610c789190613588565b846040518463ffffffff1660e01b8152600401610c97939291906134a3565b6020604051808303816000875af1158015610cb6573d6000803e3d6000fd5b505050506040513d601f19601f82011682018060405250810190610cda9190613512565b50600860003373ffffffffffffffffffffffffffffffffffffffff1673ffffffffffffffffffffffffffffffffffffffff16815260200190815260200160002060009055600960003373ffffffffffffffffffffffffffffffffffffffff1673ffffffffffffffffffffffffffffffffffffffff16815260200190815260200160002060009055600a60003373ffffffffffffffffffffffffffffffffffffffff1673ffffffffffffffffffffffffffffffffffffffff168152602001908152602001600020600090556001600b60003373ffffffffffffffffffffffffffffffffffffffff1673ffffffffffffffffffffffffffffffffffffffff1681526020019081526020016000206000828254610df491906133dd565b9250508190555060005b601180549050811015610ed1573373ffffffffffffffffffffffffffffffffffffffff1660118281548110610e3657610e356135b5565b5b9060005260206000200160009054906101000a900473ffffffffffffffffffffffffffffffffffffffff1673ffffffffffffffffffffffffffffffffffffffff1603610ebe5760118181548110610e9057610e8f6135b5565b5b9060005260206000200160006101000a81549073ffffffffffffffffffffffffffffffffffffffff02191690555b8080610ec9906135e4565b915050610dfe565b50505050565b6000600d60003373ffffffffffffffffffffffffffffffffffffffff1673ffffffffffffffffffffffffffffffffffffffff1681526020019081526020016000205411610f59576040517f08c379a0000000000000000000000000000000000000000000000000000000008152600401610f509061330f565b60405180910390fd5b6000600d60003373ffffffffffffffffffffffffffffffffffffffff1673ffffffffffffffffffffffffffffffffffffffff16815260200190815260200160002054905080341015610fe0576040517f08c379a0000000000000000000000000000000000000000000000000000000008152600401610fd790613678565b60405180910390fd5b6000600c60003373ffffffffffffffffffffffffffffffffffffffff1673ffffffffffffffffffffffffffffffffffffffff1681526020019081526020016000205490506000611032826006546104ae565b905060003390508073ffffffffffffffffffffffffffffffffffffffff166108fc838561105f919061353f565b9081150290604051600060405180830381858888f1935050505015801561108a573d6000803e3d6000fd5b50834710156110ce576040517f08c379a00000000000000000000000000000000000000000000000000000000081526004016110c5906136e4565b60405180910390fd5b6000600160009054906101000a900473ffffffffffffffffffffffffffffffffffffffff1673ffffffffffffffffffffffffffffffffffffffff1663996e96f06040518163ffffffff1660e01b8152600401602060405180830381865afa15801561113d573d6000803e3d6000fd5b505050506040513d601f19601f820116820180604052508101906111619190613588565b90508073ffffffffffffffffffffffffffffffffffffffff166108fc869081150290604051600060405180830381858888f193505050501580156111a9573d6000803e3d6000fd5b506000600260009054906101000a900473ffffffffffffffffffffffffffffffffffffffff1673ffffffffffffffffffffffffffffffffffffffff16632ad415bd6040518163ffffffff1660e01b8152600401602060405180830381865afa158015611219573d6000803e3d6000fd5b505050506040513d601f19601f8201168201806040525081019061123d9190613588565b90508073ffffffffffffffffffffffffffffffffffffffff166108fc859081150290604051600060405180830381858888f19350505050158015611285573d6000803e3d6000fd5b50600c60003373ffffffffffffffffffffffffffffffffffffffff1673ffffffffffffffffffffffffffffffffffffffff16815260200190815260200160002060009055600d60003373ffffffffffffffffffffffffffffffffffffffff1673ffffffffffffffffffffffffffffffffffffffff16815260200190815260200160002060009055600e60003373ffffffffffffffffffffffffffffffffffffffff1673ffffffffffffffffffffffffffffffffffffffff168152602001908152602001600020600090556001600f60003373ffffffffffffffffffffffffffffffffffffffff1673ffffffffffffffffffffffffffffffffffffffff168152602001908152602001600020600082825461139f91906133dd565b9250508190555060005b60108054905081101561147c573373ffffffffffffffffffffffffffffffffffffffff16601082815481106113e1576113e06135b5565b5b9060005260206000200160009054906101000a900473ffffffffffffffffffffffffffffffffffffffff1673ffffffffffffffffffffffffffffffffffffffff1603611469576010818154811061143b5761143a6135b5565b5b9060005260206000200160006101000a81549073ffffffffffffffffffffffffffffffffffffffff02191690555b8080611474906135e4565b9150506113a9565b50505050505050565b60008060009054906101000a900473ffffffffffffffffffffffffffffffffffffffff1673ffffffffffffffffffffffffffffffffffffffff166370a08231306040518263ffffffff1660e01b81526004016114e191906130ae565b602060405180830381865afa1580156114fe573d6000803e3d6000fd5b505050506040513d601f19601f8201168201806040525081019061152291906133b0565b905090565b60008034905060008103611570576040517f08c379a00000000000000000000000000000000000000000000000000000000081526004016115679061337b565b60405180910390fd5b6000670de0b6b3a76400008261158691906131ef565b905060006010339080600181540180825580915050600190039060005260206000200160009091909190916101000a81548173ffffffffffffffffffffffffffffffffffffffff021916908373ffffffffffffffffffffffffffffffffffffffff160217905550600360009054906101000a900473ffffffffffffffffffffffffffffffffffffffff1673ffffffffffffffffffffffffffffffffffffffff166307a1cf9e6040518163ffffffff1660e01b8152600401602060405180830381865afa15801561165a573d6000803e3d6000fd5b505050506040513d601f19601f8201168201806040525081019061167e91906133b0565b82611689919061317e565b90506000611699846005546104ae565b905083600c60003373ffffffffffffffffffffffffffffffffffffffff1673ffffffffffffffffffffffffffffffffffffffff16815260200190815260200160002060008282546116ea91906133dd565b9250508190555080600d60003373ffffffffffffffffffffffffffffffffffffffff1673ffffffffffffffffffffffffffffffffffffffff168152602001908152602001600020600082825461174091906133dd565b9250508190555081600e60003373ffffffffffffffffffffffffffffffffffffffff1673ffffffffffffffffffffffffffffffffffffffff168152602001908152602001600020600082825461179691906133dd565b92505081905550600160009054906101000a900473ffffffffffffffffffffffffffffffffffffffff1673ffffffffffffffffffffffffffffffffffffffff166394a54a1282336040518363ffffffff1660e01b81526004016117fa929190613725565b600060405180830381600087803b15801561181457600080fd5b505af1158015611828573d6000803e3d6000fd5b50505050600e60003373ffffffffffffffffffffffffffffffffffffffff1673ffffffffffffffffffffffffffffffffffffffff1681526020019081526020016000205494505050505090565b6000600f60003373ffffffffffffffffffffffffffffffffffffffff1673ffffffffffffffffffffffffffffffffffffffff16815260200190815260200160002054905090565b6000600b60003373ffffffffffffffffffffffffffffffffffffffff1673ffffffffffffffffffffffffffffffffffffffff16815260200190815260200160002054905090565b6000600360009054906101000a900473ffffffffffffffffffffffffffffffffffffffff1673ffffffffffffffffffffffffffffffffffffffff166319d747236040518163ffffffff1660e01b8152600401602060405180830381865afa158015611972573d6000803e3d6000fd5b505050506040513d601f19601f8201168201806040525081019061199691906133b0565b905060005b601080549050811015611dff576000670de0b6b3a7640000600c6000601085815481106119cb576119ca6135b5565b5b9060005260206000200160009054906101000a900473ffffffffffffffffffffffffffffffffffffffff1673ffffffffffffffffffffffffffffffffffffffff1673ffffffffffffffffffffffffffffffffffffffff16815260200190815260200160002054611a3b91906131ef565b83611a46919061317e565b9050600e600060108481548110611a6057611a5f6135b5565b5b9060005260206000200160009054906101000a900473ffffffffffffffffffffffffffffffffffffffff1673ffffffffffffffffffffffffffffffffffffffff1673ffffffffffffffffffffffffffffffffffffffff168152602001908152602001600020548111611deb576000600160009054906101000a900473ffffffffffffffffffffffffffffffffffffffff1673ffffffffffffffffffffffffffffffffffffffff1663996e96f06040518163ffffffff1660e01b8152600401602060405180830381865afa158015611b3b573d6000803e3d6000fd5b505050506040513d601f19601f82011682018060405250810190611b5f9190613588565b90508073ffffffffffffffffffffffffffffffffffffffff166108fc600c600060108781548110611b9357611b926135b5565b5b9060005260206000200160009054906101000a900473ffffffffffffffffffffffffffffffffffffffff1673ffffffffffffffffffffffffffffffffffffffff1673ffffffffffffffffffffffffffffffffffffffff168152602001908152602001600020549081150290604051600060405180830381858888f19350505050158015611c24573d6000803e3d6000fd5b50600c600060108581548110611c3d57611c3c6135b5565b5b9060005260206000200160009054906101000a900473ffffffffffffffffffffffffffffffffffffffff1673ffffffffffffffffffffffffffffffffffffffff1673ffffffffffffffffffffffffffffffffffffffff16815260200190815260200160002060009055600d600060108581548110611cbe57611cbd6135b5565b5b9060005260206000200160009054906101000a900473ffffffffffffffffffffffffffffffffffffffff1673ffffffffffffffffffffffffffffffffffffffff1673ffffffffffffffffffffffffffffffffffffffff16815260200190815260200160002060009055600e600060108581548110611d3f57611d3e6135b5565b5b9060005260206000200160009054906101000a900473ffffffffffffffffffffffffffffffffffffffff1673ffffffffffffffffffffffffffffffffffffffff1673ffffffffffffffffffffffffffffffffffffffff1681526020019081526020016000206000905560108381548110611dbc57611dbb6135b5565b5b9060005260206000200160006101000a81549073ffffffffffffffffffffffffffffffffffffffff0219169055505b508080611df7906135e4565b91505061199b565b5050565b6000600a60003373ffffffffffffffffffffffffffffffffffffffff1673ffffffffffffffffffffffffffffffffffffffff16815260200190815260200160002054905090565b6000600960003373ffffffffffffffffffffffffffffffffffffffff1673ffffffffffffffffffffffffffffffffffffffff1681526020019081526020016000205411611ecc576040517f08c379a0000000000000000000000000000000000000000000000000000000008152600401611ec3906132a3565b60405180910390fd5b60008103611f0f576040517f08c379a0000000000000000000000000000000000000000000000000000000008152600401611f069061337b565b60405180910390fd5b8060008054906101000a900473ffffffffffffffffffffffffffffffffffffffff1673ffffffffffffffffffffffffffffffffffffffff166370a08231336040518263ffffffff1660e01b8152600401611f6991906130ae565b602060405180830381865afa158015611f86573d6000803e3d6000fd5b505050506040513d601f19601f82011682018060405250810190611faa91906133b0565b1015611feb576040517f08c379a0000000000000000000000000000000000000000000000000000000008152600401611fe290613483565b60405180910390fd5b6000600360009054906101000a900473ffffffffffffffffffffffffffffffffffffffff1673ffffffffffffffffffffffffffffffffffffffff1663946e34726040518163ffffffff1660e01b8152600401602060405180830381865afa15801561205a573d6000803e3d6000fd5b505050506040513d601f19601f8201168201806040525081019061207e91906133b0565b82612089919061317e565b905060008054906101000a900473ffffffffffffffffffffffffffffffffffffffff1673ffffffffffffffffffffffffffffffffffffffff166323b872dd3330856040518463ffffffff1660e01b81526004016120e8939291906134a3565b6020604051808303816000875af1158015612107573d6000803e3d6000fd5b505050506040513d601f19601f8201168201806040525081019061212b9190613512565b5081600860003373ffffffffffffffffffffffffffffffffffffffff1673ffffffffffffffffffffffffffffffffffffffff168152602001908152602001600020600082825461217b91906133dd565b9250508190555080600a60003373ffffffffffffffffffffffffffffffffffffffff1673ffffffffffffffffffffffffffffffffffffffff16815260200190815260200160002060008282546121d191906133dd565b925050819055505050565b60006064600f60003373ffffffffffffffffffffffffffffffffffffffff1673ffffffffffffffffffffffffffffffffffffffff168152602001908152602001600020600082825461222e91906133dd565b9250508190555090565b6000810361227b576040517f08c379a00000000000000000000000000000000000000000000000000000000081526004016122729061337b565b60405180910390fd5b8060008054906101000a900473ffffffffffffffffffffffffffffffffffffffff1673ffffffffffffffffffffffffffffffffffffffff166370a08231336040518263ffffffff1660e01b81526004016122d591906130ae565b602060405180830381865afa1580156122f2573d6000803e3d6000fd5b505050506040513d601f19601f8201168201806040525081019061231691906133b0565b1015612357576040517f08c379a000000000000000000000000000000000000000000000000000000000815260040161234e90613483565b60405180910390fd5b6011339080600181540180825580915050600190039060005260206000200160009091909190916101000a81548173ffffffffffffffffffffffffffffffffffffffff021916908373ffffffffffffffffffffffffffffffffffffffff16021790555060006001600460009054906101000a900473ffffffffffffffffffffffffffffffffffffffff1673ffffffffffffffffffffffffffffffffffffffff166370a08231336040518263ffffffff1660e01b815260040161241991906130ae565b602060405180830381865afa158015612436573d6000803e3d6000fd5b505050506040513d601f19601f8201168201806040525081019061245a91906133b0565b10612478576000612328905061247083826104ae565b915050612487565b612484826005546104ae565b90505b6000612495836006546104ae565b905060008054906101000a900473ffffffffffffffffffffffffffffffffffffffff1673ffffffffffffffffffffffffffffffffffffffff166323b872dd3330866040518463ffffffff1660e01b81526004016124f4939291906134a3565b6020604051808303816000875af1158015612513573d6000803e3d6000fd5b505050506040513d601f19601f820116820180604052508101906125379190613512565b5060008054906101000a900473ffffffffffffffffffffffffffffffffffffffff1673ffffffffffffffffffffffffffffffffffffffff166323b872dd30600260009054906101000a900473ffffffffffffffffffffffffffffffffffffffff1673ffffffffffffffffffffffffffffffffffffffff16632ad415bd6040518163ffffffff1660e01b8152600401602060405180830381865afa1580156125e2573d6000803e3d6000fd5b505050506040513d601f19601f820116820180604052508101906126069190613588565b846040518463ffffffff1660e01b8152600401612625939291906134a3565b6020604051808303816000875af1158015612644573d6000803e3d6000fd5b505050506040513d601f19601f820116820180604052508101906126689190613512565b5060008184612677919061353f565b90506001600460009054906101000a900473ffffffffffffffffffffffffffffffffffffffff1673ffffffffffffffffffffffffffffffffffffffff166370a08231336040518263ffffffff1660e01b81526004016126d691906130ae565b602060405180830381865afa1580156126f3573d6000803e3d6000fd5b505050506040513d601f19601f8201168201806040525081019061271791906133b0565b10612735576000612328905061272d82826104ae565b935050612744565b612741816005546104ae565b92505b80600860003373ffffffffffffffffffffffffffffffffffffffff1673ffffffffffffffffffffffffffffffffffffffff168152602001908152602001600020600082825461279391906133dd565b9250508190555082600960003373ffffffffffffffffffffffffffffffffffffffff1673ffffffffffffffffffffffffffffffffffffffff16815260200190815260200160002060008282546127e991906133dd565b925050819055506000600360009054906101000a900473ffffffffffffffffffffffffffffffffffffffff1673ffffffffffffffffffffffffffffffffffffffff1663946e34726040518163ffffffff1660e01b8152600401602060405180830381865afa15801561285f573d6000803e3d6000fd5b505050506040513d601f19601f8201168201806040525081019061288391906133b0565b8261288e919061317e565b905080600a60003373ffffffffffffffffffffffffffffffffffffffff1673ffffffffffffffffffffffffffffffffffffffff16815260200190815260200160002060008282546128df91906133dd565b92505081905550600160009054906101000a900473ffffffffffffffffffffffffffffffffffffffff1673ffffffffffffffffffffffffffffffffffffffff1663598c5b4285306040518363ffffffff1660e01b815260040161294392919061374e565b600060405180830381600087803b15801561295d57600080fd5b505af1158015612971573d6000803e3d6000fd5b5050505060008054906101000a900473ffffffffffffffffffffffffffffffffffffffff1673ffffffffffffffffffffffffffffffffffffffff166323b872dd3033876040518463ffffffff1660e01b81526004016129d2939291906134a3565b6020604051808303816000875af11580156129f1573d6000803e3d6000fd5b505050506040513d601f19601f82011682018060405250810190612a159190613512565b505050505050565b6000600360009054906101000a900473ffffffffffffffffffffffffffffffffffffffff1673ffffffffffffffffffffffffffffffffffffffff1663ffa8ce506040518163ffffffff1660e01b8152600401602060405180830381865afa158015612a8c573d6000803e3d6000fd5b505050506040513d601f19601f82011682018060405250810190612ab091906133b0565b905060005b601180549050811015612f605760006008600060118481548110612adc57612adb6135b5565b5b9060005260206000200160009054906101000a900473ffffffffffffffffffffffffffffffffffffffff1673ffffffffffffffffffffffffffffffffffffffff1673ffffffffffffffffffffffffffffffffffffffff1681526020019081526020016000205483612b4d919061317e565b9050600a600060118481548110612b6757612b666135b5565b5b9060005260206000200160009054906101000a900473ffffffffffffffffffffffffffffffffffffffff1673ffffffffffffffffffffffffffffffffffffffff1673ffffffffffffffffffffffffffffffffffffffff168152602001908152602001600020548111612f4c57600060118381548110612be957612be86135b5565b5b9060005260206000200160009054906101000a900473ffffffffffffffffffffffffffffffffffffffff16905060008054906101000a900473ffffffffffffffffffffffffffffffffffffffff1673ffffffffffffffffffffffffffffffffffffffff166323b872dd30600160009054906101000a900473ffffffffffffffffffffffffffffffffffffffff1673ffffffffffffffffffffffffffffffffffffffff1663996e96f06040518163ffffffff1660e01b8152600401602060405180830381865afa158015612cc0573d6000803e3d6000fd5b505050506040513d601f19601f82011682018060405250810190612ce49190613588565b600860008673ffffffffffffffffffffffffffffffffffffffff1673ffffffffffffffffffffffffffffffffffffffff168152602001908152602001600020546040518463ffffffff1660e01b8152600401612d42939291906134a3565b6020604051808303816000875af1158015612d61573d6000803e3d6000fd5b505050506040513d601f19601f82011682018060405250810190612d859190613512565b506008600060118581548110612d9e57612d9d6135b5565b5b9060005260206000200160009054906101000a900473ffffffffffffffffffffffffffffffffffffffff1673ffffffffffffffffffffffffffffffffffffffff1673ffffffffffffffffffffffffffffffffffffffff168152602001908152602001600020600090556009600060118581548110612e1f57612e1e6135b5565b5b9060005260206000200160009054906101000a900473ffffffffffffffffffffffffffffffffffffffff1673ffffffffffffffffffffffffffffffffffffffff1673ffffffffffffffffffffffffffffffffffffffff16815260200190815260200160002060009055600a600060118581548110612ea057612e9f6135b5565b5b9060005260206000200160009054906101000a900473ffffffffffffffffffffffffffffffffffffffff1673ffffffffffffffffffffffffffffffffffffffff1673ffffffffffffffffffffffffffffffffffffffff1681526020019081526020016000206000905560118381548110612f1d57612f1c6135b5565b5b9060005260206000200160006101000a81549073ffffffffffffffffffffffffffffffffffffffff0219169055505b508080612f58906135e4565b915050612ab5565b5050565b60006064600b60003373ffffffffffffffffffffffffffffffffffffffff1673ffffffffffffffffffffffffffffffffffffffff1681526020019081526020016000206000828254612fb691906133dd565b9250508190555090565b600047905090565b6000819050919050565b612fdb81612fc8565b82525050565b6000602082019050612ff66000830184612fd2565b92915050565b600080fd5b61300a81612fc8565b811461301557600080fd5b50565b60008135905061302781613001565b92915050565b6000806040838503121561304457613043612ffc565b5b600061305285828601613018565b925050602061306385828601613018565b9150509250929050565b600073ffffffffffffffffffffffffffffffffffffffff82169050919050565b60006130988261306d565b9050919050565b6130a88161308d565b82525050565b60006020820190506130c3600083018461309f565b92915050565b6130d28161308d565b81146130dd57600080fd5b50565b6000813590506130ef816130c9565b92915050565b60006020828403121561310b5761310a612ffc565b5b6000613119848285016130e0565b91505092915050565b60006020828403121561313857613137612ffc565b5b600061314684828501613018565b91505092915050565b7f4e487b7100000000000000000000000000000000000000000000000000000000600052601160045260246000fd5b600061318982612fc8565b915061319483612fc8565b92508282026131a281612fc8565b915082820484148315176131b9576131b861314f565b5b5092915050565b7f4e487b7100000000000000000000000000000000000000000000000000000000600052601260045260246000fd5b60006131fa82612fc8565b915061320583612fc8565b925082613215576132146131c0565b5b828204905092915050565b600082825260208201905092915050565b7f596f7520646f206e6f74206861766520616e79206f75747374616e64696e672060008201527f6465627400000000000000000000000000000000000000000000000000000000602082015250565b600061328d602483613220565b915061329882613231565b604082019050919050565b600060208201905081810360008301526132bc81613280565b9050919050565b7f596f7520646f206e6f742068617665206f75747374616e64696e672064656274600082015250565b60006132f9602083613220565b9150613304826132c3565b602082019050919050565b60006020820190508181036000830152613328816132ec565b9050919050565b7f506c6561736520707574206d6f726520636f6c6c61746572616c000000000000600082015250565b6000613365601a83613220565b91506133708261332f565b602082019050919050565b6000602082019050818103600083015261339481613358565b9050919050565b6000815190506133aa81613001565b92915050565b6000602082840312156133c6576133c5612ffc565b5b60006133d48482850161339b565b91505092915050565b60006133e882612fc8565b91506133f383612fc8565b925082820190508082111561340b5761340a61314f565b5b92915050565b7f596f7520646f206e6f74206861766520656e6f756768204156415820746f6b6560008201527f6e21000000000000000000000000000000000000000000000000000000000000602082015250565b600061346d602283613220565b915061347882613411565b604082019050919050565b6000602082019050818103600083015261349c81613460565b9050919050565b60006060820190506134b8600083018661309f565b6134c5602083018561309f565b6134d26040830184612fd2565b949350505050565b60008115159050919050565b6134ef816134da565b81146134fa57600080fd5b50565b60008151905061350c816134e6565b92915050565b60006020828403121561352857613527612ffc565b5b6000613536848285016134fd565b91505092915050565b600061354a82612fc8565b915061355583612fc8565b925082820390508181111561356d5761356c61314f565b5b92915050565b600081519050613582816130c9565b92915050565b60006020828403121561359e5761359d612ffc565b5b60006135ac84828501613573565b91505092915050565b7f4e487b7100000000000000000000000000000000000000000000000000000000600052603260045260246000fd5b60006135ef82612fc8565b91507fffffffffffffffffffffffffffffffffffffffffffffffffffffffffffffffff82036136215761362061314f565b5b600182019050919050565b7f56616c756520696e736572746564206973206e6f7420656e6f75676800000000600082015250565b6000613662601c83613220565b915061366d8261362c565b602082019050919050565b6000602082019050818103600083015261369181613655565b9050919050565b7f4552524f52000000000000000000000000000000000000000000000000000000600082015250565b60006136ce600583613220565b91506136d982613698565b602082019050919050565b600060208201905081810360008301526136fd816136c1565b9050919050565b600061370f8261306d565b9050919050565b61371f81613704565b82525050565b600060408201905061373a6000830185612fd2565b6137476020830184613716565b9392505050565b60006040820190506137636000830185612fd2565b613770602083018461309f565b939250505056fea2646970667358221220537adf2aef70733dadca401887e371a163e77673022fc3bec39db4c442d686ef64736f6c63430008110033",
  "immutableReferences": {},
  "source": "// SPDX-License-Identifier: MIT\npragma solidity ^0.8.7;\nimport \"./LiquidityPool.sol\";\nimport \"./ERC20.sol\";\nimport \"./Reserves.sol\";\nimport \"./PriceFeed.sol\";\nimport \"./Avax.sol\";\nimport \"./IdentityToken.sol\";\nimport \"./Math.sol\";\n\ncontract Lending {\n    Avax avaxToken;\n    LiquidityPool liquidityPool;\n    Reserves reserves;\n    PriceFeed priceFeed;\n    IdentityToken identityToken;\n    uint256 _maximumLendingPercentage = 8500; //85% of collateral\n    uint256 _lendingFee = 500; //5% of total collateral\n    address _debtOwner = msg.sender;\n\n    mapping(address => uint256) AVAXCollateralLedger;\n    mapping(address => uint256) AVAXLoanLedger;\n    mapping(address => uint256) AVAXCollateralValueLedgerinUSD;\n    mapping(address => uint256) AVAXCUserTotalReturnTransactions;\n\n    mapping(address => uint256) ETHCollateralLedger;\n    mapping(address => uint256) ETHLoanLedger;\n    mapping(address => uint256) ETHCollateralValueLedgerinUSD;\n    mapping(address => uint256) ETHUserTotalReturnTransactions;\n\n    address[] ETHDebtors; // keep track who is still has outstanding loans\n    address[] AVAXDebtors; // keep track who is still has outstanding loans\n    \n     constructor(Avax avaxTokenAddress, LiquidityPool lp, Reserves reservesAddress, PriceFeed pf, IdentityToken identityTokenAddress) {\n        avaxToken = avaxTokenAddress;\n        liquidityPool = lp;\n        reserves = reservesAddress;\n        priceFeed = pf;\n        identityToken = identityTokenAddress;\n    }\n\n    //Take collateral and give 85% \n    function borrowAVAX(uint256 depositCollateral) public {\n        require(depositCollateral != 0, \"Please put more collateral\");\n        require (avaxToken.balanceOf(msg.sender) >= depositCollateral, \"You do not have enough AVAX token!\");\n        AVAXDebtors.push(msg.sender);\n        uint256 _loanAmount = 0; // set to 0 intially\n\n        //Give the user a better rate of only needing 90% collateral if he has a token, else give the usual 85% needed\n        if (identityToken.balanceOf(msg.sender) >= 1) {\n            uint256 verifiedRate = 9000; // 90% collateral needed\n            _loanAmount = calculatePercentage(depositCollateral, verifiedRate); //90% of collateral\n        } else {\n            _loanAmount = calculatePercentage(depositCollateral, _maximumLendingPercentage); //85% of collateral\n        }\n        //Directly deduct the 5% commission first and loan out the rest\n        //User collateral will then be 95% of what is deposited\n        uint256 lendingFeeToDeduct = calculatePercentage(depositCollateral, _lendingFee); //Calculate the avax taken as comission 5%\n        avaxToken.transferFrom(msg.sender, address(this), depositCollateral); //Take user collateral first\n        avaxToken.transferFrom(address(this), reserves.getReservesAddress(), lendingFeeToDeduct); //Transfer 5% to the reserves first\n        uint256 depositCollateralAfterComissionFee = depositCollateral - lendingFeeToDeduct;\n\n       //Calculate the Loan amount\n        //Give the user a better rate of only needing 90% collateral if he has a token, else give the usual 85% needed\n        if (identityToken.balanceOf(msg.sender) >= 1) {\n            uint256 verifiedRate = 9000; // 90% collateral needed\n            _loanAmount = calculatePercentage(depositCollateralAfterComissionFee, verifiedRate); //90% of collateral\n        } else {\n            _loanAmount = calculatePercentage(depositCollateralAfterComissionFee, _maximumLendingPercentage); //85% of new collateral\n        }\n\n        AVAXCollateralLedger[msg.sender] += depositCollateralAfterComissionFee;\n        AVAXLoanLedger[msg.sender] += _loanAmount;\n\n        uint256 depositCollateralInUSD = depositCollateralAfterComissionFee * priceFeed.getAvaxPriceFirst(); //in USD\n        AVAXCollateralValueLedgerinUSD[msg.sender] += depositCollateralInUSD;\n\n        //address liqudityPoolAddress = liquidityPool.getLPAddress();\n        //avaxToken.transferFrom(msg.sender, address(this), depositCollateralAfterComissionFee); //Transfer borrower collateral to this contract\n        liquidityPool.sendAvaxToLendingContract(_loanAmount, address(this)); // Transfer AVAX from LP to this contract\n        avaxToken.transferFrom(address(this), msg.sender, _loanAmount); //Take assets from Liquidity Pool and send to borrower\n    }\n\n    function repayAVAXDebt() public onlyAVAXDebtHolder {\n        //require only the person who loan it can pay back\n        uint256 amountToReturn = AVAXLoanLedger[msg.sender]; //Get amount to return from AvaxLoanLedger\n        require (avaxToken.balanceOf(msg.sender) >= amountToReturn, \"You do not have enough AVAX token!\");\n\n        uint256 collateralAmount = AVAXCollateralLedger[msg.sender]; //Get the collteral that is held by the Smart contract\n        avaxToken.transferFrom(msg.sender, address(this), amountToReturn); //Transfer USDC to pay back from wallet to this smart contract\n        uint256 lendingFeeToDeduct = calculatePercentage(collateralAmount, _lendingFee); //Calculate the avax taken as comission 5%\n        avaxToken.transferFrom(address(this), msg.sender, (collateralAmount - lendingFeeToDeduct)); //Transfer only 95% back\n        avaxToken.transferFrom(address(this), reserves.getReservesAddress(), lendingFeeToDeduct); //Transfer 5% to the reserves\n        \n        delete AVAXCollateralLedger[msg.sender]; //Reset the ledger as the loan has been paid\n        delete AVAXLoanLedger[msg.sender]; //Reset the ledger as the loan has been paid\n        delete AVAXCollateralValueLedgerinUSD[msg.sender];\n        AVAXCUserTotalReturnTransactions[msg.sender] += 1;\n\n        for (uint256 i = 0; i < AVAXDebtors.length; i++) {\n            if (AVAXDebtors[i] == msg.sender) {\n                delete AVAXDebtors[i];\n            }\n        }\n    }\n\n    function topUpAVAXCollateral(uint256 topUpCollateral) public onlyAVAXDebtHolder {\n        \n        require(topUpCollateral != 0, \"Please put more collateral\");\n        require (avaxToken.balanceOf(msg.sender) >= topUpCollateral, \"You do not have enough AVAX token!\");\n        uint256 topUpCollateralInUSD; \n        topUpCollateralInUSD = topUpCollateral * priceFeed.getAvaxPriceFirst(); //in USD\n        avaxToken.transferFrom(msg.sender, address(this), topUpCollateral);\n\n        AVAXCollateralLedger[msg.sender] += topUpCollateral;\n        AVAXCollateralValueLedgerinUSD[msg.sender] += topUpCollateralInUSD;\n    }\n\n     function liquidateAVAX() public {\n        uint256 currentPriceOfAVAX = priceFeed.getAvaxPriceToLiquidate();\n        for (uint i = 0; i < AVAXDebtors.length; i++) {\n            uint256 newCollateralPrice = (currentPriceOfAVAX * (AVAXCollateralLedger[AVAXDebtors[i]]));\n            if (newCollateralPrice <= AVAXCollateralValueLedgerinUSD[AVAXDebtors[i]]) {\n                //liquidate by sending collateral to the pool\n                 //addressToSend.transfer(ETHCollateralLedger[ETHDebtors[i]]);\n                 address accountAddress = AVAXDebtors[i];\n                 avaxToken.transferFrom(address(this), liquidityPool.getLPAddress(), AVAXCollateralLedger[accountAddress]);\n                 delete AVAXCollateralLedger[AVAXDebtors[i]]; //Reset the ledger as the loan has been Liquidated\n                 delete AVAXLoanLedger[AVAXDebtors[i]]; //Reset the ledger as the loan has been Liquidated\n                 delete AVAXCollateralValueLedgerinUSD[AVAXDebtors[i]];\n                 delete AVAXDebtors[i];\n            }\n        }\n    }\n\n     //Take collateral and give 85% \n    function borrowEth() public payable returns (uint256) {\n        uint256 depositCollateral = msg.value;\n        require(depositCollateral != 0, \"Please put more collateral\");\n        uint256 depositCollateralInEth = depositCollateral / 1000000000000000000;\n        uint256 depositCollateralInUSD; \n        ETHDebtors.push(msg.sender);\n        depositCollateralInUSD = depositCollateralInEth * priceFeed.getEthPriceFirst(); //in USD\n\n        uint256 _loanAmount = calculatePercentage(depositCollateral, _maximumLendingPercentage); //85% of collateral\n        ETHCollateralLedger[msg.sender] += depositCollateral;\n        ETHLoanLedger[msg.sender] += _loanAmount;\n        ETHCollateralValueLedgerinUSD[msg.sender] += depositCollateralInUSD;\n        \n        liquidityPool.sendEthToLender(_loanAmount, payable(msg.sender));\n        return ETHCollateralValueLedgerinUSD[msg.sender];\n    }\n\n    function topUpETHCollateral() public payable onlyEthDebtHolder {\n        uint256 topUpCollateral = msg.value;\n        require(topUpCollateral != 0, \"Please put more collateral\");\n        uint256 topUpCollateralInEth = topUpCollateral / 1000000000000000000;\n        uint256 topUpCollateralInUSD; \n        topUpCollateralInUSD = topUpCollateralInEth * priceFeed.getEthPriceFirst(); //in USD\n\n        ETHCollateralLedger[msg.sender] += topUpCollateral;\n        ETHCollateralValueLedgerinUSD[msg.sender] += topUpCollateralInUSD;\n    }\n\n   \n\n    function repayEth() public payable onlyEthDebtHolder {\n        //require only the person who loan it can pay back\n     \n        uint256 amountToReturn = ETHLoanLedger[msg.sender]; //Get amount to return from USDCLoanLedger\n        require (msg.value >= amountToReturn, \"Value inserted is not enough\");\n        uint256 collateralAmount = ETHCollateralLedger[msg.sender]; //Get the collteral that is held by the Smart contract\n       \n        uint256 lendingFeeToDeduct = calculatePercentage(collateralAmount, _lendingFee); //Calculate the avax taken as comission 5%\n        address payable addressToSend = payable (msg.sender);\n        addressToSend.transfer(collateralAmount - lendingFeeToDeduct); //Transfer Collateral - lending fee From This contract back to msg.sender\n        //Send back to LP\n        require (address(this).balance >= amountToReturn, \"ERROR\");\n        address payable lpAddress = payable (liquidityPool.getLPAddress());\n        lpAddress.transfer(amountToReturn);\n\n        //Send comissionFee to reserves\n        address payable reservesAddress = payable(reserves.getReservesAddress());\n        reservesAddress.transfer(lendingFeeToDeduct);\n\n        delete ETHCollateralLedger[msg.sender]; //Reset the ledger as the loan has been paid\n        delete ETHLoanLedger[msg.sender]; //Reset the ledger as the loan has been paid\n        delete ETHCollateralValueLedgerinUSD[msg.sender];\n        ETHUserTotalReturnTransactions[msg.sender] += 1;\n        \n        for (uint256 i = 0; i < ETHDebtors.length; i++) {\n            if (ETHDebtors[i] == msg.sender) {\n                delete ETHDebtors[i];\n            }\n        }\n    }\n           \n    function liquidateETH() public payable {\n        uint256 currentPriceOfEth = priceFeed.getEthPriceToLiquidate();\n        for (uint i = 0; i < ETHDebtors.length; i++) {\n            uint256 newCollateralPrice = (currentPriceOfEth * (ETHCollateralLedger[ETHDebtors[i]] / 1000000000000000000));\n            if (newCollateralPrice <= ETHCollateralValueLedgerinUSD[ETHDebtors[i]]) {\n                //liquidate by sending collateral to the pool\n                address payable addressToSend = payable (liquidityPool.getLPAddress());\n                addressToSend.transfer(ETHCollateralLedger[ETHDebtors[i]]);\n                 delete ETHCollateralLedger[ETHDebtors[i]]; //Reset the ledger as the loan has been Liquidated\n                 delete ETHLoanLedger[ETHDebtors[i]]; //Reset the ledger as the loan has been Liquidated\n                 delete ETHCollateralValueLedgerinUSD[ETHDebtors[i]];\n                 delete ETHDebtors[i];\n            }\n        }\n    }\n\n    function getUserAVAXCollateralAmountInUSD() public view returns (uint256) {\n       return AVAXCollateralValueLedgerinUSD[msg.sender];\n    }\n\n    function getUserAvaxLiquidationPrice() public view returns (uint256) {\n       return ((AVAXCollateralLedger[msg.sender] * 9000) / 10_000); \n    }\n\n    function getUserTotaETHRepaymentAmount() public view returns (uint256) {\n        return ETHUserTotalReturnTransactions[msg.sender];\n    }\n\n    function getUserTotaAVAXRepaymentAmount() public view returns (uint256) {\n        return AVAXCUserTotalReturnTransactions[msg.sender];\n    }\n\n    //For testing purposes\n    function initUserTotalEthRepaymentAmount() public returns (uint256) {\n       ETHUserTotalReturnTransactions[msg.sender] += 100;\n    }\n\n    function initUserTotalAVAXRepaymentAmount() public returns (uint256) {\n       AVAXCUserTotalReturnTransactions[msg.sender] += 100;\n    }\n\n    //This function calculates Percentages\n    //Used to calculate the amount of Loan that can be given and platform lendingFees\n    //e.g \n    //Assume collateral = 100, desired percentage = 85%\n    //function returns 85\n\n    function calculatePercentage(uint256 collateralAmount, uint256 percentage) public pure returns (uint256) {\n        return (collateralAmount * percentage) / 10_000;\n    }\n\n    function getHoldingAVAXCollateral() public view returns (uint256) {\n        return avaxToken.balanceOf(address(this));\n    }\n\n    function getHoldingEthCollateral() public view returns (uint256) {\n        return address(this).balance;\n    }\n\n    //Functions to return the amount of Debt the msg.sender has in USDC\n    function getAVAXDebt() public view onlyAVAXDebtHolder returns (uint256) {\n        return (AVAXLoanLedger[msg.sender]);\n    }\n\n    function getAddress() public view returns (address) {\n        return address(this);\n    }\n\n    //Function to return transaction count\n    function getTotalTransactionCount(address user) public view returns (uint256) {\n        return AVAXCUserTotalReturnTransactions[user] + ETHUserTotalReturnTransactions[user];\n    }\n\n    modifier onlyAVAXDebtHolder() {\n        require(AVAXLoanLedger[msg.sender] > 0, \"You do not have any outstanding debt\");\n        _;\n    }\n\n    modifier onlyEthDebtHolder() {\n        require(ETHLoanLedger[msg.sender] > 0, \"You do not have outstanding debt\");\n        _;\n    }\n\n    function hello() public view returns (uint256) {\n        uint256 x = 1;\n        return 1 * 100;\n    }\n\n     /*\n     modifier enoughAVAXInWallet() {\n        require(avaxToken.balanceOf(msg.sender) > 0, \"You do not have enough USDC to repay this debt\");\n        _;\n    }\n    */\n}",
  "sourcePath": "/Users/alwin/Developer/Liquiditas/contracts/Lending.sol",
  "compiler": {
    "name": "solc",
    "version": "0.8.17+commit.8df45f5f.Emscripten.clang"
  },
  "schemaVersion": "3.4.11",
  "updatedAt": "2023-03-22T07:53:26.634Z",
  "devdoc": {
    "kind": "dev",
    "methods": {},
    "version": 1
  },
  "userdoc": {
    "kind": "user",
    "methods": {},
    "version": 1
  }
}