{
  "contractName": "Lending",
  "abi": [
    {
      "inputs": [
        {
          "internalType": "contract USDC",
          "name": "usdcTokenAddress",
          "type": "address"
        },
        {
          "internalType": "contract LiquidityPool",
          "name": "lp",
          "type": "address"
        },
        {
          "internalType": "contract Reserves",
          "name": "reservesAddress",
          "type": "address"
        }
      ],
      "stateMutability": "nonpayable",
      "type": "constructor"
    },
    {
      "inputs": [
        {
          "internalType": "uint256",
          "name": "depositCollateral",
          "type": "uint256"
        }
      ],
      "name": "borrowUSDC",
      "outputs": [],
      "stateMutability": "nonpayable",
      "type": "function"
    },
    {
      "inputs": [],
      "name": "repayUSDCDebt",
      "outputs": [],
      "stateMutability": "nonpayable",
      "type": "function"
    },
    {
      "inputs": [
        {
          "internalType": "uint256",
          "name": "collateralAmount",
          "type": "uint256"
        },
        {
          "internalType": "uint256",
          "name": "percentage",
          "type": "uint256"
        }
      ],
      "name": "calculatePercentage",
      "outputs": [
        {
          "internalType": "uint256",
          "name": "",
          "type": "uint256"
        }
      ],
      "stateMutability": "pure",
      "type": "function"
    },
    {
      "inputs": [],
      "name": "getHoldingUSDCCollateral",
      "outputs": [
        {
          "internalType": "uint256",
          "name": "",
          "type": "uint256"
        }
      ],
      "stateMutability": "view",
      "type": "function"
    },
    {
      "inputs": [],
      "name": "getHoldingEthCollateral",
      "outputs": [
        {
          "internalType": "uint256",
          "name": "",
          "type": "uint256"
        }
      ],
      "stateMutability": "view",
      "type": "function"
    },
    {
      "inputs": [],
      "name": "getUSDCDebt",
      "outputs": [
        {
          "internalType": "uint256",
          "name": "",
          "type": "uint256"
        }
      ],
      "stateMutability": "view",
      "type": "function"
    }
  ],
  "bytecode": "0x60806040526121346003556101f460045533600560006101000a81548173ffffffffffffffffffffffffffffffffffffffff021916908373ffffffffffffffffffffffffffffffffffffffff1602179055503480156200005e57600080fd5b506040516200128d3803806200128d833981810160405281019062000084919062000257565b826000806101000a81548173ffffffffffffffffffffffffffffffffffffffff021916908373ffffffffffffffffffffffffffffffffffffffff16021790555081600160006101000a81548173ffffffffffffffffffffffffffffffffffffffff021916908373ffffffffffffffffffffffffffffffffffffffff16021790555080600260006101000a81548173ffffffffffffffffffffffffffffffffffffffff021916908373ffffffffffffffffffffffffffffffffffffffff160217905550505050620002b3565b600080fd5b600073ffffffffffffffffffffffffffffffffffffffff82169050919050565b6000620001818262000154565b9050919050565b6000620001958262000174565b9050919050565b620001a78162000188565b8114620001b357600080fd5b50565b600081519050620001c7816200019c565b92915050565b6000620001da8262000174565b9050919050565b620001ec81620001cd565b8114620001f857600080fd5b50565b6000815190506200020c81620001e1565b92915050565b60006200021f8262000174565b9050919050565b620002318162000212565b81146200023d57600080fd5b50565b600081519050620002518162000226565b92915050565b6000806000606084860312156200027357620002726200014f565b5b60006200028386828701620001b6565b93505060206200029686828701620001fb565b9250506040620002a98682870162000240565b9150509250925092565b610fca80620002c36000396000f3fe608060405234801561001057600080fd5b50600436106100625760003560e01c806307c78bcf146100675780630dca072f146100715780632133e3b91461008f5780632a17dc8f146100bf5780637a9fe9ff146100dd578063fcd6e191146100f9575b600080fd5b61006f610117565b005b61007961061b565b6040516100869190610a79565b60405180910390f35b6100a960048036038101906100a49190610ac5565b6106bd565b6040516100b69190610a79565b60405180910390f35b6100c76106e0565b6040516100d49190610a79565b60405180910390f35b6100f760048036038101906100f29190610b05565b6107a8565b005b610101610a58565b60405161010e9190610a79565b60405180910390f35b6000600760003373ffffffffffffffffffffffffffffffffffffffff1673ffffffffffffffffffffffffffffffffffffffff1681526020019081526020016000205411610199576040517f08c379a000000000000000000000000000000000000000000000000000000000815260040161019090610bb5565b60405180910390fd5b60008060009054906101000a900473ffffffffffffffffffffffffffffffffffffffff1673ffffffffffffffffffffffffffffffffffffffff166370a08231336040518263ffffffff1660e01b81526004016101f59190610c16565b602060405180830381865afa158015610212573d6000803e3d6000fd5b505050506040513d601f19601f820116820180604052508101906102369190610c46565b11610276576040517f08c379a000000000000000000000000000000000000000000000000000000000815260040161026d90610ce5565b60405180910390fd5b6000600760003373ffffffffffffffffffffffffffffffffffffffff1673ffffffffffffffffffffffffffffffffffffffff1681526020019081526020016000205490506000600660003373ffffffffffffffffffffffffffffffffffffffff1673ffffffffffffffffffffffffffffffffffffffff16815260200190815260200160002054905060008054906101000a900473ffffffffffffffffffffffffffffffffffffffff1673ffffffffffffffffffffffffffffffffffffffff166323b872dd3330856040518463ffffffff1660e01b815260040161035b93929190610d05565b6020604051808303816000875af115801561037a573d6000803e3d6000fd5b505050506040513d601f19601f8201168201806040525081019061039e9190610d74565b5060006103ad826004546106bd565b905060008054906101000a900473ffffffffffffffffffffffffffffffffffffffff1673ffffffffffffffffffffffffffffffffffffffff166323b872dd303384866103f99190610dd0565b6040518463ffffffff1660e01b815260040161041793929190610d05565b6020604051808303816000875af1158015610436573d6000803e3d6000fd5b505050506040513d601f19601f8201168201806040525081019061045a9190610d74565b5060008054906101000a900473ffffffffffffffffffffffffffffffffffffffff1673ffffffffffffffffffffffffffffffffffffffff166323b872dd30600260009054906101000a900473ffffffffffffffffffffffffffffffffffffffff1673ffffffffffffffffffffffffffffffffffffffff16632ad415bd6040518163ffffffff1660e01b8152600401602060405180830381865afa158015610505573d6000803e3d6000fd5b505050506040513d601f19601f820116820180604052508101906105299190610e30565b846040518463ffffffff1660e01b815260040161054893929190610d05565b6020604051808303816000875af1158015610567573d6000803e3d6000fd5b505050506040513d601f19601f8201168201806040525081019061058b9190610d74565b506000600660003373ffffffffffffffffffffffffffffffffffffffff1673ffffffffffffffffffffffffffffffffffffffff168152602001908152602001600020819055506000600760003373ffffffffffffffffffffffffffffffffffffffff1673ffffffffffffffffffffffffffffffffffffffff16815260200190815260200160002081905550505050565b60008060009054906101000a900473ffffffffffffffffffffffffffffffffffffffff1673ffffffffffffffffffffffffffffffffffffffff166370a08231306040518263ffffffff1660e01b81526004016106779190610c16565b602060405180830381865afa158015610694573d6000803e3d6000fd5b505050506040513d601f19601f820116820180604052508101906106b89190610c46565b905090565b600061271082846106ce9190610e5d565b6106d89190610ece565b905092915050565b600080600760003373ffffffffffffffffffffffffffffffffffffffff1673ffffffffffffffffffffffffffffffffffffffff1681526020019081526020016000205411610763576040517f08c379a000000000000000000000000000000000000000000000000000000000815260040161075a90610bb5565b60405180910390fd5b600760003373ffffffffffffffffffffffffffffffffffffffff1673ffffffffffffffffffffffffffffffffffffffff16815260200190815260200160002054905090565b600081036107eb576040517f08c379a00000000000000000000000000000000000000000000000000000000081526004016107e290610f4b565b60405180910390fd5b60006107f9826003546106bd565b905081600660003373ffffffffffffffffffffffffffffffffffffffff1673ffffffffffffffffffffffffffffffffffffffff1681526020019081526020016000208190555080600760003373ffffffffffffffffffffffffffffffffffffffff1673ffffffffffffffffffffffffffffffffffffffff1681526020019081526020016000208190555060008054906101000a900473ffffffffffffffffffffffffffffffffffffffff1673ffffffffffffffffffffffffffffffffffffffff166323b872dd3330856040518463ffffffff1660e01b81526004016108e093929190610d05565b6020604051808303816000875af11580156108ff573d6000803e3d6000fd5b505050506040513d601f19601f820116820180604052508101906109239190610d74565b50600160009054906101000a900473ffffffffffffffffffffffffffffffffffffffff1673ffffffffffffffffffffffffffffffffffffffff166307cc30f682306040518363ffffffff1660e01b8152600401610981929190610f6b565b600060405180830381600087803b15801561099b57600080fd5b505af11580156109af573d6000803e3d6000fd5b5050505060008054906101000a900473ffffffffffffffffffffffffffffffffffffffff1673ffffffffffffffffffffffffffffffffffffffff166323b872dd3033846040518463ffffffff1660e01b8152600401610a1093929190610d05565b6020604051808303816000875af1158015610a2f573d6000803e3d6000fd5b505050506040513d601f19601f82011682018060405250810190610a539190610d74565b505050565b600047905090565b6000819050919050565b610a7381610a60565b82525050565b6000602082019050610a8e6000830184610a6a565b92915050565b600080fd5b610aa281610a60565b8114610aad57600080fd5b50565b600081359050610abf81610a99565b92915050565b60008060408385031215610adc57610adb610a94565b5b6000610aea85828601610ab0565b9250506020610afb85828601610ab0565b9150509250929050565b600060208284031215610b1b57610b1a610a94565b5b6000610b2984828501610ab0565b91505092915050565b600082825260208201905092915050565b7f596f7520646f206e6f74206861766520616e79206f75747374616e64696e672060008201527f6465627400000000000000000000000000000000000000000000000000000000602082015250565b6000610b9f602483610b32565b9150610baa82610b43565b604082019050919050565b60006020820190508181036000830152610bce81610b92565b9050919050565b600073ffffffffffffffffffffffffffffffffffffffff82169050919050565b6000610c0082610bd5565b9050919050565b610c1081610bf5565b82525050565b6000602082019050610c2b6000830184610c07565b92915050565b600081519050610c4081610a99565b92915050565b600060208284031215610c5c57610c5b610a94565b5b6000610c6a84828501610c31565b91505092915050565b7f596f7520646f206e6f74206861766520656e6f756768205553444320746f207260008201527f6570617920746869732064656274000000000000000000000000000000000000602082015250565b6000610ccf602e83610b32565b9150610cda82610c73565b604082019050919050565b60006020820190508181036000830152610cfe81610cc2565b9050919050565b6000606082019050610d1a6000830186610c07565b610d276020830185610c07565b610d346040830184610a6a565b949350505050565b60008115159050919050565b610d5181610d3c565b8114610d5c57600080fd5b50565b600081519050610d6e81610d48565b92915050565b600060208284031215610d8a57610d89610a94565b5b6000610d9884828501610d5f565b91505092915050565b7f4e487b7100000000000000000000000000000000000000000000000000000000600052601160045260246000fd5b6000610ddb82610a60565b9150610de683610a60565b9250828203905081811115610dfe57610dfd610da1565b5b92915050565b610e0d81610bf5565b8114610e1857600080fd5b50565b600081519050610e2a81610e04565b92915050565b600060208284031215610e4657610e45610a94565b5b6000610e5484828501610e1b565b91505092915050565b6000610e6882610a60565b9150610e7383610a60565b9250828202610e8181610a60565b91508282048414831517610e9857610e97610da1565b5b5092915050565b7f4e487b7100000000000000000000000000000000000000000000000000000000600052601260045260246000fd5b6000610ed982610a60565b9150610ee483610a60565b925082610ef457610ef3610e9f565b5b828204905092915050565b7f506c6561736520707574206d6f726520636f6c6c61746572616c000000000000600082015250565b6000610f35601a83610b32565b9150610f4082610eff565b602082019050919050565b60006020820190508181036000830152610f6481610f28565b9050919050565b6000604082019050610f806000830185610a6a565b610f8d6020830184610c07565b939250505056fea2646970667358221220071e0e66ae0f56764d14f6dc163270cbce4a254d31d3d0dc4dba4abbaadac06664736f6c63430008110033",
  "immutableReferences": {},
  "source": "// SPDX-License-Identifier: MIT\npragma solidity ^0.8.7;\nimport \"./USDC.sol\";\nimport \"./LiquidityPool.sol\";\nimport \"./ERC20.sol\";\nimport \"./Reserves.sol\";\n\ncontract Lending {\n    USDC usdcToken;\n    LiquidityPool liquidtyPool;\n    Reserves reserves;\n    uint256 _maximumLendingPercentage = 8500; //85% of collateral\n    uint256 _lendingFee = 500; //5% of total collateral\n    //uint256 _holdingCollateral = 0; \n    //uint256 _loanAmount = 0;\n    address _debtOwner = msg.sender;\n\n    //Map addresss to collateral?\n    mapping(address => uint256) USDCCollateralLedger;\n    mapping(address => uint256) USDCLoanLedger;\n\n     constructor(USDC usdcTokenAddress, LiquidityPool lp, Reserves reservesAddress) {\n        usdcToken = usdcTokenAddress;\n        liquidtyPool = lp;\n        reserves = reservesAddress;\n    }\n\n    //Take collateral and give 85% \n    function borrowUSDC(uint256 depositCollateral) public {\n        require(depositCollateral != 0, \"Please put more collateral\");\n        uint256 _loanAmount = calculatePercentage(depositCollateral, _maximumLendingPercentage); //85% of collateral\n        USDCCollateralLedger[msg.sender] = depositCollateral;\n        USDCLoanLedger[msg.sender] = _loanAmount;\n        usdcToken.transferFrom(msg.sender, address(this), depositCollateral); //Transfer borrower collateral to this contract\n        liquidtyPool.sendUSDCToLendingContract(_loanAmount, address(this)); // Transfer USDC from LP to this contract\n        usdcToken.transferFrom(address(this), msg.sender, _loanAmount); //Take assets from Liquidity Pool and send to borrower\n    }\n\n    function repayUSDCDebt() public onlyUSDCDebtHolder enoughUSDCInWallet {\n        //require only the person who loan it can pay back\n        uint256 amountToReturn = USDCLoanLedger[msg.sender]; //Get amount to return from USDCLoanLedger\n        uint256 collateralAmount = USDCCollateralLedger[msg.sender]; //Get the collteral that is held by the Smart contract\n        usdcToken.transferFrom(msg.sender, address(this), amountToReturn); //Transfer USDC to pay back from wallet to this smart contract\n        uint256 lendingFeeToDeduct = calculatePercentage(collateralAmount, _lendingFee); //Calculate the USDC taken as comission 5%\n        usdcToken.transferFrom(address(this), msg.sender, (collateralAmount - lendingFeeToDeduct)); //Transfer only 95% back\n        usdcToken.transferFrom(address(this), reserves.getReservesAddress(), lendingFeeToDeduct); //Transfer 5% to the reserves\n        USDCCollateralLedger[msg.sender] = 0; //Reset the ledger as the loan has been paid\n        USDCLoanLedger[msg.sender] = 0; //Reset the ledger as the loan has been paid\n    }\n\n    //This function calculates Percentages\n    //Used to calculate the amount of Loan that can be given and platform lendingFees\n    //e.g \n    //Assume collateral = 100, desired percentage = 85%\n    //function returns 85\n\n    function calculatePercentage(uint256 collateralAmount, uint256 percentage) public pure returns (uint256) {\n        return (collateralAmount * percentage) / 10_000;\n    }\n\n    function getHoldingUSDCCollateral() public view returns (uint256) {\n        return usdcToken.balanceOf(address(this));\n    }\n\n    function getHoldingEthCollateral() public view returns (uint256) {\n        return address(this).balance;\n    }\n\n    //Functions to return the amount of Debt the msg.sender has in USDC\n    function getUSDCDebt() public view onlyUSDCDebtHolder returns (uint256) {\n        return (USDCLoanLedger[msg.sender]);\n    }\n\n    /*\n    //Functions to return the amount of Debt the msg.sender has in Eth\n    function getEthDebt() public view onlyUSDCDebtHolder returns (uint256) {\n        return (EthLedger[msg.sender]);\n    }\n    */\n\n     modifier onlyUSDCDebtHolder() {\n        require(USDCLoanLedger[msg.sender] > 0, \"You do not have any outstanding debt\");\n        _;\n    }\n\n    /*\n    modifier onlyEthDebtHolder() {\n        require(EthLedger[msg.sender] > 0, \"You do not have outstanding debt\");\n        _;\n    }\n    */\n\n     modifier enoughUSDCInWallet() {\n        require(usdcToken.balanceOf(msg.sender) > 0, \"You do not have enough USDC to repay this debt\");\n        _;\n    }\n\n    //write withdraw function\n    //figure out who owns the contract and how to send tokens back\n\n}\n",
  "sourcePath": "/Users/yijie/Desktop/Y2S2/IS4302/Project/IS4302_Group_6_Project/contracts/Lending.sol",
  "compiler": {
    "name": "solc",
    "version": "0.8.17+commit.8df45f5f.Emscripten.clang"
  },
  "schemaVersion": "3.4.11",
  "updatedAt": "2023-03-01T02:54:16.956Z",
  "devdoc": {
    "kind": "dev",
    "methods": {},
    "version": 1
  },
  "userdoc": {
    "kind": "user",
    "methods": {},
    "version": 1
  }
}