{
  "contractName": "LiquidityPool",
  "abi": [
    {
      "inputs": [
        {
          "internalType": "contract USDC",
          "name": "usdcTokenAddress",
          "type": "address"
        },
        {
          "internalType": "uint256",
          "name": "platformFee",
          "type": "uint256"
        },
        {
          "internalType": "contract Reserves",
          "name": "reservesAddress",
          "type": "address"
        }
      ],
      "stateMutability": "nonpayable",
      "type": "constructor"
    },
    {
      "inputs": [
        {
          "internalType": "uint256",
          "name": "amount",
          "type": "uint256"
        }
      ],
      "name": "transferEth",
      "outputs": [],
      "stateMutability": "payable",
      "type": "function"
    },
    {
      "inputs": [
        {
          "internalType": "uint256",
          "name": "amount",
          "type": "uint256"
        }
      ],
      "name": "transferUSDC",
      "outputs": [],
      "stateMutability": "payable",
      "type": "function"
    },
    {
      "inputs": [
        {
          "internalType": "uint256",
          "name": "amountToWithdraw",
          "type": "uint256"
        }
      ],
      "name": "withdrawEth",
      "outputs": [],
      "stateMutability": "payable",
      "type": "function"
    },
    {
      "inputs": [
        {
          "internalType": "uint256",
          "name": "amountToWithdraw",
          "type": "uint256"
        }
      ],
      "name": "withdrawUSDC",
      "outputs": [],
      "stateMutability": "payable",
      "type": "function"
    }
  ],
  "bytecode": "0x608060405230600560006101000a81548173ffffffffffffffffffffffffffffffffffffffff021916908373ffffffffffffffffffffffffffffffffffffffff16021790555033600660006101000a81548173ffffffffffffffffffffffffffffffffffffffff021916908373ffffffffffffffffffffffffffffffffffffffff1602179055503480156200009357600080fd5b5060405162000f4e38038062000f4e8339818101604052810190620000b9919062000248565b826000806101000a81548173ffffffffffffffffffffffffffffffffffffffff021916908373ffffffffffffffffffffffffffffffffffffffff1602179055508160028190555080600160006101000a81548173ffffffffffffffffffffffffffffffffffffffff021916908373ffffffffffffffffffffffffffffffffffffffff160217905550505050620002a4565b600080fd5b600073ffffffffffffffffffffffffffffffffffffffff82169050919050565b60006200017c826200014f565b9050919050565b600062000190826200016f565b9050919050565b620001a28162000183565b8114620001ae57600080fd5b50565b600081519050620001c28162000197565b92915050565b6000819050919050565b620001dd81620001c8565b8114620001e957600080fd5b50565b600081519050620001fd81620001d2565b92915050565b600062000210826200016f565b9050919050565b620002228162000203565b81146200022e57600080fd5b50565b600081519050620002428162000217565b92915050565b6000806000606084860312156200026457620002636200014a565b5b60006200027486828701620001b1565b93505060206200028786828701620001ec565b92505060406200029a8682870162000231565b9150509250925092565b610c9a80620002b46000396000f3fe60806040526004361061003f5760003560e01c80631f57256f146100445780633b7945a814610060578063c311d0491461007c578063db81f99b14610098575b600080fd5b61005e60048036038101906100599190610710565b6100b4565b005b61007a60048036038101906100759190610710565b610169565b005b61009660048036038101906100919190610710565b61021e565b005b6100b260048036038101906100ad9190610710565b610439565b005b600081116100f7576040517f08c379a00000000000000000000000000000000000000000000000000000000081526004016100ee906107c0565b60405180910390fd5b8060036000828254610109919061080f565b9250508190555080600760003373ffffffffffffffffffffffffffffffffffffffff1673ffffffffffffffffffffffffffffffffffffffff168152602001908152602001600020600082825461015f919061080f565b9250508190555050565b600081116101ac576040517f08c379a00000000000000000000000000000000000000000000000000000000081526004016101a3906108b5565b60405180910390fd5b80600460008282546101be919061080f565b9250508190555080600860003373ffffffffffffffffffffffffffffffffffffffff1673ffffffffffffffffffffffffffffffffffffffff1681526020019081526020016000206000828254610214919061080f565b9250508190555050565b6000600760003373ffffffffffffffffffffffffffffffffffffffff1673ffffffffffffffffffffffffffffffffffffffff168152602001908152602001600020549050818110156102a5576040517f08c379a000000000000000000000000000000000000000000000000000000000815260040161029c9061096d565b60405180910390fd5b600061271061012c846102b8919061098d565b6102c291906109fe565b90506000600160009054906101000a900473ffffffffffffffffffffffffffffffffffffffff1673ffffffffffffffffffffffffffffffffffffffff1663c311d049836040518263ffffffff1660e01b81526004016103219190610a3e565b6020604051808303816000875af1158015610340573d6000803e3d6000fd5b505050506040513d601f19601f820116820180604052508101906103649190610a6e565b905060008185610374919061080f565b905084600360008282546103889190610a9b565b9250508190555084600760003373ffffffffffffffffffffffffffffffffffffffff1673ffffffffffffffffffffffffffffffffffffffff16815260200190815260200160002060008282546103de9190610a9b565b9250508190555060003390508073ffffffffffffffffffffffffffffffffffffffff166108fc839081150290604051600060405180830381858888f19350505050158015610430573d6000803e3d6000fd5b50505050505050565b6000600860003373ffffffffffffffffffffffffffffffffffffffff1673ffffffffffffffffffffffffffffffffffffffff168152602001908152602001600020549050818110156104c0576040517f08c379a00000000000000000000000000000000000000000000000000000000081526004016104b790610b67565b60405180910390fd5b600061271061012c846104d3919061098d565b6104dd91906109fe565b90506000600160009054906101000a900473ffffffffffffffffffffffffffffffffffffffff1673ffffffffffffffffffffffffffffffffffffffff1663db81f99b836040518263ffffffff1660e01b815260040161053c9190610a3e565b6020604051808303816000875af115801561055b573d6000803e3d6000fd5b505050506040513d601f19601f8201168201806040525081019061057f9190610a6e565b90506000818561058f919061080f565b905084600460008282546105a39190610a9b565b9250508190555084600860003373ffffffffffffffffffffffffffffffffffffffff1673ffffffffffffffffffffffffffffffffffffffff16815260200190815260200160002060008282546105f99190610a9b565b92505081905550600033905060008060009054906101000a900473ffffffffffffffffffffffffffffffffffffffff1673ffffffffffffffffffffffffffffffffffffffff166323b872dd600560009054906101000a900473ffffffffffffffffffffffffffffffffffffffff1684866040518463ffffffff1660e01b815260040161068793929190610bc8565b6020604051808303816000875af11580156106a6573d6000803e3d6000fd5b505050506040513d601f19601f820116820180604052508101906106ca9190610c37565b905050505050505050565b600080fd5b6000819050919050565b6106ed816106da565b81146106f857600080fd5b50565b60008135905061070a816106e4565b92915050565b600060208284031215610726576107256106d5565b5b6000610734848285016106fb565b91505092915050565b600082825260208201905092915050565b7f54686520616d6f756e74206f6620657468657220746f207472616e736665722060008201527f6d757374206265206d6f7265207468616e203000000000000000000000000000602082015250565b60006107aa60338361073d565b91506107b58261074e565b604082019050919050565b600060208201905081810360008301526107d98161079d565b9050919050565b7f4e487b7100000000000000000000000000000000000000000000000000000000600052601160045260246000fd5b600061081a826106da565b9150610825836106da565b925082820190508082111561083d5761083c6107e0565b5b92915050565b7f54686520616d6f756e74206f66205553444320746f207472616e73666572206d60008201527f757374206265206d6f7265207468616e20300000000000000000000000000000602082015250565b600061089f60328361073d565b91506108aa82610843565b604082019050919050565b600060208201905081810360008301526108ce81610892565b9050919050565b7f506c6561736520656e7375726520796f75206861766520656e6f75676820455460008201527f482062616c616e636520746f207769746864726177207468697320616d6f756e60208201527f7421000000000000000000000000000000000000000000000000000000000000604082015250565b600061095760428361073d565b9150610962826108d5565b606082019050919050565b600060208201905081810360008301526109868161094a565b9050919050565b6000610998826106da565b91506109a3836106da565b92508282026109b1816106da565b915082820484148315176109c8576109c76107e0565b5b5092915050565b7f4e487b7100000000000000000000000000000000000000000000000000000000600052601260045260246000fd5b6000610a09826106da565b9150610a14836106da565b925082610a2457610a236109cf565b5b828204905092915050565b610a38816106da565b82525050565b6000602082019050610a536000830184610a2f565b92915050565b600081519050610a68816106e4565b92915050565b600060208284031215610a8457610a836106d5565b5b6000610a9284828501610a59565b91505092915050565b6000610aa6826106da565b9150610ab1836106da565b9250828203905081811115610ac957610ac86107e0565b5b92915050565b7f506c6561736520656e7375726520796f75206861766520656e6f75676820555360008201527f44432062616c616e636520746f207769746864726177207468697320616d6f7560208201527f6e74210000000000000000000000000000000000000000000000000000000000604082015250565b6000610b5160438361073d565b9150610b5c82610acf565b606082019050919050565b60006020820190508181036000830152610b8081610b44565b9050919050565b600073ffffffffffffffffffffffffffffffffffffffff82169050919050565b6000610bb282610b87565b9050919050565b610bc281610ba7565b82525050565b6000606082019050610bdd6000830186610bb9565b610bea6020830185610bb9565b610bf76040830184610a2f565b949350505050565b60008115159050919050565b610c1481610bff565b8114610c1f57600080fd5b50565b600081519050610c3181610c0b565b92915050565b600060208284031215610c4d57610c4c6106d5565b5b6000610c5b84828501610c22565b9150509291505056fea2646970667358221220e3a39acb4f4388ab85c73270880c494065babd55657a2003fa6640e0e2536ab464736f6c63430008110033",
  "immutableReferences": {},
  "source": "pragma solidity ^0.8.7;\nimport \"./USDC.sol\";\nimport \"./Reserves.sol\";\n\ncontract LiquidityPool {\n    USDC usdcToken;\n    Reserves reserves;\n    uint256 platFee;\n    uint256 ethPool;\n    uint256 usdcPool;\n    address thisContract = address(this);\n    address contractOwner = msg.sender;\n    mapping(address => uint256) ethTokenMap;\n    mapping(address => uint256) usdcTokenMap;\n\n    constructor(USDC usdcTokenAddress, uint256 platformFee, Reserves reservesAddress) {\n        usdcToken = usdcTokenAddress;\n        platFee = platformFee;\n        reserves = reservesAddress;\n    }\n\n    function transferEth(uint256 amount) public payable {\n        require(amount > 0, \"The amount of ether to transfer must be more than 0\");\n        ethPool += amount;\n        ethTokenMap[msg.sender] += amount;\n    }\n\n    function transferUSDC(uint256 amount) public payable {\n        require(amount > 0, \"The amount of USDC to transfer must be more than 0\");\n        usdcPool += amount;\n        usdcTokenMap[msg.sender] += amount;\n    }\n\n    function withdrawEth(uint256 amountToWithdraw) public payable {\n        uint256 currentUserInvestedEth = ethTokenMap[msg.sender]; // get current user invested eth\n        require(currentUserInvestedEth >= amountToWithdraw, \"Please ensure you have enough ETH balance to withdraw this amount!\");\n        \n        uint256 yield = amountToWithdraw * 300 / 10_000 ; // 3 % of the amtToWithdraw\n        uint256 yieldWithdrew = reserves.withdrawEth(yield); // withdraw yield from reserves\n\n        uint256 finalWithdrawalAmt = amountToWithdraw + yieldWithdrew; // 60 + 3 = 63 eth\n        ethPool -= amountToWithdraw;\n        ethTokenMap[msg.sender] -= amountToWithdraw;\n        \n        // transfer final withdrawal amt back to the current user\n        address payable receipient  = payable(msg.sender);\n        receipient.transfer(finalWithdrawalAmt);\n    }\n\n    function withdrawUSDC(uint256 amountToWithdraw) public payable {\n        uint256 currentUserInvestedUSDC = usdcTokenMap[msg.sender]; // get current user invested USDC\n        require(currentUserInvestedUSDC >= amountToWithdraw, \"Please ensure you have enough USDC balance to withdraw this amount!\");\n\n        uint256 yield = amountToWithdraw * 300 / 10_000; // 3 % of the amountToWithdraw\n        uint256 yieldWithdrew = reserves.withdrawUSDC(yield); // withdraw usdc yield from reserves\n\n        uint256 finalWithdrawalAmt = amountToWithdraw + yieldWithdrew;\n        usdcPool -= amountToWithdraw;\n        usdcTokenMap[msg.sender] -= amountToWithdraw;\n\n        // transfer final withdrawal amt back to the current currentUser\n        address receipient = msg.sender;\n        bool isTransferred = usdcToken.transferFrom(thisContract, receipient, finalWithdrawalAmt);\n    }\n}",
  "sourcePath": "/Users/yijie/Desktop/Y2S2/IS4302/Project/IS4302_Group_6_Project/contracts/LiquidityPool.sol",
  "compiler": {
    "name": "solc",
    "version": "0.8.17+commit.8df45f5f.Emscripten.clang"
  },
  "schemaVersion": "3.4.11",
  "updatedAt": "2023-02-22T03:07:12.553Z",
  "devdoc": {
    "kind": "dev",
    "methods": {},
    "version": 1
  },
  "userdoc": {
    "kind": "user",
    "methods": {},
    "version": 1
  }
}