{
  "contractName": "LiquidityPool",
  "abi": [
    {
      "inputs": [
        {
          "internalType": "contract Avax",
          "name": "avaxTokenAddress",
          "type": "address"
        },
        {
          "internalType": "contract Reserves",
          "name": "reservesAddress",
          "type": "address"
        }
      ],
      "stateMutability": "nonpayable",
      "type": "constructor"
    },
    {
      "anonymous": false,
      "inputs": [
        {
          "indexed": true,
          "internalType": "address",
          "name": "_from",
          "type": "address"
        },
        {
          "indexed": false,
          "internalType": "uint256",
          "name": "_value",
          "type": "uint256"
        },
        {
          "indexed": false,
          "internalType": "string",
          "name": "_message",
          "type": "string"
        }
      ],
      "name": "Deposit",
      "type": "event"
    },
    {
      "anonymous": false,
      "inputs": [
        {
          "indexed": true,
          "internalType": "address",
          "name": "_from",
          "type": "address"
        },
        {
          "indexed": true,
          "internalType": "address",
          "name": "_to",
          "type": "address"
        },
        {
          "indexed": false,
          "internalType": "uint256",
          "name": "_value",
          "type": "uint256"
        },
        {
          "indexed": false,
          "internalType": "string",
          "name": "_message",
          "type": "string"
        }
      ],
      "name": "Withdraw",
      "type": "event"
    },
    {
      "anonymous": false,
      "inputs": [
        {
          "indexed": true,
          "internalType": "address",
          "name": "_from",
          "type": "address"
        },
        {
          "indexed": true,
          "internalType": "address",
          "name": "_to",
          "type": "address"
        },
        {
          "indexed": false,
          "internalType": "uint256",
          "name": "_value",
          "type": "uint256"
        },
        {
          "indexed": false,
          "internalType": "string",
          "name": "_message",
          "type": "string"
        }
      ],
      "name": "withDrawingFromReserves",
      "type": "event"
    },
    {
      "stateMutability": "payable",
      "type": "fallback",
      "payable": true
    },
    {
      "inputs": [],
      "name": "transferEth",
      "outputs": [],
      "stateMutability": "payable",
      "type": "function",
      "payable": true
    },
    {
      "inputs": [],
      "name": "getEthAmountLoan",
      "outputs": [
        {
          "internalType": "uint256",
          "name": "",
          "type": "uint256"
        }
      ],
      "stateMutability": "view",
      "type": "function",
      "constant": true
    },
    {
      "inputs": [],
      "name": "getEthTvl",
      "outputs": [
        {
          "internalType": "uint256",
          "name": "",
          "type": "uint256"
        }
      ],
      "stateMutability": "view",
      "type": "function",
      "constant": true
    },
    {
      "inputs": [],
      "name": "withDrawAllEth",
      "outputs": [],
      "stateMutability": "nonpayable",
      "type": "function"
    },
    {
      "inputs": [
        {
          "internalType": "uint256",
          "name": "amount",
          "type": "uint256"
        }
      ],
      "name": "transferAvax",
      "outputs": [],
      "stateMutability": "nonpayable",
      "type": "function"
    },
    {
      "inputs": [],
      "name": "getAvaxTvl",
      "outputs": [
        {
          "internalType": "uint256",
          "name": "",
          "type": "uint256"
        }
      ],
      "stateMutability": "view",
      "type": "function",
      "constant": true
    },
    {
      "inputs": [],
      "name": "getAvaxAmountLoan",
      "outputs": [
        {
          "internalType": "uint256",
          "name": "",
          "type": "uint256"
        }
      ],
      "stateMutability": "view",
      "type": "function",
      "constant": true
    },
    {
      "inputs": [],
      "name": "withDrawAllAvax",
      "outputs": [],
      "stateMutability": "nonpayable",
      "type": "function"
    },
    {
      "inputs": [],
      "name": "InitialiseLP",
      "outputs": [],
      "stateMutability": "nonpayable",
      "type": "function"
    },
    {
      "inputs": [],
      "name": "getLPAddress",
      "outputs": [
        {
          "internalType": "address",
          "name": "",
          "type": "address"
        }
      ],
      "stateMutability": "view",
      "type": "function",
      "constant": true
    },
    {
      "inputs": [
        {
          "internalType": "uint256",
          "name": "amountToSend",
          "type": "uint256"
        },
        {
          "internalType": "address",
          "name": "lendingContractAddress",
          "type": "address"
        }
      ],
      "name": "sendAvaxToLendingContract",
      "outputs": [],
      "stateMutability": "nonpayable",
      "type": "function"
    },
    {
      "inputs": [
        {
          "internalType": "uint256",
          "name": "amountToSend",
          "type": "uint256"
        },
        {
          "internalType": "address payable",
          "name": "lenderAddress",
          "type": "address"
        }
      ],
      "name": "sendEthToLender",
      "outputs": [],
      "stateMutability": "nonpayable",
      "type": "function"
    }
  ],
  "bytecode": "0x608060405230600260006101000a81548173ffffffffffffffffffffffffffffffffffffffff021916908373ffffffffffffffffffffffffffffffffffffffff16021790555033600360006101000a81548173ffffffffffffffffffffffffffffffffffffffff021916908373ffffffffffffffffffffffffffffffffffffffff160217905550670de0b6b3a76400006006553480156200009f57600080fd5b5060405162001e3a38038062001e3a8339818101604052810190620000c5919062000225565b816000806101000a81548173ffffffffffffffffffffffffffffffffffffffff021916908373ffffffffffffffffffffffffffffffffffffffff16021790555080600160006101000a81548173ffffffffffffffffffffffffffffffffffffffff021916908373ffffffffffffffffffffffffffffffffffffffff16021790555050506200026c565b600080fd5b600073ffffffffffffffffffffffffffffffffffffffff82169050919050565b6000620001808262000153565b9050919050565b6000620001948262000173565b9050919050565b620001a68162000187565b8114620001b257600080fd5b50565b600081519050620001c6816200019b565b92915050565b6000620001d98262000153565b9050919050565b6000620001ed82620001cc565b9050919050565b620001ff81620001e0565b81146200020b57600080fd5b50565b6000815190506200021f81620001f4565b92915050565b600080604083850312156200023f576200023e6200014e565b5b60006200024f85828601620001b5565b925050602062000262858286016200020e565b9150509250929050565b611bbe806200027c6000396000f3fe6080604052600436106100ab5760003560e01c8063961ae87611610064578063961ae8761461018b578063996e96f0146101a2578063b2b69952146101cd578063c4443522146101f8578063fcf2e5971461020f578063ff0c4d6a14610226576100ac565b806350051c27146100ae5780635960ce41146100d95780635985268614610104578063598c5b421461010e57806393c1dfde1461013757806394a54a1214610162576100ac565b5b005b3480156100ba57600080fd5b506100c361024f565b6040516100d0919061125f565b60405180910390f35b3480156100e557600080fd5b506100ee610324565b6040516100fb919061125f565b60405180910390f35b61010c6103c6565b005b34801561011a57600080fd5b5061013560048036038101906101309190611309565b6104af565b005b34801561014357600080fd5b5061014c61059e565b604051610159919061125f565b60405180910390f35b34801561016e57600080fd5b5061018960048036038101906101849190611387565b610666565b005b34801561019757600080fd5b506101a06106fb565b005b3480156101ae57600080fd5b506101b761082e565b6040516101c491906113d6565b60405180910390f35b3480156101d957600080fd5b506101e2610836565b6040516101ef919061125f565b60405180910390f35b34801561020457600080fd5b5061020d61083e565b005b34801561021b57600080fd5b50610224610eb7565b005b34801561023257600080fd5b5061024d600480360381019061024891906113f1565b6110bb565b005b600080600460003373ffffffffffffffffffffffffffffffffffffffff1673ffffffffffffffffffffffffffffffffffffffff16815260200190815260200160002054116102d2576040517f08c379a00000000000000000000000000000000000000000000000000000000081526004016102c9906114a1565b60405180910390fd5b600654600460003373ffffffffffffffffffffffffffffffffffffffff1673ffffffffffffffffffffffffffffffffffffffff1681526020019081526020016000205461031f919061151f565b905090565b60008060009054906101000a900473ffffffffffffffffffffffffffffffffffffffff1673ffffffffffffffffffffffffffffffffffffffff166370a08231306040518263ffffffff1660e01b815260040161038091906113d6565b602060405180830381865afa15801561039d573d6000803e3d6000fd5b505050506040513d601f19601f820116820180604052508101906103c19190611565565b905090565b60003411610409576040517f08c379a000000000000000000000000000000000000000000000000000000000815260040161040090611604565b60405180910390fd5b34600460003373ffffffffffffffffffffffffffffffffffffffff1673ffffffffffffffffffffffffffffffffffffffff16815260200190815260200160002060008282546104589190611624565b925050819055503373ffffffffffffffffffffffffffffffffffffffff167f643e927b32d5bfd08eccd2fcbd97057ad413850f857a2359639114e8e8dd3d7b346040516104a591906116a4565b60405180910390a2565b816104b8610324565b10156104f9576040517f08c379a00000000000000000000000000000000000000000000000000000000081526004016104f09061171e565b60405180910390fd5b60008054906101000a900473ffffffffffffffffffffffffffffffffffffffff1673ffffffffffffffffffffffffffffffffffffffff166323b872dd3083856040518463ffffffff1660e01b81526004016105569392919061173e565b6020604051808303816000875af1158015610575573d6000803e3d6000fd5b505050506040513d601f19601f8201168201806040525081019061059991906117ad565b505050565b600080600560003373ffffffffffffffffffffffffffffffffffffffff1673ffffffffffffffffffffffffffffffffffffffff1681526020019081526020016000205411610621576040517f08c379a0000000000000000000000000000000000000000000000000000000008152600401610618906114a1565b60405180910390fd5b600560003373ffffffffffffffffffffffffffffffffffffffff1673ffffffffffffffffffffffffffffffffffffffff16815260200190815260200160002054905090565b8161066f610836565b10156106b0576040517f08c379a00000000000000000000000000000000000000000000000000000000081526004016106a79061171e565b60405180910390fd5b8073ffffffffffffffffffffffffffffffffffffffff166108fc839081150290604051600060405180830381858888f193505050501580156106f6573d6000803e3d6000fd5b505050565b600360009054906101000a900473ffffffffffffffffffffffffffffffffffffffff1673ffffffffffffffffffffffffffffffffffffffff163373ffffffffffffffffffffffffffffffffffffffff161461078b576040517f08c379a00000000000000000000000000000000000000000000000000000000081526004016107829061184c565b60405180910390fd5b60008054906101000a900473ffffffffffffffffffffffffffffffffffffffff1673ffffffffffffffffffffffffffffffffffffffff166340c10f19306103e86040518363ffffffff1660e01b81526004016107e89291906118b1565b6020604051808303816000875af1158015610807573d6000803e3d6000fd5b505050506040513d601f19601f8201168201806040525081019061082b91906117ad565b50565b600030905090565b600047905090565b6000600560003373ffffffffffffffffffffffffffffffffffffffff1673ffffffffffffffffffffffffffffffffffffffff16815260200190815260200160002054116108c0576040517f08c379a00000000000000000000000000000000000000000000000000000000081526004016108b7906114a1565b60405180910390fd5b60003390506000600560003373ffffffffffffffffffffffffffffffffffffffff1673ffffffffffffffffffffffffffffffffffffffff168152602001908152602001600020549050600061271061012c8361091c91906118da565b610926919061151f565b9050610930610324565b821015610b89573373ffffffffffffffffffffffffffffffffffffffff163073ffffffffffffffffffffffffffffffffffffffff167f0dcf3a61dc7c3baee8b16534aa240ff8db92f925e15dab89c55207690714e71b846040516109949190611968565b60405180910390a360008054906101000a900473ffffffffffffffffffffffffffffffffffffffff1673ffffffffffffffffffffffffffffffffffffffff166323b872dd600160009054906101000a900473ffffffffffffffffffffffffffffffffffffffff1673ffffffffffffffffffffffffffffffffffffffff16632ad415bd6040518163ffffffff1660e01b8152600401602060405180830381865afa158015610a45573d6000803e3d6000fd5b505050506040513d601f19601f82011682018060405250810190610a6991906119ab565b308486610a769190611624565b6040518463ffffffff1660e01b8152600401610a949392919061173e565b6020604051808303816000875af1158015610ab3573d6000803e3d6000fd5b505050506040513d601f19601f82011682018060405250810190610ad791906117ad565b5060008054906101000a900473ffffffffffffffffffffffffffffffffffffffff1673ffffffffffffffffffffffffffffffffffffffff166323b872dd30858486610b229190611624565b6040518463ffffffff1660e01b8152600401610b409392919061173e565b6020604051808303816000875af1158015610b5f573d6000803e3d6000fd5b505050506040513d601f19601f82011682018060405250810190610b8391906117ad565b50610eb2565b60008054906101000a900473ffffffffffffffffffffffffffffffffffffffff1673ffffffffffffffffffffffffffffffffffffffff166323b872dd3085856040518463ffffffff1660e01b8152600401610be69392919061173e565b6020604051808303816000875af1158015610c05573d6000803e3d6000fd5b505050506040513d601f19601f82011682018060405250810190610c2991906117ad565b506000600560003373ffffffffffffffffffffffffffffffffffffffff1673ffffffffffffffffffffffffffffffffffffffff1681526020019081526020016000208190555060008054906101000a900473ffffffffffffffffffffffffffffffffffffffff1673ffffffffffffffffffffffffffffffffffffffff166323b872dd600160009054906101000a900473ffffffffffffffffffffffffffffffffffffffff1673ffffffffffffffffffffffffffffffffffffffff16632ad415bd6040518163ffffffff1660e01b8152600401602060405180830381865afa158015610d18573d6000803e3d6000fd5b505050506040513d601f19601f82011682018060405250810190610d3c91906119ab565b30846040518463ffffffff1660e01b8152600401610d5c9392919061173e565b6020604051808303816000875af1158015610d7b573d6000803e3d6000fd5b505050506040513d601f19601f82011682018060405250810190610d9f91906117ad565b5060008054906101000a900473ffffffffffffffffffffffffffffffffffffffff1673ffffffffffffffffffffffffffffffffffffffff166323b872dd3085846040518463ffffffff1660e01b8152600401610dfd9392919061173e565b6020604051808303816000875af1158015610e1c573d6000803e3d6000fd5b505050506040513d601f19601f82011682018060405250810190610e4091906117ad565b503373ffffffffffffffffffffffffffffffffffffffff163073ffffffffffffffffffffffffffffffffffffffff167f8c73b702b261c879bc4ebea83f44bd0c9a90cffb4aa0f324e52750d831b9cb4f8385610e9c9190611624565b604051610ea99190611a4a565b60405180910390a35b505050565b6000600460003373ffffffffffffffffffffffffffffffffffffffff1673ffffffffffffffffffffffffffffffffffffffff1681526020019081526020016000205411610f39576040517f08c379a0000000000000000000000000000000000000000000000000000000008152600401610f30906114a1565b60405180910390fd5b6000600460003373ffffffffffffffffffffffffffffffffffffffff1673ffffffffffffffffffffffffffffffffffffffff168152602001908152602001600020549050600061271061012c83610f9091906118da565b610f9a919061151f565b90503373ffffffffffffffffffffffffffffffffffffffff166108fc839081150290604051600060405180830381858888f19350505050158015610fe2573d6000803e3d6000fd5b50600160009054906101000a900473ffffffffffffffffffffffffffffffffffffffff1673ffffffffffffffffffffffffffffffffffffffff1663ea58a98282336040518363ffffffff1660e01b8152600401611040929190611acd565b600060405180830381600087803b15801561105a57600080fd5b505af115801561106e573d6000803e3d6000fd5b505050506000600460003373ffffffffffffffffffffffffffffffffffffffff1673ffffffffffffffffffffffffffffffffffffffff168152602001908152602001600020819055505050565b600081116110fe576040517f08c379a00000000000000000000000000000000000000000000000000000000081526004016110f590611b68565b60405180910390fd5b60008054906101000a900473ffffffffffffffffffffffffffffffffffffffff1673ffffffffffffffffffffffffffffffffffffffff166323b872dd3330846040518463ffffffff1660e01b815260040161115b9392919061173e565b6020604051808303816000875af115801561117a573d6000803e3d6000fd5b505050506040513d601f19601f8201168201806040525081019061119e91906117ad565b5080600560003373ffffffffffffffffffffffffffffffffffffffff1673ffffffffffffffffffffffffffffffffffffffff16815260200190815260200160002060008282546111ee9190611624565b925050819055503373ffffffffffffffffffffffffffffffffffffffff167f643e927b32d5bfd08eccd2fcbd97057ad413850f857a2359639114e8e8dd3d7b8260405161123b91906116a4565b60405180910390a250565b6000819050919050565b61125981611246565b82525050565b60006020820190506112746000830184611250565b92915050565b600080fd5b61128881611246565b811461129357600080fd5b50565b6000813590506112a58161127f565b92915050565b600073ffffffffffffffffffffffffffffffffffffffff82169050919050565b60006112d6826112ab565b9050919050565b6112e6816112cb565b81146112f157600080fd5b50565b600081359050611303816112dd565b92915050565b600080604083850312156113205761131f61127a565b5b600061132e85828601611296565b925050602061133f858286016112f4565b9150509250929050565b6000611354826112ab565b9050919050565b61136481611349565b811461136f57600080fd5b50565b6000813590506113818161135b565b92915050565b6000806040838503121561139e5761139d61127a565b5b60006113ac85828601611296565b92505060206113bd85828601611372565b9150509250929050565b6113d0816112cb565b82525050565b60006020820190506113eb60008301846113c7565b92915050565b6000602082840312156114075761140661127a565b5b600061141584828501611296565b91505092915050565b600082825260208201905092915050565b7f596f7520646f206e6f742068617665206f75747374616e64696e672066756e6460008201527f7320696e20746865204c6971756469747920506f6f6c00000000000000000000602082015250565b600061148b60368361141e565b91506114968261142f565b604082019050919050565b600060208201905081810360008301526114ba8161147e565b9050919050565b7f4e487b7100000000000000000000000000000000000000000000000000000000600052601260045260246000fd5b7f4e487b7100000000000000000000000000000000000000000000000000000000600052601160045260246000fd5b600061152a82611246565b915061153583611246565b925082611545576115446114c1565b5b828204905092915050565b60008151905061155f8161127f565b92915050565b60006020828403121561157b5761157a61127a565b5b600061158984828501611550565b91505092915050565b7f54686520616d6f756e74206f6620657468657220746f207472616e736665722060008201527f6d757374206265206d6f7265207468616e203000000000000000000000000000602082015250565b60006115ee60338361141e565b91506115f982611592565b604082019050919050565b6000602082019050818103600083015261161d816115e1565b9050919050565b600061162f82611246565b915061163a83611246565b9250828201905080821115611652576116516114f0565b5b92915050565b7f596f7572206465706f73697420686173206265656e206d616465000000000000600082015250565b600061168e601a8361141e565b915061169982611658565b602082019050919050565b60006040820190506116b96000830184611250565b81810360208301526116ca81611681565b905092915050565b7f4c5020646f6573206e6f74206861766520656e6f7567682066756e6473000000600082015250565b6000611708601d8361141e565b9150611713826116d2565b602082019050919050565b60006020820190508181036000830152611737816116fb565b9050919050565b600060608201905061175360008301866113c7565b61176060208301856113c7565b61176d6040830184611250565b949350505050565b60008115159050919050565b61178a81611775565b811461179557600080fd5b50565b6000815190506117a781611781565b92915050565b6000602082840312156117c3576117c261127a565b5b60006117d184828501611798565b91505092915050565b7f4f6e6c7920746865204f776e65722063616e2063616c6c20746869732066756e60008201527f6374696f6e000000000000000000000000000000000000000000000000000000602082015250565b600061183660258361141e565b9150611841826117da565b604082019050919050565b6000602082019050818103600083015261186581611829565b9050919050565b6000819050919050565b6000819050919050565b600061189b6118966118918461186c565b611876565b611246565b9050919050565b6118ab81611880565b82525050565b60006040820190506118c660008301856113c7565b6118d360208301846118a2565b9392505050565b60006118e582611246565b91506118f083611246565b92508282026118fe81611246565b91508282048414831517611915576119146114f0565b5b5092915050565b7f5769746864726177696e672066726f6d20726573657276657300000000000000600082015250565b600061195260198361141e565b915061195d8261191c565b602082019050919050565b600060408201905061197d6000830184611250565b818103602083015261198e81611945565b905092915050565b6000815190506119a5816112dd565b92915050565b6000602082840312156119c1576119c061127a565b5b60006119cf84828501611996565b91505092915050565b7f596f75722061737365747320686173206265656e207375636365737366756c6c60008201527f792077697468647261776e000000000000000000000000000000000000000000602082015250565b6000611a34602b8361141e565b9150611a3f826119d8565b604082019050919050565b6000604082019050611a5f6000830184611250565b8181036020830152611a7081611a27565b905092915050565b6000611a93611a8e611a89846112ab565b611876565b6112ab565b9050919050565b6000611aa582611a78565b9050919050565b6000611ab782611a9a565b9050919050565b611ac781611aac565b82525050565b6000604082019050611ae26000830185611250565b611aef6020830184611abe565b9392505050565b7f54686520616d6f756e74206f66204176617820746f207472616e73666572206d60008201527f757374206265206d6f7265207468616e20300000000000000000000000000000602082015250565b6000611b5260328361141e565b9150611b5d82611af6565b604082019050919050565b60006020820190508181036000830152611b8181611b45565b905091905056fea26469706673582212205058a0b62205f1ae03b838e952412c7c1c4519c2fe1afacdfbcb9116f714975064736f6c63430008110033",
  "immutableReferences": {},
  "source": "// SPDX-License-Identifier: MIT\npragma solidity ^0.8.7;\nimport \"./Avax.sol\";\nimport \"./Reserves.sol\";\nimport \"./ERC20.sol\";\n\ncontract LiquidityPool {\n    Avax avaxToken;\n    Reserves reserves;\n    address thisContract = address(this);\n    address contractOwner = msg.sender;\n\n    mapping(address => uint256) ethTokenMap;\n    mapping(address => uint256) avaxTokenMap;\n\n    event Deposit(address indexed _from, uint _value, string _message);\n    event Withdraw(address indexed _from, address indexed _to, uint _value, string _message);\n    event withDrawingFromReserves ( address indexed _from, address indexed _to, uint _value, string _message);\n    uint256 oneEth = 1000000000000000000;\n\n    constructor(Avax avaxTokenAddress, Reserves reservesAddress) {\n        avaxToken = avaxTokenAddress;\n        reserves = reservesAddress;\n    }\n\n     //Function takes in specified amount of eth sent by the msg.sender\n    function transferEth() public payable {\n        require(msg.value > 0, \"The amount of ether to transfer must be more than 0\");\n        ethTokenMap[msg.sender] += msg.value;\n        emit Deposit(msg.sender, msg.value, \"Your deposit has been made\");\n    }\n\n    //Functions to return the amount of Eth this address lent the Protocol\n    function getEthAmountLoan() public view onlyLender returns (uint256) {\n        return (ethTokenMap[msg.sender] / oneEth);\n    }\n\n    //Return the Total Value Locked inside the ETH pool\n    function getEthTvl() public view returns (uint256) {\n        return address(this).balance;\n    }\n    \n    \n    //Function allows borrower to withdraw all their eth that they have lent the protocol\n    //not complete yet as, original loan should be paid by the pool\n    //Yield from the reserves\n    //***Still unable to send eth from Reserves to LP contract\n    // add if statement\n    function withDrawAllEth() public onlyLender {\n        uint256 amountLent = ethTokenMap[msg.sender];\n        uint256 yield = amountLent * 300 / 10_000 ; // 3 % of the amtLent, yield should come from reserves\n        payable(msg.sender).transfer(amountLent);\n        reserves.sendEthToLP(yield, payable(msg.sender));\n        ethTokenMap[msg.sender] = 0; //Reset the loan back to 0\n    }\n\n   \n    function transferAvax(uint256 amount) public {\n        require(amount > 0, \"The amount of Avax to transfer must be more than 0\");\n        //usdcPool += amount; //adds the value to the pool\n        avaxToken.transferFrom(msg.sender, address(this), amount);\n        avaxTokenMap[msg.sender] += amount;\n        emit Deposit(msg.sender, amount, \"Your deposit has been made\");\n    }\n\n     //Return the Total Value Locked inside the USDC pool\n    function getAvaxTvl() public view returns (uint256) {\n         return avaxToken.balanceOf(address(this));\n    }\n\n     //Functions to return the amount of Eth this address lent the Protocol\n    function getAvaxAmountLoan() public view onlyLenderAvax returns (uint256) {\n        return (avaxTokenMap[msg.sender]);\n    }\n\n    function withDrawAllAvax() public onlyLenderAvax {\n        address addressToSend = msg.sender;\n        uint256 amountLent = avaxTokenMap[msg.sender];\n        uint256 yield = amountLent * 300 / 10_000 ; // 3 % of the amtLent, yield should come from reserves\n        if (amountLent < getAvaxTvl()) {\n            //Withdraw From Reserves\n            emit withDrawingFromReserves(address(this), msg.sender, amountLent, \"Withdrawing from reserves\");\n            avaxToken.transferFrom(reserves.getReservesAddress(), address(this), (amountLent + yield)); // send from Reserves to LP First\n            avaxToken.transferFrom(address(this), addressToSend, (amountLent + yield)); //Send from LP to wallet\n        } else {\n            //Do not require assets from reserves, only yield\n             avaxToken.transferFrom(address(this), addressToSend, amountLent); //Sent lent amount to wallet from the pool\n             avaxTokenMap[msg.sender] = 0; //Set to 0 to reset the loan\n             avaxToken.transferFrom(reserves.getReservesAddress(), address(this), yield); // Send yield from Reserves to LP first\n             avaxToken.transferFrom(address(this), addressToSend, yield); // Send yield from LP to wallet\n             emit Withdraw(address(this), msg.sender, (amountLent + yield), \"Your assets has been successfully withdrawn\");\n        } \n    }\n\n    //To simulate that our LP already have Avax tokens, trigger this function to send 1000 Avax tokens over\n    function InitialiseLP() public ownerOnly {\n        avaxToken.mint(address(this), 1000);\n    }\n\n    function getLPAddress() public view returns (address) {\n        return address(this);\n    }\n\n    function sendAvaxToLendingContract(uint256 amountToSend, address lendingContractAddress) public {\n        require (getAvaxTvl() >= amountToSend, \"LP does not have enough funds\");\n        avaxToken.transferFrom(address(this), lendingContractAddress, amountToSend);\n    }\n\n    function sendEthToLender(uint256 amountToSend, address payable lenderAddress) public {\n        require (getEthTvl() >= amountToSend, \"LP does not have enough funds\");\n        lenderAddress.transfer(amountToSend);\n    }\n\n    modifier onlyLender() {\n        require(ethTokenMap[msg.sender] > 0, \"You do not have outstanding funds in the Liqudity Pool\");\n        _;\n    }\n\n    modifier onlyLenderAvax() {\n        require(avaxTokenMap[msg.sender] > 0, \"You do not have outstanding funds in the Liqudity Pool\");\n        _;\n    }\n\n      modifier ownerOnly() {\n        require(msg.sender == contractOwner, \"Only the Owner can call this function\");\n        _;\n    }\n\n    //Used to accept Eth\n    fallback() external payable{}\n}\n",
  "sourcePath": "/Users/alwin/Developer/Liquiditas/contracts/LiquidityPool.sol",
  "compiler": {
    "name": "solc",
    "version": "0.8.17+commit.8df45f5f.Emscripten.clang"
  },
  "schemaVersion": "3.4.11",
  "updatedAt": "2023-03-22T04:44:05.284Z",
  "networkType": "ethereum",
  "devdoc": {
    "kind": "dev",
    "methods": {},
    "version": 1
  },
  "userdoc": {
    "kind": "user",
    "methods": {},
    "version": 1
  }
}