{
  "contractName": "LiquidityPool",
  "abi": [
    {
      "inputs": [
        {
          "internalType": "contract Avax",
          "name": "avaxTokenAddress",
          "type": "address"
        },
        {
          "internalType": "contract Reserves",
          "name": "reservesAddress",
          "type": "address"
        }
      ],
      "stateMutability": "nonpayable",
      "type": "constructor"
    },
    {
      "anonymous": false,
      "inputs": [
        {
          "indexed": true,
          "internalType": "address",
          "name": "_from",
          "type": "address"
        },
        {
          "indexed": false,
          "internalType": "uint256",
          "name": "_value",
          "type": "uint256"
        },
        {
          "indexed": false,
          "internalType": "string",
          "name": "_message",
          "type": "string"
        }
      ],
      "name": "Deposit",
      "type": "event"
    },
    {
      "anonymous": false,
      "inputs": [
        {
          "indexed": true,
          "internalType": "address",
          "name": "_from",
          "type": "address"
        },
        {
          "indexed": true,
          "internalType": "address",
          "name": "_to",
          "type": "address"
        },
        {
          "indexed": false,
          "internalType": "uint256",
          "name": "_value",
          "type": "uint256"
        },
        {
          "indexed": false,
          "internalType": "string",
          "name": "_message",
          "type": "string"
        }
      ],
      "name": "Withdraw",
      "type": "event"
    },
    {
      "anonymous": false,
      "inputs": [
        {
          "indexed": true,
          "internalType": "address",
          "name": "_from",
          "type": "address"
        },
        {
          "indexed": true,
          "internalType": "address",
          "name": "_to",
          "type": "address"
        },
        {
          "indexed": false,
          "internalType": "uint256",
          "name": "_value",
          "type": "uint256"
        },
        {
          "indexed": false,
          "internalType": "string",
          "name": "_message",
          "type": "string"
        }
      ],
      "name": "withDrawingFromReserves",
      "type": "event"
    },
    {
      "stateMutability": "payable",
      "type": "fallback",
      "payable": true
    },
    {
      "inputs": [],
      "name": "transferEth",
      "outputs": [],
      "stateMutability": "payable",
      "type": "function",
      "payable": true
    },
    {
      "inputs": [],
      "name": "getEthAmountLoan",
      "outputs": [
        {
          "internalType": "uint256",
          "name": "",
          "type": "uint256"
        }
      ],
      "stateMutability": "view",
      "type": "function",
      "constant": true
    },
    {
      "inputs": [],
      "name": "getEthTvl",
      "outputs": [
        {
          "internalType": "uint256",
          "name": "",
          "type": "uint256"
        }
      ],
      "stateMutability": "view",
      "type": "function",
      "constant": true
    },
    {
      "inputs": [],
      "name": "withDrawAllEth",
      "outputs": [],
      "stateMutability": "nonpayable",
      "type": "function"
    },
    {
      "inputs": [
        {
          "internalType": "uint256",
          "name": "amount",
          "type": "uint256"
        }
      ],
      "name": "transferAvax",
      "outputs": [],
      "stateMutability": "nonpayable",
      "type": "function"
    },
    {
      "inputs": [],
      "name": "getAvaxTvl",
      "outputs": [
        {
          "internalType": "uint256",
          "name": "",
          "type": "uint256"
        }
      ],
      "stateMutability": "view",
      "type": "function",
      "constant": true
    },
    {
      "inputs": [],
      "name": "getAvaxAmountLoan",
      "outputs": [
        {
          "internalType": "uint256",
          "name": "",
          "type": "uint256"
        }
      ],
      "stateMutability": "view",
      "type": "function",
      "constant": true
    },
    {
      "inputs": [],
      "name": "withDrawAllAvax",
      "outputs": [],
      "stateMutability": "nonpayable",
      "type": "function"
    },
    {
      "inputs": [],
      "name": "getLPAddress",
      "outputs": [
        {
          "internalType": "address",
          "name": "",
          "type": "address"
        }
      ],
      "stateMutability": "view",
      "type": "function",
      "constant": true
    },
    {
      "inputs": [
        {
          "internalType": "uint256",
          "name": "amountToSend",
          "type": "uint256"
        },
        {
          "internalType": "address",
          "name": "lendingContractAddress",
          "type": "address"
        }
      ],
      "name": "sendAvaxToLendingContract",
      "outputs": [],
      "stateMutability": "nonpayable",
      "type": "function"
    },
    {
      "inputs": [
        {
          "internalType": "uint256",
          "name": "amountToSend",
          "type": "uint256"
        },
        {
          "internalType": "address payable",
          "name": "lenderAddress",
          "type": "address"
        }
      ],
      "name": "sendEthToLender",
      "outputs": [],
      "stateMutability": "nonpayable",
      "type": "function"
    }
  ],
  "bytecode": "0x608060405230600260006101000a81548173ffffffffffffffffffffffffffffffffffffffff021916908373ffffffffffffffffffffffffffffffffffffffff16021790555033600360006101000a81548173ffffffffffffffffffffffffffffffffffffffff021916908373ffffffffffffffffffffffffffffffffffffffff160217905550670de0b6b3a76400006006553480156200009f57600080fd5b5060405162001bef38038062001bef8339818101604052810190620000c5919062000225565b816000806101000a81548173ffffffffffffffffffffffffffffffffffffffff021916908373ffffffffffffffffffffffffffffffffffffffff16021790555080600160006101000a81548173ffffffffffffffffffffffffffffffffffffffff021916908373ffffffffffffffffffffffffffffffffffffffff16021790555050506200026c565b600080fd5b600073ffffffffffffffffffffffffffffffffffffffff82169050919050565b6000620001808262000153565b9050919050565b6000620001948262000173565b9050919050565b620001a68162000187565b8114620001b257600080fd5b50565b600081519050620001c6816200019b565b92915050565b6000620001d98262000153565b9050919050565b6000620001ed82620001cc565b9050919050565b620001ff81620001e0565b81146200020b57600080fd5b50565b6000815190506200021f81620001f4565b92915050565b600080604083850312156200023f576200023e6200014e565b5b60006200024f85828601620001b5565b925050602062000262858286016200020e565b9150509250929050565b611973806200027c6000396000f3fe6080604052600436106100a05760003560e01c806394a54a121161006457806394a54a1214610157578063996e96f014610180578063b2b69952146101ab578063c4443522146101d6578063fcf2e597146101ed578063ff0c4d6a14610204576100a1565b806350051c27146100a35780635960ce41146100ce57806359852686146100f9578063598c5b421461010357806393c1dfde1461012c576100a1565b5b005b3480156100af57600080fd5b506100b861022d565b6040516100c5919061110a565b60405180910390f35b3480156100da57600080fd5b506100e3610302565b6040516100f0919061110a565b60405180910390f35b6101016103a4565b005b34801561010f57600080fd5b5061012a600480360381019061012591906111b4565b61048d565b005b34801561013857600080fd5b5061014161057c565b60405161014e919061110a565b60405180910390f35b34801561016357600080fd5b5061017e60048036038101906101799190611232565b610644565b005b34801561018c57600080fd5b506101956106d9565b6040516101a29190611281565b60405180910390f35b3480156101b757600080fd5b506101c06106e1565b6040516101cd919061110a565b60405180910390f35b3480156101e257600080fd5b506101eb6106e9565b005b3480156101f957600080fd5b50610202610d62565b005b34801561021057600080fd5b5061022b6004803603810190610226919061129c565b610f66565b005b600080600460003373ffffffffffffffffffffffffffffffffffffffff1673ffffffffffffffffffffffffffffffffffffffff16815260200190815260200160002054116102b0576040517f08c379a00000000000000000000000000000000000000000000000000000000081526004016102a79061134c565b60405180910390fd5b600654600460003373ffffffffffffffffffffffffffffffffffffffff1673ffffffffffffffffffffffffffffffffffffffff168152602001908152602001600020546102fd91906113ca565b905090565b60008060009054906101000a900473ffffffffffffffffffffffffffffffffffffffff1673ffffffffffffffffffffffffffffffffffffffff166370a08231306040518263ffffffff1660e01b815260040161035e9190611281565b602060405180830381865afa15801561037b573d6000803e3d6000fd5b505050506040513d601f19601f8201168201806040525081019061039f9190611410565b905090565b600034116103e7576040517f08c379a00000000000000000000000000000000000000000000000000000000081526004016103de906114af565b60405180910390fd5b34600460003373ffffffffffffffffffffffffffffffffffffffff1673ffffffffffffffffffffffffffffffffffffffff168152602001908152602001600020600082825461043691906114cf565b925050819055503373ffffffffffffffffffffffffffffffffffffffff167f643e927b32d5bfd08eccd2fcbd97057ad413850f857a2359639114e8e8dd3d7b34604051610483919061154f565b60405180910390a2565b81610496610302565b10156104d7576040517f08c379a00000000000000000000000000000000000000000000000000000000081526004016104ce906115c9565b60405180910390fd5b60008054906101000a900473ffffffffffffffffffffffffffffffffffffffff1673ffffffffffffffffffffffffffffffffffffffff166323b872dd3083856040518463ffffffff1660e01b8152600401610534939291906115e9565b6020604051808303816000875af1158015610553573d6000803e3d6000fd5b505050506040513d601f19601f820116820180604052508101906105779190611658565b505050565b600080600560003373ffffffffffffffffffffffffffffffffffffffff1673ffffffffffffffffffffffffffffffffffffffff16815260200190815260200160002054116105ff576040517f08c379a00000000000000000000000000000000000000000000000000000000081526004016105f69061134c565b60405180910390fd5b600560003373ffffffffffffffffffffffffffffffffffffffff1673ffffffffffffffffffffffffffffffffffffffff16815260200190815260200160002054905090565b8161064d6106e1565b101561068e576040517f08c379a0000000000000000000000000000000000000000000000000000000008152600401610685906115c9565b60405180910390fd5b8073ffffffffffffffffffffffffffffffffffffffff166108fc839081150290604051600060405180830381858888f193505050501580156106d4573d6000803e3d6000fd5b505050565b600030905090565b600047905090565b6000600560003373ffffffffffffffffffffffffffffffffffffffff1673ffffffffffffffffffffffffffffffffffffffff168152602001908152602001600020541161076b576040517f08c379a00000000000000000000000000000000000000000000000000000000081526004016107629061134c565b60405180910390fd5b60003390506000600560003373ffffffffffffffffffffffffffffffffffffffff1673ffffffffffffffffffffffffffffffffffffffff168152602001908152602001600020549050600061271061012c836107c79190611685565b6107d191906113ca565b90506107db610302565b821015610a34573373ffffffffffffffffffffffffffffffffffffffff163073ffffffffffffffffffffffffffffffffffffffff167f0dcf3a61dc7c3baee8b16534aa240ff8db92f925e15dab89c55207690714e71b8460405161083f9190611713565b60405180910390a360008054906101000a900473ffffffffffffffffffffffffffffffffffffffff1673ffffffffffffffffffffffffffffffffffffffff166323b872dd600160009054906101000a900473ffffffffffffffffffffffffffffffffffffffff1673ffffffffffffffffffffffffffffffffffffffff16632ad415bd6040518163ffffffff1660e01b8152600401602060405180830381865afa1580156108f0573d6000803e3d6000fd5b505050506040513d601f19601f820116820180604052508101906109149190611756565b30848661092191906114cf565b6040518463ffffffff1660e01b815260040161093f939291906115e9565b6020604051808303816000875af115801561095e573d6000803e3d6000fd5b505050506040513d601f19601f820116820180604052508101906109829190611658565b5060008054906101000a900473ffffffffffffffffffffffffffffffffffffffff1673ffffffffffffffffffffffffffffffffffffffff166323b872dd308584866109cd91906114cf565b6040518463ffffffff1660e01b81526004016109eb939291906115e9565b6020604051808303816000875af1158015610a0a573d6000803e3d6000fd5b505050506040513d601f19601f82011682018060405250810190610a2e9190611658565b50610d5d565b60008054906101000a900473ffffffffffffffffffffffffffffffffffffffff1673ffffffffffffffffffffffffffffffffffffffff166323b872dd3085856040518463ffffffff1660e01b8152600401610a91939291906115e9565b6020604051808303816000875af1158015610ab0573d6000803e3d6000fd5b505050506040513d601f19601f82011682018060405250810190610ad49190611658565b506000600560003373ffffffffffffffffffffffffffffffffffffffff1673ffffffffffffffffffffffffffffffffffffffff1681526020019081526020016000208190555060008054906101000a900473ffffffffffffffffffffffffffffffffffffffff1673ffffffffffffffffffffffffffffffffffffffff166323b872dd600160009054906101000a900473ffffffffffffffffffffffffffffffffffffffff1673ffffffffffffffffffffffffffffffffffffffff16632ad415bd6040518163ffffffff1660e01b8152600401602060405180830381865afa158015610bc3573d6000803e3d6000fd5b505050506040513d601f19601f82011682018060405250810190610be79190611756565b30846040518463ffffffff1660e01b8152600401610c07939291906115e9565b6020604051808303816000875af1158015610c26573d6000803e3d6000fd5b505050506040513d601f19601f82011682018060405250810190610c4a9190611658565b5060008054906101000a900473ffffffffffffffffffffffffffffffffffffffff1673ffffffffffffffffffffffffffffffffffffffff166323b872dd3085846040518463ffffffff1660e01b8152600401610ca8939291906115e9565b6020604051808303816000875af1158015610cc7573d6000803e3d6000fd5b505050506040513d601f19601f82011682018060405250810190610ceb9190611658565b503373ffffffffffffffffffffffffffffffffffffffff163073ffffffffffffffffffffffffffffffffffffffff167f8c73b702b261c879bc4ebea83f44bd0c9a90cffb4aa0f324e52750d831b9cb4f8385610d4791906114cf565b604051610d5491906117f5565b60405180910390a35b505050565b6000600460003373ffffffffffffffffffffffffffffffffffffffff1673ffffffffffffffffffffffffffffffffffffffff1681526020019081526020016000205411610de4576040517f08c379a0000000000000000000000000000000000000000000000000000000008152600401610ddb9061134c565b60405180910390fd5b6000600460003373ffffffffffffffffffffffffffffffffffffffff1673ffffffffffffffffffffffffffffffffffffffff168152602001908152602001600020549050600061271061012c83610e3b9190611685565b610e4591906113ca565b90503373ffffffffffffffffffffffffffffffffffffffff166108fc839081150290604051600060405180830381858888f19350505050158015610e8d573d6000803e3d6000fd5b50600160009054906101000a900473ffffffffffffffffffffffffffffffffffffffff1673ffffffffffffffffffffffffffffffffffffffff1663ea58a98282336040518363ffffffff1660e01b8152600401610eeb929190611882565b600060405180830381600087803b158015610f0557600080fd5b505af1158015610f19573d6000803e3d6000fd5b505050506000600460003373ffffffffffffffffffffffffffffffffffffffff1673ffffffffffffffffffffffffffffffffffffffff168152602001908152602001600020819055505050565b60008111610fa9576040517f08c379a0000000000000000000000000000000000000000000000000000000008152600401610fa09061191d565b60405180910390fd5b60008054906101000a900473ffffffffffffffffffffffffffffffffffffffff1673ffffffffffffffffffffffffffffffffffffffff166323b872dd3330846040518463ffffffff1660e01b8152600401611006939291906115e9565b6020604051808303816000875af1158015611025573d6000803e3d6000fd5b505050506040513d601f19601f820116820180604052508101906110499190611658565b5080600560003373ffffffffffffffffffffffffffffffffffffffff1673ffffffffffffffffffffffffffffffffffffffff168152602001908152602001600020600082825461109991906114cf565b925050819055503373ffffffffffffffffffffffffffffffffffffffff167f643e927b32d5bfd08eccd2fcbd97057ad413850f857a2359639114e8e8dd3d7b826040516110e6919061154f565b60405180910390a250565b6000819050919050565b611104816110f1565b82525050565b600060208201905061111f60008301846110fb565b92915050565b600080fd5b611133816110f1565b811461113e57600080fd5b50565b6000813590506111508161112a565b92915050565b600073ffffffffffffffffffffffffffffffffffffffff82169050919050565b600061118182611156565b9050919050565b61119181611176565b811461119c57600080fd5b50565b6000813590506111ae81611188565b92915050565b600080604083850312156111cb576111ca611125565b5b60006111d985828601611141565b92505060206111ea8582860161119f565b9150509250929050565b60006111ff82611156565b9050919050565b61120f816111f4565b811461121a57600080fd5b50565b60008135905061122c81611206565b92915050565b6000806040838503121561124957611248611125565b5b600061125785828601611141565b92505060206112688582860161121d565b9150509250929050565b61127b81611176565b82525050565b60006020820190506112966000830184611272565b92915050565b6000602082840312156112b2576112b1611125565b5b60006112c084828501611141565b91505092915050565b600082825260208201905092915050565b7f596f7520646f206e6f742068617665206f75747374616e64696e672066756e6460008201527f7320696e20746865204c6971756469747920506f6f6c00000000000000000000602082015250565b60006113366036836112c9565b9150611341826112da565b604082019050919050565b6000602082019050818103600083015261136581611329565b9050919050565b7f4e487b7100000000000000000000000000000000000000000000000000000000600052601260045260246000fd5b7f4e487b7100000000000000000000000000000000000000000000000000000000600052601160045260246000fd5b60006113d5826110f1565b91506113e0836110f1565b9250826113f0576113ef61136c565b5b828204905092915050565b60008151905061140a8161112a565b92915050565b60006020828403121561142657611425611125565b5b6000611434848285016113fb565b91505092915050565b7f54686520616d6f756e74206f6620657468657220746f207472616e736665722060008201527f6d757374206265206d6f7265207468616e203000000000000000000000000000602082015250565b60006114996033836112c9565b91506114a48261143d565b604082019050919050565b600060208201905081810360008301526114c88161148c565b9050919050565b60006114da826110f1565b91506114e5836110f1565b92508282019050808211156114fd576114fc61139b565b5b92915050565b7f596f7572206465706f73697420686173206265656e206d616465000000000000600082015250565b6000611539601a836112c9565b915061154482611503565b602082019050919050565b600060408201905061156460008301846110fb565b81810360208301526115758161152c565b905092915050565b7f4c5020646f6573206e6f74206861766520656e6f7567682066756e6473000000600082015250565b60006115b3601d836112c9565b91506115be8261157d565b602082019050919050565b600060208201905081810360008301526115e2816115a6565b9050919050565b60006060820190506115fe6000830186611272565b61160b6020830185611272565b61161860408301846110fb565b949350505050565b60008115159050919050565b61163581611620565b811461164057600080fd5b50565b6000815190506116528161162c565b92915050565b60006020828403121561166e5761166d611125565b5b600061167c84828501611643565b91505092915050565b6000611690826110f1565b915061169b836110f1565b92508282026116a9816110f1565b915082820484148315176116c0576116bf61139b565b5b5092915050565b7f5769746864726177696e672066726f6d20726573657276657300000000000000600082015250565b60006116fd6019836112c9565b9150611708826116c7565b602082019050919050565b600060408201905061172860008301846110fb565b8181036020830152611739816116f0565b905092915050565b60008151905061175081611188565b92915050565b60006020828403121561176c5761176b611125565b5b600061177a84828501611741565b91505092915050565b7f596f75722061737365747320686173206265656e207375636365737366756c6c60008201527f792077697468647261776e000000000000000000000000000000000000000000602082015250565b60006117df602b836112c9565b91506117ea82611783565b604082019050919050565b600060408201905061180a60008301846110fb565b818103602083015261181b816117d2565b905092915050565b6000819050919050565b600061184861184361183e84611156565b611823565b611156565b9050919050565b600061185a8261182d565b9050919050565b600061186c8261184f565b9050919050565b61187c81611861565b82525050565b600060408201905061189760008301856110fb565b6118a46020830184611873565b9392505050565b7f54686520616d6f756e74206f66204176617820746f207472616e73666572206d60008201527f757374206265206d6f7265207468616e20300000000000000000000000000000602082015250565b60006119076032836112c9565b9150611912826118ab565b604082019050919050565b60006020820190508181036000830152611936816118fa565b905091905056fea26469706673582212205631f2871b946612df96de0e0fb854f8aef66851ce3abea8b10f6871fdc402be64736f6c63430008110033",
  "immutableReferences": {},
  "source": "// SPDX-License-Identifier: MIT\npragma solidity ^0.8.7;\nimport \"./Avax.sol\";\nimport \"./Reserves.sol\";\nimport \"./ERC20.sol\";\n\ncontract LiquidityPool {\n    Avax avaxToken;\n    Reserves reserves;\n    address thisContract = address(this);\n    address contractOwner = msg.sender;\n\n    mapping(address => uint256) ethTokenMap;\n    mapping(address => uint256) avaxTokenMap;\n\n    event Deposit(address indexed _from, uint _value, string _message);\n    event Withdraw(address indexed _from, address indexed _to, uint _value, string _message);\n    event withDrawingFromReserves ( address indexed _from, address indexed _to, uint _value, string _message);\n    uint256 oneEth = 1000000000000000000;\n\n    constructor(Avax avaxTokenAddress, Reserves reservesAddress) {\n        avaxToken = avaxTokenAddress;\n        reserves = reservesAddress;\n    }\n\n     //Function takes in specified amount of eth sent by the msg.sender\n    function transferEth() public payable {\n        require(msg.value > 0, \"The amount of ether to transfer must be more than 0\");\n        ethTokenMap[msg.sender] += msg.value;\n        emit Deposit(msg.sender, msg.value, \"Your deposit has been made\");\n    }\n\n    //Functions to return the amount of Eth this address lent the Protocol\n    function getEthAmountLoan() public view onlyLender returns (uint256) {\n        return (ethTokenMap[msg.sender] / oneEth);\n    }\n\n    //Return the Total Value Locked inside the ETH pool\n    function getEthTvl() public view returns (uint256) {\n        return address(this).balance;\n    }\n    \n    \n    //Function allows borrower to withdraw all their eth that they have lent the protocol\n    //not complete yet as, original loan should be paid by the pool\n    //Yield from the reserves\n    //***Still unable to send eth from Reserves to LP contract\n    // add if statement\n    function withDrawAllEth() public onlyLender {\n        uint256 amountLent = ethTokenMap[msg.sender];\n        uint256 yield = amountLent * 300 / 10_000 ; // 3 % of the amtLent, yield should come from reserves\n        payable(msg.sender).transfer(amountLent);\n        reserves.sendEthToLP(yield, payable(msg.sender));\n        ethTokenMap[msg.sender] = 0; //Reset the loan back to 0\n    }\n\n   \n    function transferAvax(uint256 amount) public {\n        require(amount > 0, \"The amount of Avax to transfer must be more than 0\");\n        //usdcPool += amount; //adds the value to the pool\n        avaxToken.transferFrom(msg.sender, address(this), amount);\n        avaxTokenMap[msg.sender] += amount;\n        emit Deposit(msg.sender, amount, \"Your deposit has been made\");\n    }\n\n     //Return the Total Value Locked inside the USDC pool\n    function getAvaxTvl() public view returns (uint256) {\n         return avaxToken.balanceOf(address(this));\n    }\n\n     //Functions to return the amount of Eth this address lent the Protocol\n    function getAvaxAmountLoan() public view onlyLenderAvax returns (uint256) {\n        return (avaxTokenMap[msg.sender]);\n    }\n\n    function withDrawAllAvax() public onlyLenderAvax {\n        address addressToSend = msg.sender;\n        uint256 amountLent = avaxTokenMap[msg.sender];\n        uint256 yield = amountLent * 300 / 10_000 ; // 3 % of the amtLent, yield should come from reserves\n        if (amountLent < getAvaxTvl()) {\n            //Withdraw From Reserves\n            emit withDrawingFromReserves(address(this), msg.sender, amountLent, \"Withdrawing from reserves\");\n            avaxToken.transferFrom(reserves.getReservesAddress(), address(this), (amountLent + yield)); // send from Reserves to LP First\n            avaxToken.transferFrom(address(this), addressToSend, (amountLent + yield)); //Send from LP to wallet\n        } else {\n            //Do not require assets from reserves, only yield\n             avaxToken.transferFrom(address(this), addressToSend, amountLent); //Sent lent amount to wallet from the pool\n             avaxTokenMap[msg.sender] = 0; //Set to 0 to reset the loan\n             avaxToken.transferFrom(reserves.getReservesAddress(), address(this), yield); // Send yield from Reserves to LP first\n             avaxToken.transferFrom(address(this), addressToSend, yield); // Send yield from LP to wallet\n             emit Withdraw(address(this), msg.sender, (amountLent + yield), \"Your assets has been successfully withdrawn\");\n        } \n    }\n\n    function getLPAddress() public view returns (address) {\n        return address(this);\n    }\n\n    function sendAvaxToLendingContract(uint256 amountToSend, address lendingContractAddress) public {\n        require (getAvaxTvl() >= amountToSend, \"LP does not have enough funds\");\n        avaxToken.transferFrom(address(this), lendingContractAddress, amountToSend);\n    }\n\n    function sendEthToLender(uint256 amountToSend, address payable lenderAddress) public {\n        require (getEthTvl() >= amountToSend, \"LP does not have enough funds\");\n        lenderAddress.transfer(amountToSend);\n    }\n\n    modifier onlyLender() {\n        require(ethTokenMap[msg.sender] > 0, \"You do not have outstanding funds in the Liqudity Pool\");\n        _;\n    }\n\n    modifier onlyLenderAvax() {\n        require(avaxTokenMap[msg.sender] > 0, \"You do not have outstanding funds in the Liqudity Pool\");\n        _;\n    }\n\n    //Used to accept Eth\n    fallback() external payable{}\n}\n",
  "sourcePath": "/Users/yijie/Desktop/Y2S2/IS4302/Project/IS4302_Group_6_Project/contracts/LiquidityPool.sol",
  "compiler": {
    "name": "solc",
    "version": "0.8.17+commit.8df45f5f.Emscripten.clang"
  },
  "schemaVersion": "3.4.11",
  "updatedAt": "2023-03-21T10:45:09.853Z",
  "networkType": "ethereum",
  "devdoc": {
    "kind": "dev",
    "methods": {},
    "version": 1
  },
  "userdoc": {
    "kind": "user",
    "methods": {},
    "version": 1
  }
}