{
  "contractName": "LiquidityPool",
  "abi": [
    {
      "inputs": [
        {
          "internalType": "contract USDC",
          "name": "usdcTokenAddress",
          "type": "address"
        },
        {
          "internalType": "uint256",
          "name": "platformFee",
          "type": "uint256"
        },
        {
          "internalType": "contract Reserves",
          "name": "reservesAddress",
          "type": "address"
        }
      ],
      "stateMutability": "nonpayable",
      "type": "constructor"
    },
    {
      "inputs": [
        {
          "internalType": "uint256",
          "name": "amount",
          "type": "uint256"
        }
      ],
      "name": "transferEth",
      "outputs": [],
      "stateMutability": "payable",
      "type": "function"
    },
    {
      "inputs": [
        {
          "internalType": "uint256",
          "name": "amount",
          "type": "uint256"
        }
      ],
      "name": "transferUSDC",
      "outputs": [],
      "stateMutability": "payable",
      "type": "function"
    },
    {
      "inputs": [
        {
          "internalType": "uint256",
          "name": "amountToWithdraw",
          "type": "uint256"
        }
      ],
      "name": "withdrawEth",
      "outputs": [],
      "stateMutability": "nonpayable",
      "type": "function"
    },
    {
      "inputs": [
        {
          "internalType": "uint256",
          "name": "amountToWithdraw",
          "type": "uint256"
        }
      ],
      "name": "withdrawUSDC",
      "outputs": [],
      "stateMutability": "nonpayable",
      "type": "function"
    },
    {
      "inputs": [],
      "name": "getAddress",
      "outputs": [
        {
          "internalType": "address",
          "name": "",
          "type": "address"
        }
      ],
      "stateMutability": "view",
      "type": "function"
    }
  ],
  "bytecode": "0x608060405230600560006101000a81548173ffffffffffffffffffffffffffffffffffffffff021916908373ffffffffffffffffffffffffffffffffffffffff16021790555033600660006101000a81548173ffffffffffffffffffffffffffffffffffffffff021916908373ffffffffffffffffffffffffffffffffffffffff1602179055503480156200009357600080fd5b5060405162000fe338038062000fe38339818101604052810190620000b9919062000248565b826000806101000a81548173ffffffffffffffffffffffffffffffffffffffff021916908373ffffffffffffffffffffffffffffffffffffffff1602179055508160028190555080600160006101000a81548173ffffffffffffffffffffffffffffffffffffffff021916908373ffffffffffffffffffffffffffffffffffffffff160217905550505050620002a4565b600080fd5b600073ffffffffffffffffffffffffffffffffffffffff82169050919050565b60006200017c826200014f565b9050919050565b600062000190826200016f565b9050919050565b620001a28162000183565b8114620001ae57600080fd5b50565b600081519050620001c28162000197565b92915050565b6000819050919050565b620001dd81620001c8565b8114620001e957600080fd5b50565b600081519050620001fd81620001d2565b92915050565b600062000210826200016f565b9050919050565b620002228162000203565b81146200022e57600080fd5b50565b600081519050620002428162000217565b92915050565b6000806000606084860312156200026457620002636200014a565b5b60006200027486828701620001b1565b93505060206200028786828701620001ec565b92505060406200029a8682870162000231565b9150509250925092565b610d2f80620002b46000396000f3fe60806040526004361061004a5760003560e01c80631f57256f1461004f57806338cc48311461006b5780633b7945a814610096578063c311d049146100b2578063db81f99b146100db575b600080fd5b6100696004803603810190610064919061078a565b610104565b005b34801561007757600080fd5b506100806101b9565b60405161008d91906107f8565b60405180910390f35b6100b060048036038101906100ab919061078a565b6101e3565b005b3480156100be57600080fd5b506100d960048036038101906100d4919061078a565b610298565b005b3480156100e757600080fd5b5061010260048036038101906100fd919061078a565b6104b3565b005b60008111610147576040517f08c379a000000000000000000000000000000000000000000000000000000000815260040161013e90610896565b60405180910390fd5b806003600082825461015991906108e5565b9250508190555080600760003373ffffffffffffffffffffffffffffffffffffffff1673ffffffffffffffffffffffffffffffffffffffff16815260200190815260200160002060008282546101af91906108e5565b9250508190555050565b6000600560009054906101000a900473ffffffffffffffffffffffffffffffffffffffff16905090565b60008111610226576040517f08c379a000000000000000000000000000000000000000000000000000000000815260040161021d9061098b565b60405180910390fd5b806004600082825461023891906108e5565b9250508190555080600860003373ffffffffffffffffffffffffffffffffffffffff1673ffffffffffffffffffffffffffffffffffffffff168152602001908152602001600020600082825461028e91906108e5565b9250508190555050565b6000600760003373ffffffffffffffffffffffffffffffffffffffff1673ffffffffffffffffffffffffffffffffffffffff1681526020019081526020016000205490508181101561031f576040517f08c379a000000000000000000000000000000000000000000000000000000000815260040161031690610a43565b60405180910390fd5b600061271061012c846103329190610a63565b61033c9190610ad4565b90506000600160009054906101000a900473ffffffffffffffffffffffffffffffffffffffff1673ffffffffffffffffffffffffffffffffffffffff1663c311d049836040518263ffffffff1660e01b815260040161039b9190610b14565b6020604051808303816000875af11580156103ba573d6000803e3d6000fd5b505050506040513d601f19601f820116820180604052508101906103de9190610b44565b9050600081856103ee91906108e5565b905084600360008282546104029190610b71565b9250508190555084600760003373ffffffffffffffffffffffffffffffffffffffff1673ffffffffffffffffffffffffffffffffffffffff16815260200190815260200160002060008282546104589190610b71565b9250508190555060003390508073ffffffffffffffffffffffffffffffffffffffff166108fc839081150290604051600060405180830381858888f193505050501580156104aa573d6000803e3d6000fd5b50505050505050565b6000600860003373ffffffffffffffffffffffffffffffffffffffff1673ffffffffffffffffffffffffffffffffffffffff1681526020019081526020016000205490508181101561053a576040517f08c379a000000000000000000000000000000000000000000000000000000000815260040161053190610c3d565b60405180910390fd5b600061271061012c8461054d9190610a63565b6105579190610ad4565b90506000600160009054906101000a900473ffffffffffffffffffffffffffffffffffffffff1673ffffffffffffffffffffffffffffffffffffffff1663db81f99b836040518263ffffffff1660e01b81526004016105b69190610b14565b6020604051808303816000875af11580156105d5573d6000803e3d6000fd5b505050506040513d601f19601f820116820180604052508101906105f99190610b44565b90506000818561060991906108e5565b9050846004600082825461061d9190610b71565b9250508190555084600860003373ffffffffffffffffffffffffffffffffffffffff1673ffffffffffffffffffffffffffffffffffffffff16815260200190815260200160002060008282546106739190610b71565b92505081905550600033905060008060009054906101000a900473ffffffffffffffffffffffffffffffffffffffff1673ffffffffffffffffffffffffffffffffffffffff166323b872dd600560009054906101000a900473ffffffffffffffffffffffffffffffffffffffff1684866040518463ffffffff1660e01b815260040161070193929190610c5d565b6020604051808303816000875af1158015610720573d6000803e3d6000fd5b505050506040513d601f19601f820116820180604052508101906107449190610ccc565b905050505050505050565b600080fd5b6000819050919050565b61076781610754565b811461077257600080fd5b50565b6000813590506107848161075e565b92915050565b6000602082840312156107a05761079f61074f565b5b60006107ae84828501610775565b91505092915050565b600073ffffffffffffffffffffffffffffffffffffffff82169050919050565b60006107e2826107b7565b9050919050565b6107f2816107d7565b82525050565b600060208201905061080d60008301846107e9565b92915050565b600082825260208201905092915050565b7f54686520616d6f756e74206f6620657468657220746f207472616e736665722060008201527f6d757374206265206d6f7265207468616e203000000000000000000000000000602082015250565b6000610880603383610813565b915061088b82610824565b604082019050919050565b600060208201905081810360008301526108af81610873565b9050919050565b7f4e487b7100000000000000000000000000000000000000000000000000000000600052601160045260246000fd5b60006108f082610754565b91506108fb83610754565b9250828201905080821115610913576109126108b6565b5b92915050565b7f54686520616d6f756e74206f66205553444320746f207472616e73666572206d60008201527f757374206265206d6f7265207468616e20300000000000000000000000000000602082015250565b6000610975603283610813565b915061098082610919565b604082019050919050565b600060208201905081810360008301526109a481610968565b9050919050565b7f506c6561736520656e7375726520796f75206861766520656e6f75676820455460008201527f482062616c616e636520746f207769746864726177207468697320616d6f756e60208201527f7421000000000000000000000000000000000000000000000000000000000000604082015250565b6000610a2d604283610813565b9150610a38826109ab565b606082019050919050565b60006020820190508181036000830152610a5c81610a20565b9050919050565b6000610a6e82610754565b9150610a7983610754565b9250828202610a8781610754565b91508282048414831517610a9e57610a9d6108b6565b5b5092915050565b7f4e487b7100000000000000000000000000000000000000000000000000000000600052601260045260246000fd5b6000610adf82610754565b9150610aea83610754565b925082610afa57610af9610aa5565b5b828204905092915050565b610b0e81610754565b82525050565b6000602082019050610b296000830184610b05565b92915050565b600081519050610b3e8161075e565b92915050565b600060208284031215610b5a57610b5961074f565b5b6000610b6884828501610b2f565b91505092915050565b6000610b7c82610754565b9150610b8783610754565b9250828203905081811115610b9f57610b9e6108b6565b5b92915050565b7f506c6561736520656e7375726520796f75206861766520656e6f75676820555360008201527f44432062616c616e636520746f207769746864726177207468697320616d6f7560208201527f6e74210000000000000000000000000000000000000000000000000000000000604082015250565b6000610c27604383610813565b9150610c3282610ba5565b606082019050919050565b60006020820190508181036000830152610c5681610c1a565b9050919050565b6000606082019050610c7260008301866107e9565b610c7f60208301856107e9565b610c8c6040830184610b05565b949350505050565b60008115159050919050565b610ca981610c94565b8114610cb457600080fd5b50565b600081519050610cc681610ca0565b92915050565b600060208284031215610ce257610ce161074f565b5b6000610cf084828501610cb7565b9150509291505056fea264697066735822122043003e5a0424b3d604998105b7a04ba6b5134dde4ccbbfc9f4dcd0d21e9ccd8d64736f6c63430008110033",
  "immutableReferences": {},
  "source": "// SPDX-License-Identifier: MIT\npragma solidity ^0.8.7;\nimport \"./USDC.sol\";\nimport \"./Reserves.sol\";\n\ncontract LiquidityPool {\n    USDC usdcToken;\n    Reserves reserves;\n    uint256 platFee;\n    uint256 ethPool;\n    uint256 usdcPool;\n    address thisContract = address(this);\n    address contractOwner = msg.sender;\n    mapping(address => uint256) ethTokenMap;\n    mapping(address => uint256) usdcTokenMap;\n\n    constructor(USDC usdcTokenAddress, uint256 platformFee, Reserves reservesAddress) {\n        usdcToken = usdcTokenAddress;\n        platFee = platformFee;\n        reserves = reservesAddress;\n    }\n\n    function transferEth(uint256 amount) public payable {\n        require(amount > 0, \"The amount of ether to transfer must be more than 0\");\n        ethPool += amount;\n        ethTokenMap[msg.sender] += amount;\n    }\n\n    function transferUSDC(uint256 amount) public payable {\n        require(amount > 0, \"The amount of USDC to transfer must be more than 0\");\n        usdcPool += amount;\n        usdcTokenMap[msg.sender] += amount;\n    }\n\n    function withdrawEth(uint256 amountToWithdraw) public {\n        uint256 currentUserInvestedEth = ethTokenMap[msg.sender]; // get current user invested eth\n        require(currentUserInvestedEth >= amountToWithdraw, \"Please ensure you have enough ETH balance to withdraw this amount!\");\n        \n        uint256 yield = amountToWithdraw * 300 / 10_000 ; // 3 % of the amtToWithdraw\n        uint256 yieldWithdrew = reserves.withdrawEth(yield); // withdraw yield from reserves\n\n        uint256 finalWithdrawalAmt = amountToWithdraw + yieldWithdrew; // 60 + 3 = 63 eth\n        ethPool -= amountToWithdraw;\n        ethTokenMap[msg.sender] -= amountToWithdraw;\n        \n        // transfer final withdrawal amt back to the current user\n        address payable receipient  = payable(msg.sender);\n        receipient.transfer(finalWithdrawalAmt);\n    }\n\n    function withdrawUSDC(uint256 amountToWithdraw) public {\n        uint256 currentUserInvestedUSDC = usdcTokenMap[msg.sender]; // get current user invested USDC\n        require(currentUserInvestedUSDC >= amountToWithdraw, \"Please ensure you have enough USDC balance to withdraw this amount!\");\n\n        uint256 yield = amountToWithdraw * 300 / 10_000; // 3 % of the amountToWithdraw\n        uint256 yieldWithdrew = reserves.withdrawUSDC(yield); // withdraw usdc yield from reserves\n\n        uint256 finalWithdrawalAmt = amountToWithdraw + yieldWithdrew;\n        usdcPool -= amountToWithdraw;\n        usdcTokenMap[msg.sender] -= amountToWithdraw;\n\n        // transfer final withdrawal amt back to the current currentUser\n        address receipient = msg.sender;\n        bool isTransferred = usdcToken.transferFrom(thisContract, receipient, finalWithdrawalAmt);\n    }\n    function getAddress() public view returns (address) {\n        return thisContract;\n    }\n}",
  "sourcePath": "/Users/alwin/Developer/Liquiditas/contracts/LiquidityPool.sol",
  "compiler": {
    "name": "solc",
    "version": "0.8.17+commit.8df45f5f.Emscripten.clang"
  },
  "schemaVersion": "3.4.11",
  "updatedAt": "2023-02-22T08:35:04.642Z",
  "devdoc": {
    "kind": "dev",
    "methods": {},
    "version": 1
  },
  "userdoc": {
    "kind": "user",
    "methods": {},
    "version": 1
  }
}