{
  "contractName": "LiquidityPool",
  "abi": [
    {
      "inputs": [
        {
          "internalType": "contract USDC",
          "name": "usdcTokenAddress",
          "type": "address"
        },
        {
          "internalType": "contract Reserves",
          "name": "reservesAddress",
          "type": "address"
        }
      ],
      "stateMutability": "nonpayable",
      "type": "constructor"
    },
    {
      "anonymous": false,
      "inputs": [
        {
          "indexed": true,
          "internalType": "address",
          "name": "_from",
          "type": "address"
        },
        {
          "indexed": false,
          "internalType": "uint256",
          "name": "_value",
          "type": "uint256"
        },
        {
          "indexed": false,
          "internalType": "string",
          "name": "_message",
          "type": "string"
        }
      ],
      "name": "Deposit",
      "type": "event"
    },
    {
      "anonymous": false,
      "inputs": [
        {
          "indexed": true,
          "internalType": "address",
          "name": "_from",
          "type": "address"
        },
        {
          "indexed": true,
          "internalType": "address",
          "name": "_to",
          "type": "address"
        },
        {
          "indexed": false,
          "internalType": "uint256",
          "name": "_value",
          "type": "uint256"
        },
        {
          "indexed": false,
          "internalType": "string",
          "name": "_message",
          "type": "string"
        }
      ],
      "name": "Withdraw",
      "type": "event"
    },
    {
      "anonymous": false,
      "inputs": [
        {
          "indexed": true,
          "internalType": "address",
          "name": "_from",
          "type": "address"
        },
        {
          "indexed": true,
          "internalType": "address",
          "name": "_to",
          "type": "address"
        },
        {
          "indexed": false,
          "internalType": "uint256",
          "name": "_value",
          "type": "uint256"
        },
        {
          "indexed": false,
          "internalType": "string",
          "name": "_message",
          "type": "string"
        }
      ],
      "name": "withDrawingFromReserves",
      "type": "event"
    },
    {
      "inputs": [],
      "name": "transferEth",
      "outputs": [],
      "stateMutability": "payable",
      "type": "function",
      "payable": true
    },
    {
      "inputs": [],
      "name": "getEthAmountLoan",
      "outputs": [
        {
          "internalType": "uint256",
          "name": "",
          "type": "uint256"
        }
      ],
      "stateMutability": "view",
      "type": "function",
      "constant": true
    },
    {
      "inputs": [],
      "name": "getEthTvl",
      "outputs": [
        {
          "internalType": "uint256",
          "name": "",
          "type": "uint256"
        }
      ],
      "stateMutability": "view",
      "type": "function",
      "constant": true
    },
    {
      "inputs": [],
      "name": "withDrawAllEth",
      "outputs": [],
      "stateMutability": "nonpayable",
      "type": "function"
    },
    {
      "inputs": [
        {
          "internalType": "uint256",
          "name": "amount",
          "type": "uint256"
        }
      ],
      "name": "transferUSDC",
      "outputs": [],
      "stateMutability": "nonpayable",
      "type": "function"
    },
    {
      "inputs": [],
      "name": "getUSDCTvl",
      "outputs": [
        {
          "internalType": "uint256",
          "name": "",
          "type": "uint256"
        }
      ],
      "stateMutability": "view",
      "type": "function",
      "constant": true
    },
    {
      "inputs": [],
      "name": "getUSDCAmountLoan",
      "outputs": [
        {
          "internalType": "uint256",
          "name": "",
          "type": "uint256"
        }
      ],
      "stateMutability": "view",
      "type": "function",
      "constant": true
    },
    {
      "inputs": [],
      "name": "withDrawAllUSDC",
      "outputs": [],
      "stateMutability": "nonpayable",
      "type": "function"
    },
    {
      "inputs": [],
      "name": "getLPAddress",
      "outputs": [
        {
          "internalType": "address",
          "name": "",
          "type": "address"
        }
      ],
      "stateMutability": "view",
      "type": "function",
      "constant": true
    },
    {
      "inputs": [
        {
          "internalType": "uint256",
          "name": "amountToSend",
          "type": "uint256"
        },
        {
          "internalType": "address",
          "name": "lendingContractAddress",
          "type": "address"
        }
      ],
      "name": "sendUSDCToLendingContract",
      "outputs": [],
      "stateMutability": "nonpayable",
      "type": "function"
    }
  ],
  "bytecode": "0x608060405230600260006101000a81548173ffffffffffffffffffffffffffffffffffffffff021916908373ffffffffffffffffffffffffffffffffffffffff16021790555033600360006101000a81548173ffffffffffffffffffffffffffffffffffffffff021916908373ffffffffffffffffffffffffffffffffffffffff160217905550670de0b6b3a76400006006553480156200009f57600080fd5b5060405162001a9238038062001a928339818101604052810190620000c5919062000211565b816000806101000a81548173ffffffffffffffffffffffffffffffffffffffff021916908373ffffffffffffffffffffffffffffffffffffffff16021790555080600160006101000a81548173ffffffffffffffffffffffffffffffffffffffff021916908373ffffffffffffffffffffffffffffffffffffffff160217905550505062000258565b600080fd5b600073ffffffffffffffffffffffffffffffffffffffff82169050919050565b6000620001808262000153565b9050919050565b6000620001948262000173565b9050919050565b620001a68162000187565b8114620001b257600080fd5b50565b600081519050620001c6816200019b565b92915050565b6000620001d98262000173565b9050919050565b620001eb81620001cc565b8114620001f757600080fd5b50565b6000815190506200020b81620001e0565b92915050565b600080604083850312156200022b576200022a6200014e565b5b60006200023b85828601620001b5565b92505060206200024e85828601620001fa565b9150509250929050565b61182a80620002686000396000f3fe6080604052600436106100915760003560e01c8063598526861161005957806359852686146101555780636d97598a1461015f578063996e96f01461018a578063b2b69952146101b5578063fcf2e597146101e057610091565b806307cc30f6146100965780630b1bc8f7146100bf5780633b7945a8146100ea5780633ce2e76c1461011357806350051c271461012a575b600080fd5b3480156100a257600080fd5b506100bd60048036038101906100b891906110bf565b6101f7565b005b3480156100cb57600080fd5b506100d46102e6565b6040516100e1919061110e565b60405180910390f35b3480156100f657600080fd5b50610111600480360381019061010c9190611129565b6103ae565b005b34801561011f57600080fd5b50610128610539565b005b34801561013657600080fd5b5061013f610bb2565b60405161014c919061110e565b60405180910390f35b61015d610c87565b005b34801561016b57600080fd5b50610174610d70565b604051610181919061110e565b60405180910390f35b34801561019657600080fd5b5061019f610e12565b6040516101ac9190611165565b60405180910390f35b3480156101c157600080fd5b506101ca610e1a565b6040516101d7919061110e565b60405180910390f35b3480156101ec57600080fd5b506101f5610e22565b005b81610200610d70565b1015610241576040517f08c379a0000000000000000000000000000000000000000000000000000000008152600401610238906111dd565b60405180910390fd5b60008054906101000a900473ffffffffffffffffffffffffffffffffffffffff1673ffffffffffffffffffffffffffffffffffffffff166323b872dd3083856040518463ffffffff1660e01b815260040161029e939291906111fd565b6020604051808303816000875af11580156102bd573d6000803e3d6000fd5b505050506040513d601f19601f820116820180604052508101906102e1919061126c565b505050565b600080600560003373ffffffffffffffffffffffffffffffffffffffff1673ffffffffffffffffffffffffffffffffffffffff1681526020019081526020016000205411610369576040517f08c379a00000000000000000000000000000000000000000000000000000000081526004016103609061130b565b60405180910390fd5b600560003373ffffffffffffffffffffffffffffffffffffffff1673ffffffffffffffffffffffffffffffffffffffff16815260200190815260200160002054905090565b600081116103f1576040517f08c379a00000000000000000000000000000000000000000000000000000000081526004016103e89061139d565b60405180910390fd5b60008054906101000a900473ffffffffffffffffffffffffffffffffffffffff1673ffffffffffffffffffffffffffffffffffffffff166323b872dd3330846040518463ffffffff1660e01b815260040161044e939291906111fd565b6020604051808303816000875af115801561046d573d6000803e3d6000fd5b505050506040513d601f19601f82011682018060405250810190610491919061126c565b5080600560003373ffffffffffffffffffffffffffffffffffffffff1673ffffffffffffffffffffffffffffffffffffffff16815260200190815260200160002060008282546104e191906113ec565b925050819055503373ffffffffffffffffffffffffffffffffffffffff167f643e927b32d5bfd08eccd2fcbd97057ad413850f857a2359639114e8e8dd3d7b8260405161052e919061146c565b60405180910390a250565b6000600560003373ffffffffffffffffffffffffffffffffffffffff1673ffffffffffffffffffffffffffffffffffffffff16815260200190815260200160002054116105bb576040517f08c379a00000000000000000000000000000000000000000000000000000000081526004016105b29061130b565b60405180910390fd5b60003390506000600560003373ffffffffffffffffffffffffffffffffffffffff1673ffffffffffffffffffffffffffffffffffffffff168152602001908152602001600020549050600061271061012c83610617919061149a565b610621919061150b565b905061062b610d70565b821015610884573373ffffffffffffffffffffffffffffffffffffffff163073ffffffffffffffffffffffffffffffffffffffff167f0dcf3a61dc7c3baee8b16534aa240ff8db92f925e15dab89c55207690714e71b8460405161068f9190611588565b60405180910390a360008054906101000a900473ffffffffffffffffffffffffffffffffffffffff1673ffffffffffffffffffffffffffffffffffffffff166323b872dd600160009054906101000a900473ffffffffffffffffffffffffffffffffffffffff1673ffffffffffffffffffffffffffffffffffffffff16632ad415bd6040518163ffffffff1660e01b8152600401602060405180830381865afa158015610740573d6000803e3d6000fd5b505050506040513d601f19601f8201168201806040525081019061076491906115cb565b30848661077191906113ec565b6040518463ffffffff1660e01b815260040161078f939291906111fd565b6020604051808303816000875af11580156107ae573d6000803e3d6000fd5b505050506040513d601f19601f820116820180604052508101906107d2919061126c565b5060008054906101000a900473ffffffffffffffffffffffffffffffffffffffff1673ffffffffffffffffffffffffffffffffffffffff166323b872dd3085848661081d91906113ec565b6040518463ffffffff1660e01b815260040161083b939291906111fd565b6020604051808303816000875af115801561085a573d6000803e3d6000fd5b505050506040513d601f19601f8201168201806040525081019061087e919061126c565b50610bad565b60008054906101000a900473ffffffffffffffffffffffffffffffffffffffff1673ffffffffffffffffffffffffffffffffffffffff166323b872dd3085856040518463ffffffff1660e01b81526004016108e1939291906111fd565b6020604051808303816000875af1158015610900573d6000803e3d6000fd5b505050506040513d601f19601f82011682018060405250810190610924919061126c565b506000600560003373ffffffffffffffffffffffffffffffffffffffff1673ffffffffffffffffffffffffffffffffffffffff1681526020019081526020016000208190555060008054906101000a900473ffffffffffffffffffffffffffffffffffffffff1673ffffffffffffffffffffffffffffffffffffffff166323b872dd600160009054906101000a900473ffffffffffffffffffffffffffffffffffffffff1673ffffffffffffffffffffffffffffffffffffffff16632ad415bd6040518163ffffffff1660e01b8152600401602060405180830381865afa158015610a13573d6000803e3d6000fd5b505050506040513d601f19601f82011682018060405250810190610a3791906115cb565b30846040518463ffffffff1660e01b8152600401610a57939291906111fd565b6020604051808303816000875af1158015610a76573d6000803e3d6000fd5b505050506040513d601f19601f82011682018060405250810190610a9a919061126c565b5060008054906101000a900473ffffffffffffffffffffffffffffffffffffffff1673ffffffffffffffffffffffffffffffffffffffff166323b872dd3085846040518463ffffffff1660e01b8152600401610af8939291906111fd565b6020604051808303816000875af1158015610b17573d6000803e3d6000fd5b505050506040513d601f19601f82011682018060405250810190610b3b919061126c565b503373ffffffffffffffffffffffffffffffffffffffff163073ffffffffffffffffffffffffffffffffffffffff167f8c73b702b261c879bc4ebea83f44bd0c9a90cffb4aa0f324e52750d831b9cb4f8385610b9791906113ec565b604051610ba4919061166a565b60405180910390a35b505050565b600080600460003373ffffffffffffffffffffffffffffffffffffffff1673ffffffffffffffffffffffffffffffffffffffff1681526020019081526020016000205411610c35576040517f08c379a0000000000000000000000000000000000000000000000000000000008152600401610c2c9061130b565b60405180910390fd5b600654600460003373ffffffffffffffffffffffffffffffffffffffff1673ffffffffffffffffffffffffffffffffffffffff16815260200190815260200160002054610c82919061150b565b905090565b60003411610cca576040517f08c379a0000000000000000000000000000000000000000000000000000000008152600401610cc19061170a565b60405180910390fd5b34600460003373ffffffffffffffffffffffffffffffffffffffff1673ffffffffffffffffffffffffffffffffffffffff1681526020019081526020016000206000828254610d1991906113ec565b925050819055503373ffffffffffffffffffffffffffffffffffffffff167f643e927b32d5bfd08eccd2fcbd97057ad413850f857a2359639114e8e8dd3d7b34604051610d66919061146c565b60405180910390a2565b60008060009054906101000a900473ffffffffffffffffffffffffffffffffffffffff1673ffffffffffffffffffffffffffffffffffffffff166370a08231306040518263ffffffff1660e01b8152600401610dcc9190611165565b602060405180830381865afa158015610de9573d6000803e3d6000fd5b505050506040513d601f19601f82011682018060405250810190610e0d919061173f565b905090565b600030905090565b600047905090565b6000600460003373ffffffffffffffffffffffffffffffffffffffff1673ffffffffffffffffffffffffffffffffffffffff1681526020019081526020016000205411610ea4576040517f08c379a0000000000000000000000000000000000000000000000000000000008152600401610e9b9061130b565b60405180910390fd5b6000600460003373ffffffffffffffffffffffffffffffffffffffff1673ffffffffffffffffffffffffffffffffffffffff168152602001908152602001600020549050600061271061012c83610efb919061149a565b610f05919061150b565b90503373ffffffffffffffffffffffffffffffffffffffff166108fc839081150290604051600060405180830381858888f19350505050158015610f4d573d6000803e3d6000fd5b50600160009054906101000a900473ffffffffffffffffffffffffffffffffffffffff1673ffffffffffffffffffffffffffffffffffffffff1663ea58a98282336040518363ffffffff1660e01b8152600401610fab9291906117cb565b600060405180830381600087803b158015610fc557600080fd5b505af1158015610fd9573d6000803e3d6000fd5b505050506000600460003373ffffffffffffffffffffffffffffffffffffffff1673ffffffffffffffffffffffffffffffffffffffff168152602001908152602001600020819055505050565b600080fd5b6000819050919050565b61103e8161102b565b811461104957600080fd5b50565b60008135905061105b81611035565b92915050565b600073ffffffffffffffffffffffffffffffffffffffff82169050919050565b600061108c82611061565b9050919050565b61109c81611081565b81146110a757600080fd5b50565b6000813590506110b981611093565b92915050565b600080604083850312156110d6576110d5611026565b5b60006110e48582860161104c565b92505060206110f5858286016110aa565b9150509250929050565b6111088161102b565b82525050565b600060208201905061112360008301846110ff565b92915050565b60006020828403121561113f5761113e611026565b5b600061114d8482850161104c565b91505092915050565b61115f81611081565b82525050565b600060208201905061117a6000830184611156565b92915050565b600082825260208201905092915050565b7f4c5020646f6573206e6f74206861766520656e6f7567682066756e6473000000600082015250565b60006111c7601d83611180565b91506111d282611191565b602082019050919050565b600060208201905081810360008301526111f6816111ba565b9050919050565b60006060820190506112126000830186611156565b61121f6020830185611156565b61122c60408301846110ff565b949350505050565b60008115159050919050565b61124981611234565b811461125457600080fd5b50565b60008151905061126681611240565b92915050565b60006020828403121561128257611281611026565b5b600061129084828501611257565b91505092915050565b7f596f7520646f206e6f742068617665206f75747374616e64696e672066756e6460008201527f7320696e20746865204c6971756469747920506f6f6c00000000000000000000602082015250565b60006112f5603683611180565b915061130082611299565b604082019050919050565b60006020820190508181036000830152611324816112e8565b9050919050565b7f54686520616d6f756e74206f66205553444320746f207472616e73666572206d60008201527f757374206265206d6f7265207468616e20300000000000000000000000000000602082015250565b6000611387603283611180565b91506113928261132b565b604082019050919050565b600060208201905081810360008301526113b68161137a565b9050919050565b7f4e487b7100000000000000000000000000000000000000000000000000000000600052601160045260246000fd5b60006113f78261102b565b91506114028361102b565b925082820190508082111561141a576114196113bd565b5b92915050565b7f596f7572206465706f73697420686173206265656e206d616465000000000000600082015250565b6000611456601a83611180565b915061146182611420565b602082019050919050565b600060408201905061148160008301846110ff565b818103602083015261149281611449565b905092915050565b60006114a58261102b565b91506114b08361102b565b92508282026114be8161102b565b915082820484148315176114d5576114d46113bd565b5b5092915050565b7f4e487b7100000000000000000000000000000000000000000000000000000000600052601260045260246000fd5b60006115168261102b565b91506115218361102b565b925082611531576115306114dc565b5b828204905092915050565b7f5769746864726177696e672066726f6d20726573657276657300000000000000600082015250565b6000611572601983611180565b915061157d8261153c565b602082019050919050565b600060408201905061159d60008301846110ff565b81810360208301526115ae81611565565b905092915050565b6000815190506115c581611093565b92915050565b6000602082840312156115e1576115e0611026565b5b60006115ef848285016115b6565b91505092915050565b7f596f75722061737365747320686173206265656e207375636365737366756c6c60008201527f792077697468647261776e000000000000000000000000000000000000000000602082015250565b6000611654602b83611180565b915061165f826115f8565b604082019050919050565b600060408201905061167f60008301846110ff565b818103602083015261169081611647565b905092915050565b7f54686520616d6f756e74206f6620657468657220746f207472616e736665722060008201527f6d757374206265206d6f7265207468616e203000000000000000000000000000602082015250565b60006116f4603383611180565b91506116ff82611698565b604082019050919050565b60006020820190508181036000830152611723816116e7565b9050919050565b60008151905061173981611035565b92915050565b60006020828403121561175557611754611026565b5b60006117638482850161172a565b91505092915050565b6000819050919050565b600061179161178c61178784611061565b61176c565b611061565b9050919050565b60006117a382611776565b9050919050565b60006117b582611798565b9050919050565b6117c5816117aa565b82525050565b60006040820190506117e060008301856110ff565b6117ed60208301846117bc565b939250505056fea26469706673582212205790f5aef6b7c0013f41727320f105c8f2aa6b75ca16158db23d788a4882a1ab64736f6c63430008110033",
  "immutableReferences": {},
  "source": "// SPDX-License-Identifier: MIT\npragma solidity ^0.8.7;\nimport \"./USDC.sol\";\nimport \"./Reserves.sol\";\nimport \"./ERC20.sol\";\n\ncontract LiquidityPool {\n    USDC usdcToken;\n    Reserves reserves;\n    address thisContract = address(this);\n    address contractOwner = msg.sender;\n    mapping(address => uint256) ethTokenMap;\n    mapping(address => uint256) usdcTokenMap;\n    event Deposit(address indexed _from, uint _value, string _message);\n    event Withdraw(address indexed _from, address indexed _to, uint _value, string _message);\n    event withDrawingFromReserves ( address indexed _from, address indexed _to, uint _value, string _message);\n    uint256 oneEth = 1000000000000000000;\n\n    constructor(USDC usdcTokenAddress, Reserves reservesAddress) {\n        usdcToken = usdcTokenAddress;\n        reserves = reservesAddress;\n    }\n\n   \n     //Function takes in specified Amount of eth sent by the msg.sender\n    function transferEth() public payable {\n        require(msg.value > 0, \"The amount of ether to transfer must be more than 0\");\n        ethTokenMap[msg.sender] += msg.value;\n        emit Deposit(msg.sender, msg.value, \"Your deposit has been made\");\n    }\n\n    //Functions to return the amount of Eth this address lent the Protocol\n    function getEthAmountLoan() public view onlyLender returns (uint256) {\n        return (ethTokenMap[msg.sender] / oneEth);\n    }\n\n     modifier onlyLender() {\n        require(ethTokenMap[msg.sender] > 0, \"You do not have outstanding funds in the Liqudity Pool\");\n        _;\n    }\n\n    //Return the Total Value Locked inside the ETH pool\n    function getEthTvl() public view returns (uint256) {\n        return address(this).balance;\n    }\n    \n    \n    //Function allows borrower to withdraw all their eth that they have lent the protocol\n    //not complete yet as, original loan should be paid by the pool\n    //Yield from the reserves\n    //***Still unable to send eth from Reserves to LP contract\n    // add if statement\n    function withDrawAllEth() public onlyLender {\n        uint256 amountLent = ethTokenMap[msg.sender];\n        uint256 yield = amountLent * 300 / 10_000 ; // 3 % of the amtLent, yield should come from reserves\n        payable(msg.sender).transfer(amountLent);\n        reserves.sendEthToLP(yield, payable(msg.sender));\n        ethTokenMap[msg.sender] = 0; //Reset the loan back to 0\n    }\n\n   \n    function transferUSDC(uint256 amount) public {\n        require(amount > 0, \"The amount of USDC to transfer must be more than 0\");\n        //usdcPool += amount; //adds the value to the pool\n        usdcToken.transferFrom(msg.sender, address(this), amount);\n        usdcTokenMap[msg.sender] += amount;\n        emit Deposit(msg.sender, amount, \"Your deposit has been made\");\n    }\n\n     //Return the Total Value Locked inside the USDC pool\n    function getUSDCTvl() public view returns (uint256) {\n         return usdcToken.balanceOf(address(this));\n    }\n\n     //Functions to return the amount of Eth this address lent the Protocol\n    function getUSDCAmountLoan() public view onlyLenderUSDC returns (uint256) {\n        return (usdcTokenMap[msg.sender]);\n    }\n\n    function withDrawAllUSDC() public onlyLenderUSDC {\n        address addressToSend = msg.sender;\n        uint256 amountLent = usdcTokenMap[msg.sender];\n        uint256 yield = amountLent * 300 / 10_000 ; // 3 % of the amtLent, yield should come from reserves\n        if (amountLent < getUSDCTvl()) {\n            //Withdraw From Reserves\n            emit withDrawingFromReserves(address(this), msg.sender, amountLent, \"Withdrawing from reserves\");\n            usdcToken.transferFrom(reserves.getReservesAddress(), address(this), (amountLent + yield)); // send from Reserves to LP First\n            usdcToken.transferFrom(address(this), addressToSend, (amountLent + yield)); //Send from LP to wallet\n        } else {\n            //Do not require assets from reserves, only yield\n             usdcToken.transferFrom(address(this), addressToSend, amountLent); //Sent lent amount to wallet from the pool\n             usdcTokenMap[msg.sender] = 0; //Set to 0 to reset the loan\n             usdcToken.transferFrom(reserves.getReservesAddress(), address(this), yield); // Send yield from Reserves to LP first\n             usdcToken.transferFrom(address(this), addressToSend, yield); // Send yield from LP to wallet\n            emit Withdraw(address(this), msg.sender, (amountLent + yield), \"Your assets has been successfully withdrawn\");\n        } \n    }\n\n     modifier onlyLenderUSDC() {\n        require(usdcTokenMap[msg.sender] > 0, \"You do not have outstanding funds in the Liqudity Pool\");\n        _;\n    }\n\n    function getLPAddress() public view returns (address) {\n        return address(this);\n    }\n\n    function sendUSDCToLendingContract(uint256 amountToSend, address lendingContractAddress) public {\n        require (getUSDCTvl() >= amountToSend, \"LP does not have enough funds\");\n        usdcToken.transferFrom(address(this), lendingContractAddress, amountToSend);\n    }\n}",
  "sourcePath": "/Users/yijie/Desktop/Y2S2/IS4302/Project/IS4302_Group_6_Project/contracts/LiquidityPool.sol",
  "compiler": {
    "name": "solc",
    "version": "0.8.17+commit.8df45f5f.Emscripten.clang"
  },
  "schemaVersion": "3.4.11",
  "updatedAt": "2023-03-01T02:54:24.166Z",
  "networkType": "ethereum",
  "devdoc": {
    "kind": "dev",
    "methods": {},
    "version": 1
  },
  "userdoc": {
    "kind": "user",
    "methods": {},
    "version": 1
  }
}