{
  "contractName": "Oraculum",
  "abi": [
    {
      "inputs": [],
      "stateMutability": "nonpayable",
      "type": "constructor"
    },
    {
      "anonymous": false,
      "inputs": [],
      "name": "NewValuation",
      "type": "event"
    },
    {
      "inputs": [],
      "name": "queryNewValuations",
      "outputs": [],
      "stateMutability": "nonpayable",
      "type": "function"
    },
    {
      "inputs": [],
      "name": "ratioBCEC",
      "outputs": [
        {
          "internalType": "uint256",
          "name": "",
          "type": "uint256"
        }
      ],
      "stateMutability": "view",
      "type": "function"
    },
    {
      "inputs": [],
      "name": "ratioBCSC",
      "outputs": [
        {
          "internalType": "uint256",
          "name": "",
          "type": "uint256"
        }
      ],
      "stateMutability": "view",
      "type": "function"
    },
    {
      "inputs": [],
      "name": "ratioECSC",
      "outputs": [
        {
          "internalType": "uint256",
          "name": "",
          "type": "uint256"
        }
      ],
      "stateMutability": "view",
      "type": "function"
    },
    {
      "inputs": [],
      "name": "queryCurrentBCValue",
      "outputs": [
        {
          "internalType": "uint256",
          "name": "",
          "type": "uint256"
        }
      ],
      "stateMutability": "view",
      "type": "function"
    },
    {
      "inputs": [],
      "name": "queryCurrentECValue",
      "outputs": [
        {
          "internalType": "uint256",
          "name": "",
          "type": "uint256"
        }
      ],
      "stateMutability": "view",
      "type": "function"
    },
    {
      "inputs": [],
      "name": "queryCurrentSCValue",
      "outputs": [
        {
          "internalType": "uint256",
          "name": "",
          "type": "uint256"
        }
      ],
      "stateMutability": "view",
      "type": "function"
    }
  ],
  "bytecode": "0x608060405234801561001057600080fd5b506127106000819055506103e8600181905550600a6002819055506102b48061003a6000396000f3fe608060405234801561001057600080fd5b506004361061007d5760003560e01c8063c41c576a1161005b578063c41c576a146100dc578063d1e77cc3146100fa578063e0de910314610118578063f9aeb101146101365761007d565b80631779fced1461008257806381120386146100a0578063a9604f24146100be575b600080fd5b61008a610140565b6040516100979190610203565b60405180910390f35b6100a8610149565b6040516100b59190610203565b60405180910390f35b6100c6610160565b6040516100d39190610203565b60405180910390f35b6100e4610177565b6040516100f19190610203565b60405180910390f35b610102610181565b60405161010f9190610203565b60405180910390f35b61012061018b565b60405161012d9190610203565b60405180910390f35b61013e6101a2565b005b60008054905090565b600060025460015461015b919061024d565b905090565b6000600154600054610172919061024d565b905090565b6000600154905090565b6000600254905090565b600060025460005461019d919061024d565b905090565b613a986000819055506103e860018190555060056002819055507f7d7fc1c2d4af2192fb9a2bf7066f53816ed1f365613d3a80751bcf64c1d8128d60405160405180910390a1565b6000819050919050565b6101fd816101ea565b82525050565b600060208201905061021860008301846101f4565b92915050565b7f4e487b7100000000000000000000000000000000000000000000000000000000600052601260045260246000fd5b6000610258826101ea565b9150610263836101ea565b9250826102735761027261021e565b5b82820490509291505056fea26469706673582212209dc84a490f8eccb53809e5fe2255ebfe2defdc05494d5155f076971ec6be760a64736f6c63430008110033",
  "immutableReferences": {},
  "source": "// SPDX-License-Identifier: MIT\npragma solidity ^0.8.17;\n\ncontract Oraculum {\n\n    uint256 valueBeetCoin;\n    uint256 valueEternumCoin;\n    uint256 valueSolarisCoin;\n\n    // Stimulating an Oracle for the latest market value of currencies available\n    // For demonstration purposes, new values will be statically created (instead of dynamic)\n    // Values are based on 1 Peer Token\n\n    constructor() {\n        valueBeetCoin = 10000;      // 1 BeetCoin == 10 ETH == 10000 PeerToken\n        valueEternumCoin = 1000;    // 1 EternumCoin == 1 ETH == 1000 PeerToken\n        valueSolarisCoin = 10;      // 1 SolarisCoin == 0.01 ETH == 10 PeerToken\n    }\n\n    event NewValuation();\n\n    function queryNewValuations() public {\n        // Demonstrates increase in value\n        valueBeetCoin = 1 * 15000;\n\n        // Demonstrates no change in value\n        valueEternumCoin = 1 * 1000;\n\n        // Demonstrates decreases in value\n        valueSolarisCoin = 1 * 5;\n\n        emit NewValuation();\n    }\n\n    /* Getter Methods For Ratio Between Currencies */\n\n    function ratioBCEC() public view returns (uint256) {\n        return valueBeetCoin / valueEternumCoin;\n    }\n\n    function ratioBCSC() public view returns (uint256) {\n        return valueBeetCoin / valueSolarisCoin;\n    }\n\n    function ratioECSC() public view returns (uint256) {\n        return valueEternumCoin / valueSolarisCoin;\n    }\n\n    /* Get Methods For Testing */\n    \n    // BeetCoin\n    function queryCurrentBCValue() public view returns (uint256) {\n        return valueBeetCoin;\n    }\n\n    // EternumCoin \n    function queryCurrentECValue() public view returns (uint256) {\n        return valueEternumCoin;\n    }\n\n    // SolarisCoin\n    function queryCurrentSCValue() public view returns (uint256) {\n        return valueSolarisCoin;\n    }\n    \n}",
  "sourcePath": "/Users/alwin/Developer/Liquiditas/contracts/Oraculum.sol",
  "compiler": {
    "name": "solc",
    "version": "0.8.17+commit.8df45f5f.Emscripten.clang"
  },
  "schemaVersion": "3.4.11",
  "updatedAt": "2023-03-24T05:15:32.738Z",
  "devdoc": {
    "kind": "dev",
    "methods": {},
    "version": 1
  },
  "userdoc": {
    "kind": "user",
    "methods": {},
    "version": 1
  }
}