{
  "contractName": "PeerExchangeOrder",
  "abi": [
    {
      "inputs": [
        {
          "internalType": "contract ERC20",
          "name": "erc20Address",
          "type": "address"
        },
        {
          "internalType": "contract BeetCoin",
          "name": "beetCoinAddress",
          "type": "address"
        },
        {
          "internalType": "contract SolarisCoin",
          "name": "solarisCoinAddress",
          "type": "address"
        }
      ],
      "stateMutability": "nonpayable",
      "type": "constructor"
    },
    {
      "anonymous": false,
      "inputs": [],
      "name": "CancelOrder",
      "type": "event"
    },
    {
      "anonymous": false,
      "inputs": [
        {
          "indexed": false,
          "internalType": "uint256",
          "name": "orderId",
          "type": "uint256"
        }
      ],
      "name": "CreateOrder",
      "type": "event"
    },
    {
      "anonymous": false,
      "inputs": [
        {
          "indexed": false,
          "internalType": "address",
          "name": "peer1",
          "type": "address"
        },
        {
          "indexed": false,
          "internalType": "address",
          "name": "peer2",
          "type": "address"
        }
      ],
      "name": "Matched",
      "type": "event"
    },
    {
      "anonymous": false,
      "inputs": [
        {
          "indexed": false,
          "internalType": "address",
          "name": "to",
          "type": "address"
        },
        {
          "indexed": false,
          "internalType": "uint256",
          "name": "amount",
          "type": "uint256"
        }
      ],
      "name": "TransferCurrency",
      "type": "event"
    },
    {
      "anonymous": false,
      "inputs": [
        {
          "indexed": false,
          "internalType": "address",
          "name": "to",
          "type": "address"
        },
        {
          "indexed": false,
          "internalType": "uint256",
          "name": "orderId",
          "type": "uint256"
        }
      ],
      "name": "TransferOrder",
      "type": "event"
    },
    {
      "inputs": [],
      "name": "numOrders",
      "outputs": [
        {
          "internalType": "uint256",
          "name": "",
          "type": "uint256"
        }
      ],
      "stateMutability": "view",
      "type": "function",
      "constant": true
    },
    {
      "inputs": [
        {
          "internalType": "uint256",
          "name": "",
          "type": "uint256"
        }
      ],
      "name": "orders",
      "outputs": [
        {
          "internalType": "address",
          "name": "currentOwner",
          "type": "address"
        },
        {
          "internalType": "address",
          "name": "previousOwner",
          "type": "address"
        },
        {
          "internalType": "uint8",
          "name": "offeredCurrency",
          "type": "uint8"
        },
        {
          "internalType": "uint256",
          "name": "offeredAmount",
          "type": "uint256"
        },
        {
          "internalType": "uint8",
          "name": "requestedCurrency",
          "type": "uint8"
        },
        {
          "internalType": "uint256",
          "name": "requestedAmount",
          "type": "uint256"
        }
      ],
      "stateMutability": "view",
      "type": "function",
      "constant": true
    },
    {
      "inputs": [
        {
          "internalType": "uint8",
          "name": "offeredCurrency",
          "type": "uint8"
        },
        {
          "internalType": "uint256",
          "name": "offeredAmount",
          "type": "uint256"
        },
        {
          "internalType": "uint8",
          "name": "requestedCurrency",
          "type": "uint8"
        }
      ],
      "name": "createOrder",
      "outputs": [
        {
          "internalType": "uint256",
          "name": "",
          "type": "uint256"
        }
      ],
      "stateMutability": "nonpayable",
      "type": "function"
    },
    {
      "inputs": [
        {
          "internalType": "address",
          "name": "to",
          "type": "address"
        },
        {
          "internalType": "uint256",
          "name": "orderId",
          "type": "uint256"
        }
      ],
      "name": "transferOrder",
      "outputs": [],
      "stateMutability": "nonpayable",
      "type": "function"
    },
    {
      "inputs": [
        {
          "internalType": "uint256",
          "name": "orderId",
          "type": "uint256"
        }
      ],
      "name": "cancelOrder",
      "outputs": [],
      "stateMutability": "nonpayable",
      "type": "function"
    },
    {
      "inputs": [],
      "name": "matchPair",
      "outputs": [],
      "stateMutability": "nonpayable",
      "type": "function"
    },
    {
      "inputs": [
        {
          "internalType": "uint256",
          "name": "orderId",
          "type": "uint256"
        }
      ],
      "name": "getCurrentOwner",
      "outputs": [
        {
          "internalType": "address",
          "name": "",
          "type": "address"
        }
      ],
      "stateMutability": "view",
      "type": "function",
      "constant": true
    },
    {
      "inputs": [
        {
          "internalType": "uint256",
          "name": "orderId",
          "type": "uint256"
        }
      ],
      "name": "getPreviousOwner",
      "outputs": [
        {
          "internalType": "address",
          "name": "",
          "type": "address"
        }
      ],
      "stateMutability": "view",
      "type": "function",
      "constant": true
    }
  ],
  "bytecode": "0x608060405260006004553480156200001657600080fd5b50604051620032dd380380620032dd83398181016040528101906200003c919062000250565b826000806101000a81548173ffffffffffffffffffffffffffffffffffffffff021916908373ffffffffffffffffffffffffffffffffffffffff16021790555081600160006101000a81548173ffffffffffffffffffffffffffffffffffffffff021916908373ffffffffffffffffffffffffffffffffffffffff16021790555080600260006101000a81548173ffffffffffffffffffffffffffffffffffffffff021916908373ffffffffffffffffffffffffffffffffffffffff16021790555033600360006101000a81548173ffffffffffffffffffffffffffffffffffffffff021916908373ffffffffffffffffffffffffffffffffffffffff160217905550505050620002ac565b600080fd5b600073ffffffffffffffffffffffffffffffffffffffff82169050919050565b60006200017a826200014d565b9050919050565b60006200018e826200016d565b9050919050565b620001a08162000181565b8114620001ac57600080fd5b50565b600081519050620001c08162000195565b92915050565b6000620001d3826200016d565b9050919050565b620001e581620001c6565b8114620001f157600080fd5b50565b6000815190506200020581620001da565b92915050565b600062000218826200016d565b9050919050565b6200022a816200020b565b81146200023657600080fd5b50565b6000815190506200024a816200021f565b92915050565b6000806000606084860312156200026c576200026b62000148565b5b60006200027c86828701620001af565b93505060206200028f86828701620001f4565b9250506040620002a28682870162000239565b9150509250925092565b61302180620002bc6000396000f3fe608060405234801561001057600080fd5b50600436106100875760003560e01c8063a309fbae1161005b578063a309fbae14610126578063a85c38ef14610142578063da85b69d14610177578063e1b0f11d146101a757610087565b806256856a1461008c57806345d53788146100bc578063514fcac7146100da5780637ace341b146100f6575b600080fd5b6100a660048036038101906100a1919061279b565b6101b1565b6040516100b39190612809565b60405180910390f35b6100c4610237565b6040516100d19190612833565b60405180910390f35b6100f460048036038101906100ef919061279b565b61023d565b005b610110600480360381019061010b919061279b565b610657565b60405161011d9190612809565b60405180910390f35b610140600480360381019061013b919061287a565b6106dd565b005b61015c6004803603810190610157919061279b565b6112de565b60405161016e969594939291906128d6565b60405180910390f35b610191600480360381019061018c9190612963565b611374565b60405161019e9190612833565b60405180910390f35b6101af611bb3565b005b60008160045481106101f8576040517f08c379a00000000000000000000000000000000000000000000000000000000081526004016101ef90612a13565b60405180910390fd5b6005600084815260200190815260200160002060010160009054906101000a900473ffffffffffffffffffffffffffffffffffffffff16915050919050565b60045481565b803373ffffffffffffffffffffffffffffffffffffffff166005600083815260200190815260200160002060000160009054906101000a900473ffffffffffffffffffffffffffffffffffffffff1673ffffffffffffffffffffffffffffffffffffffff16146102e2576040517f08c379a00000000000000000000000000000000000000000000000000000000081526004016102d990612a7f565b60405180910390fd5b816004548110610327576040517f08c379a000000000000000000000000000000000000000000000000000000000815260040161031e90612a13565b60405180910390fd5b60006005600085815260200190815260200160002060010160149054906101000a900460ff16905060006005600086815260200190815260200160002060020154905060056000868152602001908152602001600020600080820160006101000a81549073ffffffffffffffffffffffffffffffffffffffff02191690556001820160006101000a81549073ffffffffffffffffffffffffffffffffffffffff02191690556001820160146101000a81549060ff021916905560028201600090556003820160006101000a81549060ff02191690556004820160009055505060018260ff16036104a757600160009054906101000a900473ffffffffffffffffffffffffffffffffffffffff1673ffffffffffffffffffffffffffffffffffffffff16633d9b14913033846040518463ffffffff1660e01b815260040161047093929190612a9f565b600060405180830381600087803b15801561048a57600080fd5b505af115801561049e573d6000803e3d6000fd5b505050506105eb565b60028260ff16036105585760008054906101000a900473ffffffffffffffffffffffffffffffffffffffff1673ffffffffffffffffffffffffffffffffffffffff166323b872dd3033846040518463ffffffff1660e01b815260040161050f93929190612a9f565b6020604051808303816000875af115801561052e573d6000803e3d6000fd5b505050506040513d601f19601f820116820180604052508101906105529190612b0e565b506105ea565b600260009054906101000a900473ffffffffffffffffffffffffffffffffffffffff1673ffffffffffffffffffffffffffffffffffffffff16638bcc3d133033846040518463ffffffff1660e01b81526004016105b793929190612a9f565b600060405180830381600087803b1580156105d157600080fd5b505af11580156105e5573d6000803e3d6000fd5b505050505b5b7f1adf2bec1667326437e93f87d4fe21d8c84320e5b0e49d4106b96474630a901f60405160405180910390a17f44042e4a95e394f152de87c5908c29c0dfbeaf43b5aa4ab574da50779a177f083382604051610648929190612b3b565b60405180910390a15050505050565b600081600454811061069e576040517f08c379a000000000000000000000000000000000000000000000000000000000815260040161069590612a13565b60405180910390fd5b6005600084815260200190815260200160002060000160009054906101000a900473ffffffffffffffffffffffffffffffffffffffff16915050919050565b803373ffffffffffffffffffffffffffffffffffffffff166005600083815260200190815260200160002060000160009054906101000a900473ffffffffffffffffffffffffffffffffffffffff1673ffffffffffffffffffffffffffffffffffffffff1614610782576040517f08c379a000000000000000000000000000000000000000000000000000000000815260040161077990612a7f565b60405180910390fd5b8160045481106107c7576040517f08c379a00000000000000000000000000000000000000000000000000000000081526004016107be90612a13565b60405180910390fd5b6005600084815260200190815260200160002060000160009054906101000a900473ffffffffffffffffffffffffffffffffffffffff166005600085815260200190815260200160002060010160006101000a81548173ffffffffffffffffffffffffffffffffffffffff021916908373ffffffffffffffffffffffffffffffffffffffff160217905550836005600085815260200190815260200160002060000160006101000a81548173ffffffffffffffffffffffffffffffffffffffff021916908373ffffffffffffffffffffffffffffffffffffffff16021790555060016005600085815260200190815260200160002060010160149054906101000a900460ff1660ff1603610c0a5760026005600085815260200190815260200160002060030160009054906101000a900460ff1660ff1603610a865760066005600085815260200190815260200160002090806001815401808255809150506001900390600052602060002090600502016000909190919091506000820160009054906101000a900473ffffffffffffffffffffffffffffffffffffffff168160000160006101000a81548173ffffffffffffffffffffffffffffffffffffffff021916908373ffffffffffffffffffffffffffffffffffffffff1602179055506001820160009054906101000a900473ffffffffffffffffffffffffffffffffffffffff168160010160006101000a81548173ffffffffffffffffffffffffffffffffffffffff021916908373ffffffffffffffffffffffffffffffffffffffff1602179055506001820160149054906101000a900460ff168160010160146101000a81548160ff021916908360ff160217905550600282015481600201556003820160009054906101000a900460ff168160030160006101000a81548160ff021916908360ff160217905550600482015481600401555050610c05565b60076005600085815260200190815260200160002090806001815401808255809150506001900390600052602060002090600502016000909190919091506000820160009054906101000a900473ffffffffffffffffffffffffffffffffffffffff168160000160006101000a81548173ffffffffffffffffffffffffffffffffffffffff021916908373ffffffffffffffffffffffffffffffffffffffff1602179055506001820160009054906101000a900473ffffffffffffffffffffffffffffffffffffffff168160010160006101000a81548173ffffffffffffffffffffffffffffffffffffffff021916908373ffffffffffffffffffffffffffffffffffffffff1602179055506001820160149054906101000a900460ff168160010160146101000a81548160ff021916908360ff160217905550600282015481600201556003820160009054906101000a900460ff168160030160006101000a81548160ff021916908360ff1602179055506004820154816004015550505b61129f565b60026005600085815260200190815260200160002060010160149054906101000a900460ff1660ff1603610f6d5760016005600085815260200190815260200160002060030160009054906101000a900460ff1660ff1603610de95760086005600085815260200190815260200160002090806001815401808255809150506001900390600052602060002090600502016000909190919091506000820160009054906101000a900473ffffffffffffffffffffffffffffffffffffffff168160000160006101000a81548173ffffffffffffffffffffffffffffffffffffffff021916908373ffffffffffffffffffffffffffffffffffffffff1602179055506001820160009054906101000a900473ffffffffffffffffffffffffffffffffffffffff168160010160006101000a81548173ffffffffffffffffffffffffffffffffffffffff021916908373ffffffffffffffffffffffffffffffffffffffff1602179055506001820160149054906101000a900460ff168160010160146101000a81548160ff021916908360ff160217905550600282015481600201556003820160009054906101000a900460ff168160030160006101000a81548160ff021916908360ff160217905550600482015481600401555050610f68565b60096005600085815260200190815260200160002090806001815401808255809150506001900390600052602060002090600502016000909190919091506000820160009054906101000a900473ffffffffffffffffffffffffffffffffffffffff168160000160006101000a81548173ffffffffffffffffffffffffffffffffffffffff021916908373ffffffffffffffffffffffffffffffffffffffff1602179055506001820160009054906101000a900473ffffffffffffffffffffffffffffffffffffffff168160010160006101000a81548173ffffffffffffffffffffffffffffffffffffffff021916908373ffffffffffffffffffffffffffffffffffffffff1602179055506001820160149054906101000a900460ff168160010160146101000a81548160ff021916908360ff160217905550600282015481600201556003820160009054906101000a900460ff168160030160006101000a81548160ff021916908360ff1602179055506004820154816004015550505b61129e565b60016005600085815260200190815260200160002060030160009054906101000a900460ff1660ff160361111e57600a6005600085815260200190815260200160002090806001815401808255809150506001900390600052602060002090600502016000909190919091506000820160009054906101000a900473ffffffffffffffffffffffffffffffffffffffff168160000160006101000a81548173ffffffffffffffffffffffffffffffffffffffff021916908373ffffffffffffffffffffffffffffffffffffffff1602179055506001820160009054906101000a900473ffffffffffffffffffffffffffffffffffffffff168160010160006101000a81548173ffffffffffffffffffffffffffffffffffffffff021916908373ffffffffffffffffffffffffffffffffffffffff1602179055506001820160149054906101000a900460ff168160010160146101000a81548160ff021916908360ff160217905550600282015481600201556003820160009054906101000a900460ff168160030160006101000a81548160ff021916908360ff16021790555060048201548160040155505061129d565b600b6005600085815260200190815260200160002090806001815401808255809150506001900390600052602060002090600502016000909190919091506000820160009054906101000a900473ffffffffffffffffffffffffffffffffffffffff168160000160006101000a81548173ffffffffffffffffffffffffffffffffffffffff021916908373ffffffffffffffffffffffffffffffffffffffff1602179055506001820160009054906101000a900473ffffffffffffffffffffffffffffffffffffffff168160010160006101000a81548173ffffffffffffffffffffffffffffffffffffffff021916908373ffffffffffffffffffffffffffffffffffffffff1602179055506001820160149054906101000a900460ff168160010160146101000a81548160ff021916908360ff160217905550600282015481600201556003820160009054906101000a900460ff168160030160006101000a81548160ff021916908360ff1602179055506004820154816004015550505b5b5b7f8b3ef63e6cdb88e931374344d256d031fe3d2719be7c675dd7b40fb6c42f933a84846040516112d0929190612b3b565b60405180910390a150505050565b60056020528060005260406000206000915090508060000160009054906101000a900473ffffffffffffffffffffffffffffffffffffffff16908060010160009054906101000a900473ffffffffffffffffffffffffffffffffffffffff16908060010160149054906101000a900460ff16908060020154908060030160009054906101000a900460ff16908060040154905086565b6000808460ff1611801561138b575060048460ff16105b6113ca576040517f08c379a00000000000000000000000000000000000000000000000000000000081526004016113c190612bb0565b60405180910390fd5b60008260ff161180156113e0575060048260ff16105b61141f576040517f08c379a000000000000000000000000000000000000000000000000000000000815260040161141690612c1c565b60405180910390fd5b8160ff168460ff1603611467576040517f08c379a000000000000000000000000000000000000000000000000000000000815260040161145e90612cae565b60405180910390fd5b600083116114aa576040517f08c379a00000000000000000000000000000000000000000000000000000000081526004016114a190612d1a565b60405180910390fd5b600060018560ff160361165d57600160009054906101000a900473ffffffffffffffffffffffffffffffffffffffff1673ffffffffffffffffffffffffffffffffffffffff1663f69bbebd336040518263ffffffff1660e01b81526004016115129190612809565b6020604051808303816000875af1158015611531573d6000803e3d6000fd5b505050506040513d601f19601f820116820180604052508101906115559190612d4f565b841115611597576040517f08c379a000000000000000000000000000000000000000000000000000000000815260040161158e90612dc8565b60405180910390fd5b600160009054906101000a900473ffffffffffffffffffffffffffffffffffffffff1673ffffffffffffffffffffffffffffffffffffffff16633d9b14913330876040518463ffffffff1660e01b81526004016115f693929190612a9f565b600060405180830381600087803b15801561161057600080fd5b505af1158015611624573d6000803e3d6000fd5b5050505060028360ff160361164757600a846116409190612e17565b9050611658565b6103e8846116559190612e17565b90505b6119bc565b60028560ff16036118195760008054906101000a900473ffffffffffffffffffffffffffffffffffffffff1673ffffffffffffffffffffffffffffffffffffffff166370a08231336040518263ffffffff1660e01b81526004016116c19190612809565b602060405180830381865afa1580156116de573d6000803e3d6000fd5b505050506040513d601f19601f820116820180604052508101906117029190612d4f565b841115611744576040517f08c379a000000000000000000000000000000000000000000000000000000000815260040161173b90612dc8565b60405180910390fd5b60008054906101000a900473ffffffffffffffffffffffffffffffffffffffff1673ffffffffffffffffffffffffffffffffffffffff166323b872dd3330876040518463ffffffff1660e01b81526004016117a193929190612a9f565b6020604051808303816000875af11580156117c0573d6000803e3d6000fd5b505050506040513d601f19601f820116820180604052508101906117e49190612b0e565b5060018360ff160361180457600a846117fd9190612e88565b9050611814565b6064846118119190612e17565b90505b6119bb565b600260009054906101000a900473ffffffffffffffffffffffffffffffffffffffff1673ffffffffffffffffffffffffffffffffffffffff1663762722ac336040518263ffffffff1660e01b81526004016118749190612809565b6020604051808303816000875af1158015611893573d6000803e3d6000fd5b505050506040513d601f19601f820116820180604052508101906118b79190612d4f565b8411156118f9576040517f08c379a00000000000000000000000000000000000000000000000000000000081526004016118f090612dc8565b60405180910390fd5b600260009054906101000a900473ffffffffffffffffffffffffffffffffffffffff1673ffffffffffffffffffffffffffffffffffffffff16638bcc3d133330876040518463ffffffff1660e01b815260040161195893929190612a9f565b600060405180830381600087803b15801561197257600080fd5b505af1158015611986573d6000803e3d6000fd5b5050505060018360ff16036119aa576103e8846119a39190612e88565b90506119ba565b6064846119b79190612e88565b90505b5b5b60006040518060c001604052803373ffffffffffffffffffffffffffffffffffffffff168152602001600073ffffffffffffffffffffffffffffffffffffffff1681526020018760ff1681526020018681526020018560ff168152602001838152509050600060046000815480929190611a3590612eb9565b919050559050816005600083815260200190815260200160002060008201518160000160006101000a81548173ffffffffffffffffffffffffffffffffffffffff021916908373ffffffffffffffffffffffffffffffffffffffff16021790555060208201518160010160006101000a81548173ffffffffffffffffffffffffffffffffffffffff021916908373ffffffffffffffffffffffffffffffffffffffff16021790555060408201518160010160146101000a81548160ff021916908360ff1602179055506060820151816002015560808201518160030160006101000a81548160ff021916908360ff16021790555060a082015181600401559050507f44042e4a95e394f152de87c5908c29c0dfbeaf43b5aa4ab574da50779a177f083087604051611b67929190612b3b565b60405180910390a17f2f539bcf68b0eef24f9fef1ae5ad7dd5a37f80a2fab34f406ad2b92c779d606481604051611b9e9190612833565b60405180910390a18093505050509392505050565b600360009054906101000a900473ffffffffffffffffffffffffffffffffffffffff1673ffffffffffffffffffffffffffffffffffffffff163373ffffffffffffffffffffffffffffffffffffffff1614611c43576040517f08c379a0000000000000000000000000000000000000000000000000000000008152600401611c3a90612f73565b60405180910390fd5b60005b600680549050811015611ffb5760005b600880549050811015611fe75760088181548110611c7757611c76612f93565b5b90600052602060002090600502016004015460068381548110611c9d57611c9c612f93565b5b90600052602060002090600502016002015403611fd457600160009054906101000a900473ffffffffffffffffffffffffffffffffffffffff1673ffffffffffffffffffffffffffffffffffffffff16633d9b14913060088481548110611d0757611d06612f93565b5b906000526020600020906005020160010160009054906101000a900473ffffffffffffffffffffffffffffffffffffffff1660088581548110611d4d57611d4c612f93565b5b9060005260206000209060050201600401546040518463ffffffff1660e01b8152600401611d7d93929190612a9f565b600060405180830381600087803b158015611d9757600080fd5b505af1158015611dab573d6000803e3d6000fd5b5050505060008054906101000a900473ffffffffffffffffffffffffffffffffffffffff1673ffffffffffffffffffffffffffffffffffffffff166323b872dd3060068581548110611e0057611dff612f93565b5b906000526020600020906005020160010160009054906101000a900473ffffffffffffffffffffffffffffffffffffffff1660068681548110611e4657611e45612f93565b5b9060005260206000209060050201600401546040518463ffffffff1660e01b8152600401611e7693929190612a9f565b6020604051808303816000875af1158015611e95573d6000803e3d6000fd5b505050506040513d601f19601f82011682018060405250810190611eb99190612b0e565b507fd14ed81663bee87b643b51c1f63fc86cb3b2bba9cc237cf6db5c3d5967a2695260068381548110611eef57611eee612f93565b5b906000526020600020906005020160010160009054906101000a900473ffffffffffffffffffffffffffffffffffffffff1660088381548110611f3557611f34612f93565b5b906000526020600020906005020160010160009054906101000a900473ffffffffffffffffffffffffffffffffffffffff16604051611f75929190612fc2565b60405180910390a1600060068381548110611f9357611f92612f93565b5b906000526020600020906005020160040181905550600060088281548110611fbe57611fbd612f93565b5b9060005260206000209060050201600401819055505b8080611fdf90612eb9565b915050611c56565b508080611ff390612eb9565b915050611c46565b5060005b6007805490508110156123a45760005b600a8054905081101561239057600a81815481106120305761202f612f93565b5b9060005260206000209060050201600401546007838154811061205657612055612f93565b5b9060005260206000209060050201600201540361237d57600160009054906101000a900473ffffffffffffffffffffffffffffffffffffffff1673ffffffffffffffffffffffffffffffffffffffff16633d9b149130600a84815481106120c0576120bf612f93565b5b906000526020600020906005020160010160009054906101000a900473ffffffffffffffffffffffffffffffffffffffff16600a858154811061210657612105612f93565b5b9060005260206000209060050201600401546040518463ffffffff1660e01b815260040161213693929190612a9f565b600060405180830381600087803b15801561215057600080fd5b505af1158015612164573d6000803e3d6000fd5b50505050600260009054906101000a900473ffffffffffffffffffffffffffffffffffffffff1673ffffffffffffffffffffffffffffffffffffffff16638bcc3d1330600785815481106121bb576121ba612f93565b5b906000526020600020906005020160010160009054906101000a900473ffffffffffffffffffffffffffffffffffffffff166007868154811061220157612200612f93565b5b9060005260206000209060050201600401546040518463ffffffff1660e01b815260040161223193929190612a9f565b600060405180830381600087803b15801561224b57600080fd5b505af115801561225f573d6000803e3d6000fd5b505050507fd14ed81663bee87b643b51c1f63fc86cb3b2bba9cc237cf6db5c3d5967a269526007838154811061229857612297612f93565b5b906000526020600020906005020160010160009054906101000a900473ffffffffffffffffffffffffffffffffffffffff16600a83815481106122de576122dd612f93565b5b906000526020600020906005020160010160009054906101000a900473ffffffffffffffffffffffffffffffffffffffff1660405161231e929190612fc2565b60405180910390a160006007838154811061233c5761233b612f93565b5b9060005260206000209060050201600401819055506000600a828154811061236757612366612f93565b5b9060005260206000209060050201600401819055505b808061238890612eb9565b91505061200f565b50808061239c90612eb9565b915050611fff565b5060005b60098054905081101561275d5760005b600b8054905081101561274957600b81815481106123d9576123d8612f93565b5b906000526020600020906005020160040154600983815481106123ff576123fe612f93565b5b906000526020600020906005020160020154036127365760008054906101000a900473ffffffffffffffffffffffffffffffffffffffff1673ffffffffffffffffffffffffffffffffffffffff166323b872dd30600b848154811061246757612466612f93565b5b906000526020600020906005020160010160009054906101000a900473ffffffffffffffffffffffffffffffffffffffff16600b85815481106124ad576124ac612f93565b5b9060005260206000209060050201600401546040518463ffffffff1660e01b81526004016124dd93929190612a9f565b6020604051808303816000875af11580156124fc573d6000803e3d6000fd5b505050506040513d601f19601f820116820180604052508101906125209190612b0e565b50600260009054906101000a900473ffffffffffffffffffffffffffffffffffffffff1673ffffffffffffffffffffffffffffffffffffffff16638bcc3d13306009858154811061257457612573612f93565b5b906000526020600020906005020160010160009054906101000a900473ffffffffffffffffffffffffffffffffffffffff16600986815481106125ba576125b9612f93565b5b9060005260206000209060050201600401546040518463ffffffff1660e01b81526004016125ea93929190612a9f565b600060405180830381600087803b15801561260457600080fd5b505af1158015612618573d6000803e3d6000fd5b505050507fd14ed81663bee87b643b51c1f63fc86cb3b2bba9cc237cf6db5c3d5967a269526009838154811061265157612650612f93565b5b906000526020600020906005020160010160009054906101000a900473ffffffffffffffffffffffffffffffffffffffff16600b838154811061269757612696612f93565b5b906000526020600020906005020160010160009054906101000a900473ffffffffffffffffffffffffffffffffffffffff166040516126d7929190612fc2565b60405180910390a16000600983815481106126f5576126f4612f93565b5b9060005260206000209060050201600401819055506000600b82815481106127205761271f612f93565b5b9060005260206000209060050201600401819055505b808061274190612eb9565b9150506123b8565b50808061275590612eb9565b9150506123a8565b50565b600080fd5b6000819050919050565b61277881612765565b811461278357600080fd5b50565b6000813590506127958161276f565b92915050565b6000602082840312156127b1576127b0612760565b5b60006127bf84828501612786565b91505092915050565b600073ffffffffffffffffffffffffffffffffffffffff82169050919050565b60006127f3826127c8565b9050919050565b612803816127e8565b82525050565b600060208201905061281e60008301846127fa565b92915050565b61282d81612765565b82525050565b60006020820190506128486000830184612824565b92915050565b612857816127e8565b811461286257600080fd5b50565b6000813590506128748161284e565b92915050565b6000806040838503121561289157612890612760565b5b600061289f85828601612865565b92505060206128b085828601612786565b9150509250929050565b600060ff82169050919050565b6128d0816128ba565b82525050565b600060c0820190506128eb60008301896127fa565b6128f860208301886127fa565b61290560408301876128c7565b6129126060830186612824565b61291f60808301856128c7565b61292c60a0830184612824565b979650505050505050565b612940816128ba565b811461294b57600080fd5b50565b60008135905061295d81612937565b92915050565b60008060006060848603121561297c5761297b612760565b5b600061298a8682870161294e565b935050602061299b86828701612786565b92505060406129ac8682870161294e565b9150509250925092565b600082825260208201905092915050565b7f496e76616c6964204f7264657220496400000000000000000000000000000000600082015250565b60006129fd6010836129b6565b9150612a08826129c7565b602082019050919050565b60006020820190508181036000830152612a2c816129f0565b9050919050565b7f4e6f742043757272656e74204f776e6572210000000000000000000000000000600082015250565b6000612a696012836129b6565b9150612a7482612a33565b602082019050919050565b60006020820190508181036000830152612a9881612a5c565b9050919050565b6000606082019050612ab460008301866127fa565b612ac160208301856127fa565b612ace6040830184612824565b949350505050565b60008115159050919050565b612aeb81612ad6565b8114612af657600080fd5b50565b600081519050612b0881612ae2565b92915050565b600060208284031215612b2457612b23612760565b5b6000612b3284828501612af9565b91505092915050565b6000604082019050612b5060008301856127fa565b612b5d6020830184612824565b9392505050565b7f496e76616c6964204f6666657265642043757272656e63792100000000000000600082015250565b6000612b9a6019836129b6565b9150612ba582612b64565b602082019050919050565b60006020820190508181036000830152612bc981612b8d565b9050919050565b7f496e76616c6964205265717565737465642043757272656e6379210000000000600082015250565b6000612c06601b836129b6565b9150612c1182612bd0565b602082019050919050565b60006020820190508181036000830152612c3581612bf9565b9050919050565b7f4f6666657265642043757272656e63792063616e6e6f7420626520746865207360008201527f616d65206173205265717565737465642043757272656e637921000000000000602082015250565b6000612c98603a836129b6565b9150612ca382612c3c565b604082019050919050565b60006020820190508181036000830152612cc781612c8b565b9050919050565b7f496e76616c6964204f66666572656420416d6f756e7421000000000000000000600082015250565b6000612d046017836129b6565b9150612d0f82612cce565b602082019050919050565b60006020820190508181036000830152612d3381612cf7565b9050919050565b600081519050612d498161276f565b92915050565b600060208284031215612d6557612d64612760565b5b6000612d7384828501612d3a565b91505092915050565b7f496e73756666696369656e742042616c616e6365210000000000000000000000600082015250565b6000612db26015836129b6565b9150612dbd82612d7c565b602082019050919050565b60006020820190508181036000830152612de181612da5565b9050919050565b7f4e487b7100000000000000000000000000000000000000000000000000000000600052601160045260246000fd5b6000612e2282612765565b9150612e2d83612765565b9250828202612e3b81612765565b91508282048414831517612e5257612e51612de8565b5b5092915050565b7f4e487b7100000000000000000000000000000000000000000000000000000000600052601260045260246000fd5b6000612e9382612765565b9150612e9e83612765565b925082612eae57612ead612e59565b5b828204905092915050565b6000612ec482612765565b91507fffffffffffffffffffffffffffffffffffffffffffffffffffffffffffffffff8203612ef657612ef5612de8565b5b600182019050919050565b7f4f6e6c792041646d696e6973747261746f722063616e2074726967676572204d60008201527f61746368696e6721000000000000000000000000000000000000000000000000602082015250565b6000612f5d6028836129b6565b9150612f6882612f01565b604082019050919050565b60006020820190508181036000830152612f8c81612f50565b9050919050565b7f4e487b7100000000000000000000000000000000000000000000000000000000600052603260045260246000fd5b6000604082019050612fd760008301856127fa565b612fe460208301846127fa565b939250505056fea26469706673582212208a76c80d56426dfe8d74387703ae4e90a6767b21a82294e5cb0af70d6a3f696064736f6c63430008110033",
  "immutableReferences": {},
  "source": "// SPDX-License-Identifier: MIT\npragma solidity ^0.8.17;\n\nimport \"./ERC20.sol\";\nimport \"./BeetCoin.sol\";\nimport \"./SolarisCoin.sol\";\n\ncontract PeerExchangeOrder {\n\n    ERC20 erc20Instance;\n    BeetCoin beetCoinInstance;\n    SolarisCoin solarisCoinInstance;\n\n    address administrator;\n    // uint256 commissionFee;\n    uint256 public numOrders = 0;\n    mapping(uint256 => order) public orders;\n    \n    // Currency: 1 - BeetCoin, 2 - Ether, 3 - SolarisCoin\n    order[] exchange1for2;\n    order[] exchange1for3;\n    order[] exchange2for1;\n    order[] exchange2for3;\n    order[] exchange3for1;\n    order[] exchange3for2;\n\n    constructor(ERC20 erc20Address, BeetCoin beetCoinAddress, SolarisCoin solarisCoinAddress) {\n        erc20Instance = erc20Address;\n        beetCoinInstance = beetCoinAddress;\n        solarisCoinInstance = solarisCoinAddress;\n        administrator = msg.sender;\n        // commissionFee = 1;\n    }\n\n    struct order {\n        address currentOwner;\n        address previousOwner;\n        uint8 offeredCurrency;\n        uint256 offeredAmount;\n        uint8 requestedCurrency;\n        uint256 requestedAmount;\n    }\n\n    event CreateOrder(uint256 orderId);\n    event TransferCurrency(address to, uint256 amount);\n    event TransferOrder(address to, uint256 orderId);\n    event CancelOrder();\n    event Matched(address peer1, address peer2);\n\n    modifier ownerOnly(uint256 orderId) {\n        require(orders[orderId].currentOwner == msg.sender, \"Not Current Owner!\");\n        _;\n    }\n\n    modifier previousOwnerOnly(uint256 orderId) {\n        require(orders[orderId].previousOwner == msg.sender, \"Not Previous Owner!\");\n        _;\n    }\n\n    modifier validOrderId(uint256 orderId) {\n        require(orderId < numOrders, \"Invalid Order Id\");\n        _;\n    }\n\n    function createOrder(uint8 offeredCurrency, uint256 offeredAmount, uint8 requestedCurrency) public returns (uint256) {\n        require(offeredCurrency > 0 && offeredCurrency < 4, \"Invalid Offered Currency!\");\n        require(requestedCurrency > 0 && requestedCurrency < 4, \"Invalid Requested Currency!\");\n        require(offeredCurrency != requestedCurrency, \"Offered Currency cannot be the same as Requested Currency!\");\n        require(offeredAmount > 0, \"Invalid Offered Amount!\");\n\n        uint256 requestedAmount = 0;\n        if (offeredCurrency == 1) {\n            require(offeredAmount <= beetCoinInstance.checkBCBalance(msg.sender), \"Insufficient Balance!\");\n\n            beetCoinInstance.transferBC(msg.sender, address(this), offeredAmount);\n            if (requestedCurrency == 2) {\n                requestedAmount = offeredAmount * 10;\n            } else {    // requestedCurrency == 3\n                requestedAmount = offeredAmount * 1000;\n            }\n        } else if (offeredCurrency == 2) {\n            require(offeredAmount <= erc20Instance.balanceOf(msg.sender), \"Insufficient Balance!\");\n\n            erc20Instance.transferFrom(msg.sender, address(this), offeredAmount);\n            if (requestedCurrency == 1) {\n                requestedAmount = offeredAmount / 10;\n            } else {    // requestedCurrency == 3\n                requestedAmount = offeredAmount * 100;\n            }\n        } else {        // offeredCurrency == 3\n            require(offeredAmount <= solarisCoinInstance.checkSCBalance(msg.sender), \"Insufficient Balance!\");\n\n            solarisCoinInstance.transferSC(msg.sender, address(this), offeredAmount);\n            if (requestedCurrency == 1) {\n                requestedAmount = offeredAmount / 1000;\n            } else {    // requestedCurrency == 2\n                requestedAmount = offeredAmount / 100;\n            }\n        }\n\n        order memory newOrder = order(msg.sender, address(0), offeredCurrency, offeredAmount, requestedCurrency, requestedAmount);\n        uint256 orderId = numOrders++;\n        orders[orderId] = newOrder;\n\n        emit TransferCurrency(address(this), offeredAmount);\n        emit CreateOrder(orderId);\n\n        return orderId;\n    }\n\n    function transferOrder(address to, uint256 orderId) public ownerOnly(orderId) validOrderId(orderId) {\n        orders[orderId].previousOwner = orders[orderId].currentOwner;\n        orders[orderId].currentOwner = to;\n        \n        if (orders[orderId].offeredCurrency == 1) {\n            if (orders[orderId].requestedCurrency == 2) {\n                exchange1for2.push(orders[orderId]);\n            } else {        // Requested Currency == 3\n                exchange1for3.push(orders[orderId]);\n            }\n        } else if (orders[orderId].offeredCurrency == 2) {\n            if (orders[orderId].requestedCurrency == 1) {\n                exchange2for1.push(orders[orderId]);\n            } else {        // Requested Currency == 3\n                exchange2for3.push(orders[orderId]);\n            }\n        } else {            // Offered Currency == 3\n            if (orders[orderId].requestedCurrency == 1) {\n                exchange3for1.push(orders[orderId]);\n            } else {        // Requested Currency == 2\n                exchange3for2.push(orders[orderId]);\n            }\n        }\n\n        emit TransferOrder(to, orderId);\n    }\n\n    function cancelOrder(uint256 orderId) public ownerOnly(orderId) validOrderId(orderId) {\n        uint8 currency = orders[orderId].offeredCurrency;\n        uint256 amount = orders[orderId].offeredAmount;\n        delete orders[orderId];\n\n        if (currency == 1) {\n            beetCoinInstance.transferBC(address(this), msg.sender, amount);\n        } else if (currency == 2) {\n            erc20Instance.transferFrom(address(this), msg.sender, amount);\n        } else {        // Currency == 3\n            solarisCoinInstance.transferSC(address(this), msg.sender, amount);\n        }\n\n        emit CancelOrder();\n        emit TransferCurrency(msg.sender, amount);\n    }\n\n    function matchPair() public {\n        require(msg.sender == administrator, \"Only Administrator can trigger Matching!\");\n        \n        // Matching 1 & 2\n        for (uint i = 0; i < exchange1for2.length; i++) {\n            for (uint j = 0; j < exchange2for1.length; j++) {\n                if (exchange1for2[i].offeredAmount == exchange2for1[j].requestedAmount) {\n                    beetCoinInstance.transferBC(address(this), exchange2for1[j].previousOwner, exchange2for1[j].requestedAmount);\n                    erc20Instance.transferFrom(address(this), exchange1for2[i].previousOwner, exchange1for2[i].requestedAmount);\n                    \n                    emit Matched(exchange1for2[i].previousOwner, exchange2for1[j].previousOwner);\n\n                    // Marking Order As Completed \n                    exchange1for2[i].requestedAmount = 0;\n                    exchange2for1[j].requestedAmount = 0;\n                }\n            }\n        }\n\n        // Matching 1 & 3\n        for (uint i = 0; i < exchange1for3.length; i++) {\n            for (uint j = 0; j < exchange3for1.length; j++) {\n                if (exchange1for3[i].offeredAmount == exchange3for1[j].requestedAmount) {\n                    beetCoinInstance.transferBC(address(this), exchange3for1[j].previousOwner, exchange3for1[j].requestedAmount);\n                    solarisCoinInstance.transferSC(address(this), exchange1for3[i].previousOwner, exchange1for3[i].requestedAmount);\n                    \n                    emit Matched(exchange1for3[i].previousOwner, exchange3for1[j].previousOwner);\n\n                    // Marking Order As Completed \n                    exchange1for3[i].requestedAmount = 0;\n                    exchange3for1[j].requestedAmount = 0;\n                }\n            }\n        }\n\n        // Matching 2 & 3\n        for (uint i = 0; i < exchange2for3.length; i++) {\n            for (uint j = 0; j < exchange3for2.length; j++) {\n                if (exchange2for3[i].offeredAmount == exchange3for2[j].requestedAmount) {\n                    erc20Instance.transferFrom(address(this), exchange3for2[j].previousOwner, exchange3for2[j].requestedAmount);\n                    solarisCoinInstance.transferSC(address(this), exchange2for3[i].previousOwner, exchange2for3[i].requestedAmount);\n                    \n                    emit Matched(exchange2for3[i].previousOwner, exchange3for2[j].previousOwner);\n\n                    // Marking Order As Completed \n                    exchange2for3[i].requestedAmount = 0;\n                    exchange3for2[j].requestedAmount = 0;\n                }\n            }\n        }\n    }\n\n    /* Get Methods For Testing */\n\n    function getCurrentOwner(uint256 orderId) public view validOrderId(orderId) returns (address) {\n        return orders[orderId].currentOwner;\n    }\n\n    function getPreviousOwner(uint256 orderId) public view validOrderId(orderId) returns (address) {\n        return orders[orderId].previousOwner;\n    }\n}",
  "sourcePath": "/Users/alwin/Developer/Liquiditas/contracts/PeerExchangeOrder.sol",
  "compiler": {
    "name": "solc",
    "version": "0.8.17+commit.8df45f5f.Emscripten.clang"
  },
  "schemaVersion": "3.4.11",
  "updatedAt": "2023-03-22T04:44:08.302Z",
  "networkType": "ethereum",
  "devdoc": {
    "kind": "dev",
    "methods": {},
    "version": 1
  },
  "userdoc": {
    "kind": "user",
    "methods": {},
    "version": 1
  }
}