{
  "contractName": "PeerExchangeOrder",
  "abi": [
    {
      "inputs": [
        {
          "internalType": "contract ERC20",
          "name": "erc20Address",
          "type": "address"
        },
        {
          "internalType": "contract BeetCoin",
          "name": "beetCoinAddress",
          "type": "address"
        },
        {
          "internalType": "contract EternumCoin",
          "name": "eternumCoinAddress",
          "type": "address"
        },
        {
          "internalType": "contract SolarisCoin",
          "name": "solarisCoinAddress",
          "type": "address"
        },
        {
          "internalType": "contract PeerToken",
          "name": "peerTokenAddress",
          "type": "address"
        },
        {
          "internalType": "contract Oraculum",
          "name": "oraculumAddress",
          "type": "address"
        }
      ],
      "stateMutability": "nonpayable",
      "type": "constructor"
    },
    {
      "anonymous": false,
      "inputs": [],
      "name": "CancelOrder",
      "type": "event"
    },
    {
      "anonymous": false,
      "inputs": [
        {
          "indexed": false,
          "internalType": "uint256",
          "name": "orderId",
          "type": "uint256"
        }
      ],
      "name": "CreateOrder",
      "type": "event"
    },
    {
      "anonymous": false,
      "inputs": [
        {
          "indexed": false,
          "internalType": "address",
          "name": "peer1",
          "type": "address"
        },
        {
          "indexed": false,
          "internalType": "address",
          "name": "peer2",
          "type": "address"
        }
      ],
      "name": "Matched",
      "type": "event"
    },
    {
      "anonymous": false,
      "inputs": [
        {
          "indexed": false,
          "internalType": "address",
          "name": "to",
          "type": "address"
        },
        {
          "indexed": false,
          "internalType": "uint256",
          "name": "amount",
          "type": "uint256"
        }
      ],
      "name": "TransferCurrency",
      "type": "event"
    },
    {
      "anonymous": false,
      "inputs": [
        {
          "indexed": false,
          "internalType": "address",
          "name": "to",
          "type": "address"
        },
        {
          "indexed": false,
          "internalType": "uint256",
          "name": "orderId",
          "type": "uint256"
        }
      ],
      "name": "TransferOrder",
      "type": "event"
    },
    {
      "inputs": [],
      "name": "numOrders",
      "outputs": [
        {
          "internalType": "uint256",
          "name": "",
          "type": "uint256"
        }
      ],
      "stateMutability": "view",
      "type": "function"
    },
    {
      "inputs": [
        {
          "internalType": "uint256",
          "name": "",
          "type": "uint256"
        }
      ],
      "name": "orders",
      "outputs": [
        {
          "internalType": "address",
          "name": "currentOwner",
          "type": "address"
        },
        {
          "internalType": "address",
          "name": "previousOwner",
          "type": "address"
        },
        {
          "internalType": "uint8",
          "name": "offeredCurrency",
          "type": "uint8"
        },
        {
          "internalType": "uint256",
          "name": "offeredAmount",
          "type": "uint256"
        },
        {
          "internalType": "uint8",
          "name": "requestedCurrency",
          "type": "uint8"
        },
        {
          "internalType": "uint256",
          "name": "requestedAmount",
          "type": "uint256"
        }
      ],
      "stateMutability": "view",
      "type": "function"
    },
    {
      "inputs": [
        {
          "internalType": "uint8",
          "name": "offeredCurrency",
          "type": "uint8"
        },
        {
          "internalType": "uint256",
          "name": "offeredAmount",
          "type": "uint256"
        },
        {
          "internalType": "uint8",
          "name": "requestedCurrency",
          "type": "uint8"
        }
      ],
      "name": "createOrder",
      "outputs": [
        {
          "internalType": "uint256",
          "name": "",
          "type": "uint256"
        }
      ],
      "stateMutability": "nonpayable",
      "type": "function"
    },
    {
      "inputs": [
        {
          "internalType": "address",
          "name": "to",
          "type": "address"
        },
        {
          "internalType": "uint256",
          "name": "orderId",
          "type": "uint256"
        }
      ],
      "name": "transferOrder",
      "outputs": [],
      "stateMutability": "nonpayable",
      "type": "function"
    },
    {
      "inputs": [
        {
          "internalType": "uint256",
          "name": "orderId",
          "type": "uint256"
        }
      ],
      "name": "cancelOrder",
      "outputs": [],
      "stateMutability": "nonpayable",
      "type": "function"
    },
    {
      "inputs": [],
      "name": "matchPair",
      "outputs": [],
      "stateMutability": "nonpayable",
      "type": "function"
    },
    {
      "inputs": [
        {
          "internalType": "uint256",
          "name": "orderId",
          "type": "uint256"
        }
      ],
      "name": "getCurrentOwner",
      "outputs": [
        {
          "internalType": "address",
          "name": "",
          "type": "address"
        }
      ],
      "stateMutability": "view",
      "type": "function"
    },
    {
      "inputs": [
        {
          "internalType": "uint256",
          "name": "orderId",
          "type": "uint256"
        }
      ],
      "name": "getPreviousOwner",
      "outputs": [
        {
          "internalType": "address",
          "name": "",
          "type": "address"
        }
      ],
      "stateMutability": "view",
      "type": "function"
    }
  ],
  "bytecode": "0x608060405260006008553480156200001657600080fd5b5060405162003d5038038062003d5083398181016040528101906200003c9190620003ed565b856000806101000a81548173ffffffffffffffffffffffffffffffffffffffff021916908373ffffffffffffffffffffffffffffffffffffffff16021790555084600160006101000a81548173ffffffffffffffffffffffffffffffffffffffff021916908373ffffffffffffffffffffffffffffffffffffffff16021790555083600260006101000a81548173ffffffffffffffffffffffffffffffffffffffff021916908373ffffffffffffffffffffffffffffffffffffffff16021790555082600360006101000a81548173ffffffffffffffffffffffffffffffffffffffff021916908373ffffffffffffffffffffffffffffffffffffffff16021790555081600460006101000a81548173ffffffffffffffffffffffffffffffffffffffff021916908373ffffffffffffffffffffffffffffffffffffffff16021790555080600560006101000a81548173ffffffffffffffffffffffffffffffffffffffff021916908373ffffffffffffffffffffffffffffffffffffffff16021790555033600660006101000a81548173ffffffffffffffffffffffffffffffffffffffff021916908373ffffffffffffffffffffffffffffffffffffffff160217905550600160078190555050505050505062000489565b600080fd5b600073ffffffffffffffffffffffffffffffffffffffff82169050919050565b600062000248826200021b565b9050919050565b60006200025c826200023b565b9050919050565b6200026e816200024f565b81146200027a57600080fd5b50565b6000815190506200028e8162000263565b92915050565b6000620002a1826200023b565b9050919050565b620002b38162000294565b8114620002bf57600080fd5b50565b600081519050620002d381620002a8565b92915050565b6000620002e6826200023b565b9050919050565b620002f881620002d9565b81146200030457600080fd5b50565b6000815190506200031881620002ed565b92915050565b60006200032b826200023b565b9050919050565b6200033d816200031e565b81146200034957600080fd5b50565b6000815190506200035d8162000332565b92915050565b600062000370826200023b565b9050919050565b620003828162000363565b81146200038e57600080fd5b50565b600081519050620003a28162000377565b92915050565b6000620003b5826200023b565b9050919050565b620003c781620003a8565b8114620003d357600080fd5b50565b600081519050620003e781620003bc565b92915050565b60008060008060008060c087890312156200040d576200040c62000216565b5b60006200041d89828a016200027d565b96505060206200043089828a01620002c2565b95505060406200044389828a0162000307565b94505060606200045689828a016200034c565b93505060806200046989828a0162000391565b92505060a06200047c89828a01620003d6565b9150509295509295509295565b6138b780620004996000396000f3fe608060405234801561001057600080fd5b50600436106100875760003560e01c8063a309fbae1161005b578063a309fbae14610126578063a85c38ef14610142578063da85b69d14610177578063e1b0f11d146101a757610087565b806256856a1461008c57806345d53788146100bc578063514fcac7146100da5780637ace341b146100f6575b600080fd5b6100a660048036038101906100a19190613031565b6101b1565b6040516100b3919061309f565b60405180910390f35b6100c4610237565b6040516100d191906130c9565b60405180910390f35b6100f460048036038101906100ef9190613031565b61023d565b005b610110600480360381019061010b9190613031565b610647565b60405161011d919061309f565b60405180910390f35b610140600480360381019061013b9190613110565b6106cd565b005b61015c60048036038101906101579190613031565b6112ce565b60405161016e9695949392919061316c565b60405180910390f35b610191600480360381019061018c91906131f9565b611364565b60405161019e91906130c9565b60405180910390f35b6101af611eed565b005b60008160085481106101f8576040517f08c379a00000000000000000000000000000000000000000000000000000000081526004016101ef906132a9565b60405180910390fd5b6009600084815260200190815260200160002060010160009054906101000a900473ffffffffffffffffffffffffffffffffffffffff16915050919050565b60085481565b803373ffffffffffffffffffffffffffffffffffffffff166009600083815260200190815260200160002060000160009054906101000a900473ffffffffffffffffffffffffffffffffffffffff1673ffffffffffffffffffffffffffffffffffffffff16146102e2576040517f08c379a00000000000000000000000000000000000000000000000000000000081526004016102d990613315565b60405180910390fd5b816008548110610327576040517f08c379a000000000000000000000000000000000000000000000000000000000815260040161031e906132a9565b60405180910390fd5b60006009600085815260200190815260200160002060010160149054906101000a900460ff16905060006009600086815260200190815260200160002060020154905060096000868152602001908152602001600020600080820160006101000a81549073ffffffffffffffffffffffffffffffffffffffff02191690556001820160006101000a81549073ffffffffffffffffffffffffffffffffffffffff02191690556001820160146101000a81549060ff021916905560028201600090556003820160006101000a81549060ff02191690556004820160009055505060018260ff16036104a757600160009054906101000a900473ffffffffffffffffffffffffffffffffffffffff1673ffffffffffffffffffffffffffffffffffffffff16633d9b14913033846040518463ffffffff1660e01b815260040161047093929190613335565b600060405180830381600087803b15801561048a57600080fd5b505af115801561049e573d6000803e3d6000fd5b505050506105db565b60028260ff160361054857600260009054906101000a900473ffffffffffffffffffffffffffffffffffffffff1673ffffffffffffffffffffffffffffffffffffffff16635622e6e23033846040518463ffffffff1660e01b815260040161051193929190613335565b600060405180830381600087803b15801561052b57600080fd5b505af115801561053f573d6000803e3d6000fd5b505050506105da565b600360009054906101000a900473ffffffffffffffffffffffffffffffffffffffff1673ffffffffffffffffffffffffffffffffffffffff16638bcc3d133033846040518463ffffffff1660e01b81526004016105a793929190613335565b600060405180830381600087803b1580156105c157600080fd5b505af11580156105d5573d6000803e3d6000fd5b505050505b5b7f1adf2bec1667326437e93f87d4fe21d8c84320e5b0e49d4106b96474630a901f60405160405180910390a17f44042e4a95e394f152de87c5908c29c0dfbeaf43b5aa4ab574da50779a177f08338260405161063892919061336c565b60405180910390a15050505050565b600081600854811061068e576040517f08c379a0000000000000000000000000000000000000000000000000000000008152600401610685906132a9565b60405180910390fd5b6009600084815260200190815260200160002060000160009054906101000a900473ffffffffffffffffffffffffffffffffffffffff16915050919050565b803373ffffffffffffffffffffffffffffffffffffffff166009600083815260200190815260200160002060000160009054906101000a900473ffffffffffffffffffffffffffffffffffffffff1673ffffffffffffffffffffffffffffffffffffffff1614610772576040517f08c379a000000000000000000000000000000000000000000000000000000000815260040161076990613315565b60405180910390fd5b8160085481106107b7576040517f08c379a00000000000000000000000000000000000000000000000000000000081526004016107ae906132a9565b60405180910390fd5b6009600084815260200190815260200160002060000160009054906101000a900473ffffffffffffffffffffffffffffffffffffffff166009600085815260200190815260200160002060010160006101000a81548173ffffffffffffffffffffffffffffffffffffffff021916908373ffffffffffffffffffffffffffffffffffffffff160217905550836009600085815260200190815260200160002060000160006101000a81548173ffffffffffffffffffffffffffffffffffffffff021916908373ffffffffffffffffffffffffffffffffffffffff16021790555060016009600085815260200190815260200160002060010160149054906101000a900460ff1660ff1603610bfa5760026009600085815260200190815260200160002060030160009054906101000a900460ff1660ff1603610a7657600a6009600085815260200190815260200160002090806001815401808255809150506001900390600052602060002090600502016000909190919091506000820160009054906101000a900473ffffffffffffffffffffffffffffffffffffffff168160000160006101000a81548173ffffffffffffffffffffffffffffffffffffffff021916908373ffffffffffffffffffffffffffffffffffffffff1602179055506001820160009054906101000a900473ffffffffffffffffffffffffffffffffffffffff168160010160006101000a81548173ffffffffffffffffffffffffffffffffffffffff021916908373ffffffffffffffffffffffffffffffffffffffff1602179055506001820160149054906101000a900460ff168160010160146101000a81548160ff021916908360ff160217905550600282015481600201556003820160009054906101000a900460ff168160030160006101000a81548160ff021916908360ff160217905550600482015481600401555050610bf5565b600b6009600085815260200190815260200160002090806001815401808255809150506001900390600052602060002090600502016000909190919091506000820160009054906101000a900473ffffffffffffffffffffffffffffffffffffffff168160000160006101000a81548173ffffffffffffffffffffffffffffffffffffffff021916908373ffffffffffffffffffffffffffffffffffffffff1602179055506001820160009054906101000a900473ffffffffffffffffffffffffffffffffffffffff168160010160006101000a81548173ffffffffffffffffffffffffffffffffffffffff021916908373ffffffffffffffffffffffffffffffffffffffff1602179055506001820160149054906101000a900460ff168160010160146101000a81548160ff021916908360ff160217905550600282015481600201556003820160009054906101000a900460ff168160030160006101000a81548160ff021916908360ff1602179055506004820154816004015550505b61128f565b60026009600085815260200190815260200160002060010160149054906101000a900460ff1660ff1603610f5d5760016009600085815260200190815260200160002060030160009054906101000a900460ff1660ff1603610dd957600c6009600085815260200190815260200160002090806001815401808255809150506001900390600052602060002090600502016000909190919091506000820160009054906101000a900473ffffffffffffffffffffffffffffffffffffffff168160000160006101000a81548173ffffffffffffffffffffffffffffffffffffffff021916908373ffffffffffffffffffffffffffffffffffffffff1602179055506001820160009054906101000a900473ffffffffffffffffffffffffffffffffffffffff168160010160006101000a81548173ffffffffffffffffffffffffffffffffffffffff021916908373ffffffffffffffffffffffffffffffffffffffff1602179055506001820160149054906101000a900460ff168160010160146101000a81548160ff021916908360ff160217905550600282015481600201556003820160009054906101000a900460ff168160030160006101000a81548160ff021916908360ff160217905550600482015481600401555050610f58565b600d6009600085815260200190815260200160002090806001815401808255809150506001900390600052602060002090600502016000909190919091506000820160009054906101000a900473ffffffffffffffffffffffffffffffffffffffff168160000160006101000a81548173ffffffffffffffffffffffffffffffffffffffff021916908373ffffffffffffffffffffffffffffffffffffffff1602179055506001820160009054906101000a900473ffffffffffffffffffffffffffffffffffffffff168160010160006101000a81548173ffffffffffffffffffffffffffffffffffffffff021916908373ffffffffffffffffffffffffffffffffffffffff1602179055506001820160149054906101000a900460ff168160010160146101000a81548160ff021916908360ff160217905550600282015481600201556003820160009054906101000a900460ff168160030160006101000a81548160ff021916908360ff1602179055506004820154816004015550505b61128e565b60016009600085815260200190815260200160002060030160009054906101000a900460ff1660ff160361110e57600e6009600085815260200190815260200160002090806001815401808255809150506001900390600052602060002090600502016000909190919091506000820160009054906101000a900473ffffffffffffffffffffffffffffffffffffffff168160000160006101000a81548173ffffffffffffffffffffffffffffffffffffffff021916908373ffffffffffffffffffffffffffffffffffffffff1602179055506001820160009054906101000a900473ffffffffffffffffffffffffffffffffffffffff168160010160006101000a81548173ffffffffffffffffffffffffffffffffffffffff021916908373ffffffffffffffffffffffffffffffffffffffff1602179055506001820160149054906101000a900460ff168160010160146101000a81548160ff021916908360ff160217905550600282015481600201556003820160009054906101000a900460ff168160030160006101000a81548160ff021916908360ff16021790555060048201548160040155505061128d565b600f6009600085815260200190815260200160002090806001815401808255809150506001900390600052602060002090600502016000909190919091506000820160009054906101000a900473ffffffffffffffffffffffffffffffffffffffff168160000160006101000a81548173ffffffffffffffffffffffffffffffffffffffff021916908373ffffffffffffffffffffffffffffffffffffffff1602179055506001820160009054906101000a900473ffffffffffffffffffffffffffffffffffffffff168160010160006101000a81548173ffffffffffffffffffffffffffffffffffffffff021916908373ffffffffffffffffffffffffffffffffffffffff1602179055506001820160149054906101000a900460ff168160010160146101000a81548160ff021916908360ff160217905550600282015481600201556003820160009054906101000a900460ff168160030160006101000a81548160ff021916908360ff1602179055506004820154816004015550505b5b5b7f8b3ef63e6cdb88e931374344d256d031fe3d2719be7c675dd7b40fb6c42f933a84846040516112c092919061336c565b60405180910390a150505050565b60096020528060005260406000206000915090508060000160009054906101000a900473ffffffffffffffffffffffffffffffffffffffff16908060010160009054906101000a900473ffffffffffffffffffffffffffffffffffffffff16908060010160149054906101000a900460ff16908060020154908060030160009054906101000a900460ff16908060040154905086565b6000808460ff1611801561137b575060048460ff16105b6113ba576040517f08c379a00000000000000000000000000000000000000000000000000000000081526004016113b1906133e1565b60405180910390fd5b60008260ff161180156113d0575060048260ff16105b61140f576040517f08c379a00000000000000000000000000000000000000000000000000000000081526004016114069061344d565b60405180910390fd5b8160ff168460ff1603611457576040517f08c379a000000000000000000000000000000000000000000000000000000000815260040161144e906134df565b60405180910390fd5b6000831161149a576040517f08c379a00000000000000000000000000000000000000000000000000000000081526004016114919061354b565b60405180910390fd5b600060018560ff160361176a57600160009054906101000a900473ffffffffffffffffffffffffffffffffffffffff1673ffffffffffffffffffffffffffffffffffffffff1663f69bbebd336040518263ffffffff1660e01b8152600401611502919061309f565b6020604051808303816000875af1158015611521573d6000803e3d6000fd5b505050506040513d601f19601f820116820180604052508101906115459190613580565b841115611587576040517f08c379a000000000000000000000000000000000000000000000000000000000815260040161157e906135f9565b60405180910390fd5b600160009054906101000a900473ffffffffffffffffffffffffffffffffffffffff1673ffffffffffffffffffffffffffffffffffffffff16633d9b14913330876040518463ffffffff1660e01b81526004016115e693929190613335565b600060405180830381600087803b15801561160057600080fd5b505af1158015611614573d6000803e3d6000fd5b5050505060028360ff16036116c657600560009054906101000a900473ffffffffffffffffffffffffffffffffffffffff1673ffffffffffffffffffffffffffffffffffffffff1663a9604f246040518163ffffffff1660e01b8152600401602060405180830381865afa158015611690573d6000803e3d6000fd5b505050506040513d601f19601f820116820180604052508101906116b49190613580565b846116bf9190613648565b9050611765565b600560009054906101000a900473ffffffffffffffffffffffffffffffffffffffff1673ffffffffffffffffffffffffffffffffffffffff1663e0de91036040518163ffffffff1660e01b8152600401602060405180830381865afa158015611733573d6000803e3d6000fd5b505050506040513d601f19601f820116820180604052508101906117579190613580565b846117629190613648565b90505b611cf6565b60028560ff1603611a3657600260009054906101000a900473ffffffffffffffffffffffffffffffffffffffff1673ffffffffffffffffffffffffffffffffffffffff166370a08231336040518263ffffffff1660e01b81526004016117d0919061309f565b602060405180830381865afa1580156117ed573d6000803e3d6000fd5b505050506040513d601f19601f820116820180604052508101906118119190613580565b841115611853576040517f08c379a000000000000000000000000000000000000000000000000000000000815260040161184a906135f9565b60405180910390fd5b600260009054906101000a900473ffffffffffffffffffffffffffffffffffffffff1673ffffffffffffffffffffffffffffffffffffffff16635622e6e23330876040518463ffffffff1660e01b81526004016118b293929190613335565b600060405180830381600087803b1580156118cc57600080fd5b505af11580156118e0573d6000803e3d6000fd5b5050505060018360ff160361199257600560009054906101000a900473ffffffffffffffffffffffffffffffffffffffff1673ffffffffffffffffffffffffffffffffffffffff1663a9604f246040518163ffffffff1660e01b8152600401602060405180830381865afa15801561195c573d6000803e3d6000fd5b505050506040513d601f19601f820116820180604052508101906119809190613580565b8461198b91906136b9565b9050611a31565b600560009054906101000a900473ffffffffffffffffffffffffffffffffffffffff1673ffffffffffffffffffffffffffffffffffffffff1663811203866040518163ffffffff1660e01b8152600401602060405180830381865afa1580156119ff573d6000803e3d6000fd5b505050506040513d601f19601f82011682018060405250810190611a239190613580565b84611a2e9190613648565b90505b611cf5565b600360009054906101000a900473ffffffffffffffffffffffffffffffffffffffff1673ffffffffffffffffffffffffffffffffffffffff1663762722ac336040518263ffffffff1660e01b8152600401611a91919061309f565b6020604051808303816000875af1158015611ab0573d6000803e3d6000fd5b505050506040513d601f19601f82011682018060405250810190611ad49190613580565b841115611b16576040517f08c379a0000000000000000000000000000000000000000000000000000000008152600401611b0d906135f9565b60405180910390fd5b600360009054906101000a900473ffffffffffffffffffffffffffffffffffffffff1673ffffffffffffffffffffffffffffffffffffffff16638bcc3d133330876040518463ffffffff1660e01b8152600401611b7593929190613335565b600060405180830381600087803b158015611b8f57600080fd5b505af1158015611ba3573d6000803e3d6000fd5b5050505060018360ff1603611c5557600560009054906101000a900473ffffffffffffffffffffffffffffffffffffffff1673ffffffffffffffffffffffffffffffffffffffff1663e0de91036040518163ffffffff1660e01b8152600401602060405180830381865afa158015611c1f573d6000803e3d6000fd5b505050506040513d601f19601f82011682018060405250810190611c439190613580565b84611c4e91906136b9565b9050611cf4565b600560009054906101000a900473ffffffffffffffffffffffffffffffffffffffff1673ffffffffffffffffffffffffffffffffffffffff1663811203866040518163ffffffff1660e01b8152600401602060405180830381865afa158015611cc2573d6000803e3d6000fd5b505050506040513d601f19601f82011682018060405250810190611ce69190613580565b84611cf191906136b9565b90505b5b5b60006040518060c001604052803373ffffffffffffffffffffffffffffffffffffffff168152602001600073ffffffffffffffffffffffffffffffffffffffff1681526020018760ff1681526020018681526020018560ff168152602001838152509050600060086000815480929190611d6f906136ea565b919050559050816009600083815260200190815260200160002060008201518160000160006101000a81548173ffffffffffffffffffffffffffffffffffffffff021916908373ffffffffffffffffffffffffffffffffffffffff16021790555060208201518160010160006101000a81548173ffffffffffffffffffffffffffffffffffffffff021916908373ffffffffffffffffffffffffffffffffffffffff16021790555060408201518160010160146101000a81548160ff021916908360ff1602179055506060820151816002015560808201518160030160006101000a81548160ff021916908360ff16021790555060a082015181600401559050507f44042e4a95e394f152de87c5908c29c0dfbeaf43b5aa4ab574da50779a177f083087604051611ea192919061336c565b60405180910390a17f2f539bcf68b0eef24f9fef1ae5ad7dd5a37f80a2fab34f406ad2b92c779d606481604051611ed891906130c9565b60405180910390a18093505050509392505050565b600660009054906101000a900473ffffffffffffffffffffffffffffffffffffffff1673ffffffffffffffffffffffffffffffffffffffff163373ffffffffffffffffffffffffffffffffffffffff1614611f7d576040517f08c379a0000000000000000000000000000000000000000000000000000000008152600401611f74906137a4565b60405180910390fd5b60005b600a805490508110156124f95760005b600c805490508110156124e557600c8181548110611fb157611fb06137c4565b5b906000526020600020906005020160040154600a8381548110611fd757611fd66137c4565b5b906000526020600020906005020160020154036124d257600160009054906101000a900473ffffffffffffffffffffffffffffffffffffffff1673ffffffffffffffffffffffffffffffffffffffff16633d9b149130600c8481548110612041576120406137c4565b5b906000526020600020906005020160010160009054906101000a900473ffffffffffffffffffffffffffffffffffffffff16600c8581548110612087576120866137c4565b5b9060005260206000209060050201600401546040518463ffffffff1660e01b81526004016120b793929190613335565b600060405180830381600087803b1580156120d157600080fd5b505af11580156120e5573d6000803e3d6000fd5b50505050600260009054906101000a900473ffffffffffffffffffffffffffffffffffffffff1673ffffffffffffffffffffffffffffffffffffffff16635622e6e230600a858154811061213c5761213b6137c4565b5b906000526020600020906005020160010160009054906101000a900473ffffffffffffffffffffffffffffffffffffffff16600a8681548110612182576121816137c4565b5b9060005260206000209060050201600401546040518463ffffffff1660e01b81526004016121b293929190613335565b600060405180830381600087803b1580156121cc57600080fd5b505af11580156121e0573d6000803e3d6000fd5b50505050600460009054906101000a900473ffffffffffffffffffffffffffffffffffffffff1673ffffffffffffffffffffffffffffffffffffffff166323b872dd600a8481548110612236576122356137c4565b5b906000526020600020906005020160010160009054906101000a900473ffffffffffffffffffffffffffffffffffffffff16306007546040518463ffffffff1660e01b815260040161228a93929190613335565b6020604051808303816000875af11580156122a9573d6000803e3d6000fd5b505050506040513d601f19601f820116820180604052508101906122cd919061382b565b50600460009054906101000a900473ffffffffffffffffffffffffffffffffffffffff1673ffffffffffffffffffffffffffffffffffffffff166323b872dd600c83815481106123205761231f6137c4565b5b906000526020600020906005020160010160009054906101000a900473ffffffffffffffffffffffffffffffffffffffff16306007546040518463ffffffff1660e01b815260040161237493929190613335565b6020604051808303816000875af1158015612393573d6000803e3d6000fd5b505050506040513d601f19601f820116820180604052508101906123b7919061382b565b507fd14ed81663bee87b643b51c1f63fc86cb3b2bba9cc237cf6db5c3d5967a26952600a83815481106123ed576123ec6137c4565b5b906000526020600020906005020160010160009054906101000a900473ffffffffffffffffffffffffffffffffffffffff16600c8381548110612433576124326137c4565b5b906000526020600020906005020160010160009054906101000a900473ffffffffffffffffffffffffffffffffffffffff16604051612473929190613858565b60405180910390a16000600a8381548110612491576124906137c4565b5b9060005260206000209060050201600401819055506000600c82815481106124bc576124bb6137c4565b5b9060005260206000209060050201600401819055505b80806124dd906136ea565b915050611f90565b5080806124f1906136ea565b915050611f80565b5060005b600b80549050811015612a765760005b600e80549050811015612a6257600e818154811061252e5761252d6137c4565b5b906000526020600020906005020160040154600b8381548110612554576125536137c4565b5b90600052602060002090600502016002015403612a4f57600160009054906101000a900473ffffffffffffffffffffffffffffffffffffffff1673ffffffffffffffffffffffffffffffffffffffff16633d9b149130600e84815481106125be576125bd6137c4565b5b906000526020600020906005020160010160009054906101000a900473ffffffffffffffffffffffffffffffffffffffff16600e8581548110612604576126036137c4565b5b9060005260206000209060050201600401546040518463ffffffff1660e01b815260040161263493929190613335565b600060405180830381600087803b15801561264e57600080fd5b505af1158015612662573d6000803e3d6000fd5b50505050600360009054906101000a900473ffffffffffffffffffffffffffffffffffffffff1673ffffffffffffffffffffffffffffffffffffffff16638bcc3d1330600b85815481106126b9576126b86137c4565b5b906000526020600020906005020160010160009054906101000a900473ffffffffffffffffffffffffffffffffffffffff16600b86815481106126ff576126fe6137c4565b5b9060005260206000209060050201600401546040518463ffffffff1660e01b815260040161272f93929190613335565b600060405180830381600087803b15801561274957600080fd5b505af115801561275d573d6000803e3d6000fd5b50505050600460009054906101000a900473ffffffffffffffffffffffffffffffffffffffff1673ffffffffffffffffffffffffffffffffffffffff166323b872dd600b84815481106127b3576127b26137c4565b5b906000526020600020906005020160010160009054906101000a900473ffffffffffffffffffffffffffffffffffffffff16306007546040518463ffffffff1660e01b815260040161280793929190613335565b6020604051808303816000875af1158015612826573d6000803e3d6000fd5b505050506040513d601f19601f8201168201806040525081019061284a919061382b565b50600460009054906101000a900473ffffffffffffffffffffffffffffffffffffffff1673ffffffffffffffffffffffffffffffffffffffff166323b872dd600e838154811061289d5761289c6137c4565b5b906000526020600020906005020160010160009054906101000a900473ffffffffffffffffffffffffffffffffffffffff16306007546040518463ffffffff1660e01b81526004016128f193929190613335565b6020604051808303816000875af1158015612910573d6000803e3d6000fd5b505050506040513d601f19601f82011682018060405250810190612934919061382b565b507fd14ed81663bee87b643b51c1f63fc86cb3b2bba9cc237cf6db5c3d5967a26952600b838154811061296a576129696137c4565b5b906000526020600020906005020160010160009054906101000a900473ffffffffffffffffffffffffffffffffffffffff16600e83815481106129b0576129af6137c4565b5b906000526020600020906005020160010160009054906101000a900473ffffffffffffffffffffffffffffffffffffffff166040516129f0929190613858565b60405180910390a16000600b8381548110612a0e57612a0d6137c4565b5b9060005260206000209060050201600401819055506000600e8281548110612a3957612a386137c4565b5b9060005260206000209060050201600401819055505b8080612a5a906136ea565b91505061250d565b508080612a6e906136ea565b9150506124fd565b5060005b600d80549050811015612ff35760005b600f80549050811015612fdf57600f8181548110612aab57612aaa6137c4565b5b906000526020600020906005020160040154600d8381548110612ad157612ad06137c4565b5b90600052602060002090600502016002015403612fcc57600260009054906101000a900473ffffffffffffffffffffffffffffffffffffffff1673ffffffffffffffffffffffffffffffffffffffff16635622e6e230600f8481548110612b3b57612b3a6137c4565b5b906000526020600020906005020160010160009054906101000a900473ffffffffffffffffffffffffffffffffffffffff16600f8581548110612b8157612b806137c4565b5b9060005260206000209060050201600401546040518463ffffffff1660e01b8152600401612bb193929190613335565b600060405180830381600087803b158015612bcb57600080fd5b505af1158015612bdf573d6000803e3d6000fd5b50505050600360009054906101000a900473ffffffffffffffffffffffffffffffffffffffff1673ffffffffffffffffffffffffffffffffffffffff16638bcc3d1330600d8581548110612c3657612c356137c4565b5b906000526020600020906005020160010160009054906101000a900473ffffffffffffffffffffffffffffffffffffffff16600d8681548110612c7c57612c7b6137c4565b5b9060005260206000209060050201600401546040518463ffffffff1660e01b8152600401612cac93929190613335565b600060405180830381600087803b158015612cc657600080fd5b505af1158015612cda573d6000803e3d6000fd5b50505050600460009054906101000a900473ffffffffffffffffffffffffffffffffffffffff1673ffffffffffffffffffffffffffffffffffffffff166323b872dd600d8481548110612d3057612d2f6137c4565b5b906000526020600020906005020160010160009054906101000a900473ffffffffffffffffffffffffffffffffffffffff16306007546040518463ffffffff1660e01b8152600401612d8493929190613335565b6020604051808303816000875af1158015612da3573d6000803e3d6000fd5b505050506040513d601f19601f82011682018060405250810190612dc7919061382b565b50600460009054906101000a900473ffffffffffffffffffffffffffffffffffffffff1673ffffffffffffffffffffffffffffffffffffffff166323b872dd600f8381548110612e1a57612e196137c4565b5b906000526020600020906005020160010160009054906101000a900473ffffffffffffffffffffffffffffffffffffffff16306007546040518463ffffffff1660e01b8152600401612e6e93929190613335565b6020604051808303816000875af1158015612e8d573d6000803e3d6000fd5b505050506040513d601f19601f82011682018060405250810190612eb1919061382b565b507fd14ed81663bee87b643b51c1f63fc86cb3b2bba9cc237cf6db5c3d5967a26952600d8381548110612ee757612ee66137c4565b5b906000526020600020906005020160010160009054906101000a900473ffffffffffffffffffffffffffffffffffffffff16600f8381548110612f2d57612f2c6137c4565b5b906000526020600020906005020160010160009054906101000a900473ffffffffffffffffffffffffffffffffffffffff16604051612f6d929190613858565b60405180910390a16000600d8381548110612f8b57612f8a6137c4565b5b9060005260206000209060050201600401819055506000600f8281548110612fb657612fb56137c4565b5b9060005260206000209060050201600401819055505b8080612fd7906136ea565b915050612a8a565b508080612feb906136ea565b915050612a7a565b50565b600080fd5b6000819050919050565b61300e81612ffb565b811461301957600080fd5b50565b60008135905061302b81613005565b92915050565b60006020828403121561304757613046612ff6565b5b60006130558482850161301c565b91505092915050565b600073ffffffffffffffffffffffffffffffffffffffff82169050919050565b60006130898261305e565b9050919050565b6130998161307e565b82525050565b60006020820190506130b46000830184613090565b92915050565b6130c381612ffb565b82525050565b60006020820190506130de60008301846130ba565b92915050565b6130ed8161307e565b81146130f857600080fd5b50565b60008135905061310a816130e4565b92915050565b6000806040838503121561312757613126612ff6565b5b6000613135858286016130fb565b92505060206131468582860161301c565b9150509250929050565b600060ff82169050919050565b61316681613150565b82525050565b600060c0820190506131816000830189613090565b61318e6020830188613090565b61319b604083018761315d565b6131a860608301866130ba565b6131b5608083018561315d565b6131c260a08301846130ba565b979650505050505050565b6131d681613150565b81146131e157600080fd5b50565b6000813590506131f3816131cd565b92915050565b60008060006060848603121561321257613211612ff6565b5b6000613220868287016131e4565b93505060206132318682870161301c565b9250506040613242868287016131e4565b9150509250925092565b600082825260208201905092915050565b7f496e76616c6964204f7264657220496400000000000000000000000000000000600082015250565b600061329360108361324c565b915061329e8261325d565b602082019050919050565b600060208201905081810360008301526132c281613286565b9050919050565b7f4e6f742043757272656e74204f776e6572210000000000000000000000000000600082015250565b60006132ff60128361324c565b915061330a826132c9565b602082019050919050565b6000602082019050818103600083015261332e816132f2565b9050919050565b600060608201905061334a6000830186613090565b6133576020830185613090565b61336460408301846130ba565b949350505050565b60006040820190506133816000830185613090565b61338e60208301846130ba565b9392505050565b7f496e76616c6964204f6666657265642043757272656e63792100000000000000600082015250565b60006133cb60198361324c565b91506133d682613395565b602082019050919050565b600060208201905081810360008301526133fa816133be565b9050919050565b7f496e76616c6964205265717565737465642043757272656e6379210000000000600082015250565b6000613437601b8361324c565b915061344282613401565b602082019050919050565b600060208201905081810360008301526134668161342a565b9050919050565b7f4f6666657265642043757272656e63792063616e6e6f7420626520746865207360008201527f616d65206173205265717565737465642043757272656e637921000000000000602082015250565b60006134c9603a8361324c565b91506134d48261346d565b604082019050919050565b600060208201905081810360008301526134f8816134bc565b9050919050565b7f496e76616c6964204f66666572656420416d6f756e7421000000000000000000600082015250565b600061353560178361324c565b9150613540826134ff565b602082019050919050565b6000602082019050818103600083015261356481613528565b9050919050565b60008151905061357a81613005565b92915050565b60006020828403121561359657613595612ff6565b5b60006135a48482850161356b565b91505092915050565b7f496e73756666696369656e742042616c616e6365210000000000000000000000600082015250565b60006135e360158361324c565b91506135ee826135ad565b602082019050919050565b60006020820190508181036000830152613612816135d6565b9050919050565b7f4e487b7100000000000000000000000000000000000000000000000000000000600052601160045260246000fd5b600061365382612ffb565b915061365e83612ffb565b925082820261366c81612ffb565b9150828204841483151761368357613682613619565b5b5092915050565b7f4e487b7100000000000000000000000000000000000000000000000000000000600052601260045260246000fd5b60006136c482612ffb565b91506136cf83612ffb565b9250826136df576136de61368a565b5b828204905092915050565b60006136f582612ffb565b91507fffffffffffffffffffffffffffffffffffffffffffffffffffffffffffffffff820361372757613726613619565b5b600182019050919050565b7f4f6e6c792041646d696e6973747261746f722063616e2074726967676572204d60008201527f61746368696e6721000000000000000000000000000000000000000000000000602082015250565b600061378e60288361324c565b915061379982613732565b604082019050919050565b600060208201905081810360008301526137bd81613781565b9050919050565b7f4e487b7100000000000000000000000000000000000000000000000000000000600052603260045260246000fd5b60008115159050919050565b613808816137f3565b811461381357600080fd5b50565b600081519050613825816137ff565b92915050565b60006020828403121561384157613840612ff6565b5b600061384f84828501613816565b91505092915050565b600060408201905061386d6000830185613090565b61387a6020830184613090565b939250505056fea2646970667358221220de658b703aaa50f303787a8ce23daa308493bce4b30cae54fcbc4621594b9d0a64736f6c63430008110033",
  "immutableReferences": {},
  "source": "// SPDX-License-Identifier: MIT\npragma solidity ^0.8.17;\n\nimport \"./ERC20.sol\";\nimport \"./BeetCoin.sol\";\nimport \"./EternumCoin.sol\";\nimport \"./SolarisCoin.sol\";\nimport \"./PeerToken.sol\";\nimport \"./Oraculum.sol\";\n\ncontract PeerExchangeOrder {\n\n    ERC20 erc20Instance;\n    BeetCoin beetCoinInstance;\n    EternumCoin eternumCoinInstance;\n    SolarisCoin solarisCoinInstance;\n    PeerToken peerTokenInstance;\n    Oraculum oraculumInstance;\n\n    address administrator;\n    uint256 commissionFee;\n    uint256 public numOrders = 0;\n    mapping(uint256 => order) public orders;\n    \n    // Currency: 1 - BeetCoin, 2 - EternumCoin, 3 - SolarisCoin\n    order[] exchange1for2;\n    order[] exchange1for3;\n    order[] exchange2for1;\n    order[] exchange2for3;\n    order[] exchange3for1;\n    order[] exchange3for2;\n\n    constructor(ERC20 erc20Address, BeetCoin beetCoinAddress, EternumCoin eternumCoinAddress, \n        SolarisCoin solarisCoinAddress, PeerToken peerTokenAddress, Oraculum oraculumAddress) {\n        erc20Instance = erc20Address;\n        beetCoinInstance = beetCoinAddress;\n        eternumCoinInstance = eternumCoinAddress;\n        solarisCoinInstance = solarisCoinAddress;\n        peerTokenInstance = peerTokenAddress;\n        oraculumInstance = oraculumAddress;\n        administrator = msg.sender;\n        commissionFee = 1;      // 1 PT\n    }\n\n    struct order {\n        address currentOwner;\n        address previousOwner;\n        uint8 offeredCurrency;\n        uint256 offeredAmount;\n        uint8 requestedCurrency;\n        uint256 requestedAmount;\n    }\n\n    event CreateOrder(uint256 orderId);\n    event TransferCurrency(address to, uint256 amount);\n    event TransferOrder(address to, uint256 orderId);\n    event CancelOrder();\n    event Matched(address peer1, address peer2);\n\n    modifier ownerOnly(uint256 orderId) {\n        require(orders[orderId].currentOwner == msg.sender, \"Not Current Owner!\");\n        _;\n    }\n\n    modifier previousOwnerOnly(uint256 orderId) {\n        require(orders[orderId].previousOwner == msg.sender, \"Not Previous Owner!\");\n        _;\n    }\n\n    modifier validOrderId(uint256 orderId) {\n        require(orderId < numOrders, \"Invalid Order Id\");\n        _;\n    }\n\n    function createOrder(uint8 offeredCurrency, uint256 offeredAmount, uint8 requestedCurrency) public returns (uint256) {\n        require(offeredCurrency > 0 && offeredCurrency < 4, \"Invalid Offered Currency!\");\n        require(requestedCurrency > 0 && requestedCurrency < 4, \"Invalid Requested Currency!\");\n        require(offeredCurrency != requestedCurrency, \"Offered Currency cannot be the same as Requested Currency!\");\n        require(offeredAmount > 0, \"Invalid Offered Amount!\");\n\n        uint256 requestedAmount = 0;\n        if (offeredCurrency == 1) {\n            require(offeredAmount <= beetCoinInstance.checkBCBalance(msg.sender), \"Insufficient Balance!\");\n\n            beetCoinInstance.transferBC(msg.sender, address(this), offeredAmount);\n            if (requestedCurrency == 2) {\n                requestedAmount = offeredAmount * oraculumInstance.ratioBCEC();\n            } else {    // requestedCurrency == 3\n                requestedAmount = offeredAmount * oraculumInstance.ratioBCSC();\n            }\n        } else if (offeredCurrency == 2) {\n            require(offeredAmount <= eternumCoinInstance.balanceOf(msg.sender), \"Insufficient Balance!\");\n\n            eternumCoinInstance.transferEC(msg.sender, address(this), offeredAmount);\n            if (requestedCurrency == 1) {\n                requestedAmount = offeredAmount / oraculumInstance.ratioBCEC();\n            } else {    // requestedCurrency == 3\n                requestedAmount = offeredAmount * oraculumInstance.ratioECSC();\n            }\n        } else {        // offeredCurrency == 3\n            require(offeredAmount <= solarisCoinInstance.checkSCBalance(msg.sender), \"Insufficient Balance!\");\n\n            solarisCoinInstance.transferSC(msg.sender, address(this), offeredAmount);\n            if (requestedCurrency == 1) {\n                requestedAmount = offeredAmount / oraculumInstance.ratioBCSC();\n            } else {    // requestedCurrency == 2\n                requestedAmount = offeredAmount / oraculumInstance.ratioECSC();\n            }\n        }\n\n        order memory newOrder = order(msg.sender, address(0), offeredCurrency, offeredAmount, requestedCurrency, requestedAmount);\n        uint256 orderId = numOrders++;\n        orders[orderId] = newOrder;\n\n        emit TransferCurrency(address(this), offeredAmount);\n        emit CreateOrder(orderId);\n\n        return orderId;\n    }\n\n    function transferOrder(address to, uint256 orderId) public ownerOnly(orderId) validOrderId(orderId) {\n        orders[orderId].previousOwner = orders[orderId].currentOwner;\n        orders[orderId].currentOwner = to;\n        \n        if (orders[orderId].offeredCurrency == 1) {\n            if (orders[orderId].requestedCurrency == 2) {\n                exchange1for2.push(orders[orderId]);\n            } else {        // Requested Currency == 3\n                exchange1for3.push(orders[orderId]);\n            }\n        } else if (orders[orderId].offeredCurrency == 2) {\n            if (orders[orderId].requestedCurrency == 1) {\n                exchange2for1.push(orders[orderId]);\n            } else {        // Requested Currency == 3\n                exchange2for3.push(orders[orderId]);\n            }\n        } else {            // Offered Currency == 3\n            if (orders[orderId].requestedCurrency == 1) {\n                exchange3for1.push(orders[orderId]);\n            } else {        // Requested Currency == 2\n                exchange3for2.push(orders[orderId]);\n            }\n        }\n\n        emit TransferOrder(to, orderId);\n    }\n\n    function cancelOrder(uint256 orderId) public ownerOnly(orderId) validOrderId(orderId) {\n        uint8 currency = orders[orderId].offeredCurrency;\n        uint256 amount = orders[orderId].offeredAmount;\n        delete orders[orderId];\n\n        if (currency == 1) {\n            beetCoinInstance.transferBC(address(this), msg.sender, amount);\n        } else if (currency == 2) {\n            eternumCoinInstance.transferEC(address(this), msg.sender, amount);\n        } else {        // Currency == 3\n            solarisCoinInstance.transferSC(address(this), msg.sender, amount);\n        }\n\n        emit CancelOrder();\n        emit TransferCurrency(msg.sender, amount);\n    }\n\n    function matchPair() public {\n        require(msg.sender == administrator, \"Only Administrator can trigger Matching!\");\n        \n        // Matching 1 & 2\n        for (uint i = 0; i < exchange1for2.length; i++) {\n            for (uint j = 0; j < exchange2for1.length; j++) {\n                if (exchange1for2[i].offeredAmount == exchange2for1[j].requestedAmount) {\n                    beetCoinInstance.transferBC(address(this), exchange2for1[j].previousOwner, exchange2for1[j].requestedAmount);\n                    eternumCoinInstance.transferEC(address(this), exchange1for2[i].previousOwner, exchange1for2[i].requestedAmount);\n                    \n                    // Deduction of CommissionFee\n                    peerTokenInstance.transferFrom(exchange1for2[i].previousOwner, address(this), commissionFee);\n                    peerTokenInstance.transferFrom(exchange2for1[j].previousOwner, address(this), commissionFee);\n                    \n                    emit Matched(exchange1for2[i].previousOwner, exchange2for1[j].previousOwner);\n\n                    // Marking Order As Completed \n                    exchange1for2[i].requestedAmount = 0;\n                    exchange2for1[j].requestedAmount = 0;\n                }\n            }\n        }\n\n        // Matching 1 & 3\n        for (uint i = 0; i < exchange1for3.length; i++) {\n            for (uint j = 0; j < exchange3for1.length; j++) {\n                if (exchange1for3[i].offeredAmount == exchange3for1[j].requestedAmount) {\n                    beetCoinInstance.transferBC(address(this), exchange3for1[j].previousOwner, exchange3for1[j].requestedAmount);\n                    solarisCoinInstance.transferSC(address(this), exchange1for3[i].previousOwner, exchange1for3[i].requestedAmount);\n                    \n                    // Deduction of CommissionFee\n                    peerTokenInstance.transferFrom(exchange1for3[i].previousOwner, address(this), commissionFee);\n                    peerTokenInstance.transferFrom(exchange3for1[j].previousOwner, address(this), commissionFee);\n\n                    emit Matched(exchange1for3[i].previousOwner, exchange3for1[j].previousOwner);\n\n                    // Marking Order As Completed \n                    exchange1for3[i].requestedAmount = 0;\n                    exchange3for1[j].requestedAmount = 0;\n                }\n            }\n        }\n\n        // Matching 2 & 3\n        for (uint i = 0; i < exchange2for3.length; i++) {\n            for (uint j = 0; j < exchange3for2.length; j++) {\n                if (exchange2for3[i].offeredAmount == exchange3for2[j].requestedAmount) {\n                    eternumCoinInstance.transferEC(address(this), exchange3for2[j].previousOwner, exchange3for2[j].requestedAmount);\n                    solarisCoinInstance.transferSC(address(this), exchange2for3[i].previousOwner, exchange2for3[i].requestedAmount);\n                    \n                    // Deduction of CommissionFee\n                    peerTokenInstance.transferFrom(exchange2for3[i].previousOwner, address(this), commissionFee);\n                    peerTokenInstance.transferFrom(exchange3for2[j].previousOwner, address(this), commissionFee);\n\n                    emit Matched(exchange2for3[i].previousOwner, exchange3for2[j].previousOwner);\n\n                    // Marking Order As Completed \n                    exchange2for3[i].requestedAmount = 0;\n                    exchange3for2[j].requestedAmount = 0;\n                }\n            }\n        }\n    }\n\n    /* Get Methods For Testing */\n\n    function getCurrentOwner(uint256 orderId) public view validOrderId(orderId) returns (address) {\n        return orders[orderId].currentOwner;\n    }\n\n    function getPreviousOwner(uint256 orderId) public view validOrderId(orderId) returns (address) {\n        return orders[orderId].previousOwner;\n    }\n}",
  "sourcePath": "/Users/alwin/Developer/Liquiditas/contracts/PeerExchangeOrder.sol",
  "compiler": {
    "name": "solc",
    "version": "0.8.17+commit.8df45f5f.Emscripten.clang"
  },
  "schemaVersion": "3.4.11",
  "updatedAt": "2023-03-24T05:15:32.745Z",
  "devdoc": {
    "kind": "dev",
    "methods": {},
    "version": 1
  },
  "userdoc": {
    "kind": "user",
    "methods": {},
    "version": 1
  }
}