{
  "contractName": "PriceFeed",
  "abi": [
    {
      "inputs": [],
      "name": "getEthPriceFirst",
      "outputs": [
        {
          "internalType": "uint256",
          "name": "",
          "type": "uint256"
        }
      ],
      "stateMutability": "pure",
      "type": "function"
    },
    {
      "inputs": [],
      "name": "getEthPriceToLiquidate",
      "outputs": [
        {
          "internalType": "uint256",
          "name": "",
          "type": "uint256"
        }
      ],
      "stateMutability": "pure",
      "type": "function"
    },
    {
      "inputs": [],
      "name": "getAvaxPriceFirst",
      "outputs": [
        {
          "internalType": "uint256",
          "name": "",
          "type": "uint256"
        }
      ],
      "stateMutability": "pure",
      "type": "function"
    },
    {
      "inputs": [],
      "name": "getAvaxPriceToLiquidate",
      "outputs": [
        {
          "internalType": "uint256",
          "name": "",
          "type": "uint256"
        }
      ],
      "stateMutability": "pure",
      "type": "function"
    }
  ],
  "bytecode": "0x608060405234801561001057600080fd5b50610159806100206000396000f3fe608060405234801561001057600080fd5b506004361061004c5760003560e01c806307a1cf9e1461005157806319d747231461006f578063946e34721461008d578063ffa8ce50146100ab575b600080fd5b6100596100c9565b6040516100669190610108565b60405180910390f35b6100776100d3565b6040516100849190610108565b60405180910390f35b6100956100dd565b6040516100a29190610108565b60405180910390f35b6100b36100e6565b6040516100c09190610108565b60405180910390f35b60006103e8905090565b60006102f8905090565b60006064905090565b6000604c905090565b6000819050919050565b610102816100ef565b82525050565b600060208201905061011d60008301846100f9565b9291505056fea264697066735822122059abbd30ea3a95faf936278079e3ddde85e335d3e0e59a91911fa67acf0f067364736f6c63430008110033",
  "immutableReferences": {},
  "source": "// SPDX-License-Identifier: MIT\npragma solidity ^0.8.7;\n\ncontract PriceFeed {\n    function getEthPriceFirst() public pure returns (uint256) {\n        return 1000;\n    }\n    function getEthPriceToLiquidate() public pure returns (uint256) {\n        return 760; //Simulation purpose\n    }\n\n    function getAvaxPriceFirst() public pure returns (uint256) {\n        return 100;\n    }\n    function getAvaxPriceToLiquidate() public pure returns (uint256) {\n        return 76;\n    }\n}",
  "sourcePath": "/Users/alwin/Developer/Liquiditas/contracts/PriceFeed.sol",
  "compiler": {
    "name": "solc",
    "version": "0.8.17+commit.8df45f5f.Emscripten.clang"
  },
  "schemaVersion": "3.4.11",
  "updatedAt": "2023-03-24T05:15:32.769Z",
  "devdoc": {
    "kind": "dev",
    "methods": {},
    "version": 1
  },
  "userdoc": {
    "kind": "user",
    "methods": {},
    "version": 1
  }
}