{
  "contractName": "Reserves",
  "abi": [
    {
      "inputs": [
        {
          "internalType": "contract USDC",
          "name": "usdcTokenAddress",
          "type": "address"
        }
      ],
      "stateMutability": "nonpayable",
      "type": "constructor"
    },
    {
      "anonymous": false,
      "inputs": [
        {
          "indexed": true,
          "internalType": "address",
          "name": "_from",
          "type": "address"
        },
        {
          "indexed": false,
          "internalType": "uint256",
          "name": "_value",
          "type": "uint256"
        },
        {
          "indexed": false,
          "internalType": "string",
          "name": "_message",
          "type": "string"
        }
      ],
      "name": "Deposit",
      "type": "event"
    },
    {
      "inputs": [],
      "name": "addEthToReserve",
      "outputs": [],
      "stateMutability": "payable",
      "type": "function",
      "payable": true
    },
    {
      "inputs": [
        {
          "internalType": "uint256",
          "name": "amountRequested",
          "type": "uint256"
        }
      ],
      "name": "addUSDCToReserve",
      "outputs": [],
      "stateMutability": "payable",
      "type": "function",
      "payable": true
    },
    {
      "inputs": [],
      "name": "InitialiseReserves",
      "outputs": [],
      "stateMutability": "nonpayable",
      "type": "function"
    },
    {
      "inputs": [
        {
          "internalType": "uint256",
          "name": "amount",
          "type": "uint256"
        }
      ],
      "name": "withDrawEth",
      "outputs": [],
      "stateMutability": "nonpayable",
      "type": "function"
    },
    {
      "inputs": [
        {
          "internalType": "uint256",
          "name": "amount",
          "type": "uint256"
        }
      ],
      "name": "withdrawUSDC",
      "outputs": [
        {
          "internalType": "uint256",
          "name": "",
          "type": "uint256"
        }
      ],
      "stateMutability": "nonpayable",
      "type": "function"
    },
    {
      "inputs": [],
      "name": "getTotalUSDCHolding",
      "outputs": [
        {
          "internalType": "uint256",
          "name": "",
          "type": "uint256"
        }
      ],
      "stateMutability": "view",
      "type": "function",
      "constant": true
    },
    {
      "inputs": [],
      "name": "getTotalEthCHolding",
      "outputs": [
        {
          "internalType": "uint256",
          "name": "",
          "type": "uint256"
        }
      ],
      "stateMutability": "view",
      "type": "function",
      "constant": true
    },
    {
      "inputs": [
        {
          "internalType": "uint256",
          "name": "amount",
          "type": "uint256"
        },
        {
          "internalType": "address",
          "name": "addressToSend",
          "type": "address"
        }
      ],
      "name": "sendEthToLP",
      "outputs": [],
      "stateMutability": "payable",
      "type": "function",
      "payable": true
    },
    {
      "inputs": [],
      "name": "getReservesAddress",
      "outputs": [
        {
          "internalType": "address",
          "name": "",
          "type": "address"
        }
      ],
      "stateMutability": "view",
      "type": "function",
      "constant": true
    }
  ],
  "bytecode": "0x608060405233600160006101000a81548173ffffffffffffffffffffffffffffffffffffffff021916908373ffffffffffffffffffffffffffffffffffffffff160217905550670de0b6b3a76400006002553480156200005e57600080fd5b506040516200103a3803806200103a833981810160405281019062000084919062000149565b806000806101000a81548173ffffffffffffffffffffffffffffffffffffffff021916908373ffffffffffffffffffffffffffffffffffffffff160217905550506200017b565b600080fd5b600073ffffffffffffffffffffffffffffffffffffffff82169050919050565b6000620000fd82620000d0565b9050919050565b60006200011182620000f0565b9050919050565b620001238162000104565b81146200012f57600080fd5b50565b600081519050620001438162000118565b92915050565b600060208284031215620001625762000161620000cb565b5b6000620001728482850162000132565b91505092915050565b610eaf806200018b6000396000f3fe6080604052600436106100865760003560e01c80636703ca70116100595780636703ca701461012657806374571cb214610151578063b07486ad1461015b578063db81f99b14610172578063ea58a982146101af57610086565b80632ad415bd1461008b5780634a9c39d6146100b65780634ef83a70146100d2578063613c0c0e146100fb575b600080fd5b34801561009757600080fd5b506100a06101cb565b6040516100ad91906108d9565b60405180910390f35b6100d060048036038101906100cb919061092f565b6101d3565b005b3480156100de57600080fd5b506100f960048036038101906100f4919061092f565b610275565b005b34801561010757600080fd5b506101106103d4565b60405161011d919061096b565b60405180910390f35b34801561013257600080fd5b5061013b610476565b604051610148919061096b565b60405180910390f35b61015961048b565b005b34801561016757600080fd5b506101706104db565b005b34801561017e57600080fd5b506101996004803603810190610194919061092f565b61060e565b6040516101a6919061096b565b60405180910390f35b6101c960048036038101906101c491906109b2565b610847565b005b600030905090565b60008054906101000a900473ffffffffffffffffffffffffffffffffffffffff1673ffffffffffffffffffffffffffffffffffffffff166340c10f1930836040518363ffffffff1660e01b815260040161022e9291906109f2565b6020604051808303816000875af115801561024d573d6000803e3d6000fd5b505050506040513d601f19601f820116820180604052508101906102719190610a53565b5050565b600160009054906101000a900473ffffffffffffffffffffffffffffffffffffffff1673ffffffffffffffffffffffffffffffffffffffff163373ffffffffffffffffffffffffffffffffffffffff1614610305576040517f08c379a00000000000000000000000000000000000000000000000000000000081526004016102fc90610b03565b60405180910390fd5b600254816103139190610b52565b471015610355576040517f08c379a000000000000000000000000000000000000000000000000000000000815260040161034c90610c06565b60405180910390fd5b6000600160009054906101000a900473ffffffffffffffffffffffffffffffffffffffff1690508073ffffffffffffffffffffffffffffffffffffffff166108fc600254846103a49190610b52565b9081150290604051600060405180830381858888f193505050501580156103cf573d6000803e3d6000fd5b505050565b60008060009054906101000a900473ffffffffffffffffffffffffffffffffffffffff1673ffffffffffffffffffffffffffffffffffffffff166370a08231306040518263ffffffff1660e01b815260040161043091906108d9565b602060405180830381865afa15801561044d573d6000803e3d6000fd5b505050506040513d601f19601f820116820180604052508101906104719190610c3b565b905090565b6000600254476104869190610c97565b905090565b3373ffffffffffffffffffffffffffffffffffffffff167f643e927b32d5bfd08eccd2fcbd97057ad413850f857a2359639114e8e8dd3d7b346040516104d19190610d14565b60405180910390a2565b600160009054906101000a900473ffffffffffffffffffffffffffffffffffffffff1673ffffffffffffffffffffffffffffffffffffffff163373ffffffffffffffffffffffffffffffffffffffff161461056b576040517f08c379a000000000000000000000000000000000000000000000000000000000815260040161056290610b03565b60405180910390fd5b60008054906101000a900473ffffffffffffffffffffffffffffffffffffffff1673ffffffffffffffffffffffffffffffffffffffff166340c10f19306103e86040518363ffffffff1660e01b81526004016105c8929190610d87565b6020604051808303816000875af11580156105e7573d6000803e3d6000fd5b505050506040513d601f19601f8201168201806040525081019061060b9190610a53565b50565b6000600160009054906101000a900473ffffffffffffffffffffffffffffffffffffffff1673ffffffffffffffffffffffffffffffffffffffff163373ffffffffffffffffffffffffffffffffffffffff16146106a0576040517f08c379a000000000000000000000000000000000000000000000000000000000815260040161069790610b03565b60405180910390fd5b8160008054906101000a900473ffffffffffffffffffffffffffffffffffffffff1673ffffffffffffffffffffffffffffffffffffffff166370a08231306040518263ffffffff1660e01b81526004016106fa91906108d9565b602060405180830381865afa158015610717573d6000803e3d6000fd5b505050506040513d601f19601f8201168201806040525081019061073b9190610c3b565b101561077c576040517f08c379a000000000000000000000000000000000000000000000000000000000815260040161077390610e22565b60405180910390fd5b60008054906101000a900473ffffffffffffffffffffffffffffffffffffffff1673ffffffffffffffffffffffffffffffffffffffff166323b872dd30600160009054906101000a900473ffffffffffffffffffffffffffffffffffffffff16856040518463ffffffff1660e01b81526004016107fb93929190610e42565b6020604051808303816000875af115801561081a573d6000803e3d6000fd5b505050506040513d601f19601f8201168201806040525081019061083e9190610a53565b50819050919050565b60008190508073ffffffffffffffffffffffffffffffffffffffff166108fc849081150290604051600060405180830381858888f19350505050158015610892573d6000803e3d6000fd5b50505050565b600073ffffffffffffffffffffffffffffffffffffffff82169050919050565b60006108c382610898565b9050919050565b6108d3816108b8565b82525050565b60006020820190506108ee60008301846108ca565b92915050565b600080fd5b6000819050919050565b61090c816108f9565b811461091757600080fd5b50565b60008135905061092981610903565b92915050565b600060208284031215610945576109446108f4565b5b60006109538482850161091a565b91505092915050565b610965816108f9565b82525050565b6000602082019050610980600083018461095c565b92915050565b61098f816108b8565b811461099a57600080fd5b50565b6000813590506109ac81610986565b92915050565b600080604083850312156109c9576109c86108f4565b5b60006109d78582860161091a565b92505060206109e88582860161099d565b9150509250929050565b6000604082019050610a0760008301856108ca565b610a14602083018461095c565b9392505050565b60008115159050919050565b610a3081610a1b565b8114610a3b57600080fd5b50565b600081519050610a4d81610a27565b92915050565b600060208284031215610a6957610a686108f4565b5b6000610a7784828501610a3e565b91505092915050565b600082825260208201905092915050565b7f4f6e6c7920746865204f776e65722063616e2063616c6c20746869732066756e60008201527f6374696f6e000000000000000000000000000000000000000000000000000000602082015250565b6000610aed602583610a80565b9150610af882610a91565b604082019050919050565b60006020820190508181036000830152610b1c81610ae0565b9050919050565b7f4e487b7100000000000000000000000000000000000000000000000000000000600052601160045260246000fd5b6000610b5d826108f9565b9150610b68836108f9565b9250828202610b76816108f9565b91508282048414831517610b8d57610b8c610b23565b5b5092915050565b7f506c6561736520656e7375726520746f74616c4554484352657365727665206860008201527f617320656e6f75676820616d6f756e7421000000000000000000000000000000602082015250565b6000610bf0603183610a80565b9150610bfb82610b94565b604082019050919050565b60006020820190508181036000830152610c1f81610be3565b9050919050565b600081519050610c3581610903565b92915050565b600060208284031215610c5157610c506108f4565b5b6000610c5f84828501610c26565b91505092915050565b7f4e487b7100000000000000000000000000000000000000000000000000000000600052601260045260246000fd5b6000610ca2826108f9565b9150610cad836108f9565b925082610cbd57610cbc610c68565b5b828204905092915050565b7f596f7572206465706f73697420686173206265656e206d616465000000000000600082015250565b6000610cfe601a83610a80565b9150610d0982610cc8565b602082019050919050565b6000604082019050610d29600083018461095c565b8181036020830152610d3a81610cf1565b905092915050565b6000819050919050565b6000819050919050565b6000610d71610d6c610d6784610d42565b610d4c565b6108f9565b9050919050565b610d8181610d56565b82525050565b6000604082019050610d9c60008301856108ca565b610da96020830184610d78565b9392505050565b7f506c6561736520656e7375726520746f74616c5553444352657365727665206860008201527f617320656e6f75676820616d6f756e7421000000000000000000000000000000602082015250565b6000610e0c603183610a80565b9150610e1782610db0565b604082019050919050565b60006020820190508181036000830152610e3b81610dff565b9050919050565b6000606082019050610e5760008301866108ca565b610e6460208301856108ca565b610e71604083018461095c565b94935050505056fea2646970667358221220ef8bdd8149ed8faa306d5beacb81ac9094f84a0c0a3d1f37fd10d22b8f32913d64736f6c63430008110033",
  "immutableReferences": {},
  "source": "// SPDX-License-Identifier: MIT\npragma solidity ^0.8.7;\nimport \"./USDC.sol\";\nimport \"./ERC20.sol\";\n\ncontract Reserves {\n\n    USDC usdcToken;\n    //LiquidityPool liquidityPool;\n    //uint256 totalEthReserve;\n    //uint256 totalUSDCReserve;\n    address _owner = msg.sender;\n    event Deposit(address indexed _from, uint _value, string _message);\n    uint256 oneEth = 1000000000000000000;\n\n    constructor(USDC usdcTokenAddress) {\n        usdcToken = usdcTokenAddress;\n    }\n\n    //Function takes in specified Amount of eth sent by the msg.sender\n    function addEthToReserve() public payable {\n        emit Deposit(msg.sender, msg.value, \"Your deposit has been made\");\n    }\n\n    //Trigger this function if more USDC is required\n    //Function allows contract to specify how much USDC is needed\n    function addUSDCToReserve(uint256 amountRequested) public payable {\n        usdcToken.mint(address(this), amountRequested);\n    }\n\n    //To simulate that our reserves already have USDC tokens, trigger this function to send 1000 USDC tokens over\n    function InitialiseReserves() public ownerOnly {\n        usdcToken.mint(address(this), 1000);\n    }\n\n\n     //function to let owner withdraw specific amount in Eth\n     function withDrawEth(uint256 amount) public ownerOnly {\n        require(address(this).balance >= amount * oneEth, \"Please ensure totalETHCReserve has enough amount!\");\n        address payable payableOwnerAddress = payable(_owner);\n        payableOwnerAddress.transfer(amount * oneEth);\n    }\n\n    //function to let owner withdraw specific amount in USDC tokens\n    function withdrawUSDC(uint256 amount) public ownerOnly returns (uint256) {\n        require(usdcToken.balanceOf(address(this)) >= amount, \"Please ensure totalUSDCReserve has enough amount!\");\n        usdcToken.transferFrom(address(this), _owner, amount);\n        return amount;\n    }\n    \n    //Returns total amount of USDC in the Reserves Contract\n    function getTotalUSDCHolding() public view returns (uint256){\n        return usdcToken.balanceOf(address(this));\n    }\n\n    //Returns total amount of Eth in the Reserves Contract\n    function getTotalEthCHolding() public view returns (uint256){\n        return address(this).balance / oneEth;\n    }\n   \n    modifier ownerOnly() {\n        require(msg.sender == _owner, \"Only the Owner can call this function\");\n        _;\n    }\n\n    //Unfinshed only the LP should be able to call this function\n    //Make a modifier for this\n    //DELEET THIS\n     function sendEthToLP(uint256 amount, address addressToSend) public payable {\n        address payable addressToSend = payable(addressToSend);\n        addressToSend.transfer(amount);\n    }\n    \n    function getReservesAddress() public view returns (address) {\n        return address(this);\n    }\n}",
  "sourcePath": "/Users/yijie/Desktop/Y2S2/IS4302/Project/IS4302_Group_6_Project/contracts/Reserves.sol",
  "compiler": {
    "name": "solc",
    "version": "0.8.17+commit.8df45f5f.Emscripten.clang"
  },
  "schemaVersion": "3.4.11",
  "updatedAt": "2023-03-01T02:54:24.157Z",
  "networkType": "ethereum",
  "devdoc": {
    "kind": "dev",
    "methods": {},
    "version": 1
  },
  "userdoc": {
    "kind": "user",
    "methods": {},
    "version": 1
  }
}