{
  "contractName": "Reserves",
  "abi": [
    {
      "inputs": [
        {
          "internalType": "contract USDC",
          "name": "usdcTokenAddress",
          "type": "address"
        },
        {
          "internalType": "contract LiquidityPool",
          "name": "liquidityPoolAddress",
          "type": "address"
        }
      ],
      "stateMutability": "nonpayable",
      "type": "constructor"
    },
    {
      "inputs": [
        {
          "internalType": "uint256",
          "name": "amount",
          "type": "uint256"
        }
      ],
      "name": "addEthToReserve",
      "outputs": [],
      "stateMutability": "payable",
      "type": "function"
    },
    {
      "inputs": [
        {
          "internalType": "uint256",
          "name": "amount",
          "type": "uint256"
        }
      ],
      "name": "addUSDCToReserve",
      "outputs": [],
      "stateMutability": "payable",
      "type": "function"
    },
    {
      "inputs": [
        {
          "internalType": "uint256",
          "name": "amount",
          "type": "uint256"
        }
      ],
      "name": "withdrawEth",
      "outputs": [
        {
          "internalType": "uint256",
          "name": "",
          "type": "uint256"
        }
      ],
      "stateMutability": "nonpayable",
      "type": "function"
    }
  ],
  "bytecode": "0x608060405234801561001057600080fd5b5060405161051e38038061051e8339818101604052810190610032919061017f565b816000806101000a81548173ffffffffffffffffffffffffffffffffffffffff021916908373ffffffffffffffffffffffffffffffffffffffff16021790555080600160006101000a81548173ffffffffffffffffffffffffffffffffffffffff021916908373ffffffffffffffffffffffffffffffffffffffff1602179055506103e86002819055506103e860038190555050506101bf565b600080fd5b600073ffffffffffffffffffffffffffffffffffffffff82169050919050565b60006100fc826100d1565b9050919050565b600061010e826100f1565b9050919050565b61011e81610103565b811461012957600080fd5b50565b60008151905061013b81610115565b92915050565b600061014c826100f1565b9050919050565b61015c81610141565b811461016757600080fd5b50565b60008151905061017981610153565b92915050565b60008060408385031215610196576101956100cc565b5b60006101a48582860161012c565b92505060206101b58582860161016a565b9150509250929050565b610350806101ce6000396000f3fe6080604052600436106100345760003560e01c8063447943ef146100395780634a9c39d614610055578063c311d04914610071575b600080fd5b610053600480360381019061004e9190610189565b6100ae565b005b61006f600480360381019061006a9190610189565b6100ca565b005b34801561007d57600080fd5b5061009860048036038101906100939190610189565b6100e6565b6040516100a591906101c5565b60405180910390f35b80600260008282546100c0919061020f565b9250508190555050565b80600360008282546100dc919061020f565b9250508190555050565b600081600254101561012d576040517f08c379a0000000000000000000000000000000000000000000000000000000008152600401610124906102c6565b60405180910390fd5b816002600082825461013f91906102e6565b92505081905550819050919050565b600080fd5b6000819050919050565b61016681610153565b811461017157600080fd5b50565b6000813590506101838161015d565b92915050565b60006020828403121561019f5761019e61014e565b5b60006101ad84828501610174565b91505092915050565b6101bf81610153565b82525050565b60006020820190506101da60008301846101b6565b92915050565b7f4e487b7100000000000000000000000000000000000000000000000000000000600052601160045260246000fd5b600061021a82610153565b915061022583610153565b925082820190508082111561023d5761023c6101e0565b5b92915050565b600082825260208201905092915050565b7f506c6561736520656e7375726520746f74616c4574685265736572766520686160008201527f7320656e6f75676820616d6f756e742100000000000000000000000000000000602082015250565b60006102b0603083610243565b91506102bb82610254565b604082019050919050565b600060208201905081810360008301526102df816102a3565b9050919050565b60006102f182610153565b91506102fc83610153565b9250828203905081811115610314576103136101e0565b5b9291505056fea264697066735822122017ddad4a7875bf474cad10d21937b33bed96cee2902bddb448130bf9396d81a364736f6c63430008110033",
  "immutableReferences": {},
  "source": "pragma solidity ^0.8.7;\nimport \"./USDC.sol\";\nimport \"./LiquidityPool.sol\";\n\ncontract Reserves {\n\n    USDC usdcToken;\n    LiquidityPool liquidityPool;\n    uint256 totalEthReserve;\n    uint256 totalUSDCReserve;\n\n\n    constructor(USDC usdcTokenAddress, LiquidityPool liquidityPoolAddress) {\n        usdcToken = usdcTokenAddress;\n        liquidityPool = liquidityPoolAddress;\n        totalEthReserve = 1000;\n        totalUSDCReserve = 1000;\n    }\n\n    function addEthToReserve(uint256 amount) public payable {\n        totalEthReserve += amount;\n    }\n\n    function addUSDCToReserve(uint256 amount) public payable {\n        totalUSDCReserve += amount;\n    }\n\n    function withdrawEth (uint256 amount) public returns (uint256) {\n        require(totalEthReserve >= amount, \"Please ensure totalEthReserve has enough amount!\");\n        totalEthReserve -= amount;\n        return amount;\n    }\n}\n",
  "sourcePath": "/Users/yijie/Desktop/Y2S2/IS4302/Project/IS4302_Group_6_Project/contracts/Reserves.sol",
  "compiler": {
    "name": "solc",
    "version": "0.8.17+commit.8df45f5f.Emscripten.clang"
  },
  "schemaVersion": "3.4.11",
  "updatedAt": "2023-02-22T02:52:52.121Z",
  "devdoc": {
    "kind": "dev",
    "methods": {},
    "version": 1
  },
  "userdoc": {
    "kind": "user",
    "methods": {},
    "version": 1
  }
}