{
  "contractName": "Reserves",
  "abi": [
    {
      "inputs": [
        {
          "internalType": "contract Avax",
          "name": "avaxTokenAddress",
          "type": "address"
        }
      ],
      "stateMutability": "nonpayable",
      "type": "constructor"
    },
    {
      "anonymous": false,
      "inputs": [
        {
          "indexed": true,
          "internalType": "address",
          "name": "_from",
          "type": "address"
        },
        {
          "indexed": false,
          "internalType": "uint256",
          "name": "_value",
          "type": "uint256"
        },
        {
          "indexed": false,
          "internalType": "string",
          "name": "_message",
          "type": "string"
        }
      ],
      "name": "Deposit",
      "type": "event"
    },
    {
      "stateMutability": "payable",
      "type": "fallback",
      "payable": true
    },
    {
      "inputs": [],
      "name": "addEthToReserve",
      "outputs": [],
      "stateMutability": "payable",
      "type": "function",
      "payable": true
    },
    {
      "inputs": [
        {
          "internalType": "uint256",
          "name": "amountRequested",
          "type": "uint256"
        }
      ],
      "name": "addAvaxToReserve",
      "outputs": [],
      "stateMutability": "payable",
      "type": "function",
      "payable": true
    },
    {
      "inputs": [],
      "name": "InitialiseReserves",
      "outputs": [],
      "stateMutability": "nonpayable",
      "type": "function"
    },
    {
      "inputs": [
        {
          "internalType": "uint256",
          "name": "amount",
          "type": "uint256"
        }
      ],
      "name": "withDrawEth",
      "outputs": [],
      "stateMutability": "nonpayable",
      "type": "function"
    },
    {
      "inputs": [
        {
          "internalType": "uint256",
          "name": "amount",
          "type": "uint256"
        }
      ],
      "name": "withdrawAvax",
      "outputs": [
        {
          "internalType": "uint256",
          "name": "",
          "type": "uint256"
        }
      ],
      "stateMutability": "nonpayable",
      "type": "function"
    },
    {
      "inputs": [],
      "name": "getTotalAvaxHolding",
      "outputs": [
        {
          "internalType": "uint256",
          "name": "",
          "type": "uint256"
        }
      ],
      "stateMutability": "view",
      "type": "function",
      "constant": true
    },
    {
      "inputs": [],
      "name": "getTotalEthCHolding",
      "outputs": [
        {
          "internalType": "uint256",
          "name": "",
          "type": "uint256"
        }
      ],
      "stateMutability": "view",
      "type": "function",
      "constant": true
    },
    {
      "inputs": [
        {
          "internalType": "uint256",
          "name": "amount",
          "type": "uint256"
        },
        {
          "internalType": "address",
          "name": "addressToSend",
          "type": "address"
        }
      ],
      "name": "sendEthToLP",
      "outputs": [],
      "stateMutability": "payable",
      "type": "function",
      "payable": true
    },
    {
      "inputs": [],
      "name": "getReservesAddress",
      "outputs": [
        {
          "internalType": "address",
          "name": "",
          "type": "address"
        }
      ],
      "stateMutability": "view",
      "type": "function",
      "constant": true
    }
  ],
  "bytecode": "0x608060405233600160006101000a81548173ffffffffffffffffffffffffffffffffffffffff021916908373ffffffffffffffffffffffffffffffffffffffff160217905550670de0b6b3a76400006002553480156200005e57600080fd5b50604051620010cc380380620010cc833981810160405281019062000084919062000149565b806000806101000a81548173ffffffffffffffffffffffffffffffffffffffff021916908373ffffffffffffffffffffffffffffffffffffffff160217905550506200017b565b600080fd5b600073ffffffffffffffffffffffffffffffffffffffff82169050919050565b6000620000fd82620000d0565b9050919050565b60006200011182620000f0565b9050919050565b620001238162000104565b81146200012f57600080fd5b50565b600081519050620001438162000118565b92915050565b600060208284031215620001625762000161620000cb565b5b6000620001728482850162000132565b91505092915050565b610f41806200018b6000396000f3fe60806040526004361061008a5760003560e01c806374571cb21161005957806374571cb2146101495780639e8d22a914610153578063b07486ad1461017e578063b6c9656314610195578063ea58a982146101b15761008b565b80630eb8d8961461008d5780632ad415bd146100ca5780634ef83a70146100f55780636703ca701461011e5761008b565b5b005b34801561009957600080fd5b506100b460048036038101906100af9190610965565b6101cd565b6040516100c191906109a1565b60405180910390f35b3480156100d657600080fd5b506100df610406565b6040516100ec91906109fd565b60405180910390f35b34801561010157600080fd5b5061011c60048036038101906101179190610965565b61040e565b005b34801561012a57600080fd5b5061013361056d565b60405161014091906109a1565b60405180910390f35b610151610582565b005b34801561015f57600080fd5b506101686105d2565b60405161017591906109a1565b60405180910390f35b34801561018a57600080fd5b50610193610674565b005b6101af60048036038101906101aa9190610965565b6107a7565b005b6101cb60048036038101906101c69190610a44565b610849565b005b6000600160009054906101000a900473ffffffffffffffffffffffffffffffffffffffff1673ffffffffffffffffffffffffffffffffffffffff163373ffffffffffffffffffffffffffffffffffffffff161461025f576040517f08c379a000000000000000000000000000000000000000000000000000000000815260040161025690610b07565b60405180910390fd5b8160008054906101000a900473ffffffffffffffffffffffffffffffffffffffff1673ffffffffffffffffffffffffffffffffffffffff166370a08231306040518263ffffffff1660e01b81526004016102b991906109fd565b602060405180830381865afa1580156102d6573d6000803e3d6000fd5b505050506040513d601f19601f820116820180604052508101906102fa9190610b3c565b101561033b576040517f08c379a000000000000000000000000000000000000000000000000000000000815260040161033290610bdb565b60405180910390fd5b60008054906101000a900473ffffffffffffffffffffffffffffffffffffffff1673ffffffffffffffffffffffffffffffffffffffff166323b872dd30600160009054906101000a900473ffffffffffffffffffffffffffffffffffffffff16856040518463ffffffff1660e01b81526004016103ba93929190610bfb565b6020604051808303816000875af11580156103d9573d6000803e3d6000fd5b505050506040513d601f19601f820116820180604052508101906103fd9190610c6a565b50819050919050565b600030905090565b600160009054906101000a900473ffffffffffffffffffffffffffffffffffffffff1673ffffffffffffffffffffffffffffffffffffffff163373ffffffffffffffffffffffffffffffffffffffff161461049e576040517f08c379a000000000000000000000000000000000000000000000000000000000815260040161049590610b07565b60405180910390fd5b600254816104ac9190610cc6565b4710156104ee576040517f08c379a00000000000000000000000000000000000000000000000000000000081526004016104e590610d7a565b60405180910390fd5b6000600160009054906101000a900473ffffffffffffffffffffffffffffffffffffffff1690508073ffffffffffffffffffffffffffffffffffffffff166108fc6002548461053d9190610cc6565b9081150290604051600060405180830381858888f19350505050158015610568573d6000803e3d6000fd5b505050565b60006002544761057d9190610dc9565b905090565b3373ffffffffffffffffffffffffffffffffffffffff167f643e927b32d5bfd08eccd2fcbd97057ad413850f857a2359639114e8e8dd3d7b346040516105c89190610e46565b60405180910390a2565b60008060009054906101000a900473ffffffffffffffffffffffffffffffffffffffff1673ffffffffffffffffffffffffffffffffffffffff166370a08231306040518263ffffffff1660e01b815260040161062e91906109fd565b602060405180830381865afa15801561064b573d6000803e3d6000fd5b505050506040513d601f19601f8201168201806040525081019061066f9190610b3c565b905090565b600160009054906101000a900473ffffffffffffffffffffffffffffffffffffffff1673ffffffffffffffffffffffffffffffffffffffff163373ffffffffffffffffffffffffffffffffffffffff1614610704576040517f08c379a00000000000000000000000000000000000000000000000000000000081526004016106fb90610b07565b60405180910390fd5b60008054906101000a900473ffffffffffffffffffffffffffffffffffffffff1673ffffffffffffffffffffffffffffffffffffffff166340c10f19306103e86040518363ffffffff1660e01b8152600401610761929190610eb9565b6020604051808303816000875af1158015610780573d6000803e3d6000fd5b505050506040513d601f19601f820116820180604052508101906107a49190610c6a565b50565b60008054906101000a900473ffffffffffffffffffffffffffffffffffffffff1673ffffffffffffffffffffffffffffffffffffffff166340c10f1930836040518363ffffffff1660e01b8152600401610802929190610ee2565b6020604051808303816000875af1158015610821573d6000803e3d6000fd5b505050506040513d601f19601f820116820180604052508101906108459190610c6a565b5050565b600160009054906101000a900473ffffffffffffffffffffffffffffffffffffffff1673ffffffffffffffffffffffffffffffffffffffff163373ffffffffffffffffffffffffffffffffffffffff16146108d9576040517f08c379a00000000000000000000000000000000000000000000000000000000081526004016108d090610b07565b60405180910390fd5b60008190508073ffffffffffffffffffffffffffffffffffffffff166108fc849081150290604051600060405180830381858888f19350505050158015610924573d6000803e3d6000fd5b50505050565b600080fd5b6000819050919050565b6109428161092f565b811461094d57600080fd5b50565b60008135905061095f81610939565b92915050565b60006020828403121561097b5761097a61092a565b5b600061098984828501610950565b91505092915050565b61099b8161092f565b82525050565b60006020820190506109b66000830184610992565b92915050565b600073ffffffffffffffffffffffffffffffffffffffff82169050919050565b60006109e7826109bc565b9050919050565b6109f7816109dc565b82525050565b6000602082019050610a1260008301846109ee565b92915050565b610a21816109dc565b8114610a2c57600080fd5b50565b600081359050610a3e81610a18565b92915050565b60008060408385031215610a5b57610a5a61092a565b5b6000610a6985828601610950565b9250506020610a7a85828601610a2f565b9150509250929050565b600082825260208201905092915050565b7f4f6e6c7920746865204f776e65722063616e2063616c6c20746869732066756e60008201527f6374696f6e000000000000000000000000000000000000000000000000000000602082015250565b6000610af1602583610a84565b9150610afc82610a95565b604082019050919050565b60006020820190508181036000830152610b2081610ae4565b9050919050565b600081519050610b3681610939565b92915050565b600060208284031215610b5257610b5161092a565b5b6000610b6084828501610b27565b91505092915050565b7f506c6561736520656e7375726520746f74616c4176617852657365727665206860008201527f617320656e6f75676820616d6f756e7421000000000000000000000000000000602082015250565b6000610bc5603183610a84565b9150610bd082610b69565b604082019050919050565b60006020820190508181036000830152610bf481610bb8565b9050919050565b6000606082019050610c1060008301866109ee565b610c1d60208301856109ee565b610c2a6040830184610992565b949350505050565b60008115159050919050565b610c4781610c32565b8114610c5257600080fd5b50565b600081519050610c6481610c3e565b92915050565b600060208284031215610c8057610c7f61092a565b5b6000610c8e84828501610c55565b91505092915050565b7f4e487b7100000000000000000000000000000000000000000000000000000000600052601160045260246000fd5b6000610cd18261092f565b9150610cdc8361092f565b9250828202610cea8161092f565b91508282048414831517610d0157610d00610c97565b5b5092915050565b7f506c6561736520656e7375726520746f74616c4554484352657365727665206860008201527f617320656e6f75676820616d6f756e7421000000000000000000000000000000602082015250565b6000610d64603183610a84565b9150610d6f82610d08565b604082019050919050565b60006020820190508181036000830152610d9381610d57565b9050919050565b7f4e487b7100000000000000000000000000000000000000000000000000000000600052601260045260246000fd5b6000610dd48261092f565b9150610ddf8361092f565b925082610def57610dee610d9a565b5b828204905092915050565b7f596f7572206465706f73697420686173206265656e206d616465000000000000600082015250565b6000610e30601a83610a84565b9150610e3b82610dfa565b602082019050919050565b6000604082019050610e5b6000830184610992565b8181036020830152610e6c81610e23565b905092915050565b6000819050919050565b6000819050919050565b6000610ea3610e9e610e9984610e74565b610e7e565b61092f565b9050919050565b610eb381610e88565b82525050565b6000604082019050610ece60008301856109ee565b610edb6020830184610eaa565b9392505050565b6000604082019050610ef760008301856109ee565b610f046020830184610992565b939250505056fea264697066735822122071a1977dbe0cee6580dcf26fb5cc28f2d8d62518bc22c2acef6d776e22ebdf6e64736f6c63430008110033",
  "immutableReferences": {},
  "source": "// SPDX-License-Identifier: MIT\npragma solidity ^0.8.7;\nimport \"./Avax.sol\";\nimport \"./ERC20.sol\";\n\ncontract Reserves {\n\n    Avax avaxToken;\n    address _owner = msg.sender;\n    event Deposit(address indexed _from, uint _value, string _message);\n    uint256 oneEth = 1000000000000000000;\n\n    constructor(Avax avaxTokenAddress) {\n        avaxToken = avaxTokenAddress;\n    }\n\n    //Function takes in specified Amount of eth sent by the msg.sender\n    function addEthToReserve() public payable {\n        emit Deposit(msg.sender, msg.value, \"Your deposit has been made\");\n    }\n\n    //Trigger this function if more Avax is required\n    //Function allows contract to specify how much Avax is needed\n    function addAvaxToReserve(uint256 amountRequested) public payable {\n        avaxToken.mint(address(this), amountRequested);\n    }\n\n    //To simulate that our reserves already have Avax tokens, trigger this function to send 1000 Avax tokens over\n    function InitialiseReserves() public ownerOnly {\n        avaxToken.mint(address(this), 1000);\n    }\n\n\n     //function to let owner withdraw specific amount in Eth\n     function withDrawEth(uint256 amount) public ownerOnly {\n        require(address(this).balance >= amount * oneEth, \"Please ensure totalETHCReserve has enough amount!\");\n        address payable payableOwnerAddress = payable(_owner);\n        payableOwnerAddress.transfer(amount * oneEth);\n    }\n\n    //function to let owner withdraw specific amount in Avax tokens\n    function withdrawAvax(uint256 amount) public ownerOnly returns (uint256) {\n        require(avaxToken.balanceOf(address(this)) >= amount, \"Please ensure totalAvaxReserve has enough amount!\");\n        avaxToken.transferFrom(address(this), _owner, amount);\n        return amount;\n    }\n    \n    //Returns total amount of Avax in the Reserves Contract\n    function getTotalAvaxHolding() public view returns (uint256){\n        return avaxToken.balanceOf(address(this));\n    }\n\n    //Returns total amount of Eth in the Reserves Contract\n    function getTotalEthCHolding() public view returns (uint256){\n        return address(this).balance / oneEth;\n    }\n     function sendEthToLP(uint256 amount, address addressToSend) public payable ownerOnly {\n        address payable addressToSend = payable(addressToSend);\n        addressToSend.transfer(amount);\n    }\n    \n    function getReservesAddress() public view returns (address) {\n        return address(this);\n    }\n    \n    modifier ownerOnly() {\n        require(msg.sender == _owner, \"Only the Owner can call this function\");\n        _;\n    }\n\n    //Used to accept Eth\n    fallback() external payable{}\n}",
  "sourcePath": "/Users/yijie/Desktop/Y2S2/IS4302/Project/IS4302_Group_6_Project/contracts/Reserves.sol",
  "compiler": {
    "name": "solc",
    "version": "0.8.17+commit.8df45f5f.Emscripten.clang"
  },
  "schemaVersion": "3.4.11",
  "updatedAt": "2023-03-21T10:45:09.844Z",
  "networkType": "ethereum",
  "devdoc": {
    "kind": "dev",
    "methods": {},
    "version": 1
  },
  "userdoc": {
    "kind": "user",
    "methods": {},
    "version": 1
  }
}