{
  "contractName": "Reserves",
  "abi": [
    {
      "inputs": [
        {
          "internalType": "contract USDC",
          "name": "usdcTokenAddress",
          "type": "address"
        },
        {
          "internalType": "contract LiquidityPool",
          "name": "liquidityPoolAddress",
          "type": "address"
        }
      ],
      "stateMutability": "nonpayable",
      "type": "constructor"
    },
    {
      "inputs": [
        {
          "internalType": "uint256",
          "name": "amount",
          "type": "uint256"
        }
      ],
      "name": "addEthToReserve",
      "outputs": [],
      "stateMutability": "payable",
      "type": "function"
    },
    {
      "inputs": [
        {
          "internalType": "uint256",
          "name": "amount",
          "type": "uint256"
        }
      ],
      "name": "addUSDCToReserve",
      "outputs": [],
      "stateMutability": "payable",
      "type": "function"
    },
    {
      "inputs": [
        {
          "internalType": "uint256",
          "name": "amount",
          "type": "uint256"
        }
      ],
      "name": "withdrawEth",
      "outputs": [
        {
          "internalType": "uint256",
          "name": "",
          "type": "uint256"
        }
      ],
      "stateMutability": "nonpayable",
      "type": "function"
    },
    {
      "inputs": [
        {
          "internalType": "uint256",
          "name": "amount",
          "type": "uint256"
        }
      ],
      "name": "withdrawUSDC",
      "outputs": [
        {
          "internalType": "uint256",
          "name": "",
          "type": "uint256"
        }
      ],
      "stateMutability": "nonpayable",
      "type": "function"
    }
  ],
  "bytecode": "0x608060405234801561001057600080fd5b506040516106603803806106608339818101604052810190610032919061017f565b816000806101000a81548173ffffffffffffffffffffffffffffffffffffffff021916908373ffffffffffffffffffffffffffffffffffffffff16021790555080600160006101000a81548173ffffffffffffffffffffffffffffffffffffffff021916908373ffffffffffffffffffffffffffffffffffffffff1602179055506103e86002819055506103e860038190555050506101bf565b600080fd5b600073ffffffffffffffffffffffffffffffffffffffff82169050919050565b60006100fc826100d1565b9050919050565b600061010e826100f1565b9050919050565b61011e81610103565b811461012957600080fd5b50565b60008151905061013b81610115565b92915050565b600061014c826100f1565b9050919050565b61015c81610141565b811461016757600080fd5b50565b60008151905061017981610153565b92915050565b60008060408385031215610196576101956100cc565b5b60006101a48582860161012c565b92505060206101b58582860161016a565b9150509250929050565b610492806101ce6000396000f3fe60806040526004361061003f5760003560e01c8063447943ef146100445780634a9c39d614610060578063c311d0491461007c578063db81f99b146100b9575b600080fd5b61005e60048036038101906100599190610239565b6100f6565b005b61007a60048036038101906100759190610239565b610112565b005b34801561008857600080fd5b506100a3600480360381019061009e9190610239565b61012e565b6040516100b09190610275565b60405180910390f35b3480156100c557600080fd5b506100e060048036038101906100db9190610239565b610196565b6040516100ed9190610275565b60405180910390f35b806002600082825461010891906102bf565b9250508190555050565b806003600082825461012491906102bf565b9250508190555050565b6000816002541015610175576040517f08c379a000000000000000000000000000000000000000000000000000000000815260040161016c90610376565b60405180910390fd5b81600260008282546101879190610396565b92505081905550819050919050565b60008160035410156101dd576040517f08c379a00000000000000000000000000000000000000000000000000000000081526004016101d49061043c565b60405180910390fd5b81600360008282546101ef9190610396565b92505081905550819050919050565b600080fd5b6000819050919050565b61021681610203565b811461022157600080fd5b50565b6000813590506102338161020d565b92915050565b60006020828403121561024f5761024e6101fe565b5b600061025d84828501610224565b91505092915050565b61026f81610203565b82525050565b600060208201905061028a6000830184610266565b92915050565b7f4e487b7100000000000000000000000000000000000000000000000000000000600052601160045260246000fd5b60006102ca82610203565b91506102d583610203565b92508282019050808211156102ed576102ec610290565b5b92915050565b600082825260208201905092915050565b7f506c6561736520656e7375726520746f74616c4574685265736572766520686160008201527f7320656e6f75676820616d6f756e742100000000000000000000000000000000602082015250565b60006103606030836102f3565b915061036b82610304565b604082019050919050565b6000602082019050818103600083015261038f81610353565b9050919050565b60006103a182610203565b91506103ac83610203565b92508282039050818111156103c4576103c3610290565b5b92915050565b7f506c6561736520656e7375726520746f74616c5553444352657365727665206860008201527f617320656e6f75676820616d6f756e7421000000000000000000000000000000602082015250565b60006104266031836102f3565b9150610431826103ca565b604082019050919050565b6000602082019050818103600083015261045581610419565b905091905056fea264697066735822122091fc9054a3a897e2d15bac16cbf3f909daadbe86da18cef14b5899566a53bfce64736f6c63430008110033",
  "immutableReferences": {},
  "source": "// SPDX-License-Identifier: MIT\npragma solidity ^0.8.7;\nimport \"./USDC.sol\";\nimport \"./LiquidityPool.sol\";\n\ncontract Reserves {\n\n    USDC usdcToken;\n    LiquidityPool liquidityPool;\n    uint256 totalEthReserve;\n    uint256 totalUSDCReserve;\n\n\n    constructor(USDC usdcTokenAddress, LiquidityPool liquidityPoolAddress) {\n        usdcToken = usdcTokenAddress;\n        liquidityPool = liquidityPoolAddress;\n        totalEthReserve = 1000;\n        totalUSDCReserve = 1000;\n    }\n\n    function addEthToReserve(uint256 amount) public payable {\n        totalEthReserve += amount;\n    }\n\n    function addUSDCToReserve(uint256 amount) public payable {\n        totalUSDCReserve += amount;\n    }\n\n    function withdrawEth (uint256 amount) public returns (uint256) {\n        require(totalEthReserve >= amount, \"Please ensure totalEthReserve has enough amount!\");\n        totalEthReserve -= amount;\n        return amount;\n    }\n\n    function withdrawUSDC(uint256 amount) public returns (uint256) {\n        require(totalUSDCReserve >= amount, \"Please ensure totalUSDCReserve has enough amount!\");\n        totalUSDCReserve -= amount;\n        return amount;\n    }\n}\n",
  "sourcePath": "/Users/alwin/Developer/Liquiditas/contracts/Reserves.sol",
  "compiler": {
    "name": "solc",
    "version": "0.8.17+commit.8df45f5f.Emscripten.clang"
  },
  "schemaVersion": "3.4.11",
  "updatedAt": "2023-02-22T08:35:04.645Z",
  "devdoc": {
    "kind": "dev",
    "methods": {},
    "version": 1
  },
  "userdoc": {
    "kind": "user",
    "methods": {},
    "version": 1
  }
}