{
  "contractName": "SolarisCoin",
  "abi": [
    {
      "inputs": [],
      "stateMutability": "nonpayable",
      "type": "constructor"
    },
    {
      "anonymous": false,
      "inputs": [
        {
          "indexed": false,
          "internalType": "uint256",
          "name": "balance",
          "type": "uint256"
        }
      ],
      "name": "CheckSCBalance",
      "type": "event"
    },
    {
      "anonymous": false,
      "inputs": [
        {
          "indexed": false,
          "internalType": "address",
          "name": "to",
          "type": "address"
        },
        {
          "indexed": false,
          "internalType": "uint256",
          "name": "amount",
          "type": "uint256"
        }
      ],
      "name": "GetSC",
      "type": "event"
    },
    {
      "inputs": [],
      "name": "getSC",
      "outputs": [],
      "stateMutability": "payable",
      "type": "function"
    },
    {
      "inputs": [
        {
          "internalType": "address",
          "name": "sender",
          "type": "address"
        }
      ],
      "name": "checkSCBalance",
      "outputs": [
        {
          "internalType": "uint256",
          "name": "",
          "type": "uint256"
        }
      ],
      "stateMutability": "nonpayable",
      "type": "function"
    },
    {
      "inputs": [
        {
          "internalType": "address",
          "name": "from",
          "type": "address"
        },
        {
          "internalType": "address",
          "name": "to",
          "type": "address"
        },
        {
          "internalType": "uint256",
          "name": "amount",
          "type": "uint256"
        }
      ],
      "name": "transferSC",
      "outputs": [],
      "stateMutability": "nonpayable",
      "type": "function"
    }
  ],
  "bytecode": "0x608060405234801561001057600080fd5b5060405161001d906100bf565b604051809103906000f080158015610039573d6000803e3d6000fd5b506000806101000a81548173ffffffffffffffffffffffffffffffffffffffff021916908373ffffffffffffffffffffffffffffffffffffffff16021790555033600160006101000a81548173ffffffffffffffffffffffffffffffffffffffff021916908373ffffffffffffffffffffffffffffffffffffffff1602179055506100cc565b61124c806107f283390190565b610717806100db6000396000f3fe6080604052600436106100345760003560e01c8063762722ac146100395780638bcc3d1314610076578063c806aead1461009f575b600080fd5b34801561004557600080fd5b50610060600480360381019061005b91906103cd565b6100a9565b60405161006d9190610413565b60405180910390f35b34801561008257600080fd5b5061009d6004803603810190610098919061045a565b610188565b005b6100a761022e565b005b60008060008054906101000a900473ffffffffffffffffffffffffffffffffffffffff1673ffffffffffffffffffffffffffffffffffffffff166370a08231846040518263ffffffff1660e01b815260040161010591906104bc565b602060405180830381865afa158015610122573d6000803e3d6000fd5b505050506040513d601f19601f8201168201806040525081019061014691906104ec565b90507f96385de3413179bfeda9f07d178203b84e0d08f9157f69ef7806d7738f7e8201816040516101779190610413565b60405180910390a180915050919050565b60008054906101000a900473ffffffffffffffffffffffffffffffffffffffff1673ffffffffffffffffffffffffffffffffffffffff166323b872dd8484846040518463ffffffff1660e01b81526004016101e593929190610519565b6020604051808303816000875af1158015610204573d6000803e3d6000fd5b505050506040513d601f19601f820116820180604052508101906102289190610588565b50505050565b662386f26fc10000341015610278576040517f08c379a000000000000000000000000000000000000000000000000000000000815260040161026f90610638565b60405180910390fd5b6000662386f26fc100003461028d9190610687565b905060008054906101000a900473ffffffffffffffffffffffffffffffffffffffff1673ffffffffffffffffffffffffffffffffffffffff166340c10f1933836040518363ffffffff1660e01b81526004016102ea9291906106b8565b6020604051808303816000875af1158015610309573d6000803e3d6000fd5b505050506040513d601f19601f8201168201806040525081019061032d9190610588565b507fa49a82800500d5e56acbe7715249e3826a3edf7d63e302f30f803425f99290d2338260405161035f9291906106b8565b60405180910390a150565b600080fd5b600073ffffffffffffffffffffffffffffffffffffffff82169050919050565b600061039a8261036f565b9050919050565b6103aa8161038f565b81146103b557600080fd5b50565b6000813590506103c7816103a1565b92915050565b6000602082840312156103e3576103e261036a565b5b60006103f1848285016103b8565b91505092915050565b6000819050919050565b61040d816103fa565b82525050565b60006020820190506104286000830184610404565b92915050565b610437816103fa565b811461044257600080fd5b50565b6000813590506104548161042e565b92915050565b6000806000606084860312156104735761047261036a565b5b6000610481868287016103b8565b9350506020610492868287016103b8565b92505060406104a386828701610445565b9150509250925092565b6104b68161038f565b82525050565b60006020820190506104d160008301846104ad565b92915050565b6000815190506104e68161042e565b92915050565b6000602082840312156105025761050161036a565b5b6000610510848285016104d7565b91505092915050565b600060608201905061052e60008301866104ad565b61053b60208301856104ad565b6105486040830184610404565b949350505050565b60008115159050919050565b61056581610550565b811461057057600080fd5b50565b6000815190506105828161055c565b92915050565b60006020828403121561059e5761059d61036a565b5b60006105ac84828501610573565b91505092915050565b600082825260208201905092915050565b7f4174206c6561737420302e303120455448206973206e656564656420746f206760008201527f6574203120534321000000000000000000000000000000000000000000000000602082015250565b60006106226028836105b5565b915061062d826105c6565b604082019050919050565b6000602082019050818103600083015261065181610615565b9050919050565b7f4e487b7100000000000000000000000000000000000000000000000000000000600052601260045260246000fd5b6000610692826103fa565b915061069d836103fa565b9250826106ad576106ac610658565b5b828204905092915050565b60006040820190506106cd60008301856104ad565b6106da6020830184610404565b939250505056fea26469706673582212209d54ebfeb892356cb47276d961b31bbc043bd401c139f83b08004d935188df4b64736f6c63430008110033608060405260008060006101000a81548160ff02191690831515021790555033600060016101000a81548173ffffffffffffffffffffffffffffffffffffffff021916908373ffffffffffffffffffffffffffffffffffffffff16021790555034801561006b57600080fd5b506111d18061007b6000396000f3fe608060405234801561001057600080fd5b50600436106100ea5760003560e01c806370a082311161008c5780638da5cb5b116100665780638da5cb5b1461026357806395d89b4114610281578063a9059cbb1461029f578063dd62ed3e146102cf576100ea565b806370a08231146101f75780637d64bcb414610227578063893d20e814610245576100ea565b806318160ddd116100c857806318160ddd1461015b57806323b872dd14610179578063313ce567146101a957806340c10f19146101c7576100ea565b806305d2035b146100ef57806306fdde031461010d578063095ea7b31461012b575b600080fd5b6100f76102ff565b6040516101049190610ce6565b60405180910390f35b610115610310565b6040516101229190610d91565b60405180910390f35b61014560048036038101906101409190610e4c565b610349565b6040516101529190610ce6565b60405180910390f35b61016361043b565b6040516101709190610e9b565b60405180910390f35b610193600480360381019061018e9190610eb6565b610445565b6040516101a09190610ce6565b60405180910390f35b6101b161069b565b6040516101be9190610f25565b60405180910390f35b6101e160048036038101906101dc9190610e4c565b6106a0565b6040516101ee9190610ce6565b60405180910390f35b610211600480360381019061020c9190610f40565b610810565b60405161021e9190610e9b565b60405180910390f35b61022f610859565b60405161023c9190610ce6565b60405180910390f35b61024d610919565b60405161025a9190610f7c565b60405180910390f35b61026b610942565b6040516102789190610f7c565b60405180910390f35b610289610968565b6040516102969190610d91565b60405180910390f35b6102b960048036038101906102b49190610e4c565b6109a1565b6040516102c69190610ce6565b60405180910390f35b6102e960048036038101906102e49190610f97565b610bf6565b6040516102f69190610e9b565b60405180910390f35b60008054906101000a900460ff1681565b6040518060400160405280600f81526020017f4c6971756964697461734552433230000000000000000000000000000000000081525081565b600081600160003373ffffffffffffffffffffffffffffffffffffffff1673ffffffffffffffffffffffffffffffffffffffff16815260200190815260200160002060008573ffffffffffffffffffffffffffffffffffffffff1673ffffffffffffffffffffffffffffffffffffffff168152602001908152602001600020819055508273ffffffffffffffffffffffffffffffffffffffff163373ffffffffffffffffffffffffffffffffffffffff167f8c5be1e5ebec7d5bd14f71427d1e84f3dd0314c0f7b2291e5b200ac8c7c3b925846040516104299190610e9b565b60405180910390a36001905092915050565b6000600354905090565b60008073ffffffffffffffffffffffffffffffffffffffff168373ffffffffffffffffffffffffffffffffffffffff160361047f57600080fd5b600260008573ffffffffffffffffffffffffffffffffffffffff1673ffffffffffffffffffffffffffffffffffffffff16815260200190815260200160002054821115610501576040517f08c379a00000000000000000000000000000000000000000000000000000000081526004016104f890611023565b60405180910390fd5b61055382600260008773ffffffffffffffffffffffffffffffffffffffff1673ffffffffffffffffffffffffffffffffffffffff16815260200190815260200160002054610c7d90919063ffffffff16565b600260008673ffffffffffffffffffffffffffffffffffffffff1673ffffffffffffffffffffffffffffffffffffffff168152602001908152602001600020819055506105e882600260008673ffffffffffffffffffffffffffffffffffffffff1673ffffffffffffffffffffffffffffffffffffffff16815260200190815260200160002054610ca490919063ffffffff16565b600260008573ffffffffffffffffffffffffffffffffffffffff1673ffffffffffffffffffffffffffffffffffffffff168152602001908152602001600020819055508273ffffffffffffffffffffffffffffffffffffffff168473ffffffffffffffffffffffffffffffffffffffff167fddf252ad1be2c89b69c2b068fc378daa952ba7f163c4a11628f55a4df523b3ef846040516106889190610e9b565b60405180910390a3600190509392505050565b601281565b60006106b782600354610ca490919063ffffffff16565b60038190555061070f82600260008673ffffffffffffffffffffffffffffffffffffffff1673ffffffffffffffffffffffffffffffffffffffff16815260200190815260200160002054610ca490919063ffffffff16565b600260008573ffffffffffffffffffffffffffffffffffffffff1673ffffffffffffffffffffffffffffffffffffffff168152602001908152602001600020819055508273ffffffffffffffffffffffffffffffffffffffff167f0f6798a560793a54c3bcfe86a93cde1e73087d944c0ea20544137d4121396885836040516107989190610e9b565b60405180910390a28273ffffffffffffffffffffffffffffffffffffffff16600073ffffffffffffffffffffffffffffffffffffffff167fddf252ad1be2c89b69c2b068fc378daa952ba7f163c4a11628f55a4df523b3ef846040516107fe9190610e9b565b60405180910390a36001905092915050565b6000600260008373ffffffffffffffffffffffffffffffffffffffff1673ffffffffffffffffffffffffffffffffffffffff168152602001908152602001600020549050919050565b60008060019054906101000a900473ffffffffffffffffffffffffffffffffffffffff1673ffffffffffffffffffffffffffffffffffffffff163373ffffffffffffffffffffffffffffffffffffffff16146108b457600080fd5b60008054906101000a900460ff16156108cc57600080fd5b60016000806101000a81548160ff0219169083151502179055507fae5184fba832cb2b1f702aca6117b8d265eaf03ad33eb133f19dde0f5920fa0860405160405180910390a16001905090565b60008060019054906101000a900473ffffffffffffffffffffffffffffffffffffffff16905090565b600060019054906101000a900473ffffffffffffffffffffffffffffffffffffffff1681565b6040518060400160405280600a81526020017f4c6971756964697461730000000000000000000000000000000000000000000081525081565b60008073ffffffffffffffffffffffffffffffffffffffff168373ffffffffffffffffffffffffffffffffffffffff16036109db57600080fd5b600260003273ffffffffffffffffffffffffffffffffffffffff1673ffffffffffffffffffffffffffffffffffffffff16815260200190815260200160002054821115610a5d576040517f08c379a0000000000000000000000000000000000000000000000000000000008152600401610a54906110b5565b60405180910390fd5b610aaf82600260003273ffffffffffffffffffffffffffffffffffffffff1673ffffffffffffffffffffffffffffffffffffffff16815260200190815260200160002054610c7d90919063ffffffff16565b600260003273ffffffffffffffffffffffffffffffffffffffff1673ffffffffffffffffffffffffffffffffffffffff16815260200190815260200160002081905550610b4482600260008673ffffffffffffffffffffffffffffffffffffffff1673ffffffffffffffffffffffffffffffffffffffff16815260200190815260200160002054610ca490919063ffffffff16565b600260008573ffffffffffffffffffffffffffffffffffffffff1673ffffffffffffffffffffffffffffffffffffffff168152602001908152602001600020819055508273ffffffffffffffffffffffffffffffffffffffff163273ffffffffffffffffffffffffffffffffffffffff167fddf252ad1be2c89b69c2b068fc378daa952ba7f163c4a11628f55a4df523b3ef84604051610be49190610e9b565b60405180910390a36001905092915050565b6000600160008473ffffffffffffffffffffffffffffffffffffffff1673ffffffffffffffffffffffffffffffffffffffff16815260200190815260200160002060008373ffffffffffffffffffffffffffffffffffffffff1673ffffffffffffffffffffffffffffffffffffffff16815260200190815260200160002054905092915050565b600082821115610c9057610c8f6110d5565b5b8183610c9c9190611133565b905092915050565b60008183610cb29190611167565b905082811015610cc557610cc46110d5565b5b92915050565b60008115159050919050565b610ce081610ccb565b82525050565b6000602082019050610cfb6000830184610cd7565b92915050565b600081519050919050565b600082825260208201905092915050565b60005b83811015610d3b578082015181840152602081019050610d20565b60008484015250505050565b6000601f19601f8301169050919050565b6000610d6382610d01565b610d6d8185610d0c565b9350610d7d818560208601610d1d565b610d8681610d47565b840191505092915050565b60006020820190508181036000830152610dab8184610d58565b905092915050565b600080fd5b600073ffffffffffffffffffffffffffffffffffffffff82169050919050565b6000610de382610db8565b9050919050565b610df381610dd8565b8114610dfe57600080fd5b50565b600081359050610e1081610dea565b92915050565b6000819050919050565b610e2981610e16565b8114610e3457600080fd5b50565b600081359050610e4681610e20565b92915050565b60008060408385031215610e6357610e62610db3565b5b6000610e7185828601610e01565b9250506020610e8285828601610e37565b9150509250929050565b610e9581610e16565b82525050565b6000602082019050610eb06000830184610e8c565b92915050565b600080600060608486031215610ecf57610ece610db3565b5b6000610edd86828701610e01565b9350506020610eee86828701610e01565b9250506040610eff86828701610e37565b9150509250925092565b600060ff82169050919050565b610f1f81610f09565b82525050565b6000602082019050610f3a6000830184610f16565b92915050565b600060208284031215610f5657610f55610db3565b5b6000610f6484828501610e01565b91505092915050565b610f7681610dd8565b82525050565b6000602082019050610f916000830184610f6d565b92915050565b60008060408385031215610fae57610fad610db3565b5b6000610fbc85828601610e01565b9250506020610fcd85828601610e01565b9150509250929050565b7f46726f6d20646f65736e2774206861766520656e6f7567682062616c616e6365600082015250565b600061100d602083610d0c565b915061101882610fd7565b602082019050919050565b6000602082019050818103600083015261103c81611000565b9050919050565b7f6d73672e73656e64657220646f65736e2774206861766520656e6f756768206260008201527f616c616e63650000000000000000000000000000000000000000000000000000602082015250565b600061109f602683610d0c565b91506110aa82611043565b604082019050919050565b600060208201905081810360008301526110ce81611092565b9050919050565b7f4e487b7100000000000000000000000000000000000000000000000000000000600052600160045260246000fd5b7f4e487b7100000000000000000000000000000000000000000000000000000000600052601160045260246000fd5b600061113e82610e16565b915061114983610e16565b925082820390508181111561116157611160611104565b5b92915050565b600061117282610e16565b915061117d83610e16565b925082820190508082111561119557611194611104565b5b9291505056fea26469706673582212206b34c04f49d3bcf0d5a1c097668c9628ea94d6945a6fd8ddb601b9b32b4319c864736f6c63430008110033",
  "immutableReferences": {},
  "source": "// SPDX-License-Identifier: MIT\npragma solidity ^0.8.17;\n\nimport \"./ERC20.sol\";\n\ncontract SolarisCoin {\n\n    ERC20 erc20Instance;\n    address owner;\n\n    event GetSC(address to, uint256 amount);\n    event CheckSCBalance(uint256 balance);\n\n    constructor() public {\n        erc20Instance = new ERC20();\n        owner = msg.sender;\n    }\n\n    function getSC() public payable {\n        require(msg.value >= 1E16, \"At least 0.01 ETH is needed to get 1 SC!\");\n\n        uint256 amount = msg.value / 1E16;\n        erc20Instance.mint(msg.sender, amount);\n\n        emit GetSC(msg.sender, amount);\n    }\n\n    function checkSCBalance(address sender) public returns(uint256) {\n        uint256 balance = erc20Instance.balanceOf(sender);\n\n        emit CheckSCBalance(balance);\n\n        return balance;\n    }\n\n    function transferSC(address from, address to, uint256 amount) public {\n        erc20Instance.transferFrom(from, to, amount);\n    }\n}",
  "sourcePath": "/Users/alwin/Developer/Liquiditas/contracts/SolarisCoin.sol",
  "compiler": {
    "name": "solc",
    "version": "0.8.17+commit.8df45f5f.Emscripten.clang"
  },
  "schemaVersion": "3.4.11",
  "updatedAt": "2023-03-09T12:08:43.904Z",
  "devdoc": {
    "kind": "dev",
    "methods": {},
    "version": 1
  },
  "userdoc": {
    "kind": "user",
    "methods": {},
    "version": 1
  }
}