{
  "contractName": "WalletFeed",
  "abi": [
    {
      "inputs": [],
      "name": "getWalletValue",
      "outputs": [
        {
          "internalType": "uint256",
          "name": "",
          "type": "uint256"
        }
      ],
      "stateMutability": "view",
      "type": "function",
      "constant": true
    },
    {
      "inputs": [
        {
          "internalType": "uint256",
          "name": "walletValue",
          "type": "uint256"
        }
      ],
      "name": "setWalletValue",
      "outputs": [],
      "stateMutability": "nonpayable",
      "type": "function"
    }
  ],
  "bytecode": "0x608060405234801561001057600080fd5b50610150806100206000396000f3fe608060405234801561001057600080fd5b50600436106100365760003560e01c8063b0f4d6251461003b578063d06fd86214610059575b600080fd5b610043610075565b60405161005091906100a1565b60405180910390f35b610073600480360381019061006e91906100ed565b61007e565b005b60008054905090565b8060008190555050565b6000819050919050565b61009b81610088565b82525050565b60006020820190506100b66000830184610092565b92915050565b600080fd5b6100ca81610088565b81146100d557600080fd5b50565b6000813590506100e7816100c1565b92915050565b600060208284031215610103576101026100bc565b5b6000610111848285016100d8565b9150509291505056fea2646970667358221220109f9d838b4f8ae21a360659e6e556fbe1949c30feb91c4edddde7908d295c0e64736f6c63430008110033",
  "immutableReferences": {},
  "source": "pragma solidity ^0.8.7;\n\ncontract WalletFeed {\n    uint256 fakeRandomNumber;\n\n    // returns simulated value of wallet\n    function getWalletValue() public view returns (uint256) {\n        return fakeRandomNumber;\n    }\n\n    function setWalletValue(uint256 walletValue) public {\n        fakeRandomNumber = walletValue;\n    }\n\n}",
  "sourcePath": "/Users/alwin/Developer/Liquiditas/contracts/WalletFeed.sol",
  "compiler": {
    "name": "solc",
    "version": "0.8.17+commit.8df45f5f.Emscripten.clang"
  },
  "schemaVersion": "3.4.11",
  "updatedAt": "2023-03-22T04:44:05.351Z",
  "networkType": "ethereum",
  "devdoc": {
    "kind": "dev",
    "methods": {},
    "version": 1
  },
  "userdoc": {
    "kind": "user",
    "methods": {},
    "version": 1
  }
}